:02000000ff00ff
:080002004c6174746963650030
:17000a00694345637562653220323032302e31322e32373934330071
:15002100506172743a2069434534305550354b2d53473438002c
:1b003600446174653a204e6f7620313720323032342031353a35343a33350069
:0200510000ffae
:040053007eaa997e6a
:02005700510056
:0200590001059f
:03005b00920020f0
:03005e006202b388
:03006100720150d9
:0300640082000017
:02006700110086
:02006900010193
:20006b00000000000000000000000010000000000000400000000000010000000000000420
:20008b000000000000001000000000000040000000001000000000000040000000000001b4
:1600ab0000000000000004000000000000100000000000004000eb
:2000c1000000000000000000000000020000000000000800000000000020000000000000f5
:2000e10080000000000002000000000000080000000002000000000000080000000000006b
:1701010020000000000000800000000000020000000000000800003d
:200118000000000000000000000000000000000000000000000000000000000000000000c7
:200138000000000000000000000000000000000000000000000000000000000100000000a6
:16015800000000000000000000000000000000000007000000008a
:20016e00000000000000000000000000000000000000000000000000000000000000000071
:20018e00000000000000000000000000000000000000000000000000000000000000000051
:1701ae001000000000000000000000000000000000008000000000aa
:2001c50000000000000000000000000000000000000000000000000000000000000000001a
:2001e5000000000000000000000000000000000000000000000000000000000000000000fa
:1602050000000000000000000000000000000000000000000000e3
:20021b000000000000000000000000000000000000000000000000000000000000000000c3
:20023b000000000000000000000000000000000000000000000000000000000000000100a2
:17025b0000000000000000000000000000000000000000000000008c
:2002720000000000000000000000000000000000000000000000000000000000000000006c
:20029200000000000000000000000d00000000000000000000000000000000020000040039
:1602b2000000000000000000000000000000000000000000000036
:2002c800000000000000000000000000000000000000000000000000000000000000000016
:2002e8000000000000000000000000000000000000000000000000000000000000000000f6
:170308000000000000000000000000000000000000000000000000de
:20031f000000000000000000000000000000000000000000000000000000000000000000be
:20033f000000000000401000000000000000000000401000000000010040000000000800b5
:16035f000000000000000000000000000000000000000000000088
:20037500000000000000000000000000000000000000000000000000000000000000000068
:20039500000000000000000000000000000000000000000000000000000000000000000048
:1703b500000000000000000000000000000000000000000000000031
:2003cc00000000000000000000000000000000000000000000000000000000000000000011
:2003ec00000000000000000000000000008000000000000000000000000000000000000071
:16040c000000000000000000000000000000000000000000c0001a
:200422000000000000000000000000000000000000000000000000000000000000000000ba
:20044200000000000000000000000000000400000000000000000000000000000000000096
:1704620000000000000000000000000000000000000000000400007f
:20047900000000000000000000000000000000000000000000000000000000000000000063
:20049900000010000000000000000000000000000000000000000000000000000000000033
:1604b900000000000000000000000000000000000000000000002d
:2004cf0000000000000000000000000000000000000000000000000000000000000000000d
:2004ef000000010000000000000000000000010000400000000400000000000000000000a7
:17050f000000000000000000000000000000000000000000000000d5
:200526000000000000000000000000000000000000000000000000000000000000000000b5
:20054600000000000040000000000000000000000040000000000003000000000000000012
:16056600000000000000000000000000000000000000000000007f
:20057c0000000000000000000000000000000000000000000000000000000000000000005f
:20059c0000000000000000000000000000000000001000000000000000000000000000002f
:1705bc00000000000000040000000000000000000000000000000024
:2005d300000000000c302000000000000000000000000000000000000000000000000000ac
:2005f3000000000000000000000000000000000000000000000000000000000000000000e8
:1606130000000000000000000000000000000000000000000000d1
:200629000000000000c30000000000000000000000000000000000000000000000000000ee
:20064900000000000000000000000000000000000000000000000000000000000000000091
:1706690000000000000000000000000000000000000000000000007a
:20068000000000000c302000000000000000000000000000000000000000000000000000fe
:2006a00000000000000000000000000000000000000000000000000000000000000000003a
:1606c0000000000000000000000000000000000000000000000024
:2006d6000000000000c3000000000000000000000000000000000000000000000000000041
:2006f6000000000000000000000000000000000000000000000000000000000000000000e4
:170716000000000000000000000000000000000000000000000000cc
:20072d00000000000c30200000000000000000000000000000000000000000000000000050
:20074d0000000000000000000000000000000000000000000000000000000000000000008c
:16076d000000000000000000000000000000000000000000000076
:200783000000000000c3000000000000000000000000000000000000000000000000000093
:2007a300000000000000000000000000000000000000000000000000000000000000000036
:1707c30000000000000000000000000000000000000000000000001f
:2007da00000000000c302000000000000000000000000000000000000000000000000000a3
:2007fa000000000000000000000000000000000000000000000000000000000000000000df
:16081a0000000000000000000000000000000000000000000000c8
:200830000000000000c30000000000000000000000000000000000000000000000000000e5
:20085000000000000000000000000000000000000000000000000000000000000000000088
:17087000000000000000000000000000000000000000000000000071
:20088700000000000c302000000000000000000000000000000000000000000000000000f5
:2008a700000000000000000000000000000000000000000000000000000000000000000031
:1608c700000000000000000000000000000000000000000000001b
:2008dd000000000000c3000000000000000000000000000000000000000000000000000038
:2008fd000000000000000000000000000000000000000000000000000000000000000000db
:17091d000000000000000000000000000000000000000000000000c3
:20093400000000000c30200000000000000000000000000000000000000000000000000047
:20095400000000000000000000000000000000000000000000000000000000000000000083
:16097400000000000000000000000000000000000000000000006d
:20098a000000000000c300000000000000000000000000000000000000000000000000008a
:2009aa0000000000000000000000000000000000000000000000000000000000000000002d
:1709ca00000000000000000000000000000000000000000000000016
:2009e100000000000c3020000000000000000000000000000000000000000000000000009a
:200a01000000000000000000000000000000000000000000000000000000000000000000d5
:160a210000000000000000000000000000000000000000000000bf
:200a37000000000000c30000000000000000000000000000000000000000000000000000dc
:200a570000000000000000000000000000000000000000000000000000000000000000007f
:170a7700000000000000000000000000000000000000000000000068
:200a8e00000000000c302000000000000000000000000000000000000000000000000000ec
:200aae00000000000000000000000000000000000000000000000000000000000000000028
:160ace000000000000000000000000000000000000000000000012
:200ae4000000000000c300000000000000000000000000000000000000000000000000002f
:200b04000000000000000000000000000000000000000000000000000000000000000000d1
:170b24000000000000000000000000000000000000000000000000ba
:200b3b00000000000c3020000000000000000000000000000000000000000000000000003e
:200b5b0000000000000000000000000000000000000000000000000000000000000000007a
:160b7b000000000000000000000000000000000000000000000064
:200b91000000000000c3000000000000000000000000000000000000000000000000000081
:200bb100000000000000000000000000000000000000000000000000000000000000000024
:170bd10000000000000000000000000000000000000000000000000d
:200be800000000000c30200000000000000000000000000000000000000000000000000091
:200c08000000000000000000000000000000000000000000000000000000000000000000cc
:160c280000000000000000000000000000000000000000000000b6
:200c3e000000000000c30000000000000000000000000000000000000000000000000000d3
:200c5e00000000000000000000000000000000000000000000000000000000000000000076
:170c7e0000000000000000000000000000000000000000000000005f
:200c9500000000000c302000000000000000000000000000000000000000000000000000e3
:200cb50000000000000000000000000000000000000000000000000000000000000000001f
:160cd50000001000000000000000000000000000000000000000f9
:200ceb000000000000c3000000000000000000000000000000000000000000000000000026
:200d0b000000000000000000000000000000000000000000000000000000000000000000c8
:170d2b000000000000000000000000000000000000000000000000b1
:200d4200000000000c30200000000000000000000000000000000000000000000000000035
:200d6200000000000000000000000000000000000000000000000000000000000000000071
:160d8200000000000000000000000000000000000000000000005b
:200d98000000000000c3000000000000000000000000000000000000000000000000000078
:200db80000000000000000000000000000000000000000000000000000000000000000001b
:170dd800000000000000000000000000000000000000000000000004
:200def00000000000c30200000000000000000000000000000000000000000000000000088
:200e0f000000000000000000000000000000000000000000000000000000000000000000c3
:160e2f0000000000000000000000000000000000000000000000ad
:200e45000000000000c30000000000000000000000000000000000000000000000000000ca
:200e650000000000000000000000000000000000000000000000000000000000000000006d
:170e8500000000000000000000000000000000000000000000000056
:200e9c00000000000c302000000000000000000000000000000000000000000000000000da
:200ebc00000000000000000000000000000000000000000000000000000000000000000016
:160edc000000000000000000000000000000000000000000000000
:200ef2000000000000c300000000000000000000000000000000000000000000000000001d
:200f12000000000000000000000000000000000000000000000000000000000000000000bf
:170f32000000000000000000000000000000000000000000000000a8
:200f4900000000000c3020000000000000000000000000000000000000000000000000002c
:200f6900000000000000000000000000000000000000000000000000000000000000000068
:160f89000000000000000000000000000000000000000000000052
:200f9f000000000000c300000000000000000000000000000000000000000000000000006f
:200fbf00000000000000000000000000000000000000000000000000000000000000000012
:170fdf000000000000000000000000000000000000000000000000fb
:200ff600000000000c3020000000000000000000000000000000000000000000000000007f
:201016000000000000000000000000000000000000000000000000000000000000000000ba
:1610360000000000000000000000000000000000000000000000a4
:20104c000000000000c30000000000000000000000000000000000000000000000000000c1
:20106c00000000000000000000000000000000000000000000000000000000000000000064
:17108c0000000000000000000000000000000000000000000000004d
:2010a300000000000c302000000000000000000000000000000000000000000000000000d1
:2010c3000000000000000000000000000000100000000000000000000000000000000000fd
:1610e30000000000000000000000000000000000000000000000f7
:2010f9000000000000c3000000000000000000000000000000000000000000000000000014
:20111900000000000000000000000000000000800000000000000000000000000000000036
:1711390000000000000000000000000000000000000000000000009f
:20115000000400000c3020000000000000000000000000000000000000000000000000001f
:2011700000000000000000000000000000000000000000000000000000000000000000005f
:161190000000000000000000000000000000000000000400000045
:2011a6000000800000c30000000000000000000000000000000000000000000000000000e6
:2011c600000000000000000000000000000000000000000000000000000000000000000009
:1711e60000000000000000000000000000000000000003800000006f
:2011fd00000000000c30200000000000000000000000000000000000000000000000000076
:20121d000000000000000000000000000000000000000000000000000000000400000000ad
:16123d00000000000000000000100000000000000a00037e0a00f6
:201253000000000000c30000000000000000000000000000000000000000000000000000b8
:2012730000000000000000000000000000000000000000000000000000000000400000001b
:17129300000000000000000000020000000000000000002600f0002c
:2012aa00000000000c302000000000000000000000000000000000000000000000000000c8
:2012ca00000000000000000000000000000000000000000000000000000000000000000004
:1612ea0000000000000000000000000000000000000000000000ee
:201300000000000000c300000000000000000000000000000000000000000000000000000a
:201320000000000000000000000000000000000000000000000000000000000000000000ad
:1713400000000000000000000000000000000000000002c0000000d4
:20135700000000000c3020000000000000000000000000000000000000000000000000001a
:201377000000000000000000000000000000000000000000000080000000000000000000d6
:161397000000000000000000000000000000000000000000000040
:2013ad000000000000c300000000000000000000000000000000000000000000000000005d
:2013cd000000000000000000000000000000000000000000000010000000000000000000f0
:1713ed000000000000000000000000000000000000000000000000e9
:20140400000000000c3020000000000000000000000000000000000000000000000000006c
:201424000000000000000000000000000000000000000000000000000000000000000000a8
:161444000000100000000000000000000000000000000000000082
:20145a000000000000c30000000000000000000000000000000000000000000000000000af
:20147a00000000000000000000000000000000000000000000000000000000000000000052
:17149a00000001000000000000000000000000000002c00000000078
:2014b100000000000c302000000000000000000000000000000000000000000000000000bf
:2014d1000000000000000000000000000000000000000000000000000000000000000000fb
:1614f100000000000000000000000000000000000000021e500075
:201507008000000000c3000000000000000000000000000000000000000000000000000081
:201527000000000000000000000000000000000000000000000000000000000000000000a4
:17154700000000000000000000000000000000000000000c0a0080f7
:20155e00000000000c302000004000000000000000000000000000000000000000000000d1
:20157e0000000000000000000000000000000000000000000000000000000000000000004d
:16159e000000000000000000000000000000000000000000000037
:2015b4000000000000c3000000000000000000000000000000000000000000000000000054
:2015d4000000000000000000000000000000000000000000000000000000000000000000f7
:1715f40000000000000000000000000000000000000140000000009f
:20160b00000000000c30200000000000000000000000000000000000000000000000000063
:20162b0000000000000000000000000000000000000000000000000000000000000000009f
:16164b00000000000001ef04000020000000000000000000000075
:201661000000000000c3000001b0f000000000000000000000000000000000000000000005
:20168100000000000000000000000000000000000000000000000000000000000000000049
:1716a10000000000000000f0600001000000000000000000000000e1
:2016b800000000000c30238000000000000000000000000000000000000000000000000033
:2016d8000000400000000000000000000000000000000000000000000000000000000000b2
:1616f8000000e01000000000000000000000000e00007800000066
:20170e000000000000c30020000000000000000000000000000000000000000000000000d8
:20172e0000000000000000000000000000000000000000000000000000000000000000009b
:17174e000000080000000000000000000000000080000000000000fc
:20176500000000000c30200008000000000000000000000000000000000000000000000000
:20178500000000000000000000000000000000000033a94800000000000000000000000020
:1617a5000000c00000000000000000000000000c00000000000062
:2017bb000000000000c30000007000000000000000000000000000000000000000000000db
:2017db0000000000000000000000000000000000000b02a800000000000000000000000039
:1717fb00000004000000000000000000000000004000000000000093
:20181200000000000c3020000000000000000000000000000000000000000000000000005a
:20183200000000000000000000000000000000000000000000000000000000000000000096
:161852000000000000000000000000000000000000000000000080
:201868000000000000c300000000000000000000000000000000000000000000000000009d
:20188800000000000000000000000000000000000000000000000000000000000000000040
:1718a800000000000000000000000000000000000000000000000029
:2018bf00000000000c302000001c5334d040000000000000000000000000000000000000fa
:2018df000000000000000000000000000000000101000000000000000000000000000000e7
:1618ff0000000000000000000002800000000000001c0000000035
:201915000000000000c30000400009628501000000000000000000000000000000000000be
:2019350000000000000000000000000000000000088000000000000000000000000000000a
:1719550000000010003400000000000000000000010023c000000053
:20196c00000000000c302000000000000000000000000000000000000000000000000000ff
:20198c0000000020000000000000000000000000000000000000000000000000000000001b
:1619ac000000000000000000000000000000000000000400000021
:2019c2000000000000c3000000000000000000000000000000000000000000000000000042
:2019e2000000000500000000000000000000000000000000000000000000000000000000e0
:171a02000000000000000000000000000000000000000200000000cb
:201a1900000000000c30200000000000000000000000000000000000000000000000000051
:201a390000000000000000000000000000000020000000000000000000000000000000006d
:161a59000000000000000000000000000000000000007ad80540e0
:201a6f008000000000c3000000000000000000000000000000000000000000000000000014
:201a8f0000000000000000000000000000000005b000000000000000000000000000000082
:171aaf00000000000000000000000000000000000000002df8b480c7
:201ac600000000000c3021040000000000000000000000000000000000000000000000009f
:201ae6000000000000000000000000000000000000000000000000000000000000000000e0
:161b06000000410000000000000000000000000410000000000074
:201b1c000000000000c30000000000000000000000000000000000000000000000000000e6
:201b3c00000000000000000000000000000000000000000000000000000000000000000089
:171b5c00000000000c00000000000000000000000000000000000066
:201b7300000000000c302000080e063c10000000000000000000000000000000000000008e
:201b9300000000000000000000000000000040000f000000000000000000000100000000e2
:161bb3000000000000000000000008185b03e0000c0000000000b2
:201bc9000000000000c3100000110043c10000000000000000000000000000000000000014
:201be9000000000000000000000000000000000000f00000000000000000000000000000ec
:171c0900000000000000000000000010d0603c000000000000000048
:201c2000000000000c302380001e000000000000000000000000000000000000e0000000c7
:201c40000000000000000000000000000000000000b23d4800000000000000380000000015
:161c60000000e00000400000000009999816a00e00000000000050
:201c76000000000000c310200001000000000020000000000000000000000000000000003a
:201c960000000000000000000000000000000000000b42800100000000000002000000005e
:171cb60000000800002c000000000010afb29400800000000000005e
:201ccd00000000000c302000000086a8100000000400000000000000000000000000000059
:201ced000000400000000000000000000000400000172948014000380000003000000bf229
:161d0d009540c00000400000000000085016a0000000600000007d
:201d23000000000000c3010000000b01410400000280000000000000000000000000000009
:201d430000000400000000000000000000000200000bc2a800000004000000000000007889
:171d63002a90000000380000000000b10736940000000000000000f5
:201d7a00000000000c3020000800000000002020680000000000000000000000000000003d
:201d9a000000500000000000000000000000000000000000000000000000000000800bba94
:161dba008140000000000000000008013b83e000000000ea0a4077
:201dd0000000000000c300400070000000001001400000000000000000000000000000002f
:201df00000000280000000000000000000000000000000000000000000000000000d003410
:171e10003d500000240000000000005080e43c000000001d0a0410df
:201e2700000000000c30300000008228104000000000000000000000000000000000000035
:201e4700000000000000000000000000000000080100000000000000000000000000100062
:161e67000000000003cdaa540000019bb856a0000000000000004d
:201e7d000000000000c3000040000b414100000000000000000000000000000010000000a5
:201e9d0000000040000000000000000000000040d0800000000100000000000004000f0041
:171ebd0000000010007ae0aa400040f087a2940001000000000000cc
:201ed400000000000c30300000000000000000000000000000000000000000000000000082
:201ef400000000000000000000000000000000000c000000000006035ca5200000b8800060
:161f140000000000003f8a060000080a32c3e0000e2000000000d3
:201f2a000000000000c300000000a000000000000000000000000000000000000000000034
:201f4a000000000000000000000000000000000000000000000001c00e0aa200000f80006d
:171f6a0000000002003970f5400000f1b0603c000022c00000000061
:201f8100000000000c30a0000000000000000000035a0a00000000000000000000000000fd
:201fa100000004000000000000000000000040000000000000000000000000004000e5f2c5
:161fc100950401200035aa54000401095bc3e00010000000000001
:201fd7000000000000c30000000000000000000000360000000000000000000000000000f1
:201ff70000000000000000000000000000000000000000000000000000000000000010b00a
:172017002a9000000002e0aa40000009f0fc3c000000c0000000003b
:20202e00000000000c3029040000172810400000000000000000000000000001c0000000d9
:20204e0000000400000000000000000000000400000000000010000000000010407000009a
:16206e0000004100070000000004010a1743e00450000000000077
:202084000000000000c30000000000428100000000000000000000000000000000000000b6
:2020a40000000000000000000000000000000000000000000000000000000000000000001c
:1720c400000000400040000000000008f0a43c000a000000000000a3
:2020db00010000278c30200003095b741000003c04000000000000000000000000000000b6
:2020fb00000000000000000000000000000000800000000000000000000000000000100035
:16211b00000000116024a030000001983703e000000c000000008a
:202131000010000370c310000009e93f6900000142800000000000000000000000000000db
:202151000000000000000000000000000000000000900000000000038000000000000a0051
:17217100000000008c00db870000003090a43c110000600000000058
:2021880000000701ac302380000e578698000000685a5f0004000000000000000000000008
:2021a80000000000000000000000000000038003800000000000200000000038008007b37f
:1621c800d500e000020eafc0100009019816a00e000001cbf80093
:2021de000000004010c310200001016569200003400205f0000000000000000000800000f4
:2021fe000000000000000000000000000000200008000000000000400000000202050078d8
:17221e002810080000405b7800000018fba294008000003ff7a000b7
:20223500000000018c30280805005af410000014045adf02000000100000000000000000d6
:20225500000000000000000000000000000300070000000000000005cca5003002000b3a72
:162275009540c00006400000000180013016a00c001e6000000086
:20228b000000000010c300400008997f6904000023c50ff00000000a0000000000000000a2
:2022ab00000000000000000000000000000030000800000000000003ae0aa100000000106f
:1722cb002a90000000380000000000b0e73694000000200000000089
:2022e20001000701ac302000000000000000001604000000000000000000000000000000bd
:202302000000000000000000000000000000000000000000000000600000000100700000ea
:1623220000000000003def54000000001383e0000e003a5aa0402d
:202338000000004010c3004000b0f000000000000280000000000000000000000000000010
:202358000000000000000000000000000000000000000000000000000000000020008900bc
:1723780000000000240240504000000000643c00000003350fa400cd
:20238f00000000000c3020000100000000000000385af70000000010000000000000000038
:2023af0000000000000000000000000000002900001fbd5000000e07cca5000000780dbaf4
:1623cf00950000000780000000000f9f5643e000000000000000b5
:2023e5000000000000c30040000800000000000000059ff00000000f00000000000000002a
:20240500000000000000000000000000000002000009428180080022040aa004000900582c
:172425002a900000004000000000007080203c00000000000000005a
:20243c00000000000c3024000000fa74d000000003faf7220400001bb33c020000000000bc
:20245c000000530000000000000000000000000018000000000000040000000000000000f1
:16247c000000000000000000000001097f83e0000e000000000050
:202492000000000000c30000000005fe8520000800260f300000000efef2c0100000000084
:2024b200000000800000000000000000000000000000000000000002000000000000000088
:1724d200000000003c00000000000209806c3c800000000000000004
:2024e900000000000c30200005085ef41000000000cbe70000000000000000000000000056
:20250900000000000000000000000000000000000e000000002220034ca510010280073a9a
:1625290095400000404daa04000001097bc3e00000003000000034
:20253f000000000000c300400001097f6900000000178ef0000000000000000000000000f2
:20255f000000000000000000000000000000020001000000000402c3ae0aa0000003089895
:17257f002a9000004039e0f540000009f0f43c000000038000000051
:2025960000000001ac302100001cf3abd00200003800000000000010000000000000000053
:2025b600000000000000000000000000000100000192a8040000000168a018100000e000b4
:1625d600000040004004ea5400000508304020040100004aa04061
:2025ec000000000010c3080010008981698000800400000000000009000000000000000064
:20260c000000000000000000000000000000000000ab83e8010000000f0f500040001000d9
:17262c00000000000203c055400000f9b0380000000003440fa40062
:2026430000000055ec302000000000000000000002cefe0000000000000000000000000018
:20266300000000000000000000000000000008000056a9440000b600000000000001e00075
:16268300000000016004f0300000018070002000000028dff800ac
:202699000010243250c3100000000000000000000035eff000000000000000000000000084
:2026b9000000000000000000000000000000010000030154400003c30000000000000000a2
:1726d900000000000003cc87000000d8003800100000002cb7a000f1
:2026f00000000017cc3020000000b3ce0000000001ea4a02000400000000000000000000db
:202710000000400000000000000000000000000001d6a8040e0000015ca560380001efb29c
:162730009500e004031dcfc00408051c50002000000068db430048
:202746000000000000c3100000000d68f0000020002d0000000000000000000000000000ee
:202766000000000000000000000000000000000000f503d4008000001e055482000010fc02
:172786002a90080080006e7800000009b0a800000000000fe850006c
:20279d000002400cec32200000000000000000207800000000000007e97c0000000000008c
:2027bd00000000000000000000000000000000099f56a9400402007000000030101000004f
:1627dd000000c000000000000000080f50002000a400036ecb00bf
:2027f3000000260020c30000000000000000000044000000000000000017c00000000000a2
:20281300000000000000000000000000000000011087815404400004000000000000800070
:17283300000000000000000000003850b0b000000000002df5b000d4
:20284a0001104645ac32200000000000000001007800000001380000000000000000000022
:20286a0000000000000000000000000000000007009fa80800000000000000000001e532e0
:16288a009500000403800000000800003800200000043800000080
:2028a0000000806410c300000070f000000000800400000000288b000000000000000000ca
:2028c00000000000000000000000000000000000d80583d4000000000000000000000cf4c4
:1728e0002a9800008040000000000000002000000003c3c0000000b9
:2028f7000000020cec322000080000000000000c22ca500000000000000000000000000025
:20291700000000000000000000000000000000230cb3020000000000000000000000b1bb50
:16293700d5000000000000000002880138002000001c02e830009c
:20294d000000004030c300000050000000000000341e000000000000000000000000000095
:20296d0000000000000000000000000000000000b90fbc00000060000000000000001eb890
:17298d00281040044000000000028090a0b400000000c2bdc780004b
:2029a40002000005ec322001000000000000000000000000000000000000000000000000cd
:2029c400000010000000000000000000000000000bbf2000800000005ca54000007005b211
:1629e40095000003e037ea540000081a10402000000c021e5029b9
:2029fa000040040010c3000000000000000000200000000000000000000000000000000086
:202a1a0000000080000000000000000000000000508b400000000340040aa404002980bca3
:172a3a002a9010002603f05540000050002400000000227c0a000ce5
:202a51000000004dac322000000e00000000015e04000000000000000000000000000000a9
:202a710000000000000000000000000000000083087b82000004200000000000000005f2a2
:162a91008104100007a7ca0400000d8018402000001e7b785b00ad
:202aa7000000043c30c3000000010000000000002280000000000000000000000000000039
:202ac7000000000000000000000000000000000101d36c00000000c000000000001d0db80c
:172ae7003d5001001c03e0f5400000500024000000e02717ee7080a6
:202afe0000000200ac302000000000000000000400000000000000000000000000000000b6
:202b1e00000003000000000000000000000000030c0000000400000000000010000093b22c
:162b3e009504400007c0000000000000023c0000009c71dd340085
:202b54000000006000c3080000000000000000802000000000000100000000000000000095
:202b74000000000000000000000000000000000030000000000000000000000000000f946e
:172b94002a900000807c0000000000000003c0800011627faa400055
:202bab00000000000c302000079e12a800020000000000000000000000000000000000004d
:202bcb00000000100000000000000000000010a01e73828000400000faa500020071a000a5
:162beb00000000000037c5200000000c534d00000020705a0f8093
:202c01000010000000c310000000f0828000000800000000000000000000000000000000d6
:202c210000000000000000000000000000000000d0008028000003c00e0aa000180f000079
:172c4100000000000000ebc1004000910f7a90000000400380f00033
:202c5800000000000c30200000003a2800900000000000000000000000000004000000000a
:202c780000039028000000000000800000000005000000000000007c0000003800f803e26b
:162c98009500f000022ebf80038000007bb2c20e0c0001c850c0cd
:202cae004004000000c310000000014100000000000000000000000000000000a00000000d
:202cce0000002084700000000000140000000000900000000000000200000002100d8098f5
:172cee002a9048000040db7a006000000b696c008000002c005400f8
:202d0500000000000c30200000000000000000000000000000000000000000000000000052
:202d25000003000000000000000000000000100001d6a94040000064daa510300000000058
:162d45000000c000063eef5007100000000000000040654812c857
:202d5b000000000000c3000000f000000000000003c00000000000000000000000000000e2
:202d7b0000000000f000000000000000000000000081815440000003ac0aa0030000000056
:172d9b0000000c000002d0a0000238b0000000000000023e884400ad
:202db200000000000c302028100000000000000001ecf5000000000000000000000000008b
:202dd200000000000000000000000000000000080017000000003e075ea000000478000003
:162df200000000020021ca3420000000000000000006014850c823
:202e08000000000000c30001020000000000000000020f5000000000000000000000000083
:202e280000000000000000000000000000000000100b401400000143970f500000000000e1
:172e4800000000000425d0534000000000000000000002ae005400e3
:202e5f00000000000c3020000000000000000000035ef7020000000000000000000000009d
:202e7f00000000078000000000000000000010081c1f168ce004ee777808000005000000e9
:162e9f0000000200002faf500010079e00000000000069e850c0d7
:202eb5000000000000c300000800000000000003c02f0ff0800000000000000000000000c1
:202ed50000000000040000000000000000000000100f4094020000461780000000200000e7
:172ef500000000400002e0a0080238f0000000000000043c005480be
:202f0c00001000000c30200008000000000000000000000000000000000000000000000031
:202f2c00000000000000000000000000000000019883b9088000063a1fe200000050000097
:162f4c000000000063a1ca3420000818bfab40000000016850c109
:202f62000004800000c3000000540000000000080300000000000040000000000000000069
:202f82000000000000000000000000000000000070e303600000000394cd100400800f0072
:172fa200000000002466d053400000700b70f4000000002c005400cc
:202fb900000000000c3020000000000000000000000000000000000000000002000000009a
:202fd9000000000000b2a95400000000000001090d97c2000002003b5aa500410000816259
:162ff9008180001003c0000000000008b7548000000669e850c0f4
:20300f000000000000c300010000000000000000000000000000000000000000400000009d
:20302f0000000000000102a90000000000000001b9d7bc0000000000260aa0000800101090
:17304f003d50000a80200000000000010f7308000040043e00548052
:20306600001400000c30200050000000000000002400000000000000000000000000000066
:203086000001102000000000000000000000100b9dbb100080000e71dc08001000000de294
:1630a6009500400207bfca540108010813295004002065e850c03a
:2030bc000000000000c3000018000000000000800740000000000000000000000000000052
:2030dc0000000284000000000000000000000080b9cf00000000a0242fc000000000003063
:1730fc002a9000061c4270aa400000090902a9000000422e00548044
:20311300000000000c30200000000000000000000000000000000000000000000000000040
:20313300000000000100000000000000000000250017820000200001c850d0000001ef7a4a
:16315300818000000035c700000009995703e000000001c850c8ac
:203169000000000000c3000000000000000000000000000000000000000000000000000083
:203189000000000000e000000000000000000000d8016c0000040243840054200000187c2c
:1731a9003d5000062401f8a40002841080203c000000000c005440a9
:2031c000000000000c3020000000000000000000000000000000000000000000140000007f
:2031e00000038000000000000100000000038000000000000e000403c850c03800000000a3
:163200000000e000001caa50000007193383e00e000001c850c81d
:203216000000000000c30000000000000000000000000000000000000000000000000000d5
:2032360000002000000000000000000000002000000000000080002004005402000000003e
:17325600000008000002d0552000000080203c00800000140054004e
:20326d00000000000c302000000000000000000000000000000000000000000000000000e5
:20328d00000100001a00000000000000000301201800000004ce00654850c0100078133a66
:1632ad009500c0140240ce24200000007303e0010020654850c812
:2032c3000000000000c3000000000000000000000000000000000000000000000000000028
:2032e3000000100001000000000000000000100000000000004400020600540100008fb8c2
:173303002a901480806350d14000003000243c001003420e005400da
:20331a00000000000c3020298000000000020000000000000000000000000000000000008c
:20333a00000000000000000000000000000000000003bc18000006074850c0000000803384
:16335a004580000060000000000008007b83e0010006054850c8e6
:203370000000000000c3000120000000000000000000000000000000000000000000000059
:2033900000000000000000000000000000000000040003c100000002060054000000007287
:1733b000f890000200000000000000d000e43c000000021600540020
:2033c700000000000c30200000000000000200000000000000000400000000000000000084
:2033e700000000000000000000000000000001000100000000420001e850c0000091f7728f
:1634070081400001e3f5cf8000000f0d1fc3e000402001e850c18e
:20341d000000000000c3000000000000000000000000000000000000000000000a000000c2
:20343d000000000000000000000000000000000000e000000008600004005400001909505d
:17345d003e9000000271f8b500000071e0303c000803400c00540002
:20347400000000000c3020005000000000000000000000000000000000000000000000008c
:203494000000000000000000000000000000400000000000000000036850c0000070007b72
:1634b400910000000616aa5000000d0fb816a0000000016850c058
:2034ca000000000000c30000280000000000000000000000000000000000000000000000f7
:2034ea000000010000000000000000000000000000000000000000000400540000008037b2
:17350a00b61800000040d05520000018fbbe94040000001400548006
:20352100000000000c3020000000000000000000000000000000000000000000000000002e
:203541000000008000000000000000000000000580000000000026016850c0000000093a83
:16356100954000006000000000000b0f5b43e0000026016850c0e8
:203577000000000000c3000000000000000000001000000000000000000000000a00000057
:203597000000000000000000000000000000002900000000000000400600540000070ed864
:1735b7002a90000000000000000000f0c0643c000000400e005480d1
:2035ce00000000000c302000400000000000a1400000000000000000000000000000000060
:2035ee00000100000002bc1000000000000100000100000004002063e850c0100038e00045
:16360e0000004000400000000000031837c3e004002061e850c0b4
:203624000000000000c300001a0000000000000000000000000000000000000000000000a9
:2036440000000000000043c1800000000000000000e00000000000400600540000009800d0
:1736640000000000820000000000009900a43c0000004016005400aa
:20367b00000000000c312000000000000000000000000000000000000000000000000000d2
:20369b0000000000000683c00000000000000308195019b810000003c850c000001087728d
:1636bb009540000000400a56100009995f03e000000003c850c0b5
:2036d1000000000000c3000000000000000000000000000000000000000000000000000016
:2036f100000000000000403ca4000000000000809190a1990000a0001c0054400000805896
:173711002a90000c1c20405a4000001080203c100000001c00544019
:20372800000000000c31200000000000000000000000000000000000000000e000078000bd
:203748000000000000869d080000000000038009995225b04e008003c850c03800b8000051
:163768000000e000001c8aa4000021813783e00e000003c850c0fc
:20377e000000000000c30000300000000000000000000000000000000000000800004000f0
:20379e0000000000000d7ee0010000000000200099902659048004000c005402000d0000e0
:1737be0000000800000150a540000530b0e03c008000000c005410c5
:2037d500000000000c31200000000000000000000000000000000000000000000000000077
:2037f500000000000000000000000000000178018f5a25b00400003f4850c0300038e9632d
:16381500d50000120395cfe0000000007b03e0000000674850c84a
:20382b000000000000c30000000000000000000000000000000000000000000100003c007d
:20384b00000000000000000000100000000036280990265922ca60061e0054030000007898
:17386b002810400004005ea50000000000e43c000000021e00540033
:20388200000000000c312000000000000000000000000000000000000000000010000000b9
:2038a200000000001f0000000000000000002009995a25b210000607c850c0000071e9eabb
:1638c20081000000600003c03000081f1816a001a006074850c021
:2038d800000e000000c300000000000000000000000000000000000000000000008000007f
:2038f8000000000000a00000000000000000010099902659011000020e00540000001034ae
:173918003d5001000000003c000000d08f2694000000020e005480d1
:20392f00000000000c30a0000000000000000000000000000000000000000000000000009c
:20394f0000002800005ba8084000000000000080005a65b040200003e850c001007817f219
:16396f00954000000015c7f00028038db016a000000003e850e068
:203985000000000000c300000000000000000000000000000000004000000000000000001f
:2039a500000000280000c28000000000000000000000a2592004c0001c00540008000ed063
:1739c5002a90000000005ea500403808e73a94010000001c00540088
:2039dc00000000000c312000000000000001a040000000000000000000000000000040004d
:2039fc0000000000400000000000000000002800005a65b040001e036850c00000380db204
:163a1c00814000000295a48420000b8ed856a000001c036850c0f6
:203a32000000000000c3000000000000000010000000000000000000000000000000200081
:203a5200000000000000000000000000000001000000a259200080000c0054000000003424
:173a72003d500000000020484040189c0ba294000040000c005480b3
:203a8900000000000c3120000000000000000000000000000000000000000000000035800b
:203aa9005400000001000000000000000000008d807265b0000f26636850c00130308372ae
:163ac90095000014600000000000090c5856a0000026036850e0ba
:203adf000000000000c300000000000000000000100000000000000000000000000002f002
:203aff00af40000000e00000000000000000060050002659a20008401e00540000008870af
:173b1f002a90000080000000000000999fa694000000401e00540031
:203b3600000000000c31208000000000000000000000000000000000000000400000000052
:203b560000000000000000000000000000010280007265b004003e63e850c01000b8e87b7d
:163b760089004000000000000020071c3800200400bc63e850c0ba
:203b8c008000000000c30000000000000000000000000000000000000000000000000000d6
:203bac000000040000000000000000000000000000002659060000400e0054004007103641
:173bcc00345000000000000000040001f03800000010400e0054007f
:203be300010000218c312000000000000000000000000000000000000000000000000000c3
:203c030000000000000000000000000000000089995225b200000003c850c00000000f6dff
:163c2300c0400000004fc0300000080050402000000003c850c1b8
:203c39000010000140c3000000000000000000000000000000000000000000000000000057
:203c5900000000000000000000000000000000009990a259100000002c005440000000d780
:173c7900560000000033dd5a0002115000b800100000000c005440a9
:203c90000000e0000c312380000100000000000000000000008000000000000000000000d3
:203cb0000003800000073c102080000000038009995225ba0e000003c850c00280000000bd
:163cd0000000e008e02eef5000100f9a5840200e000003c850c14e
:203ce6000000000000c300203000d0000000000000000000000000000000000000000000db
:203d060000002000000043c100040000000020009990a259018000003c0054001000000010
:173d2600000008000203e050010080d800bc00008000001c00540044
:203d3d00000000018c31200000000000000000000000000000000000000000000000000088
:203d5d0000000000000000000000000000030000195a25b05c0000674850c00005000732a2
:163d7d00800148000021ee2420000001704020000000674850c87c
:203d93000000000000c3000000000000000004000000000000000000000000000000000049
:203db3000000000000000000001000000000320001902659044000022e00540002a000fc38
:173dd3003d4004400402d0d140000000e0b000000000020e0054003d
:203dea000100e0000c312000000000000000a040000000000000000000000000000000009b
:203e0a0000000000000000000040000000000009995a25ba000006074850c0000000a00078
:163e2a0000000000020000000000001c184020000026034850c863
:203e40000000000000c300000000000000000000100000000000000000000000000000008f
:203e60000000000000000000000a00000000000099902659001000023e00540000000a00e2
:173e8000000001000040000000000031002800001000401e005400cf
:203e9700000000000c312000000000000000000000000000000000000000000000000000ae
:203eb70000002000000000000000000000000000005a65b060a00003e850c00000008f6f63
:163ed700e0400e00004fccf000000500300020000000036850c0cc
:203eed000000000000c30000000000000000000000000000000000000000000000000000f2
:203f0d00000000000000000000000000000000000000a25920000003ac005400000010d78f
:173f2d005e80008c0023dd5a200000d8003000000000000c005480b1
:203f4400001000000c312000000000000000a0000000000000080000000000000000000048
:203f640000000000010000000000000000000000005a65b0300000076850c00000180f3abd
:163f840094020801e3c0000000002000104020000c80036850c04e
:203f9a000000800000c3000000000000000000a000000000000280000000000000000000a2
:203fba000000000000c0000000000000000000000000a25900000003fc00540000000e3497
:173fda002a800002027c000000000470002000000006c01c0054805c
:203ff100000000000c31200000000000000000000000000000000000000000000000000053
:204011000000002000000000000000000000006dce7265b0000126036850c0000171f000a9
:1640310000000000660000000000000018402000002603e85040fa
:204047000000000000c3000000000000000000001000000000018000000000000000000005
:204067000000000500000000000000000000040750002659060008402e005400402f880093
:17408700000000010040000000000400e0bc00000000400e0054801f
:20409e00020000000c3121000000063c1060a000000000000400000000000000000000004c
:2040be0000010000000000000000000000010000007265b004002067e850c00000000000d6
:1640de000000400407f7e2500003078a023c00040000040000007e
:2040f4000040000000c3000000000043c100000000000000000000000000000000000000a5
:204114000000040000000000000000000000000000002659a0000043fe00540000200000b3
:174134000000000600787a2c000400098003c0000002c2000000003c
:20414b0000c80036ac30200000005603c000000001da0f80000000000000000000000000d7
:20416b0000000850000000000000000000000009995225ba00000003c850c000000005b871
:16418b00c08000a0003fc4300000180e1016a0000000000000001f
:2041a10000114001e0c30000000000003c400000000000f02000000000000000000000007d
:2041c100000001000000000000000000000000009990a259100000001c00544000090a36b0
:1741e100294000001c01fb4a0000021005a2940000000000000000af
:2041f8000010079dac302000070000000001001601d80f8000000000000000e0000001cfc1
:2042180004000010000000000000000000038009995225ba4e000003c850c0380038000083
:164238000000e000c03ebfc003931008f214304e00000018f04099
:20424e000000ac4000c3000000000000000018a0238100f00000000000000008000000004d
:20426e00f04800020000000000000000000020009990a259008000003c005402018000001f
:17428e00000008000002dfb400208201090015008003c0000f050064
:2042a5000002401eec3020000800000000000000654c0f8000000000000000000000000015
:2042c50000002800000000000000000000034000195a25b84c0000674850c03000000fe2f2
:1642e5009500ca220600000000000719d204b2040000000c0f0075
:2042fb0000003e0000c300000010000000000000020200f00000000000000000000000009e
:20431b00000000000000000000000000000034000190265902c000021e005403000000d82d
:17433b00155004400c000000000000008da211000003400000f00043
:204352000100404eac30200000000000000000067d5a0f8001020000000000000000000051
:2043720000002000000000000000000000000009995a25b040a000034850c00000808000ff
:164392000000000206a5aa5400100189d2143200800400fabd007d
:2043a8000000003800c300000000000000000001c60300f0000840000000000000000000f8
:2043c8000000010000000000000000000000000099902659020400003e005400000b000089
:1743e8000000000e0440d0aa4002b0018980150004002014c1800464
:2043ff0000c04786cc302000000000000000001c31ee0f80000000000000000a0000000021
:20441f0000000020000000000001400000000000005a65b020000003e850c0000000000092
:16443f00000000000027af5000001000fa1430000007034caf00ee
:2044550000002e0030c300000000000000000000200100f000000000000000000000000015
:20447500000000040000000000000000000000000000a259200000001c005400000f000089
:174495000000000c003b40a0000000000d0015020000036c005010f6
:2044ac000000000f8c3020000000000000000040617e0f8000000000000000000000000057
:2044cc0000000000000000000000000000000300005a65b030000603e85040000000013775
:1644ec003c8008026221aa3420000000da143000000004ecfa105b
:204502000000242020c300001800000000000000000100f000002000000000000024000025
:20452200000000000000000000000000000000000000a259040000000c00a400000000f2d8
:1745420092c000401e40505340000000090015200003c2810fa0005c
:204559001000430cec3020030000000000000026016c0f8000000000000000000000000082
:204579000000001000000000000080000000280d9c7265b0000c26780000000000109000f0
:16459900000000000040000000000180da143020014000000000cc
:2045af0001003c6410c30000000000000000000043c300f000000000000000000000000082
:2045cf00000000000000000000001000000000005000265905000040000000000000180090
:1745ef000000000000380000000000000d80150000080000000000d3
:204606000003c01ccc30200000000000000000a03a015a800018000000000040000000008c
:2046260000000000000000000000010000010000007265b404003e00000000100000093a52
:1646460081004000624fead001400818fa1430240000000000006f
:20465c0000000c0020c3000000000000000000144404da50000000000000000000000000c9
:20467c000000000000000000000000100000000000002659210000624000000000000918ab
:17469c003d52000000795f3d000400100980150002000000000000af
:2046b300000000000c302000000000000000000001580f800000000000000000000014e0af
:2046d300f8000000000000000000000000000008195225b80000000000000000000000007f
:1646f300000000000000000000000000f21432000000015bf080ad
:204709000010000000c300000000000000000000000000f040000000000000000000000d80
:204729000f0000000000000000000000000000009190a25914000000000000000000000031
:174749000000000000000000000000000b0015101000000280f100a6
:20476000000000000c302000000000000000001c01ca0f80000000000000000000e655e04c
:20478000f8038000000000000000000000038000005225b20e0000000000003800000000ac
:1647a00000000a040040000003900000721432000020000996802b
:2047b6000000000000c300002800000000000000000100f000000000000000000002341fb2
:2047d6000f002000000000000000000000002000000026592480000000000002000000004f
:1747f6000000004080380000002200000f00150000024000d69110b5
:20480d00000000000c302003800000000000003e39c8f0800000000000000000026654c081
:20482d00f80000000003bc1020000000000110018f5a25b01000000000000030000005fa75
:16484d00950000040000000000000019d2143040000000c8f0a0f5
:204863000000000000c30000000000000000000060000f0004000000000000000604203e97
:204883000f000000000043c10000000000003080089026590400024000000000000000f005
:1748a3001552000080000000000000008b8015000000028000f01075
:2048ba00000000000c30202800000000000000002948fa8000000000000000000267559021
:2048da00f8000000000000000000000000000009805a25b21000000000000000018000007b
:1648fa000000000003b78fa2000041815214300000200009968026
:204910004000000000c30000000000000000000006fc00a004000000000000000004603e3c
:204930000f0000000000000000000000000000009800265900000000000000000029000018
:174950000000000e0043fc50000000008f80150200024300c69100f1
:20496700000000000c30200000000000000000000168f0800000000000000000000757900d
:20498700f800000000000000000000000000000000023c10200000000af048c000000000a8
:1649a70000000001e000000000008000fa143000001668c8f080a5
:2049bd000000000000c30000000400000000000000020f0004000000000000000000700e80
:2049dd000f000000000000000000000000000000000003c102000000000f040000000000d2
:1749fd000000000000000000000028000b0015200000000200f11038
:204a1400000000000c302000000000000000000039c8f080003800000000000001c057b0b5
:204a3400f8000000000000000000000000000000000000000000000000000000000000006a
:164a54000000000400000000000000005a143000001629e8f0a1f2
:204a6a000000000000c30000180000000000000000020f0004000000000000000034341fb5
:204a8a000f00000000000000000000000000000000000000000000000000000000000000fd
:174aaa00000000a080000000000000008f0015200000000000f00021
:204ac100000000000c30200000000000000000263ce8f0808000000000000000034297d093
:204ae100f80000000000000000000000000000000000000000000000000000000000e000dd
:164b0100000000000000000000000980da14302000000168f081fd
:204b17000000000000c30000000000000000000243c20f000000000000000000000e6c2cff
:204b37000f00000000900000000000000000000000000000000800000000000000001000a7
:174b57000000000000000000000000108b8015000000000200f00025
:204b6e00000000000c30200000000000000000000168f080000000000000000001471dd0bd
:204b8e00f80100000000000000000000000100000000000004000000000000100180000078
:164bae000000001000000000010008187a143020015469e8f0a0ac
:204bc4000000000000c30000000000000000000000020f000400000000000000061e6c3930
:204be4000f000000000000000000000000000000000000000000000000000000002b000077
:174c04000000000000380000000000100f8015000008000200f010a3
:204c1b00000000000c302000000000000000000001e8f080000050af22800002100014f00d
:204c3b00f80000000000000000000000000000000000000000000000000000000081ada390
:164c5b00e8800001e380000000000000f2143000000069e8f09070
:204c71004000000000c30000000000000000000000000f00440000905fd80010408000092d
:204c91000f040000000000000000000000000000000000000000000000000000000710be1b
:174cb1001400010000400000000000000d0015140000040200f1402a
:204cc800000000000c302000000000000000000001e8f080800050a76a0000e000029df0c7
:204ce800f8000000000000000000000000000000000000000000007800000000000000003c
:164d0800000000140000000003a05000f2143000800001e8f0807f
:204d1e000000000000c30000000000000000000000000f0000000090faf0800800006c191c
:204d3e000f0000000000000000000000000000000000000000000000000000000000000046
:174d5e0000000000a4000000002137000f0015200010000200f104f7
:204d7500000000000c302000000000000000000001c8f080000000093bbc000a0200008fee
:204d95000500000000000000000000000000000000000000000000200000000000000fb317
:164db500e8000000006cafa000000019d2143000001e00c8f080c0
:204dcb000000000000c30000000000000000000000020f0010000d0b57eb40000004000046
:204deb00f0400028000000000000000000000000000000000000000400000000000000be8e
:174e0b00140040003c387050004000008d8015200000000000f19005
:204e2200000000000c30200000000000000000006008f000000010076f7c000000000000ba
:204e420000000000000000000000000000000000000000000000000400000002000000004a
:164e620000000001e036eac000200189d2143800c00001c8f0b088
:204e78000000000000c30000000400000000000000000f0004000d0bfa71c00000000000fd
:204e98000000000000000000000000000000000000000000000000c2c0000000100009005f
:174eb800000000000203d95c010100008f8015000000000000f01083
:204ecf00000000000c302000000000000000000071ec0f000000000f6be800000000000099
:204eef000000000f0f00000000000000000000000000000000000001dafa00800201e0004d
:164f0f00000000000684bfa200004000fa143000101401c8f0a1a5
:204f25000000000000c300004000000000000000040100f0040000005ffe400010000000c3
:204f450000000040b0d000000000000000000040000000000001000035e50000040000002d
:174f6500000000100043ca50000042000d0015040101400200f0002c
:204f7c00000000000c302000000000000000000000000000000000076e0000001000000034
:204f9c00000000000000000000000000000000000000000000a14003cbac0080000000001a
:164fbc0000000000001dadb010000000da14300000000148f0807e
:204fd2008000000000c3000000000000000000000000000000000000fab080004080000092
:204ff2000000000000000000000000000000000000000000000408001595c00003800c009a
:17501200000000000002eb81000030000f0015200040000000f00471
:20502900000000000c302000200000000000000e381e5a00000001ef6280000000600000fb
:20504900000000000a33200000000000000000000000000000001c0000000000440000008a
:16506900000000000700000000000980da14300000560448f08869
:20507f000000000000c30000040000000000000022fd0a500400000d5bd80000001c000071
:20509f00000000280103b400000000000000000000000000000000400000000000100000c1
:1750bf000000000080400000000000100d8015200000028200f09044
:2050d600000000000c302004000000000000003405da5a20000000076a0000410007000014
:2050f6000000040700f7a000800000000000040000000000001140000000000040001000d3
:16511600000009000040000001241819fa14380010002cc8f0802a
:20512c000000000000c300000000000000000000620105a000000000fab08020000040000e
:20514c000000000200ef8000040000000000000000000000000008000000000000000f00b7
:17516c0000000041403c000000010710ef8015000000028000f2005f
:205183000400100000000000019800000000000e01c0668000000005b3c2000a0000000026
:2051a300000000030078402000000000000000000000000000000078000000000090800089
:1651c30000001001e000000000000000f21432000000000896a06f
:2051d90000004000000000000000b000000000002000e660000020000b83c00000040000ee
:2051f90000000008000030000000000000000000000000000000000000000000000f9800b7
:17521900000001003c000000000000000b00151000000000f6925039
:205230000000000000000000000a0203c010000e75e89680010000a5a3c20000000025e8e6
:20525000000380001c7a65b0400000000003d30000000000004060000000000000780ba235
:16527000e0020083c71ef8b00382800072143200400000e8f0b0b1
:2052860000000000000000000001b1403c0000000302896001280d100803c000000001dbff
:2052a60000006000b190265900000000000020800000000000020b40000000000000003e9d
:1752c6002e0000e01e40db8b102020000f0015000000000200f00099
:2052dd001040000000000000000a1b968000000071e99680000000a1a3c2000000000ccada
:2052fd00000000001e3265b000000000000100000006bc10000000000000000004000779d5
:16531d0068000000002cb8b200000019d2143000400000e8f090a5
:205333000080000000000000000100c168010000500099600000005b0803c00000002420fc
:20535300a000000010002a592400000000000000000003c100000000000000000000001c03
:17537300168050000031dd47000000008b8015200a00000000f100ad
:20538a00000000000000000001800283c010002020c89680000001c1a3c2000000001dc803
:2053aa000020000f805225b2400000000000002800000000000000000000000280000bbe58
:1653ca002c020004004000000020518052143000008000c8f0a0fc
:2053e0000000000000000000000009403c0100c34002a9600000001b0003c000000003f048
:2054000000000000b000ba592000000000000004f40000000000e000000000001000003f82
:1754200062c00000bc2c0000000102000f8015020804000000f000c6
:20543700042000000000000000000000000100003969968100003803a3c200000142c000d4
:2054570000000007807265b020000000000004000000000000000000000000004000e000e3
:16547700000000004386cfa000000000fa14300000002de8f0a004
:20548d008000000000000000000000000000100007c0b960000400000003c0001034340050
:2054ad0000000040f000a2590200000000000040000000000000000000000000040000006e
:1754cd00000000000241d050000040000b0015200101428000f00031
:2054e400000000000000000000001e968000000000e996810000700523c2000001c0400019
:2055040000000000003225b840014000000000000000000000001403f8b80100007080003f
:16552400000010000005eac2000000005a143000015605e8f0805e
:20553a000000000000000000000000816801000003c28960000000000803c00000003400ba
:20555a000000000090002a59000008000000000000000000000000000cf740000340190077
:17557a0000000100003cc8ac000030009f00152008c8028200f01011
:205591000400000000000000000100000000001e00c896810000380523c2000011421fcd97
:2055b100f0000007015a25b020000000000000000000000000001c02e8b8010000108be653
:1655d100e00400004696efa000000980fa141000000068c8f0802e
:2055e70000200000000000000000800000000003c002b960000000000803c00000826aec83
:20560700c700000018e03a59020000000000000000000000000000221deb800000000bb3c7
:175627009d0000003c41c050004000109b8015240000000200f01498
:20563e000010000000000000000000000000001e39e9968100403807a3c2000102022cfad6
:20565e0000011407001a25b40000000000011700400000000001440000000000407807734e
:16567e0028040415401f9b801104080100000000102028c8f080a9
:2056940080008000000000000000000000000003c4009960000000800003c000003c64ef64
:2056b400600000807800a259000000000000008000000000000008200000000000500bb6ca
:1756d400728000808200c9b800000010800000000005400200f0047f
:2056eb000028000000000000019858002000000e00c896800000f1f7a3c2000010022fffed
:20570b00700000001c3a65b840000000000000001e023c1000000038f8b800010000000006
:16572b0000001001c026ffa00000000d10002000002001e8f0801c
:2057410000010000000000000009e000000800000000d96040000b1d0003c100008440fe2f
:20576100ff0000200080aa591000000000000000000043c120000007cdeb80000000000013
:175781000000010082017d5001000001c0a400080001c00000f15050
:205798000000000000000000001d1a3c2010000001e89680000001db2750000000c01fca53
:2057b80000038001017a25b0000e00000003800000000000000c003b5afa00380000000099
:1657d800000008b4e237cdb00828000078002000840001c8f0a0c4
:2057ee0080000000000000000000d0803c8000000002a96000000b1cf24ac000003400307d
:20580e00a000200038f02e59000000000000200000000000000000040e05000200000000d2
:17582e0000000041c240de8100000200002800000404000000f0009f
:20584500002000000000001008011a3c2800002e004996800080b8013bcc000a000015c8d8
:2058650000240000017a25b00000400000000000000000000000003fca5a1010800000006c
:16588500000000000025bfa00000000078402000403400e8f0a0c5
:20589b000010400000000000009090803c000002c000e96000100380570c0000000024603c
:2058bb000000000000e0a65900000000000000000000000000000007ef05a0100000000043
:1758db000000000000015d5020000090003800000a00400000f000e6
:2058f20000000000000000000800123c20000000054896800000f001674400000000000021
:205912000000000f9e1a65b400000000000000000000000001800632c8b8000004800000d8
:1659320000001001604000000002080078402000400001c8f0a033
:20594800800000000000000000b000803c0000a00380d960000003097aee00000000000083
:205968000000000071002259000000000000000000000000001000000de7400003070000e5
:175988000000010c00380000000005d0003c0000000003c200f100fc
:20599f0004200000000000000000523c2200401c78499681000000093fcc0000116054ef18
:2059bf0070000003007265b000000000000000000003bc12000000000000000000000feb03
:1659df00e8000000400000000000070030402000000078c8f0a122
:2059f50000a0000000000000000000003c020202e3c0c96000000d0f9b00c0000080287f46
:205a1500ff000028080032592000200000000000000003c1000002400000000002000b73f1
:175a3500540000000200000000000008003800000000000200f000d2
:205a4c00000000000000000000007225a00000000148968100008000000000000342c0001e
:205a6c00000000081c1a65b0000000000000105580000000000016001a0f00000000007330
:165a8c00c1c30000e02faac01020800a7800200005560008f00062
:205aa20080000000000000000000002258820003c000f96000000f00000000000014280001
:205ac200000000007100aa59200000000000028208000000000000038100f000000100002f
:175ae2003c18200000206c5c0001300100380000000800000f0000d0
:205af900004000000000000001005225a000000004489681000001f53bcc00000002a4df50
:205b190070000000403265b0000001000000000000073c1040003c04e88b0200000000002c
:165b390000000002002effa100000800384020000e163b6afa0122
:205b4f000000400000000000000800ba580000000380c96000000d1e13c0c00002002bed58
:205b6f00ff00000030002e590000001000000000900003c1000002e24108b0040019000002
:175b8f00000000003c3d4d50000000b000b800000002443e050000f8
:205ba600000000000000000000007225a000001c394996810000000b6a9800000166ad8f43
:205bc600702100038c7a25b0000000000001000000000000000e800000000010301807b7ab
:165be6006c0000000000000000001900784020008020784afa01ef
:205bfc00000000000000000000000026580000002400b96000000d085b99400000002860fd
:205c1c00ff00000008f0a6590000000000000000000000000000100000000000000f0877d4
:175c3c00e04000000000000000000f98802800000401441c05000078
:205c530000000000000000000000723c2800000003e8f00000000000000000001000000070
:205c730000000000085a65b200000000000000000000000000001428410080000079ffab78
:165c9300e800000003e5ffa000005809100020000000715c5a00d4
:205ca9000000000000000000000000003c100000002c00f0480000000000000000800000ab
:205cc9000000000001c0aa59100000000000000000c000000000014280c0000000008a5ebc
:175ce900540000023c71fc5001000031a0b400100000430d0550001a
:205d00000000000000000000000000002000000000000000000000076fdc040001e000002c
:205d200000038000093a65b200000000000380000000000000002001c90f80400039e16ac6
:165d4000b0000802003f8b8000004000780020000200724c0a00a7
:205d560000000000000000000000003c0000000000000000000000005ebfc0000000000014
:205d76000000200001e0b2590000000000002000000000000000e24001f0f0000100101bb2
:175d9600970040400c01cdb80000000000a400000001472f05f0003d
:205dad000000000000000000099978002000002e3acb9500400080000000000014000f8f62
:205dcd00500040000e7a25b200000000000000080102bc1020000001c15aa8400a0003a718
:165ded0060000010020fafa000280000100020000000037c5a009f
:205e030000000000000000000099900000000000400eb650000009000000000000000000f9
:205e2300f500040001002e590000000000000000f0f043c10000000026ba500420090e9ef1
:175e4300b6000000004050a00001000000a000000000c00d0550009f
:205e5a000000000000000000000000402000000e70000000000081800000000000001def3d
:205e7a0070200007803265b200000000000000200007bc14004000606896804100d0196aff
:165e9a00b0000801c07defa00000258858002000040007d85f0006
:205eb00000000000000000000000003c00000000240000000000091000000000000003e076
:205ed000ff00000008f0b6590000000000000005000043c1000a000400f9600008070d5bc5
:175ef00057004001423cf0500000000100a400000000c3ad00a00090
:205f07000000000000000000000050002001000062ea9500000000000000000011600cefbc
:205f2700500000000f1225b800200000000000000002bc1000000005c99690000071edf3d9
:165f4700e8000000074000000000000010402000402404c8fa007b
:205f5d00000000000000000000000000000010000416a65000000000000000000080000084
:205f7d00f500000000e0a6590000000000000000000003c10400000202d960000000105ac1
:175f9d00540000000078000000000000b0b000000003e2c505000012
:205fb40000000000000000000000500020000020600000000000000000000000016040003c
:205fd400000000071d3a65b000000000000000000000000000008004c99690000071e16a0b
:165ff400b00008964034cfa00000080058002000023c765efa00da
:20600a00000000000000000000000000000000034780000000000000000000000000280084
:20602a000000000079d0265900000000000000000000000000001443c2e960000000903b61
:17604a00d70000603e00f05000000050002400000803c78c0a0000ae
:206061000000000000000000000050002000000003ea9500000001a00000000016028000f4
:2060810000000000003265b000000000000000000000000000000605c8969001000011feaf
:1660a10034000000070000000020000e10002000001e027c5a005a
:2060b70000000000000000000010808000000000001eb650080000000000000000942800d1
:2060d700000000007000a659000000000000000004000000000000020289600000070e9a9a
:1760f700a3404002000000000001000000a400000000202f05500024
:20610e000000000000000000000050002000000c0400000000000000000000000146bfd813
:20612e000001000b807a25b000000000000120800e023c1800000000c89690000200116f01
:16614e002800002263b68fa0002a800e70002000020423f8fa0145
:20616400000000000000000000108080000000034240000000000000000000000014007ef4
:2061840000080000b8003a590000000000000100000043c1000000420299600000010f5afc
:1761a4003140000b7e7cd0500001000100a40000000004360a000064
:2061bb0000000000000000000000700020000000000000000400000f2143010000000000bc
:2061db00000000071e7225b200000000000000030006bc1000000e7048968000000005047c
:1661fb0002000000074e9ac00000001e18402000065c634e0a002a
:20621100000000000000000000000000001000000000000000400000b0015080000000009c
:2062310000000000f1003a591000480000000000000003c12000002680996050000000029c
:17625100800080000438f95c0100000000b800100008203c05f00083
:2062680000000000000000000000000020000000000000003800000f214300000166800064
:2062880000038008003225b200000000000390001e00000000000600489680010000070045
:1662a80002000a020005bfa00000019a7800200eac0001de5a0048
:2062be0000000000000000000000003c000000000000000002000000f00150100000000031
:2062de00000020007000325900000000000022800100000000000020029962002805000296
:1762fe00c00000401c3e6d5001000008002400008400002d0550003f
:2063150000000000000000000000780020000000000000000000019d214301000366dd8afd
:2063350000000000003a25b000010100000000081e063c1000002004689680003a180700c4
:1663550002000010420dcfa0000018017840200000000008964291
:20636b00c00000000000000000000000000000000000000000000008b8015000001429d034
:20638b000000000000d022592000000000000000f10043c1400002424099620000018e0a3a
:1763ab00800000003c3c405000000030c0b800000000c00106940050
:2063c20000000000000000000000004020000000000000000000181d214300000200400080
:2063e20000000007003a25b200000000000000000000000000000004489680000070a1a26e
:166402005a000801e7959fa000018000780020000000001e0f0020
:2064180000000000000000000000003c000000000000000000000008f8015020001428007b
:2064380000000000000026590000000000000000f00000000000000302a9620000000003c2
:17645800e588000d7e424d5000000000002c00000000c00100f00079
:20646f0000000000000000000000023c00000000000000000000000fa1430000000054aade
:20648f0000000007093225b000000000000040000002bc1010000001c89690001000072290
:1664af005a04000a4004aaf00000079830402000002078000000ca
:2064c500000000000000000000000003c00000000000000000000000b00150200000202093
:2064e500a0000000f1d0b6592000000000000400000003c100000000009960000001000b3a
:17650500e58000001c26e00a00000001003800001001c400000000e0
:20651c0000001000000000000000000000000000000000000000001da1430000000034a179
:20653c00a0200005801a25b00000000000000000000000000040000049968000000005a2c5
:16655c005a200401c265afa000000000780020000080000000001c
:2065720000000000000000000000000000000000000000000000000af0015020000001603d
:2065920000000000780022592000000000000000000000000002e00002b962000000000bcc
:1765b200e5800080007d50a00000050000280000040000000000004f
:2065c90000000000000000000000000000000000000000000000980da1430100014017824e
:2065e9000020080100d23c1400000000000000004010295000002005489690000019b726f5
:166609005a040000002e9ac00000000030402000017e064e0a0028
:20661f00000000000000000000108000000000000000000000000100b8015000003602e0a9
:20663f00000001007005803d04000000000000000000029520000342c29960000000890bb9
:17665f00a58000000002fe5c0000000000b800000003e3fd05f00013
:2066760000000000000000400000000000000000000000001000819fa143010000000000af
:20669600000100100000000000000000000100004002bc120000000048968000003003220f
:1666b6005a040065e004afa0000021007840200420002ade5a0059
:2066cc0000000000000000000010800000000000000000000000010af801500000000000ca
:2066ec0000000002000000000000000000000000000043c10000a00002f960080050000332
:17670c00e5800000020350a00000000080200000000004150aa000b9
