:02000000ff00ff
:080002004c6174746963650030
:17000a00694345637562653220323032302e31322e32373934330071
:15002100506172743a2069434534305550354b2d53473438002c
:1b003600446174653a204e6f7620313520323032342032313a31333a34360071
:0200510000ffae
:040053007eaa997e6a
:02005700510056
:0200590001059f
:03005b00920020f0
:03005e006202b388
:03006100720150d9
:0300640082000017
:02006700110086
:02006900010193
:20006b00000000000000000000000010000000000000400000000000010000000000000420
:20008b000000000000001000000000000040000000001000000000000040000000000001b4
:1600ab0000000000000004000000000000100000000000004000eb
:2000c1000000000000000000000000020000000000000800000000000020000000000000f5
:2000e10080000000000002000000000000080000000002000000000000080000000000006b
:1701010020000000000000800000000000020000000000000800003d
:200118000000000000000000000000000000000000000000000000000000000000000000c7
:200138000000000000000000000000000000000000000000000000000000000100000000a6
:160158000000000000000000000000000000000000000000000091
:20016e00000000000000000000000000000000000000000000000000000000000000000071
:20018e00000000000000000000000000000000000000000000000000000000000000000051
:1701ae0010000000000000000000000000000000000000000000002a
:2001c50000000000000000000000000000000000000000000000000000000000000000001a
:2001e5000000000000000000000000000000000000000000000000000000000000000000fa
:1602050000000000000000000000000000000000000000000000e3
:20021b000000000000000000000000000000000000000000000000000000000000000000c3
:20023b00000000000000000000000000000000000000000000000000000000000000018022
:17025b0000000000000000000000000000000000000000000000008c
:2002720000000000000000000000000000000000000000000000000000000000000000006c
:20029200000000000000000000000d0000000000000000000000000000000000000004003b
:1602b2000000000000000000000000000000000000000000000036
:2002c800000000000000000000000000000000000000000000000000000000000000000016
:2002e8000000000000000000000000000000000000000000000000000000000000000000f6
:170308000000000000000000000000000000000000000000000000de
:20031f000000000000000000000000000000000000000000000000000000000000000000be
:20033f000000000000401000000000000000000000401000000000010040000000000800b5
:16035f000000000000000000000000000000000000000000000088
:20037500000000000000000000000000000000000000000000000000000000000000000068
:20039500000000000000000000000000000000000000000000000000000000000000000048
:1703b5000000000000000080000000000000000000000000000000b1
:2003cc00000000000000000000000000000000000000000000000000000000000000000011
:2003ec00000000000000000000000000008000000000000000000000000000000000000071
:16040c0000000000000000000000000000000000000000000000da
:200422000000000000000000000000000000000000000000000000000000000000000000ba
:20044200000000000000000000000000000400000000000000000000000000000000000096
:1704620000000000000000000000000000000000000000000400007f
:20047900000000000000000000000000000000000000000000000000000000000000000063
:20049900000010000000000000000000000010000000000000000000000000000000000023
:1604b900000000000000000000000000000000000000000000002d
:2004cf0000000000000000000000000000000000000000000000000000000000000000000d
:2004ef000000010000000000000000000000010000000000000400014000000000000000a6
:17050f000000000000000000000000000000000000000000000000d5
:200526000000000000000000000000000000000000000000000000000000000000000000b5
:20054600000000000040000000000000000000000040000000000001000000000000000014
:16056600000000000000000000000000000000000000000400007b
:20057c0000000000000000000000000000000000000000000000000000000000000000005f
:20059c0000000000000000000000000000000000000000000000000100000000000000003e
:1705bc000000000000000400000000000000000000007000000000b4
:2005d300000000000c302000000000000000000000000000000000000000000000000000ac
:2005f300000000000000000000000000000000000000000000002020ee0f8000001010000b
:1606130000000000020000000000000000000000000000000000cf
:200629000000000000c30000000000000000000000000000000000000000000000000000ee
:200649000000000000000000000000000000000000000000000000460180f0000001880051
:1706690000000000004000000000000000000000000000000000003a
:20068000000000000c302000000000000000000000000000000000000000000000000000fe
:2006a000000000000000000000000000000000000000000000002665680f80380000000080
:1606c0000000e00000000000000000000000000000000000000044
:2006d6000000000000c3000000000000000000000000000000000000000000000000000041
:2006f6000000000000000000000000000000000000000000000003c203c0f002000000006a
:170716000000080000000000000000000000000000000000000000c4
:20072d00000000000c30200000000000000000000000000000000000000000000000000050
:20074d000000000000000000000000000000000000000000000420015b0fa00000000178e4
:16076d001902c0000000000000000000000000000000000000009b
:200783000000000000c3000000000000000000000000000000000000000000000000000093
:2007a3000000000000000000000000000000000000000000000003400080f0000000001271
:1707c30040d00c000000000000000000000000000000000000000003
:2007da00000000000c302000000000000000000000000000000000000000000000000000a3
:2007fa00000000000000000000000000000000000000000000000073e05a800000000000b2
:16081a0000000000000000000003000000000000000000000000c5
:200830000000000000c30000000000000000000000000000000000000000000000000000e5
:2008500000000000000000000000000000000000000000000000024674da500000000000a2
:17087000000000000000000000000000000000000000000000000071
:20088700000000000c302000000000000000000000000000000000000000000000000000f5
:2008a700000000000000000000000000000000000000000000000660e80fa0000000000034
:1608c700000000000000000000000000000000000000000000001b
:2008dd000000000000c3000000000000000000000000000000000000000000000000000038
:2008fd000000000000000000000000000000000000000000000003c243c0f0000000000023
:17091d000000000000000000000000000000000000000000000000c3
:20093400000000000c30200000000000000000000000000000000000000000000000000047
:20095400000000000000000000000000000000000000000000001528ed0f800000000000ca
:16097400000000000000000000000000000000000000000000006d
:20098a000000000000c300000000000000000000000000000000000000000000000000008a
:2009aa000000000000000000000000000000000000000000000001474180f0000000000034
:1709ca00000000000000000000000000000000000000000000000016
:2009e100000000000c3020000000000000000000000000000000000000000000000000009a
:200a0100000000000000000000000000000000000000000000000075ff0f800000000000d2
:160a2100000000004205ea55000000000000000000000000000039
:200a37000000000000c30000000000000000000000000000000000000000000000000000dc
:200a57000000000000000000000000000000000000000000000000028290f000000000007b
:170a7700000000000241e0aa4000000000000000000000000000005b
:200a8e00000000000c302000000000000000000000000000000000000000000000000000ec
:200aae00000000000000000000000000000000000000000000000c00ef0f8010000000008e
:160ace0000004000000000000000000000000000000000000000d2
:200ae4000000000000c300000000000000000000000000000000000000000000000000002f
:200b0400000000000000000000000000000000000000000000000062c390f000000f00001d
:170b2400000000003c0000000000000000000000000000000000007e
:200b3b00000000000c3020000000000000000000000000000000000000000000000000003e
:200b5b000000000000000000000000000000000008000000000126696e0f80020080000063
:160b7b000000000000000000000000000000000000000000000064
:200b91000000000000c3000000000000000000000000000000000000000000000000000081
:200bb1000000000000000000000000000000000001000000000008420080f040000b00001e
:170bd10000000000000000000000000000000000000000000000000d
:200be800000000000c30200000000000000000000000000000000000000000000000000091
:200c0800000000000000000000000000000380000000000000002601c80f80380058002b10
:160c280091001000000000000000000000000000002001cca51073
:200c3e000000000000c30000000000000000000000000000000000000000000000000000d3
:200c5e000000000000000000000000000000200000000000000001424180f002000080d709
:170c7e00f61000000000000000000000000000000002c00f0aa0805e
:200c9500000000000c302000000000000000000000000000000000000000000000000000e3
:200cb500000000000000000000000000000100000e000000010080005e0f80300401a000cd
:160cd5000000000000000000000000000000000000000000000009
:200ceb000000000000c3000000000000000000000000000000000000000000000000000026
:200d0b0000000000000000000000000000003000010000000000104002d0f0030020190049
:170d2b0000000000000000000000000000000000007002c00000007f
:200d4200000000000c30200000000000000000000000000000000000000000000000000035
:200d62000000000000000000000000000000000000b3a95000000424f80f80000000000016
:160d8200000000000000000000100000000000000000000000004b
:200d98000000000000c3000000000000000000000000000000000000000000000000000078
:200db8000000000000000000000000000000000000b782a9000002c203d0f00000000000b2
:170dd800000000000000000000028000000000000000000000000082
:200def00000000000c30200000000000000000000000000000000000000000000000000088
:200e0f0000000000000000000000000000000000003a281000001664ca0fa0000400077bd8
:160e2f00d50000000000000000000000000000000006680000006a
:200e45000000000000c30000000000000000000000000000000000000000000000000000ca
:200e6500000000000000000000000000000000000087c3d5000003c200c0f00002a000181f
:170e85001410000000000000000000000000000000000380000000af
:200e9c00000000000c302000000000000000000000000000000000000000000000000000da
:200ebc00000000000000000000000000000000000e0000000000003d7b0f80000000083b7e
:160edc00910000c00000000000000000000000000000006e2e0013
:200ef2000000000000c300000000000000000000000000000000000000000000000000001d
:200f12000000000000000000000000000000000000e00000000002470280f0000000001311
:170f3200f61000000000000000000000000000000000002cbad000ec
:200f4900000000000c3020000000000000000000000000000000000000000000000000002c
:200f6900000000000000000000000000000000010086ac5000000c7b615a80020070f000c1
:160f8900000000000000000000000000000000000016200000001c
:200f9f000000000000c300000000000000000000000000000000000000000000000000006f
:200fbf0000000000000000000000000000000000088f79c9000002600e8a500000001d00d2
:170fdf000000000000000000000000000000000000000400000000f7
:200ff600000000000c3020000000000000000000000000000000000000000000000000007f
:2010160000000000000000000000000000010008083ba95000000001c10080100000000023
:16103600000000080000000000000000000000000000000000009c
:20104c000000000000c30000000000000000000000000000000000000000000000000000c1
:20106c0000000000000000000000000000000000b10f81550000024002d00000000b0000af
:17108c0000000001400000000000000000000000000000000000000c
:2010a300000000000c302000000000000000000000000000000000000000000000000000d1
:2010c3000000000000000000000000000000000100b7f2c00000000141008000000007805a
:1610e300020002000000000000000000000000000000780000007b
:2010f9000000000000c3000000000000000000000000000000000000000000000000000014
:2011190000000000000000000000000000000000080f316c00000340008000400000000bf4
:1711390000000000000000000000000000000000000004000000009b
:20115000000000000c30200000000000000000000000000000000000000000000000000023
:20117000000000000000000000000000000000000000000000002071c000803800801f2196
:161190004320e0000000000000000000d7bc080e00060000000057
:2011a6000000000000c3000000000000000000000000000000000000000000000000000066
:2011c6000000000000000000000000000000000000000000000002c402c00002000f0e5012
:1711e60001500800003c0000000000000b82800080000000000000d0
:2011fd00000000000c30200000000000000000000000000000000000000000000000000076
:20121d000000000000000000000000000000000000000000000020216000800080019d2052
:16123d004b200000060000000000001a00000000001663c8a540ea
:201253000000000000c30000000000000000000000000000000000000000000000000000b8
:20127300000000000000000000000000000000000000000000040140008000001000081b63
:17129300e11000000000000000000000000000000000043fa264000a
:2012aa00000000000c302000000000000000000000000000000000000000000000000000c8
:2012ca00000000000000000001000000000000000000000000a00000c000800038981d2115
:1612ea004320040060159854000000000000000000000000000026
:201300000000000000c300000000000000000000000000000000000000000000000000000a
:2013200000000000000000000010000000000000900000000004034000e00000000f085877
:17134000015000200000ffaf40000000000000000000000000000037
:20135700000000000c3020000000000000000000000000000000000000000000000000001a
:20137700000000000000000000000000000000010000000000003c38e100800000000fa1d0
:16139700430000016000000000101000000000000000000000007c
:2013ad000000000000c300000000000000000000000000000000000000000000000000005d
:2013cd000000000000000000000000000000000008000000000042c402e00000000b0010f5
:1713ed00015200000000000000020000000000000000000000000094
:20140400000000000c3020000000000000000000000000000000000000000000000000006c
:201424000000000000000000000000000000000001000000000000754000800000000da1c4
:16144400430000000047cfa00000001a00000000000001eb5b40f8
:20145a000000000000c30000000000000000000000000000000000000000000000000000af
:20147a00000000000000000000000000000000003080000000000006c2d0000000000050ba
:17149a0001520000003830fa08000000000000000040003d8db400c0
:2014b100000000000c302000000000000000000000000000000000000000000000000000bf
:2014d100000000000000000000000000000000000096a94040000038610080000019eda17c
:1614f100430400000000cc002000000087014040000004000000a6
:201507000000000000c3000000000000000000000000000000000000000000000000000001
:2015270000000000000000000000000000000000000b02a8000001c002d000000000001844
:1715470001500000000000c0000000000740286400000200000000a7
:20155e00000000000c30200000000000000000000000000000000000000000000000000011
:20157e00000000000000000000000000000000001c00000000000e0008f00010008019a1e1
:16159e00430040000041aa00000005800000000400166200a560c3
:2015b4000000000000c3000000000000000000000000000000000000000000000000000054
:2015d40000000000000000000000000000000000f100000000000020000f020000010a5872
:1715f400015800000038c05010000000000000000000000405a40082
:20160b00000000000c30200000000000000000000000000000000000000000000000000063
:20162b0000000000000000000000000000000000007f10c000014001fd43000000000f219e
:16164b00430000100000000000000000000000000400040000002e
:201661000000000000c30000000000000000000000000000000000000000000000000000a6
:2016810000000000000000000000000000000000000b3d28020000002e94a000000000b0c5
:1716a1000153000080240000000000000000000000000380000000b7
:2016b800000000000c302000000000000000000000000000000000000000000000000000b6
:2016d80000000000000000000000000000000000000000000e0000054ef50038300007210c
:1616f8004320e00000000000002900000000000e00000000000062
:20170e000000000000c30000000000000000000000000000000000000000000000000000f8
:20172e000000000000000000000000000000000000000000008000038c0500120000003045
:17174e0001500800002c00000000000000000000800000000000007f
:20176500000000000c30200000000000000000000000000000000000000000000000000008
:20178500000000000000000000000000000000001800000004001c780ce2420000019d21a5
:1617a50043004000006caa54080000003ba9420c00000000000007
:2017bb000000000000c300000000000000000000000000000000000000000000000000004b
:2017db00000000000000000000000000000002000000000000c00004140d1400000008b833
:1717fb0001520400003e50aa400000000b42a8000000000000000013
:20181200000000000c3020000000000000000000000000000000000000000000000000005a
:20183200000000000000000000000000000000000053a9400000000000000000001815210c
:16185200432000000000000000000000000000000000004ca540ec
:201868008000000000c300000000000000000000000000000000000000000000000000001d
:2018880000000000000000000000000000000000000f8154240000000000000000000838f8
:1718a800015000000000000000000000000000000000002f0aa400fb
:2018bf00000000000c302000000000000000000000000000000000000000000000000000ad
:2018df00000000000000000000000000000000070100000001205605fdcb000010700fa16d
:1618ff0043000001c01caa54002000010000000000002c00000068
:201915000000000000c30000000000000000000000000000000000000000000000000000ef
:201935000000000000000000000000000000004008c00000000501e22e95b000040080b0fb
:17195500015040100003f0aa4001000080000000010007c0000000b4
:20196c00001400000c302000000000000000000000000000000000000000000000000000eb
:20198c0000000000000000000000000000000001000000000000150000000000000005a17f
:1619ac0043001000000000000000070000000000000000000000cb
:2019c2000000800000c30000000000000000000000000000000000000000000000000000c2
:2019e2000000000000000000000000000000000000000000000000000000000000000f30a6
:171a020001504000000000000002000000000000000000000000003a
:201a1900000000000c30200000000000000000000000000000000000000000000000000051
:201a3900000000000000000000000000000000010c7b2800200486000000000000980da1ed
:161a59004300000002c0000000000000000000001800000000005a
:201a6f000000000000c3000000000000000000000000000000000000000000000000000094
:201a8f0000000000000000000000000000000000009783d42000140340000000028100b897
:171aaf00015200000038000000000000800000000010000000000005
:201ac600000000000c30200000400000000000000000000000000000000000000000000064
:201ae600000000000000000000000000000004000100000004100000caa54090408187a19f
:161b06004300410000000000000000000000000410000000000031
:201b1c000000000000c30000000000000000000000000000000000000000000000000000e6
:201b3c00000000000000000000000000000000001080000000000002bc0aa4000001003854
:171b5c00015000000000000000000000000000000000000000000021
:201b7300000000000c302000000000000000000000000000000000000000000000000000f6
:201b93000000000000000000000000000000000000fb0d0010220003dc43000800000f219e
:161bb300430000020285b300000000180000000000003400000051
:201bc9000000000000c3100000000000000000000000000000000000000000000000000029
:201be90000000000000000000000000000000000f0096290000000001db4a08000000030d0
:171c09000151000014406fa508000000000000000000020000000000
:201c2000000000000c30200000000000000000000000000000000000000000000000000048
:201c400000000000000000000000000000000000011672c01e0c80000000003800800f21a9
:161c600043800000003eafc0000005800000000e00203400000017
:201c76000000000000c310000000000000000000000000000000000000000000000000007b
:201c96000000000000000000000000000000000000eb796c00801403c00000020001007094
:171cb6000150400000017a780800000800000000800042c000000001
:201ccd00000000000c3020000000000000000000000000000000000000000000000000009b
:201ced0000004000000000000000000000004000000000000c000063daa5200000018da11a
:161d0d0043800002028000000000000000000000000000f8e2405f
:201d23000000000000c300400000000000000000000000000000000000000000000000009d
:201d4300000004000000000000000000000004000000000000c060000e0550000080003045
:171d6300015000001440000000000030000000000000001f952410ac
:201d7a00000000000c302000000000000000200000000000000000000000000000000000cd
:201d9a000000000000000000000000000000280000000000000020221ce2420000981d21a9
:161dba004300000000000000000100083ea940000000026ee2400e
:201dd0000000000000c30040000000000000000000000000000000000000000000000000f0
:201df0000000000000000000000000000000010000000000000000c4140d1400000f08784a
:171e100001540000140000000000000009c2a80004000026d52400bc
:201e2700000000000c3020000000000000000000000000000000000000000000000000003f
:201e4700000000000000000000000000000000000e00000000400003dccb00000000082457
:161e67004b800000000000000000000000000000000062e8a5406b
:201e7d008000000000c30040000000000000000000000000000000000000000000000000c2
:201e9d000000004000000000000000000000004000000000000100035db5b0800400003229
:171ebd000850001000000000000040000000000001e000070af40080
:201ed400000000000c30200000000000000000000000000000000000000000000000000092
:201ef4000000000000000000000000000000000180ffa9400000206ad8a0400000000da175
:161f140043000000060000000000080000000000300068000000ce
:201f2a000000000000c300400000000000000008000000000000000000000000000000008c
:201f4a0000000000000000000000000000000000000342a824000340170f5400000f00702a
:171f6a00015000000024000000000050c000000000000000000000db
:201f8100000000000c302000000000000000000000000000000000000000000000000000e4
:201fa1000000040000000000000000000000040000000000000000740000000040980da11e
:161fc10043000101c01fea001004001a00000000001600000000b8
:201fd7000000000000c30040000000000000000000000000000000000000000000000000e7
:201ff70000000000000000000000000000000000000000000004014200000000000100384a
:17201700015000000201e0f500000000000000000000000000000089
:20202e00000000000c30200000000000000000000000000000000000000000000000000036
:20204e00000004000000000000000000000004091e00000004100623faa0409040018fa12b
:16206e0043000100067dca00100400007757800410000000000055
:202084000000000000c3004000000000000000000000000000000000000000000000000039
:2020a400000000000000000000000000000000007800000000000004170f5400000f40785f
:1720c400015000000c62d0fa0000000005a0b80100200000000000fe
:2020db0001000000cc302000000000000000000000000000000000000000000000000000c8
:2020fb00000000000000000000000000000000000000000000008004785208000000072147
:16211b0043000001c000000000001001000000000406000000008f
:2021310000100001c0c31000000000000000000000000000000000000000000000000000ea
:202151000000000000c00000000000000000000000f0000000000003eebc1000000000b051
:17217100015100000224000000000200c000000000002000000000fd
:20218800000000000c302000000000000000000000000000000000000000000000000000db
:2021a80000000000000000000000000000038800007ea9520e00063acbf80838000007219a
:1621c8004380e00000000000038000007ba9440000000000000073
:2021de000000000000c310000000000000000000000000000000000000000000000000000e
:2021fe0000000000300000000000000000002100000d02a90080a0040797a002000000f064
:17221e0001500800000000000020010003c2a82000000000000000a2
:2022350000000000cc3020000000000000000000000000000000000000000000000000006d
:20225500000000000000000000000000000100000100000004008063dca500000101952147
:162275004300c0001000000001000000000000000000000000003f
:20228b000000000000c3004000000000000000000000000000000000000000000000000030
:2022ab000000000000000000000000000000100000b00000004000003e055004020008b8ba
:1722cb0001500400000000000010009000000000000002c000000045
:2022e200010000000c3020000040000000002000000000000000000000000000000000001f
:202302000000000000000000000000000000002100000000000000021ee242000018052118
:16232200430000000005ea5400000180000000008000000000001e
:202338000000000000c3004000000000000000000000000000000000000000000000000082
:202358000000000000000000000000000000000508000000000000000d0d1400000000f832
:1723780001500000000060aa400000000000000004000000000000af
:20238f000000c0000c30200000000000000000000000000000000000000000000000000012
:2023af00000000010000000000000000000000000000000000000e0400000000000007a153
:1623cf0043000000004000000000018000000000010000000000f3
:2023e5000000000000c30040000000000000000000000000000000000000000000000000d5
:202405000000000008000000000000000000000000000000001000c28000000000000fb09e
:1724250001500000003c000000000000000000000001c00000000052
:20243c00000000000c30200000000000000000000000000000000000000000000000000024
:20245c0000000007009a0942000000000000000300f6a95000009c2edca04000000005a156
:16247c0043200001c0000000000080005ba9400000000000000062
:202492000000000000c300400000000000000008000000000000000000000000000000001f
:2024b20000000000080370b00000000000000000080302a9020014468c0f5400000000f0ee
:1724d200015000000200000000000000054154000000000000000006
:2024e9000000c0000c302000000000000000000000000000000000000000000000000000b7
:2025090000000000000000000000000000000003000000000000000400000000009807a16b
:1625290041200000000000000000000802b898800000024a3f00d6
:20253f000000000000c3004000000000000000000000000000000000000000000000000079
:20255f000000000000000000000000000000000008000000000000020000000000010fb88a
:17257f000150000000000000000000010f0345000000003dc1a000fe
:20259600000000000c302000000000000000000000000000000000000000000000000000c9
:2025b60000004000000000000000000000010007800000000400167afead00103880100026
:1625d60000004000e73fea540100001e00000000a0003800000054
:2025ec000000000000c30040000000000000000000000000000000000000000000000000cc
:20260c000000040000000000000000000000000008000000000000042ec3d01000010800c4
:17262c00000000000240e055400000000000000004000000000000dc
:202643000000002f8c3020000000000000000000000000000000000000000000000000006c
:20266300000000000000000000000000000000000000000001000001ff0800000050a961f4
:16268300482000000016ea0400000000fea95000000000000000de
:2026990000100002e0c300400000000000000000000000000000000000000000000000002c
:2026b9000000000000000000000000000000000000000000000000003ef000040280801fae
:1726d900f04000000000f0f5404000000f42a9000803400000000010
:2026f0000001c6d6ac30200000000000000000000000000000000000000000000000000031
:2027100000038008000000000000000000038000000000000e0c00000000003d000189bbff
:16273000e000e000000eca54038005000000000e00000000000011
:202746000000006c10c30040000000000000000000000000000000000000000000000000f4
:20276600000020007000000000000000000020000000000000800000000000020805199665
:172786005e8028001c00e05540200000000000008000000000000005
:20279d000000021dec302000000000000000000000000000000000000000000000000000c1
:2027bd0000030000000000000000000000011000085ba81044010070000000100801e0001f
:1627dd000000c000000fea040300000000000000000001dea44063
:2027f3000000004020c3004000000000000000000000000000000000000000000000000063
:2028130000000000000000000000000000003080000303d500c0080000000003000010003f
:17283300000000000000e0f540000000000000000000003e87440070
:20284a000101c00fec30200000000000000000000000000000000000000000000800000059
:20286a00000000010000000000000000000000000000000000400002dca54100000007e260
:16288a00950000020026ca5400000000000000000000000000005d
:2028a0000000022010c30040000000000000000000000000000000000000000001000000e2
:2028c0000000000008000000000000000000000090000000000000003c05540000000014b7
:1728e0002a9000000c3940554040000090000000000000000000003d
:2028f7000000001fac302000000000000000000000000000000000000000000000000000a6
:20291700000000000000000000000000000000200000000000400000000000001000000030
:1629370000000003e00fea0400004000000000000000000000006a
:20294d000000000030c3000000000000000000000000000000000000000000000000000077
:20296d0000000000000000000000000000000000900000000008a140000000000180000050
:17298d00000000000c00d0f540000200000000000000000000000020
:2029a4000001c3c7ec3020000000000000000000000000000000000000000000000000004c
:2029c400000000000e9ea950000000000000008000000000002004000000000400000000a6
:1629e4000000000043deca5410000000000000000400000000008a
:2029fa000000242c20c300000000000000000000000000000000000000000000000000008a
:202a1a0000000000010b02a9040000000000000000000000000400e00000000000000000fd
:172a3a00000000000079c0aa40001000000000000000000000000052
:202a51000000020f8c30200000000000000000000000000000000000000000000000000078
:202a7100000000000000000000000000000000000000000000000030000000000001800094
:162a91000000000000000000000000081ea950000000740000009c
:202aa7000000006410c30000000000000000000000000000000000000000000000000000d8
:202ac70000000000000000000000000000000200f0000000000800000000000000000000f5
:172ae7000000000034200000000000000f41550400000200000000d9
:202afe000000c200ec302000000000000000000000000000000000000000000000000000ba
:202b1e00000100000000000000000000000100000cfb29504400003bfca540100070000035
:162b3e0000004003e04000000100200e00000004002000000000cb
:202b54000000246410c3000000000000000000000000000000000000000000000000000006
:202b74000000000000000000000000000000000090078155000002c34e0aa4800000000093
:172b9400000000003e3c0000000005f1000000000003400000000077
:202bab00000000000c302000000000000000000000000000000000000000000000000000ae
:202bcb00000000000000000000000000000000000000000000000003cf08000000180f6287
:162beb0080000003461ca0f80000000838402000a000034ea540e1
:202c01000010000000c30000000000000000000000000000000000000000000000000000e0
:202c210000000000000000000000000000000000000000000000c0003dd000000100003095
:172c41003d4000002428090f0000000090300000040002a4f154806c
:202c5800000000000c302020100000000000000000000000000000000000000000000000d0
:202c780000000000000000000000000000038000000000000e0000000000000000f813722e
:162c9800940000006654e0f8038000007214300e000000000000b9
:202cae000000000000c3000000000000000000000000000000000000000000000000000043
:202cce000000000000000000000000000000200000000000008000038000000000058e1020
:172cee002a80100014200c0f0020000009001500800342c000000003
:202d0500000000000c30200000000000000000000000000000000000000000000000000052
:202d25000000000000000000000000000003000000df3d580c0040380000000000800fb450
:162d4500200000006054f0f8002800195204b0000020054a5b406b
:202d5b004000000000c3000000000000000000000000000000000000000000000000000055
:202d7b00000000000000000000000000000030000003428140c00003800000000005007347
:172d9b00c00000003c20380f0000000089be110000004366ddb6002a
:202db200000000000c302000000000000000000000000000000000000000000000000000a5
:202dd2000000000000000000000000000000000000ff29520000000000000000008011ba1c
:162df20000080002000ee0f80000098152143000000000000000bb
:202e08000000000000c30000000000000000000000000000000000000000000000000000e7
:202e280000000000000000000000000000000000900782a9000003400000000000010f5025
:172e4800000000002c00390f000000108980150000c0000000000011
:202e5f00000000000c302000000000000000000000000000000000000000000000000000f7
:202e7f00000000000000000000000000000000000000000000406c02ca08000000f0edebeb
:162e9f00d4060000e005e0fa000000005a143000800e07cd06601e
:202eb5000000000000c300000000000000000000000000000000000000000000000000003a
:202ed5000000000000000000000000000000000000000000000006e025b00000028b00385d
:172ef500280000003e000c0f000010000900150004002204c03400f9
:202f0c00000000000c30202000000000000000000000000000000000000000000000000029
:202f2c00000000000000000000000000000000000a077150000001000000000000180bf29d
:162f4c0094040000068ff0f800000d005a1430000120000000008e
:202f62000000000000c3000028000000000000000000000000000000000000000000000064
:202f82000000000000000000000000000000000050073f292000000240000000000d0e38bb
:172fa2002a8200001c38080f00000050090015000000400000000053
:202fb900000000000c3020000000000000000000000000000000000000000000000000009c
:202fd9000000000000000000000000000000000008000000000080395aa5400000d0000008
:162ff9000000000366d7f0f8002801885a143000000078000000d3
:20300f000000000000c30000000000000000000000000000000000000000000000000000de
:20302f000000000000000000000400000000000051000000000042c34e0aa480000180002a
:17304f00000000004428190f00000001098015000000c00000000077
:20306600000000000c302000400000000000000000000000000000000000000000000000ae
:203086000000000000000000000000000001000008000000040000300000000000b9c1f281
:1630a60094000003606415a8010000187a14300400000000000021
:2030bc000000000000c300001200000000000000000000000000000000000000000000001f
:2030dc0000000000000000000000000000000000918000000000000400000000000b90b86c
:1730fc0015482000142ac9a5000000000980150000000000000000f6
:20311300000000000c30200003817019a02000000000000000000000000000000000000073
:2031330000000000000000000000000000000000000000000000007348a00000000007b862
:16315300d0000802600ee0f800000000f214300000000000000010
:203169000000000000c300000008d0259800000000000000000000000000000000000000ee
:20318900000000000000000000000000000000000000000000000044050f5000000000ff7f
:1731a9006900004e0438280f040000000b00151000000000000000b1
:2031c000000000000c302000139c7225a000000000000000000000000000000000000000ad
:2031e0000000000000000000000000000003800000db28180000203fde08003802d9e33fb7
:163200002c000003e684e0f803802000f214300e0020040000003c
:203216000000000000c300000009002258040000000000000000000000000000000000004e
:2032360000000000000000000000000000002000000703d5000000430fe00002004510fff1
:17325600d6c000400600280f0020050007001500800043c00000008a
:20326d00000000000c302008001c7225a0000000000000000000000000000000000000008a
:20328d00000000000000000000010000000300001c00000000002063c0810830000009e21a
:1632ad0081000020060ee0f800000019d21430000000000000004f
:2032c3000000000000c30000000100ae58040000000000000000000000000000000000001d
:2032e300000000000000000000000000000000000000000000000046c68e700400000014a9
:173303003d50000000001d0f000000008b80150000000000000000da
:20331a00000000000c302008001c7265a0000000000000000000000000000000000000009c
:20333a000000000000000000000000000000000388df3d5000000660fd0000000000100009
:16335a00000000006794f0f800000981d21430010000026fd56033
:203370000000000000c30001100100a258010060000000000000000000000000000000000d
:20339000000000000000000000000000000000000907828100000002cdb0200000000a0061
:1733b000000000000440390f00000010878015000a00003eea5400c8
:2033c700000000000c30200000007a65a040000000000000000000000000000000000000cb
:2033e70000000020000000000000000000000000003fa95000a004314c0e2380000000009c
:1634070000000a0043ec15a800000000da143000021c01fefa0084
:20341d000000000000c300000000002e580000000000000000000000000000000000000046
:20343d0000000005000000000000000000000000908f02a98000a0143700f08400400f0072
:17345d00000000400060c8a5000000000b001500000000020fa0007a
:20347400000000000c30202010007a65a0000000000000000000000000000000000000002d
:20349400000000000000000000000000000000010000000000009c0178e402800500100087
:1634b40000000003e257f0f800000000da1430000000000ec002f0
:2034ca000000000000c30000000000265801000000000000000000000000000000000000a0
:2034ea000000000000000000000000000000000018000000000011c3810e400000000d00fa
:17350a000000000016200a0f0000000087001500000000000c0000b3
:20352100000000000c302000050a7a65a000000000000000000000000000000000000000a0
:20354100000000000000000000000000000000081af7a9500005003ff8a000000001f0008b
:163561000000000366c7f0f800000980da143000001c000cf0403d
:203577000000000000c3000000d9b0ae5804000000000000000000000000000000000000de
:20359700000000000000000000000000000000005107015500000a42070f500800000800a4
:1735b7000000000014281d0f000000100b801500000020000f068030
:2035ce00000000000c302000050a7a65a02001400000000000000000000000000000000092
:2035ee000000028000000000000000000001000f80b2bd500000003d78a5001000001be285
:16360e00950000016056000801002018fa143004200005d8a0003a
:203624000000000000c3000000d9b0a658000000000000000000000000000000000000003c
:20364400000000000000000000000000000000005807c281800000022e05500400000ed8d5
:173664002a90000000282d0000000410078015010403c2000a0010ac
:20367b00000000000c30208000017225a020000000000000000000000000000000000000fb
:20369b00000000000000000000000000000000000a92d0c000016000faa521000000ab20f7
:1636bb00d0800001401c100800000000f21430000000326e52000c
:2036d1000000000000c300000800c0265810000000000000000000000000000000000000c0
:2036f100000000000000000000000000000000000001e614800003c0040aa000000f109e10
:173711002900000036002c00040000000700151000024017bc2200af
:20372800000000000c30200000007225a000000000000000000000000000000000000000ee
:2037480000000000000000000000000000000000001e3e0000001400ca08003d300011633e
:163768002c0000000394100803800000f214300e0040696bfc0099
:20377e000000000000c300000000002e5801000000000000000000000000000000000000e1
:20379e000000000000000000000000000000000030a96de88000036016d0000228000e9745
:1737be0056c0000000000c000020000003001504800806fd97808074
:2037d500000000000c30200000017225a02000000000000000000000000000000000000020
:2037f500000000000000000000000000000000000000000000011461de0202300400000028
:1638150000000001600e100800000019d2143004003c615ea54003
:20382b000000000000c300000000c0a65800000000000000000000000000000000010000fb
:20384b000000000000000000000000000000000000c0000000006b600200200002a000000e
:17386b000000000000002e0000000000878015048001625605540066
:20388200000000000c30200000007225a00000000000000000000000000000000000000093
:2038a2000000000000000000000000000000000000000000000000034aa0010132000000e5
:1638c20000000001401c000800000181d214300000167a5ef540d0
:2038d8000000000000c30000000000ae5801006000000000000000000000000000000000a6
:2038f800000000040000000000000000000000000000000000000150160f5000085000008e
:1739180000000000022c0e00000000008380154000c0201c0a0400fa
:20392f00100400000c30200000007a25a04000000000000000000000000000000000000089
:20394f00000000000000000000000000000001000000000000001c2adaa5000004008f7a85
:16396f00950000000044000800000000fa143800000038000000e3
:203985000000000000c30001200000265800000000000000000000000000000000000000c0
:2039a500000000000000000000000000000000010000000000000006cc0aa084002010f0e1
:1739c5002a90200000380800000000000700150000000300000000b2
:2039dc00000000000c30200000007a25a00000000000000000000000000000000000000030
:2039fc00000011800000000000000000000000000000000000002c000000000002000000ec
:163a1c0000000001c78c100800000780da14320020006000000001
:203a32000000000000c300000000002e58010000000000000000000000000000000000002a
:203a52000000020500000000000000000000000000000000000000600000000000400000ad
:173a7200000000002e00290000000008030015000404064000000078
:203a8900000000000c302000050a7a25a00000000000000000000000000000000000000073
:203aa900000000000000000000000000000000000000000000000002180a00000080000059
:163ac900000000026016100800000980da1432000000064d250036
:203adf000002000000c300010ad9b0a658010000000000000000000000000000000000006f
:203aff00000000000000000000000000000000000000000000004003040050000007000009
:173b1f000000000026382a0000000010078015000000022fb0d004a6
:203b3600000000000c3020000500023c00200140000000000000000000000000000000006f
:203b5600000000200000000000000000000000000000000000002000000000110080e0009e
:163b760000000005e0008f0011000f98fa1430440d6c00d97000c9
:203b8c000000000000c3000018d8b003c000000000000000000000000000000000000000f3
:203bac000000008100000000000000000000000000000000000001c0000000000809100096
:173bcc0000000000000000f001000818038015000003c017da400441
:203be30001000021ec30200000000000000000000000000000000000000000000000000064
:203c0300000000000000000000000000000000870100000000400000c166e0008c59b0003d
:163c230000000001e004f5200000000072143000000000000000db
:203c390000100002d0c30000000000000000000000000000000000000000000000000000c6
:203c59000000000000000000000000000000000008e00000000060000086640012a10c005a
:173c7900000001000001dcc2000000000f001514000000000000005c
:203c9000000000000c30202800000000000000000000000000000000000000000000000090
:203cb00000000000000000000000000000038000000000000e00207de996c838003800000f
:163cd0000000e000001dcfc003800000f214300e003c3c6bcb00dd
:203ce6000000000000c30000000000000000000000000000000000000000000000000000fb
:203d06000000000000000000000000000000200000000000008001c7c29964020000000074
:173d2600000008000003c878002000000f0015008001423dc5b10081
:203d3d0000000001ec30200000000000000000000000000000000000000000000000000029
:203d5d0000000000000000000000000000030000181029560c000000c896c8328070000048
:163d7d000000c0000074ea54000010195214380c0000686ca54032
:203d93000000000010c300000000000000000000000000000000000000000000000000003d
:203db30000000000000000000000000000001000000002950040000000e9648001800000bb
:173dd30000000000003fe0aa400002008f8015000000003c05540015
:203dea00010000000c302000001a0000000000000000000000000000000000000000000042
:203e0a000000080000000000000000000000000000023c1040000005e896c0000080092a0c
:163e2a00950000000000000000000180d2143000000c000000004a
:203e40000000000000c300000000000000000000000000000000000000000000000000009f
:203e600000000000000000000000000000000000000043c104000003c2d96484000f00584d
:173e80002a90000000000000000000000f80150000002000000000ad
:203e9700000000000c302000000000000000000000000000000000000000000000000000af
:203eb700000000000000000000000000000000400100000000000e74e896c08310000163f3
:163ed700d500000140000000000000007a143000000e00000000f3
:203eed000000000000c30000000000000000000000000000000000000000000000000000f2
:203f0d000000000000000000000000000000000000d000000000000700e9648000000018d8
:173f2d00281020003e000000000000000f00150000002000000000a3
:203f4400000000000c30200000000000000000000000000000000000000000000000000001
:203f640000000000000000000000000000000000007aa80060000e046896c0000000e72ada
:163f840095000000066fead000010001da143000001c01d9f80055
:203f9a000000003400c3000000000000000000000000000000000000000000000000000010
:203fba0000000000000000000000000000000000000743d40000002342d9640800001018f7
:173fda0015502000342aec3d000000008f0015000000001d9b501008
:203ff100000000000c302000800000000000000000000000000000000000000000000000d4
:20401100000000000000000000000000000001000000000000008e01e996c88000018000b7
:164031000000000367edd30000000988fa141000042c7feca54020
:204047000000000000c3000000000000000000000000000000000000000000000000000096
:2040670000000000000000000000000000000001100000000004402000e9640002801000e5
:17408700000000080c22de5a000000110b802900000246140aa400e5
:20409e00000000000c302000000e5f95402000000000000000000000000000000000000044
:2040be00000000000000000000000000000100018000000004002e70e996c0900000afaa96
:1640de0095004001620cea0401000800000000044020000000002d
:2040f4000000003400c30000100000c1540000000000000000000000000000000000000090
:204114000000000000000000000000000000000000000000000002e002b96680000010b840
:174134002a9000000041d0f540000010900000000a01c00000000009
:20414b000000003dcc302000080130002000001c60000000000870000000000000000000ae
:20416b00000000000000000000000000000000000000000000000000e896c900007010006d
:16418b00000000000027c3000800000000000001000060de5a0093
:2041a10000100001f0c300000030c0b8000000000000000000000080000000000000000012
:2041c1000000000000000000000000000000000000000000000001c000e9644800000d007b
:1741e100000000000000fda500003000000000001000001d05500073
:2041f80000000017ec302001801d3a65a80e010000000000380000057a9580000000000094
:20421800000012a0000000000000000000000000000000000e0000784996c03d02f0096215
:164238009500040006addcf00000000000000000000000ee430027
:20424e000000000030c300028000e0be580082080000000002000000fc14104000000000f9
:20426e000000020100000000000200000000000000000000008000040099641a285300d83d
:17428e00155000200002e94b08002000000000000001c035e4a010ac
:2042a5000000000fac302000001d3a25a000000004dbd840000001e00000000000000000fa
:2042c5000000000000000000000000000000010000f7a8004e001e00c996d13000800000ed
:1642e500000000000000000000000000000000000c0003fe5a005c
:2042fb000000000010c300000001d0a25800000002bfbd040400000c000000000000000073
:20431b00000000000000000000000000000000000005c3d401c0002000e9640800030000ad
:17433b0000000000000000000000000000000000000002bd05500057
:20435200010006cdcc30201000011225a000010025da6440400000057b29020000000000e4
:204372000000128000000000000000000000000100000000000040004896c8003200000080
:1643920000000000000000000000000000000000001c0178a500db
:2043a8000000006c30c300022800c0ba58010a0806a78914180000001ef0540000000000c3
:2043c80000000200000000000000000000000000000000000000000000d9640000500f0037
:1743e80000000000000000000000000000000000000000240aa010e0
:2043ff000000c7cdec302000001a1a65a0400000380000000000000000000000000000001d
:20441f00000000000000000000000000000000000000000000000e70c896c10000380b633a
:16443f00d5000000000000000000000000000000001c0000000076
:2044550000003c7c20c30000000000be580000000000000000000000000000000000000096
:2044750000000000000000000000000000000000000000000000002400a96480200d0b102e
:17449500281000000020000000043000000000000000200000000064
:2044ac000003e74eec302012401b7265a040800000000000000000000000000000000000d8
:2044cc00000001800000000000000000000000000000000000001c75e896c804020003620d
:1644ec0095000000060000000000000000000000002000000000ff
:2045020000001c3810c300020200e0ae580000000000000000010000000000000000000087
:2045220000000000000000000000000000000000000000000000000742d96480005000180b
:174542002a9020000440000000000000000000000002400000000002
:204559000001e38dec302000011f7225a000000070000000000000100000000000000000be
:20457900000000000000000000000000000001000100000000000e39e896c000000000009b
:164599000000000000000000000000000783c000003e6000000024
:2045af000000003810c300000090a0ae58000000000000000000100f00000000000000008c
:2045cf0000000000000000000000000000000000008000000000000000a966040000000039
:1745ef0000000000000000000000000000403c000002e40000000053
:204606000002c7dccc30200280081a25a404400001daaf40900201c0000000000000000005
:20462600000002800000000000000000000000000000000004003c70e996c011020003628b
:164646009500000000000000000000000000000080002000000029
:20465c0000003e6c00c30002800080ae58000200003705a4040040000000000000000000a3
:20467c000000000000000000000000000000000000900000000002c402d9641408500050cd
:17469c002a9000000000000000000000900000000403c7800000006f
:2046b300000000000c3020400d883a25a000000000000000001000000000000000020000a5
:2046d3000000800000000000000000000000100000f2143000010000e896c000008017012a
:1646f3006a000000000000000000001e5efc20000000027aa04053
:204709000010000000c3000400b9003a58300000000000000000030e00000000000000002d
:2047290000000000000000000000000000000000000b00150c00c80000e9644400070e10c6
:1747490029408000000000000000000000643c400003403c0f5408a6
:20476000000000000c30200008011a65a80e01400000000038000000000000e014c01dd87d
:204780009600000000000000000000000003800000f214300e001e05e896c038008011236f
:1647a000c320e0000040000000000000522aa00e001c025ea54075
:2047b6000000000000c300000030e0be580080000000000002000000000000080080025a94
:2047d6005a500000000000000000000000002000000f001504800003c2d9661600070e081a
:1747f60003d208000024000000000000a002a8408000201d055418f3
:20480d00000000000c302010001d1225a000000000000000000080006bc10000000000007f
:20482d000000000000000000000000000003000019d214300c010004e996c80000000026bb
:16484d005b4000000300000000000f8f522aa004000000000000f9
:204863000000000000c300000000c0ae580100000000000000000d00043c1040000000000e
:2048830000000000000000000000000000003000008b801540c00803c0a96400000f0f02cd
:1748a3001a52000000000000000000919002a8408000000000000007
:2048ba00000000000c30200000013a25a020000006ece4400080001f23150400060000006b
:2048da000000000000000000000000000000000181d2143000001e05e896c100000001a320
:1648fa00c30002000006af051000000e5a2aa000000000fea548fc
:204910000000000000c3000000f0c0ae580000600377ff441400000b3ff2d410009c000021
:2049300000000000000000000000000000000000008f801502000003c2b96400000f0f0839
:1749500003d200400000300f40000031a082a8400001c01d05560048
:20496700100000000c30200000001265a00000000000000000000000000000000000018f1d
:204987000400000000000000000000000000008000fa1430000000706996c00000000523f7
:1649a700c32000000000000000000001122aa800014000000000f1
:2049bd000100000000c30000000000225880000002c000000000000000000000000000005a
:2049dd00f0600000000000000000000000000000000b00150200000000e96480000000007b
:1749fd0003d000000000000000000000f082a80000080000000000ae
:204a1400000000000c30200041017a65a000000004000000000070010295020001e0400036
:204a34000000000000000000000000000000000000da143000001c046896c0000000002244
:164a54005b2000000000000000000000322aa800082000000000a5
:204a6a000000000000c300000210f02e580000000300000000030000002950000002380028
:204a8a000000000000000000000000000000000000df00150200000342b964800000000232
:174aaa00da50000000000000000000000082a8000000c000000000e1
:204ac100000000000c30200001005a25a000000000000000000000f3fb9184000040000016
:204ae100000000000000000000000000000000099cda143000000e39e996c080008005a3c4
:164b0100c32200000000000000000000522aa80000200000000075
:204b17000000000000c300000030002258800080020000000000000ff27d1010000200006f
:204b370000000000000000000000000000000011110b80150200000000e96400000100004c
:174b570003d0000000000000000000000082a8000000c0000000008a
:204b6e00000000000c30200005003a25a004008000000000141080000295004000002efb9f
:204b8e005510000000000000000000000001000818fa143004002e38e996c0d000000026a4
:164bae005b2040000000000000000000522aa804014020000000ad
:204bc4000000000000c300000000803a58200074000000000040070050169010000000ea31
:204be4007240000000000000000000000000000010df8015040002e002b964000000000274
:174c0400da52000000000000000000000082a8000009c0000000007a
:204c1b00000000000c30200000187265a00020003859e440400000000000000000002ddc70
:204c3b005400000000000000000000000000000001f2143000000000e896c00000801022de
:164c5b005b82000007000000000000081a2aa000002004dca500ce
:204c71000000000000c30000000100ae581000200017cf4490000000000000000000004c23
:204c9100cb50400000000000000000000000000000e700151200000000e9644800070e02ee
:174cb1001a51000000400000000000010082a850000043040aa000d5
:204cc800000000000c30200003807a65a00e00167558e440f8008009b63580e0000000008d
:204ce8000000000000000000000000000003800000f214300e000001e896c9780080112371
:164d0800c340e0000000000000000008322aa00e80200000000000
:204d1e000000000000c300000008903a5800800006a5cf8412028f003392904800240000a6
:204d3e0000000280000000000000000000002000000300150680000002d9640200070e08b7
:174d5e0003d0080000000000000000010002a84084024000000000b2
:204d7500000000000c30200020001265a000803e684be440800000003bc1020002c000af07
:204d95000400000000000000000000000001000019d214301c000000c996e1000000002648
:164db5005b60c0000000000000000000122aa004001e237e2500a9
:204dcb000000000000c30000040000aa580000014016cf4404000000003c1000001c000029
:204deb00f0410000000000000000000000001000008780150040000000e96408000f0f0296
:174e0b001a50000000000000000000000082a840c000040590d0088b
:204e2200000000000c302000010e3225a0000000694ae440843500000000000000c000af0f
:204e42000600000000000000000000000000000181d2143000000001c996c100080001a3e5
:164e6200c324000000000000000000007a2aa000002002eaa04023
:204e78000000000000c3000000080036580000000025cf840440200d0000000000000000d8
:204e9800f0400000000000000000000000000000008380150100000002d96480000f0f08cc
:174eb80003d0000000000000000000000002a8400000c00e0f5408ed
:204ecf00001000000c302000081a7a65a000001e004dc540800080000000001001e0000055
:204eef000000000000000000000000000000000000fa143000000e7408f040c000000523c3
:164f0f00c3800000000000000000000a322aa800014e00000000ec
:204f25000002000000c3000000b090a6580001002016bc7404068b0000000001100000005c
:204f4500000000000000000000000000000000400007001502010023000f04800400000033
:174f650003d2001000000000000040500082a800010820000000006d
:204f7c00000000000c3020000d813a65a0000046015dc541000170000000001012e00000cf
:204f9c000000000000000000000000000000000300da143000009c380000000000000022de
:164fbc005b220002004fca560000000a3a2aa800101400000000b7
:204fd2000000000000c300000058a0a2580000ca6024ccb40400208d00000001003e00004c
:204ff200000000000000000000000000000000050803001502000400000000000000000272
:17501200da5000003c3650aa40000050a002a8000000138000000084
:20502900000000000c30201000013a25a00040000059e441c00000006bc10200000000004f
:205049000000000000000000000000000000008980da143000000e7000000000400005a3ba
:16506900c320010000000000000000003a2aa80030000000000011
:20507f000000000000c300028030a03658000a000016cf4400000f00043c100000000000dc
:20509f0000000000000000000000000000000000100780150400000400000000000000003d
:1750bf0003d0000000000000000000000082a80000000000000000dd
:2050d600000000000c3020000d403a25a0041000000000001040800073c10241000001af07
:2050f6000410000000000000000000000001040b18fa143004101c38000000104000002642
:165116005b20410000000000000405003a2aa8041000000000009e
:20512c000000000000c300000034a03a580000000000000000000b00043c100000000000df
:20514c00f040000000000000000000000000000018038015020000000000000002800002dd
:17516c00da50000000000000000000000082a8000000028000000056
:205183000000000000000003800a3a25a000002000000000000000002bc100000000000074
:2051a30000000000000000000000000000000000007214300000000000000000000005230e
:1651c300c30000000000000000000000722aa0000020264e5a00e9
:2051d9000000000000000000000180ba581000014000000000000300003c10100000000073
:2051f90000000000000000000000000000000000000b00151200000000000000000f0f0046
:1752190003d3000000000000000000000002a8500401c79f0aa00099
:20523000000000000000000005005a25a00e0000025fb540b80070006bc100000000000082
:20525000000380000000000000000000000380000072143000000000000000380000102218
:165270005b42000000000000000000007a2aa00000207b5aa001b1
:2052860040000000000000000008b0b658008000002cfb140600000b003c104000000000aa
:2052a60000002000000000000000000000002000000f00150200000000000002000f0e0261
:1752c600da50000000000000000000000082a8400003c0250f5000f6
:2052dd00000000000000000000005225a000000068000000000080000000000000000000b2
:2052fd00000000000100000000000000000100001d5214301100000000000000008015a393
:16531d00c34000000000000000000000322aa00000060358a5284d
:2053330000000000000000000000b0b6580000000000000000000d0000000000000000008f
:205353000000000000b000000000000000003000018b8015000000000000000000070e0024
:1753730003d2000000000000000000000002a8400003c0050aa000f2
:20538a000000000000000000000a7a25a000800e000000000000100f66a100000000000006
:2053aa0000000000000000000100000000000001817214301000000000000000008001a376
:1653ca00c30000000000000000000f80322aa000003e21dc0a003a
:2053e0000000000000000000009100ba580000002000000000000080176952400000000058
:2054000000000000000000000000000000000000008f8015000000000000000000070f084a
:1754200003d2000000000000000000700082a8400001c43f05f000cd
:205437001200000000000000000c1225a040800002ffc54100000000029502000000000000
:20545700000000000002bc180000000000000000007a14300020000000000000000000225f
:165477005b200000000000000000050a322aa800000000ee5a0049
:20548d000102000000000000400090a658000100001facb480040000101690001000000064
:2054ad0000000040000043c1000000000000004000db00150404000000000000040000025d
:1754cd001a5000000000000000000000a082a800010000050aa000e4
:2054e400000000000000000000091a65a000002023efe440028501c07bc1020200000000a2
:2055040000000000000000000000000000000000005a1430000000000000000000000123c5
:16552400c322000000000000000000005a2aa800014420fa5f00a2
:20553a0000000000000000000000b0aa58000002442cff4404128010043c100002000000f2
:20555a0000000000000000000000000000000040000f0015040000000000000000000008c1
:17557a0003d000000000000000000000a002a800000a667c00a00071
:2055910000000000000000000d809a4cc000000602ffc5414000700000000000000000000a
:2055b10000000000000000000000000000000049985a143000000000000000000000002635
:1655d1005b20000000000000000000005a2aa8000004396e5a0018
:2055e700000000000000000000b4073730000000201fccb400000080000000000000000043
:205607000000000000000000000000000000000210db8015020000000000000000000002fd
:175627001a50200000000000000000500002a8000000275d0550000f
:20563e00000000000000000405da00000004101403ebe44090c070c07bc100010000000072
:20565e0000010400000000000000000000010408187a1430000000000000001040000026ce
:16567e005b200000000000000000001c3a2aa800000e02081b0040
:205694000000000000000000000800000000000022adff4404110010003c1010000000005b
:2056b40000000000000000000000000000000000100f80150400000000000000000000021c
:1756d400da50000000000000000000010082a8000100202df27000ba
:2056eb000000000000000000050000000000400470df0800000070f0000000000207400056
:20570b000000000000000000000000000000000000f21430000140000000000000001523cf
:16572b00c3020000000000000000001e3a2aa000000003fa0a007a
:2057410000000000000000000000000000000000003490000000070d00000000002c7000d4
:2057610000000000000000000000000000000000000d00151200000000000000000f0e00d7
:1757810003d3000000000000000000000082a8500000000505f000c7
:205798000000000000000380050000000000000000000000008001cd27dc000a000000000e
:2057b800000380000000000000000000000380000af214300000000000000038000011231f
:1657d800c36000000000000000000500722aa000800005ec0a00dc
:2057ee00000000000000002000000000000000000340000000100010ff3fc0004a000000d0
:20580e0000003000000000000000000000002000010900150200000000000002000f0e08e2
:17582e0003d000000000000000001008b002a8400401c38d05f00094
:2058450000000000000000000000daf8180000206c000000000000a16200000000000000ca
:20586500000000000002bc18000000000003000019d214301000000000000000008005a3e3
:16588500c32000000001e0f0000000001a2aa000000003ec5a002c
:20589b0000100000000000000000a57fe9010002c34000000000030cb60000000000000005
:2058bb0000000038300003c10000000000003000008d8015000000000000000000070f0039
:1758db0003d000000000100f000000000002a8400000000e05500077
:2058f2000a000000000000000180dff050000014216d80000004f803be00000020000000ed
:205912000000a8000000000000a00000000000000ad214301000400000000000088001a391
:16593200c32000000000000000000000322aa000002000ec5f0015
:20594800004000000000000000f0a5739d800001c024a00000022500d34000000d400000ce
:2059680000000130000000000004000000000000010980150000000000000000000700083c
:1759880003d0000000000000000000000082a84000c1c24e00a0005a
:20599f0010000000000000000000000000000004015e8002028500117a8000000040000021
:2059bf000000000000000000000000000000000000fa1430008000000000000000000022e8
:1659df005b2000000000000000000000122aa800002c02ec5a00df
:2059f50001000000000000000000000000000002c03700000000200e08280000000000003a
:205a150000000000000000000000000000000000000d00150200000000000000000000024b
:175a35001a5200000000000000000000a082a8000081f27c0aa0800b
:205a4c0000000000000000200380dff058000000057c1a000404f195f2000800000000004d
:205a6c000000000000000000000000000000000180da141000000000000000000000002279
:165a8c005b200000000000000000001a1a2aa8000154000000002e
:205aa20000000000000000010000056f9d81000002d780500000af1a540000000600000085
:205ac200000000000000000000000000000000000003802902000000000000000000000214
:175ae200da50000000000000000000000082a800000a4240000000cd
:205af90000000000000000000000de781c000016034ef700000019976a008800000004c84f
:205b1900000000000000000000000000000000098c0000000000000000000000000017239d
:165b3900c300000000000000000005007a2a88000004216c5a0077
:205b4f0000000000000000000000053fe9010400022def3000000088f8000260000000696b
:205b6f000000000000000000000000000000000011000000000000000000000000000a08f3
:175b8f0003d4000000000000000000000002a8000000241c055000e9
:205ba6000000000000000100000adfb0540001400400000006808000000000100000000096
:205bc60000010010000000000000000000010008000000000000000000000010080001a2ea
:165be600a9020000004000000000000000000000001c39d85f0032
:205bfc000000000000000000000005639d000003c20000000000090c0000000102000000a7
:205c1c000000003200000000000200000000000010000000000000000000000020100000f4
:175c3c002a9000000028000000000010000000000003c7cf00a00026
:205c53000000000000000000000e0000000000000400000000000017000200000000000006
:205c73000000000000000000000000000000000000871d002000000000000000000000004d
:165c930000000000000000000000000000000000000020000000db
:205ca90000000000000000000001000000000001428000000000000d02c000000000000048
:205cc90000000000000000000000000000000000000176e024000000000000000000000040
:175ce9000000000000000000000000000000000000000400000000a0
:205d0000000000000000038000000000000000147000000038000003a65b00e001c000009f
:205d20000000018000000000000000000000000000000000000000000000000000000000e2
:165d400000000000000000000000000000000000000001ea5a0008
:205d560000000000000000200000000000000000000000000200000002a5901800000000bc
:205d760000000000000000000000000000000000d00000000000000000000000000000003d
:175d960000000000000000000000000000000000000000240550007d
:205dad000000000000000000000097f150000014026a0800000011c7265b0000000001af6d
:205dcd000400000000000000000000000000000000000000000000000000000000000000b2
:165ded0000000000000000000000000000000000000e00ec5f0047
:205e03000000000000000001000005f72d230001e3969000100000080be59240000000103e
:205e2300f0400000000000000000000000000000000000000000000000000000000000002f
:175e4300000000000000000000000000000000000000201600a00072
:205e5a000000000000000000050000000000801c20000000008181d1265b00000000000013
:205e7a00000000000000000000000000000000000000000000000000000000000000000008
:165e9a0000000000000000000000000e00000000000000000000e4
:205eb00000000000000000000000000000000401c000000000110b4d0b6592400000300032
:205ed0000000000000000000000000000000000000000000000000000000000000000000b2
:175ef00000000000000000000000000000000000000000000000009b
:205f07000000000000000000000000000000000000fa0a0000008017a65b80000000018fce
:205f2700040000000000000000000000000000000100000000000000000000000000000055
:165f470000000000000000000000000000000000001c0000000028
:205f5d0000000000000000000100000000000002400200a000000b0b02e5980000000000aa
:205f7d00f040000000000000000000000000000000d0000000000000000000000000000004
:175f9d000000000000000000000000000000000000000000000000ed
:205fb40000000000000000280000000000000000616c5f00020131c3265b020000000000ff
:205fd400000000000000000000000000000000001c1b28001000000000000000000000003e
:165ff4000000000000000000000000007e9680000000780000008b
:20600a0000000000000000010000c000000000e0063e0ff00021a9000ae590000000000049
:20602a00000000000000000000000000000000000100428023000000000000004000000030
:17604a000000000000000000000000000f4154000000040000000097
:2060610000000000000000000000000000000000026aff0200008015225b0200000001efae
:206081000400000000000000000000000000000000000000000000000000000000000000fb
:1660a10000000000000000000000000080168000000000000000d3
:2060b70000000000000000000000000000000000022d0ef00000070d0b25980000000000c0
:2060d700f04100000000000000000000000000000000000000000000000000000000000078
:1760f700000000000000000000000000fd02940000000000000000ff
:20610e0000000000000001000000000000000020024a8002100000c5265b024806000000dc
:20612e0000000000000000000000000000000000000603c020000000000000000800000060
:16614e0000000000000000000000010000000000000e000000002c
:2061640000000000000000000000f00000000002c01c00028c01870003259800001c00005b
:20618400000000000000000000000000000000000000003c000000000000000000000000bf
:1761a4000000000000000000000000080000000000002000000000bc
:2061bb0000000000000000000001000000000080625a000000000017a25b800000000000f3
:2061db000000000000000000000000000000000000000000000000000000000000000000a4
:1661fb00000000000000000000000000000000000000000000008e
:2062110000000000000000000000e00000000014002ec2000000000f026591000000000082
:2062310000000000000000000000000000000000000000000000000000000000000000004d
:17625100000000000000000000000000000000000000000000000036
:206268000000000000000380000000000000001c034c00023805b9f7a65b00e00000000058
:20628800000380000002bc10000000000003800d0000000000000000000000000000000015
:1662a8000000000000000000000000005e9682000000000000006a
:2062be0000000000000000200000000000000000000f00200200090f032590080000000097
:2062de0000002000000043c101000000000020001800000000000000000000000000000043
:1762fe000000000000000000000000000581540000000000000000af
:20631500000000000000000000180000000000003800000000000015265b00000000000082
:20633500000000000800000000000000000000000000000000000000000000000000000040
:166355000000000000000000000000000000000000000000000032
:20636b000000000000000000000000000000000000000000000000090a659000000000000a
:20638b000000000001000000000000000000000000000000000000000000000000000000f1
:1763ab000000000000000000000000f00000000000000000000000eb
:2063c20000000000000000000000023c1000004e037e080000050083225b0000000000cfc2
:2063e200040000000000000000000000000000000000000000000000000000000000000097
:1664020000000000000000000000071e000000000000000000005f
:20641800000000000000000000000043c10400096204c000000000100b259000000000104d
:20643800f04000000000000000000000000000000000000000000000000000000000000014
:17645800000000000000000000000009000000000000000000000024
:20646f0000000000000000000000000000000c2c000000000000f8e1a65b000000000000fb
:20648f0000000000000000000000000000000000009b9410000000000000000000000000ae
:1664af0000000000000000000000000000000000000000000000d7
:2064c50000000000000000000000000000000003430000000000030802e5900000002400cb
:2064e50000000000000000000000000000000000000143e90000000000000000000000006a
:1765050000000000000000000000000000000000000000000000007f
:20651c000000000000000000000000000000000603dd080002803001a25b0000020001efcf
:20653c0004100000000000000000000000000000000000000000000000000000000000002b
:16655c000000000000000000000000000000000000000000000029
:2065720000000000000000000000800000000000c336e0000001808003659000000c0000ab
:20659200f040000000000000000000000000000000000000000000000000000000000000b9
:1765b2000000000000000000000000000000000000000000000000d2
:2065c9000000000000000010000000000000008070000000000001a7a25b0000000000000d
:2065e900000000000000000000000000000000000100000000000000000000000000000091
:16660900000000000000000000000000000000000000000000007b
:20661f000000000000000000800000000000001404000000000000000b2592000000000001
:20663f000000000000000000000000000000000000c000000000000000000000000000007b
:17665f0000000000000000000000080000000000000000000000001c
:206676000000000000000100000057155020016c000000001000d807265b004000c001cf7a
:2066960004014200000000000000000000010000000000000000000000000000100000008c
:1666b60000000000000000000000000000000000000000000000ce
:2066cc000000000000000000000000c15500000b4000000000000d890a65920000020000b4
:2066ec00f0410000000000000000000000000000000000000000000000000000000000005d
:17670c00000000000000000000000000000000000000000000000076
