:02000000ff00ff
:080002004c6174746963650030
:17000a00694345637562653220323032302e31322e32373934330071
:15002100506172743a2069434534305550354b2d53473438002c
:1b003600446174653a204f637420323320323032342032303a31313a31320089
:0200510000ffae
:040053007eaa997e6a
:02005700510056
:0200590001059f
:03005b00920020f0
:03005e006202b388
:03006100720150d9
:0300640082000017
:02006700110086
:02006900010193
:20006b00000000000000000000000010000000000000400000000000010000000000000420
:20008b000000000000001000000000000040000000001000000000000040000000000001b4
:1600ab0000000000000004000000000000100000000000004000eb
:2000c1000000000000000000000000020000000000000800000000000020000000000000f5
:2000e10080000000000002000000000000080000000002000000000000080000000000006b
:1701010020000000000000800000000000020000000000000800003d
:200118000000000000000000000000000000000000000000000000000000000000000000c7
:200138000000000000000000000000000000000000000000000000000000000100000000a6
:160158000000000000000000000000000000000000000000000091
:20016e00000000000000000000000000000000000000000000000000000000000000000071
:20018e00000000000000000000000000000000000000000000000000000000000000000051
:1701ae0010000000000000000000000000000000000000000000002a
:2001c50000000000000000000000000000000000000000000000000000000000000000001a
:2001e5000000000000000000000000000000000000000000000000000000000000000000fa
:1602050000000000000000000000000000000000000000000000e3
:20021b000000000000000000000000000000000000000000000000000000000000000000c3
:20023b000000000000000000000000000000000000000000000000000000000000000000a3
:17025b0000000000000000000000000000000000000000000000008c
:2002720000000000000000000000000000000000000000000000000000000000000000006c
:20029200000000000000000000000d00000000000000000000000000000000020000040039
:1602b2000000000000000000000000000000000000000000000036
:2002c800000000000000000000000000000000000000000000000000000000000000000016
:2002e8000000000000000000000000000000000000000000000000000000000000000000f6
:170308000000000000000000000000000000000000000000000000de
:20031f000000000000000000000000000000000000000000000000000000000000000000be
:20033f000000000000401000000000000000000000401000000000010040000000000800b5
:16035f000000000000000000000000000000000000038000000005
:20037500000000000000000000000000000000000000000000000000000000000000000068
:20039500000000000000000000000000000000000000000000000000000000000000000048
:1703b500000000000000000000000000000000000000080000000029
:2003cc00000000000000000000000000000000000000000000000000000000000000000011
:2003ec00000000000000000000000000008000000000000000400000000000000000000031
:16040c00000000000000000000000000000000000000000040009a
:200422000000000000000000000000000000000000000000000000000000000000000000ba
:20044200000000000000000000000000000400000000000000000000000000000000000096
:1704620000000000000000000000000000000000000000000c000077
:20047900000000000000000000000000000000000000000000000000000000000000000063
:20049900000010000000000000000000000010000000000000000000000000000000000023
:1604b900000000000000000000000000000000000000000000002d
:2004cf0000000000000000000000000000000000000000000000000000000000000000000d
:2004ef000000010000000000000000000000010000000000000400000000000000000000e7
:17050f000000000000000000000000000000000000000000000000d5
:200526000000000000000000000000000000000000000000000000000000000000000000b5
:20054600000000000040000000000000000000000040000000000001000000000000000014
:16056600000000000000000000000000000000000000000000007f
:20057c0000000000000000000000000000000000000000000000000000000000000000005f
:20059c0000000000000000000000000000000000000000000000000000000000000000003f
:1705bc00000000000000040000000000000000000000000000000024
:2005d300000000000c302000000000000000000000000000000000000000000000000000ac
:2005f3000000000000000000000000000000000000000000000000000000000000000000e8
:1606130000000000000000000000000000000000000000000000d1
:200629000000000000c30000000000000000000000000000000000000000000000000000ee
:20064900000000000000000000000000000000000000000000000000000000000000000091
:1706690000000000000000000000000000000000000000000000007a
:20068000000000000c302000000000000000000000000000000000000000000000000000fe
:2006a00000000000000000000000000000000000000000000000000000000000000000003a
:1606c0000000000000000000000000000000000000000000000024
:2006d6000000000000c3000000000000000000000000000000000000000000000000000041
:2006f6000000000000000000000000000000000000000000000000000000000000000000e4
:170716000000000000000000000000000000000000000000000000cc
:20072d00000000000c30200000000000000000000000000000000000000000000000000050
:20074d0000000000000000000000000000000000000000000000000000000000000000008c
:16076d000000000000000000000000000000000000000000000076
:200783000000000000c3000000000000000000000000000000000000000000000000000093
:2007a300000000000000000000000000000000000000000000000000000000000000000036
:1707c30000000000000000000000000000000000000000000000001f
:2007da00000000000c302000000000000000000000000000000000000000000000000000a3
:2007fa000000000000000000000000000000000000000000000000000000000000000000df
:16081a0000000000000000000000000000000000000000000000c8
:200830000000000000c30000000000000000000000000000000000000000000000000000e5
:20085000000000000000000000000000000000000000000000000000000000000000000088
:17087000000000000000000000000000000000000000000000000071
:20088700000000000c302000000000000000000000000000000000000000000000000000f5
:2008a700000000000000000000000000000000000000000000000000000000000000000031
:1608c700000000000000000000000000000000000000000000001b
:2008dd000000000000c3000000000000000000000000000000000000000000000000000038
:2008fd000000000000000000000000000000000000000000000000000000000000000000db
:17091d000000000000000000000000000000000000000000000000c3
:20093400000000000c30200000000000000000000000000000000000000000000000000047
:20095400000000000000000000000000000000000000000000000000000000000000000083
:16097400000000000000000000000000000000000000000000006d
:20098a000000000000c300000000000000000000000000000000000000000000000000008a
:2009aa0000000000000000000000000000000000000000000000000000000000000000002d
:1709ca00000000000000000000000000000000000000000000000016
:2009e100000000000c3020000000000000000000000000000000000000000000000000009a
:200a01000000000000000000000000000000000000000000000000000000000000000000d5
:160a210000000000000000000000000000000000000000000000bf
:200a37000000000000c30000000000000000000000000000000000000000000000000000dc
:200a570000000000000000000000000000000000000000000000000000000000000000007f
:170a7700000000000000000000000000000000000000000000000068
:200a8e00000000000c302000000000000000000000000000000000000000000000000000ec
:200aae00000000000000000000000000000000000000000000000000000000000000000028
:160ace000000000000000000000000000000000000000000000012
:200ae4000000000000c300000000000000000000000000000000000000000000000000002f
:200b04000000000000000000000000000000000000000000000000000000000000000000d1
:170b24000000000000000000000000000000000000000000000000ba
:200b3b00000000000c3020000000000000000000000000000000000000000000000000003e
:200b5b0000000000000000000000000000000000000000000000000000000000000000007a
:160b7b000000000000000000000000000000000000400000000024
:200b91000000000000c3000000000000000000000000000000000000000000000000000081
:200bb100000000000000000000000000000000000000000000000000000000000000000024
:170bd10000000000000000000000000000000000000000000000000d
:200be800000000000c30200000000000000000000000000000000000000000000000000091
:200c08000000000000000000000000000000000000000000000000000000000000000000cc
:160c280000000000000000000000000000000000000000000000b6
:200c3e000000000000c30000000000000000000000000000000000000000000000000000d3
:200c5e00000000000000000000000000000000000000000000000000000000000000000076
:170c7e0000000000000000000000000000000000000000000000005f
:200c9500000000000c302000000000000000000000000000000000000000000000000000e3
:200cb50000000000000000000000000000000000000000000000000000000000000000001f
:160cd5000000000000000000000000000000000000000000000009
:200ceb000000000000c3000000000000000000000000000000000000000000000000000026
:200d0b000000000000000000000000000000000000000000000000000000000000000000c8
:170d2b000000000000000000000000000000000000000000000000b1
:200d4200000000000c30200000000000000000000000000000000000000000000000000035
:200d6200000000000000000000000000000000000000000000000000000000000000000071
:160d8200000000000000000000000000000000000000000000005b
:200d98000000000000c3000000000000000000000000000000000000000000000000000078
:200db80000000000000000000000000000000000000000000000000000000000000000001b
:170dd800000000000000000000000000000000000000000000000004
:200def00000000000c30200000000000000000000000000000000000000000000000000088
:200e0f000000000000000000000000000000000000000000000000000000000000000000c3
:160e2f0000000000000000000000000000000000000000000000ad
:200e45000000000000c30000000000000000000000000000000000000000000000000000ca
:200e650000000000000000000000000000000000000000000000000000000000000000006d
:170e8500000000000000000000000000000000000000000000000056
:200e9c00000000000c302000000000000000000000000000000000000000000000000000da
:200ebc00000000000000000000000000000000000000000000000000000000000000000016
:160edc000000000000000000000000000000000000000000000000
:200ef2000000000000c300000000000000000000000000000000000000000000000000001d
:200f12000000000000000000000000000000000000000000000000000000000000000000bf
:170f32000000000000000000000000000000000000000000000000a8
:200f4900000000000c3020000000000000000000000000000000000000000000000000002c
:200f6900000000000000000000000000000000000000000000000000000000000000000068
:160f89000000000000000000000000000000000000000000000052
:200f9f000000000000c300000000000000000000000000000000000000000000000000006f
:200fbf00000000000000000000000000000000000000000000000000000000000000000012
:170fdf000000000000000000000000000000000000000000000000fb
:200ff600000000000c3020000000000000000000000000000000000000000000000000007f
:201016000000000000000000000000000000000000000000000000000000000000000000ba
:1610360000000000000000000000000000000000000000000000a4
:20104c000000000000c30000000000000000000000000000000000000000000000000000c1
:20106c00000000000000000000000000000000000000000000000000000000000000000064
:17108c0000000000000000000000000000000000000000000000004d
:2010a300000000000c302000000000000000000000000000000000000000000000000000d1
:2010c30000000000000000000000000000000000000000000000000000000000000000000d
:1610e30000000000000000000000000000000000000000000000f7
:2010f9000000000000c3000000000000000000000000000000000000000000000000000014
:201119000000000000000000000000000000000000000000000000000000000000000000b6
:1711390000000000000000000000000000000000000000000000009f
:20115000000000000c30200000000000000000000000000000000000000000000000000023
:2011700000000000000000000000000000000000000000000000000000000000000000005f
:161190000000000000000000000000000000000000000000000049
:2011a6000000000000c3000000000000000000000000000000000000000000000000000066
:2011c600000000000000000000000000000000000000000000000000000000000000000009
:1711e6000000000000000000000000000000000000000000000000f2
:2011fd00000000000c30200000000000000000000000000000000000000000000000000076
:20121d000000000000000000000000000000000000000000000000000000000000000000b1
:16123d00000000000000000000000000000000000000000000009b
:201253000000000000c30000000000000000000000000000000000000000000000000000b8
:2012730000000000000000000000000000000000000000000000000000000000000000005b
:17129300000000000000000000000000000000000000000000000044
:2012aa00000000000c302000000000000000000000000000000000000000000000000000c8
:2012ca00000000000000000000000000000000000000000000000000000000040000000000
:1612ea0000000000000000000000000000000000000000000000ee
:201300000000000000c300000000000000000000000000000000000000000000000000000a
:201320000000000000000000000000000000000000000000000000000000000000000000ad
:17134000000000000000000000000000000000000000000000000096
:20135700000000000c3020000000000000000000000000000000000000000000000000001a
:20137700000000000000000000000000000000000000000000000000000000000000000056
:161397000000000000000000000000000000000000000000000040
:2013ad000000000000c300000000000000000000000000000000000000000000000000005d
:2013cd00000000000000000000000000000000000000000000000000000000000000000000
:1713ed000000000000000000000000000000000000000000000000e9
:20140400000000000c3020000000000000000000000000000000000000000000000000006c
:201424000000000000000000000000000000000000000000000000000000000000000000a8
:161444000000000000000000000000000000000000000000000092
:20145a000000000000c30000000000000000000000000000000000000000000000000000af
:20147a00000000000000000000000000000000000000000000000000000000000000000052
:17149a0000000000000000000000000000000000000000000000003b
:2014b100000000000c302000000000000000000000000000000000000000000000000000bf
:2014d1000000000000000000000000000000000000000000000000000000000000000000fb
:1614f10000000000000000000000000000000000000000000000e5
:201507000000000000c3000000000000000000000000000000000000000000000000000001
:201527000000000000000000000000000000000000000000000000000000000000000000a4
:1715470000000000000000000000000000000000000000000000008d
:20155e00000000000c30200000000000000000000000000000000000000000000000000011
:20157e0000000000000000000000000000000000000000000000000000000000000000004d
:16159e000000000000000000000000000000000000000000000037
:2015b4000000000000c3000000000000000000000000000000000000000000000000000054
:2015d4000000000000000000000000000000000000000000000000000000000000000000f7
:1715f4000000000000000000000000000000000000000000000000e0
:20160b00000000000c30200000000000000000000000000000000000000000000000000063
:20162b0000000000000000000000000000000000000000000000000000000000000000009f
:16164b000000000000000000000000000000000000000000000089
:201661000000000000c30000000000000000000000000000000000000000000000000000a6
:20168100000000000000000000000000000000000000000000000000000000000000000049
:1716a100000000000000000000000000000000000000000000000032
:2016b800000000000c302000000000000000000000000000000000000000000000000000b6
:2016d8000000000000000000000000000000000000000000000000000000000000000000f2
:1616f80000000000000000000000000000000000000000000000dc
:20170e000000000000c30000000000000000000000000000000000000000000000000000f8
:20172e0000000000000000000000000000000000000000000000000000000000000000009b
:17174e00000000000000000000000000000000000000000000000084
:20176500000000000c30200000000000000000000000000000000000000000000000000008
:20178500000000000000000000000000000000000000000000000000000000000000000044
:1617a500000000000000000000000000000000000000000000002e
:2017bb000000000000c300000000000000000000000000000000000000000000000000004b
:2017db000000000000000000000000000000000000000000000000000000000000000000ee
:1717fb000000000000000000000000000000000000000000000000d7
:20181200000000000c3020000000000000000000000000000000000000000000000000005a
:20183200000000000000000000000000000000000000000000000000000000000000000096
:161852000000000000000000000000000000000000000000000080
:201868000000000000c300000000000000000000000000000000000000000000000000009d
:20188800000000000000000000000000000000000000000000000000000000000000000040
:1718a800000000000000000000000000000000000000000000000029
:2018bf00000000000c302000000000000000000000000000000000000000000000000000ad
:2018df000000000000000000000000000000000000000000000000000000000000000000e9
:1618ff0000000000000000000000000000000000000000000000d3
:201915000000000000c30000000000000000000000000000000000000000000000000000ef
:20193500000000000000000000000000000000000000000000000000000000000000000092
:1719550000000000000000000000000000000000000000000000007b
:20196c00000000000c302000000000000000000000000000000000000000000000000000ff
:20198c0000000000000000000000000000000000000000000000000000000000000000003b
:1619ac000000000000000000000000000000000000000000000025
:2019c2000000000000c3000000000000000000000000000000000000000000000000000042
:2019e2000000000000000000000000000000000000000000000000000000000000000000e5
:171a02000000000000000000000000000000000000000000000000cd
:201a1900000000000c30200000000000000000000000000000000000000000000000000051
:201a390000000000000000000000000000000000000000000000000000000000000000008d
:161a59000000000000000000000000000000000000000000000077
:201a6f000000000000c3000000000000000000000000000000000000000000000000000094
:201a8f00000000000000000000000000000000000000000000000000000000000000000037
:171aaf00000000000000000000000000000000000000000000000020
:201ac600000000000c302000000000000000000000000000000000000000000000000000a4
:201ae6000000000000000000000000000000000000000000000000000000000000000000e0
:161b060000000000000000000000000000000000000000000000c9
:201b1c000000000000c30000000000000000000000000000000000000000000000000000e6
:201b3c00000000000000000000000000000000000000000000000000000000000000000089
:171b5c00000000000000000000000000000000000000000000000072
:201b7300000000000c302000000000000000000000000000000000000000000000000000f6
:201b9300000000000000000000000000000000000000000000000003ebd160000000000013
:161bb300000000000000ea00000000000000000000000000000032
:201bc9000000000000c30040000000000000000000000000000000000000000000000000f9
:201be9000000000000000000000000000000000000000000000000000eba14000000000000
:171c0900000000000000c050000000000000000000000000000000b4
:201c2000000000000c30200000000000000000000000000000000000000000000000000048
:201c400000000000000000000000000000000000000000000e0020000000003800581000b6
:161c600000000000000000000000000a0000000000000000000064
:201c76000000000000c300400000000000000000000000000000000000000000000000004b
:201c96000000000000000000000000000000000000000000008000400000000200000e005e
:171cb6000000004800000000000000010000000000200000000000ae
:201ccd00000000000c3020000000000000000000000000000000000000000000000000009b
:201ced000000400000000000000000000000400000000000000020680000000000000000cf
:161d0d0000000000000000000000070000000000000000000000b9
:201d23000000000000c300400000000000000000000000000000000000000000000000009d
:201d43000000040000000000000000000000040000000000000003c40000000000000000b1
:171d6300000000000000000000000000000000000000000000000069
:201d7a00000000000c302400000000000000000000000000000000000000000000000000e9
:201d9a00000000000000000000000000000000000000000000000068000000000080000041
:161dba000000000000000000000000000000000000000000000013
:201dd0000000000000c3000000000000000000000000000000000000000000000000000030
:201df00000000000000000000000000000000000000000000000000400000000000d0000c2
:171e10000000000000000000000000000000000004000000000000b7
:201e2700000000000c3020000000000000000000000000000000000000000000000000003f
:201e4700000000000000000000000000000000000000000000000003eba760000080000006
:161e67000000000200000000000000000000000000000000000063
:201e7d000000000000c30040400000000000010000000000000400000000000000000000fd
:201e9d00000000400000000000000000000000000000000000010000368a360004050000e5
:171ebd00000000103c00000000004000000000000100000000000081
:201ed400000000000c30200000000000000000000000000000000000000000000000000092
:201ef400000000000000000000000000000000000000000000200602ea8540800000000077
:161f140000000000000000000000000100000000000000000000b6
:201f2a000000000000c3004000000000000000000000000000000000000000000000000094
:201f4a000000000000000000000000000000000000000000000000400da8b40000000000ce
:171f6a00000000000000000000000000e00000000008000000000078
:201f8100000000000c302400000000000000000000000000000000000000000000000000e0
:201fa100000000000000000000000000000000000000000000000000000000000000000020
:161fc1000000010000000000000000000000000000000000000009
:201fd7000000000000c3000000000000000000000000000000000000000000000000000027
:201ff7000000000004000000000000000000000004000000000000000000000000000000c2
:1720170000000000140000000000000000000000000000000000009e
:20202e00000000000c302004000000000000100000000000004000000000000000000000e2
:20204e000000040000000000000000000000000000000000041000040000001040000b6794
:16206e00d50401000000000000040000baa94000100000000000cb
:202084000000000000c3004000000000000000000000000000000000000000000000000039
:2020a400000000000000000000000000000000000000000000000003400000000000005683
:1720c4002d58000000000000000000000980140200000000000000e1
:2020db0001000000cc302000000000000000000000000000000000000000000000000000c8
:2020fb000000000000000000000000000000000000000000000000000000000000000000c5
:16211b00000000000000000000000000baf01000000000000000f4
:2021310000100001c0c30040000000000000000000000000000000000000000000000000ba
:202151000000000000000000000000000000000000000000000000000000000000800b00e3
:17217100000000000000000000000000072f054000000000000000dc
:20218800000000000c3020000000003fc46000000000000000000000000000000000000078
:2021a800000000000000000000000000000000000000000000000000000000380080006bf4
:1621c800c10200000000000003800000073c18000016000000004a
:2021de000000000000c3004000000003fc00000000000000000000000000000000000000df
:2021fe000000000000000000000000000000000000000000000000000000000200010004ba
:17221e003c14000004000000002000000003c1200008400000000009
:2022350000000000cc3020000000000000000000000000000000000000000000000000006d
:20225500000000000000000000000000000000000000000000000000000000000000000069
:1622750000000001600000000000080100000000001600f8a40136
:20228b004000000000c30040000000000000000000000000000000000000000000000000f0
:2022ab00000000000000000000000000000000000000000000000000000000000000000013
:1722cb00000000000000000000003810f000000000000000aa4000da
:2022e200010000000c3020000000000000000000000000000000000000000000000000007f
:20230200000000000000000000000000000000000000000000000029fb2e00000000a000c9
:1623220000004000038000000008081a00000004000000000000b4
:202338000000000000c3004000000000000000000000000000000000000000000000000082
:202358000000000000000000000000000000000000000000000000042fe5e00000000f005e
:172378000000000000400000000000300000000000000000000000de
:20238f00000160000c30200000000000000000000000000000000000000000000000000071
:2023af000000000000000000000000000000000000000000000000380000000000000dfacf
:1623cf0005000000000000000000000000000000000002fc0028cd
:2023e5000000000000c30040000000000000000000000000000000000000000000000000d5
:20240500000000000000000000000000000000000000000000000000000000000000001e99
:1724250050d0000000000000000000300000000000000005005200f9
:20243c00000000000c30200000000000000000000000000000000000000000000000000024
:20245c000000000000000000000000000000000000000000000000000000000000198000c7
:16247c00000000000626a00210100198bfa91000001c38000000f7
:202492000000000000c3004000000000000000000000000000000000000000000000000027
:2024b200000000000000000000000000000000000000000000000000000000000009800081
:1724d200000000000042c00a00028090932df90000200400000000f8
:2024e900000160000c30240000000000000000000000000000000000000000000000000012
:202509000000000000000000000000000000000000000000000000000000000000000000b2
:16252900000000000000000000000000000000000000000000009c
:20253f000000000000c30000000000000000000000000000000000000000000000000000b9
:20255f0000000000000000000000000000000000000000000010000000000000000000004c
:17257f00000000000000000000000000000000000000000000000045
:20259600000000000c302000000000000000000000000000000000000000000000000000c9
:2025b6000000000000000000000000000000000000000000000020680000001000000be67c
:1625d6009d000000e01faa0001000700bb69180000000000000065
:2025ec000000000000c30100100000000000000000000000000000000000000000000000fb
:20260c000000000000000000000000000000000000000000001001400000000000000f331b
:17262c0040d00000020010a0000000000ba9f9000000000000000028
:202643000000020fac3020000000000000000000000000000000000000000000000000006a
:20266300000000000000000000000000000000000000000000000600000000000050000001
:1626830000000000023c950c0003881b7283e000000030000000b7
:202699000010000170c30000000000000000000000000000000000000000000000000000dd
:2026b900000000000000000000000000000000000000000000000000000000000000000001
:1726d900000000000002df054000001080203c0000000000000000d8
:2026f0000000001dac302000000000000000000000000000000000000000000000000000b1
:2027100000004000000000000000000000000000000000000e000003c0e740000000000071
:162730000000e000003c850c000009817a83e00e00000000000071
:202746000000000020c3000000000000000000000000000000000000000000000000000090
:20276600000000000000000000000000000000000000000000800000168c340000000000fd
:17278600000008000003c00540000010a0b03c008000000000000010
:20279d000000601dcc30200000000000000000000000000000000000000000000000000083
:2027bd00000000000000000000000000000000000000000000000028000000000000016a69
:1627dd008000c0000674850c00000d817a83e00c00040000000020
:2027f3000000020020c30000000000000000000000000000000000000000000000000000e1
:202813000000000000000000000000000000000000000000000000000000000000000004a1
:17283300280000000022e00540000050a0e43c0040002000000000af
:20284a000100430fcc302000500000000000000000000000000000000000000000000000af
:20286a00000000000000000001000000000000000000000000002003c081400000000000a9
:16288a00000000006674850c00000d9a3816a00000000000000038
:2028a0000000023010c3000000000000000000000000000000000000000000000000000013
:2028c000000000000000000000100000000000000000000000000340168a5c0000000e009b
:1728e000000000000023e00540000050093694000000000000000076
:2028f7000000021ccc30200000000000000000000000000000000000000000000000000087
:202917000000000000000000000000000000000000000000000000000000000000000000a0
:1629370000000000003e850c000001983ec3e0010000200cf040e4
:20294d000000247810c30000000000000000000000000000000000000000000000000000fb
:20296d0000000000000000000000000000000000000000000000000000000000000000004a
:17298d00000000000002c0054000000090203c00000007810f0000a9
:2029a4000002c21ecc302000400000000000000000000000000000000000000000000000d5
:2029c4000000400000000000000000000000000000000000000000000000000000000000b3
:1629e400000000000036850c00000f997ec3e0000080000ef0408f
:2029fa0000003c6400c3000002000000000000000000000000000000000000000000000058
:202a1a0000000000000000000000000000000000000000000000000000000000000000009c
:172a3a0000000000003bc0054000005880203c00001400000f0000ee
:202a51000000021e8c30204000000000000000000000000000000000000000000000000029
:202a71000000000000000000000000000000000000000000000000600000000000000000e5
:162a9100000000026036850c00000000f856a00000160008f040ca
:202aa7000000246410c30004000000000000000000000000000000000000000000000000b0
:202ac7000000000000000000000000000000000000000000000000000000000000000000ef
:172ae700000000000402e0054000009009369400000020010f00001a
:202afe000000400dac3020101000000000000000000000000000000000000000000000004f
:202b1e00000000000000000000000000000000000000000004000003ca2f4800000000004f
:162b3e00000040020236850c0000059b36c3e0000000000af040c3
:202b54000000260030c30002800000000000000000000000000000000000000000000000c6
:202b74000000000000000000000000000000000000000000000000001780f48040000000f6
:172b940000000000047be00540000090a0f43c00000000000f000017
:202bab00040000000c302000000000000000000000000000000000000000000000000000aa
:202bcb000000000000000000000000000000000000000000000001000000000000000000e9
:162beb0000000000001c850c000009093a83e00000000000000078
:202c010000b0000000c3000000000000000000000000000000000000000000000000000040
:202c2100000000000000000000000000000000000000000000000000000000000000000093
:172c4100000000000003c00544000019a0a03c1000000000000000cb
:202c5800000000000c30202050000000000000000000000000000000000000000000000090
:202c780000000000000000000000000000000000000000000000000000000000000000003c
:162c98000000e000001c850c000005997283e00e00000000000018
:202cae000000000000c3000000000000000000000000000000000000000000000000000043
:202cce000000000000000000000000000000000000000000000000000000000000000000e6
:172cee00000008000002c00540000090a0303c008000024000000062
:202d0500000000000c30200000000000000000000000000000000000000000000000000052
:202d250000000000000000000000000000000000000000000000000000000000000000008e
:162d45000000c0000654850c00000d9a1016a00d00000000000053
:202d5b000000000000c3000000000000000000000000000000000000000000000000000095
:202d7b00000000000000000000000000000000000000000000000000000000000000000038
:172d9b00000000000023e0054000005009b6940050000000000000e6
:202db200000000000c302000000000000000000000000000000000000000000000000000a5
:202dd2000000000000000000000000000000000000000000000000000000000000000000e1
:162df200000000006054850c0000081a1a83e000000000000000e7
:202e08000000000000c30000100000000000000000000000000000000000000000000000d7
:202e280000000000000000000000000000000000000000000000000000000000000000008a
:172e4800000000000022e0054000005000743c00000000000000002c
:202e5f00040000000c302000000000000000000001de55004000000000000000000000007f
:202e7f00000000000000000000000000000000000000000000000000000000000000000033
:162e9f0000000000071e850c0000099916c3e00000000400000008
:202eb5000000000000c30000000000000000000000010550000000000000000000000000e4
:202ed5000000000000000000000000000000000000000000000000000000000000000000dd
:172ef500000000000043c0054000007080303c00000003000000001f
:202f0c00000000000c302028400000000000000000000000000000000000000000000000e1
:202f2c00000000000000000000000000000000000000000000000000000000000000000085
:162f4c00000000000016850c0000099bf856a00000000000000036
:202f62000000000000c300000200000000000000000000000000000000000000000000008a
:202f820000000000000000000000000000000000000000000000000000000000000000002f
:172fa200000000000002c005400000108132940000000000000000ba
:202fb900000000000c3020000000000000000000000000000000000000000000000000009c
:202fd9000000000000000000000000000000000000000000000000000000000000000000d8
:162ff900000000026716850c00000100f856a000000000000000c3
:20300f000000000000c300000000000000000003c00000000000000000000000000000001b
:20302f00000000000000000000000000000000000000000000000000000000000000000081
:17304f00000000000443e0054000000809b6940000000000000000a3
:20306600000000000c302020100000000000000000000000000000000000000000000000be
:2030860000000000000000000000000000000000000000000000000000000000000000002a
:1630a60000004002061e850c0000010036c3e00000000018f040fb
:2030bc000000000000c30000000000000000000003c000000000000000000000000000006e
:2030dc000000000000000000000000000000000000000000000000000000000000000000d4
:1730fc00000000000402e0054000000890643c00000000010f00004a
:20311300000000000c30200000000000000000000400000001000003f28140000006a4ffdc
:203133005000000580000000000000000000000000000000000000000000000000000000a7
:16315300000000e0003c850c0000010078002000000003cf43000b
:203169000000000000c3000000100000000000000380000000000000743d52000000037a70
:20318900fb000000000000000000000000000000000000000000000000000000000000002b
:1731a900000000000001c00544400000b03800100000000e84a0009b
:2031c000000000000c3023a015800000000e001601fdf720380000000000000000002dcfee
:2031e00011239000000000000000000000000000000000000000000000000000000000000b
:163200000000e000007c850c0000000a5800200000000000000049
:203216000000000000c30020009800000000800002f58ff00200000000000000008003c0e2
:20323600f019208000000000000000000000000000000000000000000000000000000000cf
:17325600000008000038c00540400001003000000002400000000069
:20326d00000000000c3020084000fe2a9030000004000000000000000000000000000000b1
:20328d00000000000000000000000000000000000000000001000000000000000000000020
:1632ad000000c0000674850c0028200a70002000000003cfcb00c1
:2032c3000000000000c300000000010295000000028000000000000000000000000000000e
:2032e3000000000000000000000000000000000000000000001000000000000000000000bb
:17330300000000000021e0054040000100b000000000000e85b00039
:20331a00000000000c302000000000000000000000000000000000083b15020001e6800076
:20333a00000000000000000000000000000000000000000000000000000000000000000073
:16335a00000000026034850c00000700384020000e000000000089
:203370000000000000c3000000000000000000e00000000000000000337290000000000065
:2033900000000000000000000000000000000000000000000000000000000000000000001d
:1733b000000000001c00e005404400d8003c0000000000000000006d
:2033c700000000000c302000000000000000000000000000000000a00000000002000000e8
:2033e700000000038013281040000000000000000000000000400000000000000000000078
:1634070000000000003e850c00004f8018002000000002ff430095
:20341d000000000000c300000200000000000000000000000000001000000000002c00008e
:20343d0000000000089b03e9040000000000000000000000000a00000000000000000000d2
:17345d00000000000001c0056000005800ac00000000002ee85000c8
:20347400000000000c3020000000962bd20000000268aa60000071cf3a95040000000000c2
:203494000000102000000000000000000000000000000000000000000000000000000000e8
:1634b400000000014036850c00000f00780020000020240000000f
:2034ca000000000000c300002800010015010000029f0a5400000010382a9010001c0000b3
:2034ea0000000084000000000000000000000000000000000000000000000000000000003e
:17350a00000000000200c0056000005000a000000003c78000000049
:20352100000000000c302000400000000000000000000000000058e0000000000000400076
:20354100000000000000000000000000000000000000000000000000000000000200000068
:16356100000000026036850c0000011f58002000002006ffcb00a3
:203577000000000000c30000000000000000000000000000000000000000000000003c0035
:20359700000000000000000000000000000000000000000000000000000000000000000014
:1735b700000000000401c00560000008a03c00000061c3aeea7000c3
:2035ce00000000000c302108000000000004002600000000100000afbaa9400000000000ec
:2035ee000001030000000000000000000000000000000000000000000000000000000000b9
:16360e00000040034026850c0000000f10402000013e00000000ae
:203624000000000000c300010050000000000000c0000000000000103829500100003400bc
:20364400000000000000000000000000000000000000000000000000000000000000000066
:173664000000000a0600e00560000070a0b000001001e00000000049
:20367b00000000000c32200040015059a000001e014c60d0800000077281c0000000000072
:20369b0000000000000000000000000000000000000000000000000000000000000000000f
:1636bb0000000000003c850c00000d80023c0240400003fe50206e
:2036d1000000000000c300000000d03d98000002c000c60400000000503d50000000000008
:2036f1000000000000000000000000000000000000000000000000000000000000000000b9
:173711000000000000014005440000500003c0100800003e0f00009f
:20372800000000000c31200007001a25a00e011479c984e0b8005803aa95820000000000a1
:20374800000010200000000000000000000000000000000000000000000000000000000031
:163768000000e001603c850c0000059a000000000000000000009e
:20377e000000000000c300000000e0b258408002c40cb12402010700702a900000000000e3
:20379e00000002840000000000000000000000000000000000000000000000000000000085
:1737be000000080000004005400000109000000000000000000000c7
:2037d500000000000c31200040007225a00000206748dec00000180732810000036000e07e
:2037f500f000000000000000000000000000000000000000000000000000000000000000c4
:163815000000c0000636850e0000001c1e8140000b0003fefa20ed
:20382b000000000000c300010070003e58010000463e8b7604000080543d50500014001054
:20384b000f000000000000000000000000000000000000000000000000000000000000004e
:17386b0000000000000140054040000007c168000048003e0f0000bb
:20388200000000000c322000001c1265a0100000614996800000000000000000000654d893
:2038a200000013a00000000000000000000000000000000000000000000000000000000053
:1638c200000000036674850e0100080116368000a000000000000a
:2038d8000000000000c30000000100b2580000000702f9600000000000000000000c294c1f
:2038f8000000028450000000000000000000000000000000000000000000000000000000da
:17391800000000003c20600540440050a177c4000000000000000027
:20392f00000000000c30a00007007a65a01000bc01c99680000000f000000000020076e51d
:20394f00f00000080076820000000000000000000000000000000000000000000050000018
:16396f0000000000003e850c0000081e1e8140000140000000002d
:20398500000a000000c300010a00002e58000013c00289600000000a0000000000243fe0b9
:2039a500ff000000f003bc00000000000000000000000000000000000000000000000c0048
:1739c5000000000000014005400000110701680000000000000000e4
:2039dc00000000000c30200007005a25a000002004e996800004500363c10100c0462fafc6
:2039fc00b020102000000000000000000000000000000000000000000000000000800030fb
:163a1c003c000000003e850c00000000533e80404e80000000006a
:203a32000000000000c31000000000be58010001c282996000002d800803d000040076f05a
:203a5200ff00028400000000000000000000000000000000000000000000000000050004c6
:173a720003c0200e00004005400000000083e82002500000000000ea
:203a8900000000000c302009880f1a65a0004006046996800002800763e90200020600005a
:203aa900000000001f000000000000000000000000000000000000000000000000000000de
:163ac900000000026036850c00000501f780080020000000000019
:203adf000000000000c320000030c02e584008000240c96000005b0050141000001c64006c
:203aff000000000000f00000000000000000000000000000000000000000000000000000b7
:173b1f00000000000401600540000008f18014c00040000000000058
:203b3600000000000c322000580b5a65a00400003d689680100000000000000000072cf05d
:203b5600a0001000000000000000000000000000000000000100000000000000005807f24d
:163b7600bc04400260368504000000001614800000006c00000002
:203b8c000000000000c300000231c0be5801000007c289600002000000000000003c41fa21
:203bac000d000280000000000000000000000000000000000000000000000000000000303a
:173bcc00168000000400600540000070017780000001428000000078
:203be30001000020ec32200110005a25a000002638489688000078112bc28000034285c0ef
:203c030000000000005383e000000000000000000000000000000001c100800000000000a9
:163c2300000000000000000000000380170c0010000000000000d5
:203c390000100002c0c300000100003e581100026002c960400300090643c000001e035fcc
:203c59002000000000c0003c0800000000000000000000000000000002d000000000000055
:173c7900000000004000000000000008036de00000624000000000fa
:203c9000000000000c31200007001a25a0000000006896804000000722aa800003402d84cc
:203cb0000023800001323c30400000000003c0000000000000010001c05a80c00000000053
:163cd0000000e00000018f04000000000000000f0000001cf04807
:203ce6000000000000c300000000e0b658400002c302f96000000f00002a80000a2401e0e5
:203d06000000203800b0803d000000000000210000000000000002401cda5000000000002f
:173d2600000008012c0000f00000000000000000800000010f0000d1
:203d3d0000000000ec32200000007225a0100424014996a000000017a2aa800000039f882c
:203d5d0000200008000265b8000000000000002000000000000000054f0fa080000000005c
:163d7d000000c0000036cfa00400001c173f000c0000001ef048f3
:203d93000000000000c300010004003e58000043c000c96000000b09082a800000002c6034
:203db30000080000100031a5200000000000000100000000000000020280f0140000000059
:173dd30000000400000360f000000001036de020400000000f0000c2
:203dea00010000000c32200000003225a010000004e9968000000001a2aa80000000000083
:203e0a0000001008003a3c30000000000000038000073c1000000001e89680000000000005
:163e2a000000000002800000000000000000000000000000000000
:203e40000000000000c30000007000b65800000002c2c96010020000002a80000000000078
:203e600000000281d000803d2100000000000000000003c18000000000b9601000000000a4
:173e8000000000000028000000000200000000000000000000000001
:203e9700000000000c30a000000b3a25a0000020004996800000000522aa400000005488b9
:203eb70000000000015a3c3840000000000000000000000000000029489681000000000054
:163ed700000000006040000000000000000000000000000ef040f7
:203eed000000000000c300000001c0be58010003c000896000000000002a8000006c24fe36
:203f0d000008000000f0003d00000000000000000000000000000143c2d960000000000020
:173f2d000000000000340000000000f000000000000003810f008046
:203f4400000000000c312020001c7225a000002c0449968000000007a2aa400002e6000083
:203f640000000008011a3c3800000000000000080000000000000000c896800000000000c0
:163f8400000000c0000000000000001a0000000000000400000049
:203f9a000000002400c300010000003658010003c3c0b96000000500002a8000001e000024
:203fba0000000280f0f0803d8000000000000000700000000000014280b9610000000000fb
:173fda0000000000000000000000000000000000000003c00000000d
:203ff100000000000c3020000b8a1a25a800022001e896804000700722aa00000043c00031
:2040110000002008007a3c300000000000000000000000000000060149968000000000001b
:164031000000000000000000000000000000000001400000000038
:204047000000040000c320000039003e580000024202a96000100500002a88000002380053
:2040670000000100f000003da000e0000000000000000000000000c302f96010000000005d
:174087000000000000000000000000000000000000000340000000df
:20409e00000000000c3020000000023c0000000401e8968000005003a2aa40000007cff0c0
:2040be008001000800123c3000000000000110000000000000001438e8968100000000007f
:1640de000000000000000000000040000000000000000040a54067
:2040f4000000000000c3000000000003c00100402240e9600802000a002a8000003c37dc2d
:20411400000000007000803d2000000000000280000000000000000400b96000000000009f
:1741340000000000000000000001000000000000000240000a5000d7
:20414b0000020016ac3024000000000000000000014896800000000322aa800002c054e593
:20416b00a000000000723c30000000000000000000000000000000014896900000000772ce
:16418b00e0000000c000ef04000000013ab3c000000000000000dd
:2041a10000103c0360c3000000000000000000000002d96040000000082a810000363a707e
:2041c100550000000000003d5000000000000000000000000000024002c96040000900ba8c
:1741e1001d000000020000f050000000c9be942000024200000000e9
:2041f8000001e6958c302780000000000000080e04e996804000000322aa800000004ca034
:20421800a003810000323c3c00000000000000000000000000200001c89690000005e000c4
:164238000000e0e0c000cf040400038153fe840e00800000000032
:20424e000000007010c300228000000000000000228089600028000f082a8000003c2c305f
:20426e000a00200100d0803d0000000000000000000000000000000002b96000000000005d
:17428e0000000800000010f040002008efb9400080364000000000cb
:2042a5000003620dcc30240000007ba81020000e3ce996800000000322aa800001e3cfa821
:2042c50000000000007a3c3000000000000000000000000000000001499690000000173e2e
:1642e500e000000000040a540000081e0000000c0000000000004f
:2042fb0000001e4010c3000000000783d50400000282f96010000000002a800020006edb0f
:20431b00000000003000003d4100000000000000000000000002000282c9600000000fbb5b
:17433b001d000000000000a550000031f0000000c000000000000078
:2043520001016057ec30a002800000000000000039489680028200e1a2aa800002005585b0
:20437200f0000088000265b4000000000000080000bf1680000c1601e896900000100b3fb0
:164392006c000000000000000000001c7240c01000000040a548de
:2043a8000000023c00c300400000000000000061c000e96010001010082a8000003433d031
:2043c8000a000000d4003da50000000000000000009f42a88000002000b96000000080bb98
:1743e800a0400000000000000004000105f61c00048000000a5000e4
:2043ff000001c206cc302000800000000000001438c89680000151b3a2aa4000000076e523
:20441f00a0000000015a3c32200000000000000000000000000020054996800000700736c3
:16443f00e000040000400000000000000000000000006adc70018c
:204455000000024030c3000000000000000000002640b9600000000e082a8000002c3c501b
:204475005500000004f0003d000000000000000000900000000001c282d9600000000abacf
:174495009d0000000038000000000000a0000000000000069a4000bb
:2044ac0000000784ec302000058100000000a00020689680000001a722aa2000004004c0cd
:2044cc00a0000840011a3c3c000000000000038000b7168801000000c896800000b8e3768d
:1644ec002c000008000000000000200e1eeb40000c1600000000ed
:204502000000004010c300000000a000000000004402f96000000000082a800000663fc030
:204522005f0005b300e0803d00020000000000829097c2a80000014282b96100000788fe44
:1745420062c000014100000000000401ade07c2000000000000000d0
:204559000001e207ec30200009007f28144000002cc99680000000a7a2aa4000000024e5d1
:20457900a000000800523c382000000000000005000000000000002948968000009817aaaf
:16459900bc00000000018f060000010e000000000000700000003b
:2045af000000024000c3000000500783d5000001c702b96000000000082a8000000020d0b3
:2045cf00aa000000f000003d0000000000000000000000000000000002896000000789bcbe
:1745ef0001400000240000f040000009b00000000000000000000067
:204606000003e000ec3021028000f7281000000039c9968000020005a2aa0020140021c142
:20462600b0010288013a3c34200000000000000801f71688004c14016896a00880800000c9
:164646000000400000000000000000003b280000000000000000bb
:20465c0000003c0000c300028000af43e98000000002a9600000100f082a8800000401df9a
:20467c0027000000f0f0803d000000000000000050ad41540002000000b96000100b0a0088
:17469c0000000000000000000000007000c280000000000000000055
:2046b300000000000c302000000000000000001405c8968000028015a2aa80000207af98e1
:2046d3000004000000723c3200000000000000078000000000000005c99690000000000068
:1646f300000000000000000000000000000000000100740000003c
:204709000010000000c300000000000000000803e382d9605000070e002a81000034037855
:20472900000000000000003d1100000000000000000000000000000280b960400000000047
:174749000000000000200000000000000000000000000680000000b3
:20476000000000000c3023800800be28100e0016004896800000000122aa80000207b407c9
:20478000e003800001323c3420000000000000000000000000a00001c8968001003807f73d
:1647a000e800e008000000000383800a0000000e00000000000015
:2047b6000000000000c3002000940583d58080034000c96000000000082a8000003c30cfb6
:2047d6001800220200b0803d0000000000000000000000000004000000e96000280989fe15
:1747f6001400080040000000002000000000000080000000000000b0
:20480d00000000000c302000000000000004001c3868968000000007a2aa800002c00000c4
:20482d0000000000007a3c3020000000000000000112fe8000000001c996800000000000f4
:16484d000000480000200a56000000019ae9100000006200a56092
:204863004000000000c3000000000000000040000000f96000000000002a8000003e300081
:20488300000000003000003d200000000000000000e771400000000000f960100080000007
:1748a300000000000000c05a4140000087ea81210000002c05a4007b
:2048ba00000000000c3020000018bea8102000003d48968000017805a2aa80020003c41511
:2048da00a0000008003a3c3200000000000003700000000000000021c896a0028039e377c7
:1648fa00e8000000002c8fa2001007800000000000000348c04081
:204910000000000000c30000001105c3d58000024200896010000f80002a800040003dccd7
:2049300066000000d000803d0400000000000007000000000000000402e96000100090fa80
:17495000140000000002fca000028008000000000000000fce5404df
:20496700100000000c302000000100000000001c00e8968000000003a2aa40000007b480df
:20498700a0000000015a3c3040000000000000000000000000000001c8968100028081bec8
:1649a700b0000000404000000000000000000000001400000000b6
:2049bd000100000000c300000000a000000000000240b96000000000002a8000003c41f004
:2049dd005f00000000f0003d20000000000000000000000000000143c0d9600000570976fb
:1749fd0057000000022000000000000000000000000000000000002a
:204a1400000000000c3020000001bb2812000014006996800005580122aa400001e787e5df
:204a3400a0000000011a3c3000008000000000200000000001000100c8968800008005ba74
:164a5400e00000020300000000302000fea91000001e040000003e
:204a6a000000000000c300000000a5c3d58000006000a96000000000002a800000004160f8
:204a8a005500000000f0803d2400100000000004100000000000a00000e96000000b0ff7c8
:174aaa005d00000035000000000285000f3ef5000000220000000078
:204ac100000000000c3020000000000000000e003b6933408002000722aa4000000036c8c1
:204ae1000008000800523c3060000000000000078000000000001629c89680000070f9bebc
:164b0100b00000080001e0f000000001fba940400000024da740ba
:204b17000000000000c30000000000000000000003b6ccc41420000a082a8000002c27fc33
:204b370000000000f000003d000000000000000000000000000002c00099601000009ad6f6
:174b5700170000000000000f00010000a7c014800000003ed534805e
:204b6e00000000000c3021000000000000040000000000000000d007a2aa000001e7ade02e
:204b8e0080010008010265b000000000000003000000000000009e69e8968800001087b708
:164bae00e8004000028de8b221130181000000040c007800000062
:204bc4000000000000c3000000000000000000000000000000000500002a88010600035df0
:204be40000080020f0e03da52400000000000000000000000000100000e96000080010f250
:174c0400140000001400308b00028000a00000000000000000000094
:204c1b00000000000c302000000100000000001472faa0400000000322aa800a0207e6a0d4
:204c3b00a000000000723c32200000000000000000000000000c0000e99680010080053aee
:164c5b00e00000004000000000000000000000000004000ef048d9
:204c71000000000000c300000000f0000000000000270fa580000000082a8100401c2cd00a
:204c9100af0000000000003d100000000000000000000000000003c002c960400803001ab4
:174cb100ee000000022800000000000000000000000000000f0000c5
:204cc800000000000c30238008000000000e00140061a56000003003a2aa800003c000009b
:204ce8000003800001323c3220000000000000200000000000002069c99690000000013699
:164d0800e000000003a4fdb0078307000000000e000001daaa48f5
:204d1e000000000000c30020009000000000800002aed66500000000082a800002340000af
:204d3e000000200000b0803d0000000000000101000000000000e1c400d96000000000d315
:174d5e001d02000000426f81002000000000000080e242400aa0003f
:204d7500000000000c3020000000000000000000000000000000000522aa800001e04585c6
:204d9500a0000000007a3c3020000000000000000000000000000e00e996900000009000ab
:164db50000001012001ccfa00110000077aa84040000700ef048cb
:204dcb000008000000c3000000000000000000000000000000008300002a8000000c3a602a
:204deb00aa0000000000003d2000000000000000000000000000000002896000000019009d
:174e0b0000000000b4025e50080280000082a800c00000010f0000a8
:204e2200000000000c30200000010000000000200419b1610000000322aa800061c7a5a503
:204e4200f0000008003a3c3200090000000000000000000000009e044996a0008080013a4b
:164e6200e0000000139c9ac2001300000000000000040018f048e8
:204e78000000000000c300000000900000000002c365d72404000000002a800000020050a2
:204e98000a000000d000803d0400080000000000000000000000b40340d96000130f00d72e
:174eb8001d00000000405c5c0002800000000000000020010f00001c
:204ecf00000000000c302000000000000000000072f8a040000081a1a2aa400a0000000065
:204eef0000000000015a3c38000000000000000300b717c200200000e99688000010056a9b
:164f0f00e0800135e29ecfa2000400000703c04000000040a540d2
:204f25000000000000c30000400000000000010000260fa604000500002a800000000000da
:204f45000000004000f0003d2000000000000040080b00280004000002a960000009801b91
:174f6500ae00001002024e500000400000403c00010000000a50803e
:204f7c00000000000c30200000009628140000003861a5510000001722aa4000400066a0ef
:204f9c00a0000008011a3c300000000000000005800000000021a035e9968000001000003c
:164fbc0000000001c2bc8ac000000019870e808000000018f04020
:204fd2000000000000c3000000000d83e90400000406d6640000000a002a8000403c3c408f
:204ff2005f00002070f0803d21000800000000000080000000047ec2c2d96000000000001b
:17501200000000040002da5c010000108b40d440000240000f00808a
:20502900000000000c3020000000000000000000000000000001500822a8000002007585ec
:20504900a0000008007a3c3020000000000000000000000000001401e896a0000010e00076
:1650690000000001c000e0f000000001063c1800000c0000000039
:20507f000000000000c3000000000000000000000000000000000000701548008c1c3d405c
:20509f0055000000f000803d8000000000000000000000000000000002a9600000279000ad
:1750bf00000000002e34100f000000009003c106000242400000007b
:2050d600000000000c30210400000000000410000261a5608000100000f0080000021fc074
:2050f60080010408013a2a90200000000000042000000000000c802ae99a08000000000093
:16511600000001000001a0f001040800073c10125000001cf040e3
:20512c000000000000c3000000000000000000000016d66408000000000f0800000041fff1
:20514c0000080000f0e002a900000000000000040000000000001402a6b5900000000000bb
:17516c00000000001c28100f000030700003c1001a0000000f0080bc
:205183000000000000000003000000000000002000000000000000000000000000000000e9
:2051a3000000280000000000000000000000000000d7028001002001e000800000008fabaf
:1651c300e8001800002eefa00000000076fc200000000000000087
:2051d90000000000000000000000000000000002c0000000000000000000000000000000f4
:2051f90000000100000000000000000000000000000b017c04006340008000201080005cda
:1752190014000000000250502000000000383c400060000000000094
:20523000000000000000000000000000000e0000024ea5503800700000000000400000a083
:20525000f00380000002bc1800000000000000000030568000a01e04e10080000101ebf7e8
:165270006c000000007dcfa2000808003a3c2a0a600000000000b4
:205286000000000000000000000000000000800000140aa486000000000000000000001030
:2052a6000f002000000043c1000000000000000000073e64040003c382800000002f1037ca
:1752c600a040000e002740500001035000803c00000000000000001c
:2052dd0000000000000000100000000000000080000000000000100000000000000380008e
:2052fd00000000000e033c1400000000000008080000000001800001e10080000080096f45
:16531d00e88010000001c0f000000001523c201000000000000092
:20533300000000000000000280000000000000100000000000000000000000000000400088
:2053530000000000100003c1000000000000010090000000000000000280000002070f3b00
:17537300540000040000000f00000000a0803c4000600000000000c0
:20538a000000000000000000000000000000002000000000000000000000000000000000e3
:2053aa00000000400000295000000000000008000000000000400000e000800000f803f691
:1653ca00f4000404007eefa00000001a323c280000000000000014
:2053e00000000000000000000000000000000000c0000000000000000000000000000000ed
:2054000000000002000501692000000000000100000000000002000002d00000000700d748
:17542000c6002080802770501004005000803c000000000000000088
:20543700000000000000000000000000000000000000000000000000000000001003edf85d
:20545700000000010000000000000000000000000000000000082039e10080000001cd6242
:16547700bc8001096001e0f0000040007a3c28001000001cf0402e
:20548d0000000000000000000000000000000100000000000004000000000000100039fcb5
:2054ad00000000400000000000000000000000409000000000000144029000000407005499
:1754cd00014000100000100f00004000b0803c01010000000f040493
:2054e4000000000000000000000000000000000000000000000000000000000002000ce8b2
:20550400002800000000000000000000000000010100000000001604e000800021109de332
:16552400e8000002c32005a0000800181a3c2800000602005a40bf
:20553a0000000000000000000000000000000000000000000000000000000000001c003005
:20555a008000000000000000000000000000000018e0000000000002c2f0000000211db017
:17557a00280000001441c0a500000001b0003c000100000c0a5404dc
:2055910000000000000000400000000000000e1c0000000000000000000000000007000089
:2055b1000000000000000000000000000000000000ff828000000005e000800000700b3bbe
:1655d100e8000000c6fccfa2000000003a3c28000000000000000b
:2055e700000000000000000400000000000000002000000000000000000000000000000080
:2056070000000000000000000000000000000018100382bc20000013c2c0000000898ebf8f
:17562700be800006262a40500000005000803c00000000000000003c
:20563e0000000000000000400000000000041000000000001040380faa95840101c040009c
:20565e0000010c000000000000000000000004000100000000802004e1008000458003b29b
:16567e00e0000104032005a0000c13815a3c20041c0000000000f3
:20569400000000000000000000000000000000000000000000000000102a901000023800e2
:2056b4000000010000000000000000000000000090e00000000462c2c2c00000402b08bb8d
:1756d4009d0000008c22c0a50001000090803c0000001000000000b2
:2056eb0000000000000000000000000000000000000000000000000000000000000000009f
:20570b00000000001c00000000000000000000001c07bc1000000000e1008000000083abe4
:16572b00e8000200000fdb80000000000225a000001400405a009f
:20574100000000000000000000000000000000000000000000000000000000000000000048
:2057610000000000000000000000000000000004000043c1800003c3c0900040008f007843
:175781001400004000016a74100000000035a4500000200005a000e0
:205798000000000000000000000000000000000000000000000000000000000010000000e1
:2057b800000380400000000000000000000380000000000000800004c10080000580113af6
:1657d800a8000000002fafa10000001a7a3c2000800001d8a0208b
:2057ee0000000000000000000000000000000000000000000000000000000000008000001b
:20580e00000020020000000000000000000020000000000000000002c0c0000003270df08f
:17582e0029400000000150500001020000003ca0000140000a00002f
:2058450000000000000000000000000000000000000000000500000000000000000000003e
:20586500000010000000000000000000000000000000000000000000e000800000801572ac
:16588500bc000a20e001e0f000000000723c2000000003fcb800f1
:20589b00001000000000000000000000000000000000000000480000000000000000000095
:2058bb000000028000000000000000000000000000000000000040000090000000070b78f1
:1758db00014000000000000f0000000000803c6000000015cb8100e9
:2058f200000000000000000000000000000000000000000000000000000000000000000096
:205912000000000000033c1800000000000000000000000000000001e100800005001000a7
:1659320000000001c634daf0001000003a3c20108024040000003c
:2059480000000000000000000000000000000000000000000000000000000000000000003f
:2059680000000000000003c10000000000000000000000000000000002c00000000f0e007c
:175988000000000a0443cd0a0804810000003c4100416280000000b3
:20599f000000000000000000000000000000000000000000000000000000000000000000e8
:2059bf000000000800000000000000000000100000023c16010a2100e100800000100d7240
:1659df00bc040a10c337cfa2000000001a3c2800000004000000eb
:2059f500000000000000000000000000000000000000000000000000000000000000000092
:205a150000000000d00000000000000000000200000043c10000014000d000000000809b6f
:175a3500c14000062e0140a000000000e0803c200000c38000000045
:205a4c0000000000000000000000000000000000000000000000000000000000000000003a
:205a6c000000004800073c1800000000000000100003bc1020005605c100800000108f72cb
:165a8c00bc0000016220eb820000500f3a3c2000000062dbdb014a
:205aa2000000000000000000000000000000000000000000000000000000000000000000e4
:205ac20000000002d00003c10000000000000000000043c10000e83280c0000000019050ef
:175ae200028000002c414d74000100d0d0803c200083c41eb4200047
:205af90000000000000000000000000000000000000000000000000000000000000000008d
:205b19000000000008023c1000000000000000000e00000000201600e00080000079c36bcb
:165b3900e80002516000e0f0001011003a3c280000160000000016
:205b4f00000000000000000000000000000000000000000000000000000000000000000036
:205b6f0000000000000043c120000000000000000100000000046000008000000000097490
:175b8f00140000468c00000f00008000b0803c01000000000000001d
:205ba6000000000000000000000000000000000000000000000000000000000000000000df
:205bc600000100400003bc1000000000000100500100000000001669e10080000000076313
:165be600e8000000004005a0002a8180723c2400a040037d8b01f3
:205bfc00000000000000000000000000000000000000000000000000000000000000000089
:205c1c0000000002000043c1040000000000003200d000000000000000c00000000000900c
:175c3c00280000000c38c0a50002000800003c800008401ca4700042
:205c530000000000000000000000000000000000000000000002000000000000000000002f
:205c7300000000001d023c1000000000000000000076ae0000000001400080000070096bdd
:165c9300e8000000000eaaa400000580323c2200000000000000a2
:205ca90000000000000000000000000000000000000000000000400000000000000000009b
:205cc90000000000108043c1200000000000000010076ee0020a000002d00040000f0ff076
:175ce9002800000a003810aa0100010000003c5000000000000000f2
:205d0000000000000000000000000000000000000000000000000000000000000000000083
:205d2000000380100000000000000000000000038000000000414000c10080000080176391
:165d4000e800e0000000e0f0000005807a3c220e0000001cf040fe
:205d560000000000000000000000000000000000000000000000000000000000000000002d
:205d76000000201000000000000000000000003890000000000a080002f0000003870e1465
:175d9600140008000000100f0000080000003c40840000010f04148b
:205dad0000000000000000000000000000000000000000000000000000000000e0000000f6
:205dcd0000000000003839d400000000000000001e9f028200000005e000800004f1d17a8b
:165ded00bc004e000040e0f00008001a123c2004000000000000f2
:205e030000000000000000000000000000000000000000000000000000000000000000007f
:205e2300000000000001270d0000000000000000010f017c0000000240d0000020070e94c2
:175e4300028004040038100f0005000000003c600060100000000056
:205e5a00000000000000000000000000000000000000000000000000000000000000000028
:205e7a000000000000000000000000000000000008b797c000200000c100800000001d7ef6
:165e9a00bc2000000001e0f000000000523c200000000000000097
:205eb0000000000000000000000000000000000000000000000000000000000000000000d2
:205ed0000000000000000000000000000000000000cb00282004000002c00000000f0d5e5f
:175ef000c28000000000100f0000000000803c44000000000000003a
:205f0700000000000000000000000000000000000000000000020000000000000000000078
:205f270000000000000000000001000000000000007f168001001604c0008000000003ab3b
:165f4700e80000040001e0f0000005001a3c2840000400000000c0
:205f5d000000000000000000000000000000000000000000000040000000000000000000e4
:205f7d0000000000000000000000000000000004900fc2a804000002c0d00000000000540d
:175f9d00140000000000000f000000b800003c0000000000000000d6
:205fb4000000000000000000000000000000000000000000000000000000000200000000cb
:205fd400000000018092281400000000000000078adf028000001768c10080008010876332
:165ff400e8000400e000e0f0002080007a3c28000000041efa0061
:20600a00000000000000000000000000000000000000000000000000000000004000000036
:20602a00000000000003416b0000000000000000909b817c0400e00002d000001010101881
:17604a00140000a00000000f0000000000803c200014038c0f51009d
:2060610000000000000000000000000000000000000000000000000000000000000000001f
:20608100000000000000000000000000000002c908f7168020002005c0008000001083abdc
:1660a100e8000200c380000000000000723c2800000000000000e6
:2060b7000000000000000000000000000000000000000000000000000000000000000000c9
:2060d70000000000000000000000000000000002708bc1540000014282d000000000195891
:1760f700140000400230000000000000a0803c0100000000000000af
:20610e00000000000000000000000000000000000000000000000000000000000000000071
:20612e00000100030007bc1000000000000000010a96028000006004c00080000000812a08
:16614e00a8000000030000000000050e323c2204001400000000d5
:2061640000000000000000000000000000000000000000000000000000000000000000001b
:2061840000000000000003c12000000000000000009b017c8000094282e00000000008f0da
:1761a400294000000c0000000000200800003c4000002000000000ab
:2061bb0000000000000000000040000000000000000000000000000000000000000000ef95
:2061db0005000000000000000000010000000000003f280800876000c0008000080005e219
:1661fb00e0000804002ee8b000000000323c20000000000000004e
:2062110000000000000000000000000000000000000000000000000000000000000000105d
:20623100f0400000000000000000000000000000300082800000034000800040008f09d779
:176251002e0000000000ee470080000000003c5000000000000000c7
:20626800000000000000000000000000000000000000000000000000000000e00000000036
:20628800000380000006bc1000000000000000000100000000002000e00080000001c93a1c
:1662a800bc0000000601e0f000000380723c2000200000000000dc
:2062be000000000000000000000000000000000000000000000000000000000800000000b8
:2062de0000002000000003c1200000000000000000f00000000041c3c2c0000000201e5494
:1762fe00014000000040000f0000280800003c00008000000000000d
:20631500000000000000000000000000000100000000000000000000000000000000000067
:20633500000000000000000000000000000000000000000000a10000c100800004f9c5ebb9
:16635500e8000a16103ccfa00001500e7a3c2200800e000e0f008d
:20636b000000000000000000000000000000100000000000000000000000000008000000fa
:20638b0000000200000000000000000000000000000000000000080000800000000780746d
:1763ab0028000004e400c0501000010000003c001400000100f00069
:2063c2000000000000000000000000000000000000000000000000000000000000000000bb
:2063e200000020010000000000000000000008000000000000ac00006000800000701de673
:16640200bc000001c781e0f0040055003a3c200004447000000008
:20641800000000000000000000000000000000000000000000000000000000000000000064
:2064380000000000000000000000000000000100100000000004000002c0000000090e57ff
:17645800014000000340100f0000020000003c400000040000000008
:20646f0000000000000000000000000000000000000000000000000000000000e00000002d
:20648f00000040000003bc1040000000000000001c00000000081604c0008000000015fa11
:1664af002c00200963eebb80000083003a3c2a01003e0000000094
:2064c5000000000000000000000000000000000000000000000000000000000000000000b7
:2064e50000000400000003c10000000000000000010000000000002280d0000000890cd6f1
:17650500a2c000004028ee740040000800003c001000c000000000ff
:20651c0000000000000000000000000000000000000000000000000000000000000000005f
:20653c000000004000000000000000000000000308166bc800000005c000800000388d722f
:16655c00e00000020201a0f000000300023c08000004037ab80032
:20657200000000000000000000000000000000000000000000000000000000000000000009
:2065920000000012000000000000000000000000010b68140000024280c000000001005b6f
:1765b2009d0000000c00000f000000580003c0000000200dc74010bb
:2065c90000000000000000000000000000000000000000000000000000000000c0004000b2
:2065e900000000080000000000000000000000000000000001811620c1008000381085ab19
:16660900e8000c51603f8fa100400f001bb3c08200000400000004
:20661f0000000000000000000000000000000000000000000000000000000000000030002b
:20663f0000000000b00000000000000000000000000000000010080400c000000059809046
:17665f0028000004a4035050000000b80d033c4000000380000000ea
:206676000000000000000000000000000000000000000000000000000000004000000000c4
:20669600000108000000000000010000000000000000000001000001c855100000000d3668
:1666b600e0040008c38ecfa2000003807efe80410000014ca00073
:2066cc000000000000000000000000000000000000000000000000000000000000000000ae
:2066ec00000001000000000000000800000000000000000000000000020550800000095f46
:17670c005d0000012e02d0a00000009807214000100000000a00005e
