:02000000ff00ff
:080002004c6174746963650030
:17000a00694345637562653220323032302e31322e32373934330071
:15002100506172743a2069434534305550354b2d53473438002c
:1b003600446174653a204e6f7620323920323032342031363a35313a3036006a
:0200510000ffae
:040053007eaa997e6a
:02005700510056
:0200590001059f
:03005b00920020f0
:03005e006202b388
:03006100720150d9
:0300640082000017
:02006700110086
:02006900010193
:20006b00000000000000000000000010000000000000400000000000010000000000000420
:20008b000000000000001000000000000040000000001000000000000040000000000001b4
:1600ab0000000000000004000000000000100000000000004000eb
:2000c1000000000000000000000000020000000000000800000000000020000000000000f5
:2000e10080000000000002000000000000080000000002000000000000080000000000006b
:17010100200000000000008000000000000200000000d0000800006d
:200118000000000000000000000000000000000000000000000000000000000000000000c7
:200138000000000000000000000000000000000000000000000000000000000100000000a6
:160158000000000000000000000000000000000000000000000091
:20016e00000000000000000000000000000000000000000000000000000000000000000071
:20018e00000000000000000000000000000000000000000000000000000000000000000051
:1701ae0010000000000000000000000000000000000000000000002a
:2001c50000000000000000000000000000000000000000000000000000000000000000001a
:2001e5000000000000000000000000000000000000000000000000000000000000000000fa
:1602050000000000000000000000000000000000000000000000e3
:20021b000000000000000000000000000000000000000000000000000000000000000000c3
:20023b000000000000000000000000000000000000000000000000000000000000000000a3
:17025b0000000000000000000000000000000000000000000000008c
:2002720000000000000000000000000000000000000000000000000000000000000000006c
:20029200000000000000000000000d00000000000000000000000000000000020000040039
:1602b2000000000000000000000000000000000000000000000036
:2002c800000000000000000000000000000000000000000000000000000000000000000016
:2002e8000000000000000000000000000000000000000000000000000000000000000000f6
:170308000000000000000000000000000000000000000000000000de
:20031f000000000000000000000000000000000000000000000000000000000000000000be
:20033f000000000000401000000000000000000000401000000000010040000000000800b5
:16035f000000000000000000000000000000000000000000000088
:20037500000000000000000000000000000000000000000000000000000000000000000068
:20039500000000000000000000000000000000000000000000000000000000000000000048
:1703b50000000000000000000000000000040000000000000000002d
:2003cc00000000000000000000000000000000000000000000000000000000000000000011
:2003ec00000000000000000000000000008000000000000000000000000000000000000071
:16040c000000000000000000000000000000000000000000c0001a
:200422000000000000000000000000000000000000000000000000000000000000000000ba
:20044200000000000000000000000000000400000000000000000000000000000000000096
:1704620000000000000000000000000000000000000000000c000077
:20047900000000000000000000000000000000000000000000000000000000000000000063
:20049900000010000000000000000000000010000000000000000000000000000000000023
:1604b900000000000000000000000000000000000000000000002d
:2004cf0000000000000000000000000000000000000000000000000000000000000000000d
:2004ef000000010000000000000000000000010000000000000400000000000000000000e7
:17050f000000000000000000000000000000000000000000000000d5
:200526000000000000000000000000000000000000000000000000000000000000000000b5
:200546000000000000400000000000000000000000400000004000010000000000000000d4
:16056600000000000000000000000000000000000000000000007f
:20057c0000000000000000000000000000000000000000000000000000000000000000005f
:20059c0000000000000000000000000000000000000000000000000000000000000000003f
:1705bc00000000000000040000000000000000000000000000000024
:2005d300000000000c302000000000000000000000000000000000000000000000000000ac
:2005f3000000000000000000000000000000000000000000000000000000000000000000e8
:1606130000000000000000000000000000000000000000000000d1
:200629000000000000c30000000000000000000000000000000000000000000000000000ee
:20064900000000000000000000000000000000000000000000000000000000000000000091
:1706690000000000000000000000000000000000000000000000007a
:20068000000000000c302000000000000000000000000000000000000000000000000000fe
:2006a00000000000000000000000000000000000000000000000000000000000000000003a
:1606c0000000000000000000000000000000000000000000000024
:2006d6000000000000c3000000000000000000000000000000000000000000000000000041
:2006f6000000000000000000000000000000000000000000000000000000000000000000e4
:170716000000000000000000000000000000000000000000000000cc
:20072d00000000000c30200000000000000000000000000000000000000000000000000050
:20074d0000000000000000000000000000000000000000000000000000000000000000008c
:16076d000000000000000000000000000000000000000000000076
:200783000000000000c3000000000000000000000000000000000000000000000000000093
:2007a300000000000000000000000000000000000000000000000000000000000000000036
:1707c30000000000000000000000000000000000000000000000001f
:2007da00000000000c302000000000000000000000000000000000000000000000000000a3
:2007fa000000000000000000000000000000000000000000010000000000000000000000de
:16081a0000000000000000000000000000000000000000000000c8
:200830000000000000c30000000000000000000000000000000000000000000000000000e5
:20085000000000000000000000000000000000000000000000000000000000000000000088
:17087000000000000000000000000000000000000000000000000071
:20088700000000000c302000000000000000000000000000000000000000000000000000f5
:2008a700000000000000000000000000000000000000000000000000000000000000000031
:1608c700000000000000000000000000000000000000000000001b
:2008dd000000000000c3000000000000000000000000000000000000000000000000000038
:2008fd000000000000000000000000000000000000000000000000000000000000000000db
:17091d000000000000000000000000000000000000000000000000c3
:20093400000000000c30200000000000000000000000000000000000000000000000000047
:20095400000000000000000000000000000000000000000000000000000000000000000083
:16097400000000000000000000000000000000000000000000006d
:20098a000000000000c300000000000000000000000000000000000000000000000000008a
:2009aa0000000000000000000000000000000000000000000000000000000000000000002d
:1709ca00000000000000000000000000000000000000000000000016
:2009e100000000000c3020000000000000000000000000000000000000000000000000009a
:200a01000000000000000000000000000000000000000000000000000000000000000000d5
:160a210000000000000000000000000000000000000000000000bf
:200a37000000000000c30000000000000000000000000000000000000000000000000000dc
:200a570000000000000000000000000000000000000000000000000000000000000000007f
:170a7700000000000000000000000000000000000000000000000068
:200a8e00000000000c302000000000000000000000000000000000000000000000000000ec
:200aae00000000000000000000000000000000000000000000000000000000000000000028
:160ace000000000000000000000000000000000000000000000012
:200ae4000000000000c300000000000000000000000000000000000000000000000000002f
:200b04000000000000000000000000000000000000000000000000000000000000000000d1
:170b24000000000000000000000000000000000000000000000000ba
:200b3b00000000000c3020000000000000000000000000000000000000000000000000003e
:200b5b0000000000000000000000000000000000000000000000000000000000000000007a
:160b7b000000000000000000000000000000000000000000000064
:200b91000000000000c3000000000000000000000000000000000000000000000000000081
:200bb100000000000000000000000000000000000000000000000000000000000000000024
:170bd10000000000000000000000000000000000000000000000000d
:200be800000000000c30200000000000000000000000000000000000000000000000000091
:200c08000000000000000000000000000000000000000000000000000000000000000000cc
:160c280000000000000000000000000000000000000000000000b6
:200c3e000000000000c30000000000000000000000000000000000000000000000000000d3
:200c5e00000000000000000000000000000000000000000000000000000000000000000076
:170c7e0000000000000000000000000000000000000000000000005f
:200c9500000000000c302000000000000000000000000000000000000000000000000000e3
:200cb50000000000000000000000000000000000000000000000000000000000000000001f
:160cd5000000000000000000000000000000000000000000000009
:200ceb000000000000c3000000000000000000000000000000000000000000000000000026
:200d0b000000000000000000000000000000000000000000000000000000000000000000c8
:170d2b000000000000000000000000000000000000000000000000b1
:200d4200000000000c30200000000000000000000000000000000000000000000000000035
:200d6200000000000000000000000000000000000000000000000000000000000000000071
:160d8200000000000000000000000000000000000000000000005b
:200d98000000000000c3000000000000000000000000000000000000000000000000000078
:200db80000000000000000000000000000000000000000000000000000000000000000001b
:170dd800000000000000000000000000000000000000000000000004
:200def00000000000c30200000000000000000000000000000000000000000000000000088
:200e0f000000000000000000000000000000000000000000000000000000000000000000c3
:160e2f0000000000000000000000000000000000000000000000ad
:200e45000000000000c30000000000000000000000000000000000000000000000000000ca
:200e650000000000000000000000000000000000000000000000000000000000000000006d
:170e8500000000000000000000000000000000000000000000000056
:200e9c00000000000c302000000000000000000000000000000000000000000000000000da
:200ebc00000000000000000000000000000000000000000000000000000000000000000016
:160edc000000000000000000000000000000000000000000000000
:200ef2000000000000c300000000000000000000000000000000000000000000000000001d
:200f12000000000000000000000000000000000000000000000000000000000000000000bf
:170f32000000000000000000000000000000000000000000000000a8
:200f4900000000000c3020000000000000000000000000000000000000000000000000002c
:200f6900000000000000000000000000000000000000000000000000000000000000000068
:160f89000000000000000000000000000000000000000000000052
:200f9f000000000000c300000000000000000000000000000000000000000000000000006f
:200fbf00000000000000000000000000000000000000000000000000000000000000000012
:170fdf000000000000000000000000000000000000000000000000fb
:200ff600000000000c3020000000000000000000000000000000000000000000000000007f
:201016000000000000000000000000000000000000000000000000000000000000000000ba
:1610360000000000000000000000000000000000000000000000a4
:20104c000000000000c30000000000000000000000000000000000000000000000000000c1
:20106c00000000000000000000000000000000000000000000000000000000000000000064
:17108c0000000000000000000000000000000000000000000000004d
:2010a300000000000c302000000000000000000000000000000000000000000000000000d1
:2010c30000000000000000000000000000000000000000000000000000000000000000000d
:1610e30000000000000000000000000000000000000000000000f7
:2010f9000000000000c3000000000000000000000000000000000000000000000000000014
:201119000000000000000000000000000000000000000000000000000000000000000000b6
:1711390000000000000000000000000000000000000000000000009f
:20115000000000000c30200000000000000000000000000000000000000000000000000023
:2011700000000000000000000000000000000000000000000000000000000000000000005f
:161190000000000000000000000000000000000000000000000049
:2011a6000000000000c3000000000000000000000000000000000000000000000000000066
:2011c600000000000000000000000000000000000000000000000000000000000000000009
:1711e6000000000000000000000000000000000000000000000000f2
:2011fd00000000000c30200000000000000000000000000000000000000000000000000076
:20121d000000000000000000000000000000000000000000000000000000000000000000b1
:16123d00000000000000000000000000000000000000000000009b
:201253000000000000c30000000000000000000000000000000000000000000000000000b8
:2012730000000000000000000000000000000000000000000000000000000000000000005b
:17129300000000000000000000000000000000000000000000000044
:2012aa00000000000c302000000000000000000000000000000000000000000000000000c8
:2012ca000000000000000000010000000000000000000000000000000000000400000000ff
:1612ea0000000000000000000000000000000000000000000000ee
:201300000000000000c300000000000000000000000000000000000000000000000000000a
:2013200000000000000000000010000000000000000000000000000000000000000000009d
:17134000000000000000000000000000000000000000000000000096
:20135700000000000c3020000000000000000000000000000000000000000000000000001a
:20137700000000000000000000000000000000000000000000000000000000000000000056
:161397000000000000000000000000000000000000000000000040
:2013ad000000000000c300000000000000000000000000000000000000000000000000005d
:2013cd00000000000000000000000000000000000000000000000000000000000000000000
:1713ed000000000000000000000000000000000000000000000000e9
:20140400000000000c3020000000000000000000000000000000000000000000000000006c
:201424000000000000000000000000000000000000000000000000000000000000000000a8
:161444000000000000000000000000000000000000000000000092
:20145a000000000000c30000000000000000000000000000000000000000000000000000af
:20147a00000000000000000000000000000000000000000000000000000000000000000052
:17149a0000000000000000000000000000000000000000000000003b
:2014b100000000000c302000000000000000000000000000000000000000000000000000bf
:2014d1000000000000000000000000000000000000000000000000000000000000000000fb
:1614f10000000000000000000000000000000000000000000000e5
:201507000000000000c3000000000000000000000000000000000000000000000000000001
:201527000000000000000000000000000000000000000000000000000000000000000000a4
:1715470000000000000000000000000000000000000000000000008d
:20155e00000000000c30200000000000000000000000000000000000000000000000000011
:20157e0000000000000000000000000000000000000000000000000000000000000000004d
:16159e000000000000000000000000000000000000000000000037
:2015b4000000000000c3000000000000000000000000000000000000000000000000000054
:2015d4000000000000000000000000000000000000000000000000000000000000000000f7
:1715f4000000000000000000000000000000000000000000000000e0
:20160b00000000000c30200000000000000000000000000000000000000000000000000063
:20162b0000000000000000000000000000000000000000000000000000000000000000009f
:16164b000000000000000000000800000000000000000000000081
:201661000000000000c30000000000000000000000000000000000000000000000000000a6
:20168100000000000000000000000000000000000000000000000000000000000000000049
:1716a100000000000000000000010000000000000000000000000031
:2016b800000000000c302000000000000000000000000000000000000000000000000000b6
:2016d8000000000000000000000000000000400000000000000000000000000000000000b2
:1616f80000000000000000000000000000000000000000000000dc
:20170e00000e000000c30000000000000000000000000000000000000000000000000000ea
:20172e0000000000000000000000000000000000000000000000000000000000000000009b
:17174e00000000000000000000000000000000000000000000000084
:20176500000000000c30208000000000000000000000000000000000000000000000000088
:20178500000000000000000000000000000000000000000000000000000000000000000044
:1617a500000000000000000000000000000000000000000000002e
:2017bb000000000000c300000000000000000000000000000000000000000000000000004b
:2017db000000000000000000000000000000000000000000000000000000000000000000ee
:1717fb000000000000000000000000000000000000000000000000d7
:20181200000000000c3020000000000000000000000000000000000000000000000000005a
:20183200000000000000000000000000000000000000000000000000000000000000000096
:161852000000000000000000000000000000000000000000000080
:201868000000000000c300000000000000000000000000000000000000000000000000009d
:20188800000000000000000000000000000000000000000000000000000000000000000040
:1718a800000000000000000000000000000000000000000000000029
:2018bf00000000000c302000000000000000000000000000000000000000000000000000ad
:2018df000000000000000000000000000000000000000000000000000000000000000000e9
:1618ff0000000000000000000000000000000000000000000000d3
:201915000000000000c30000000000000000000000000000000000000000000000000000ef
:20193500000000000000000000000000000000000000000000000000000000000000000092
:1719550000000000000000000000000000000000000000000000007b
:20196c00000000000c302000000000000000000000000000000000000000000000000000ff
:20198c0000000000000000000000000000000000000000000000000000000000000000003b
:1619ac000000000000000000000000000000000000000000000025
:2019c2000000000000c3000000000000000000000000000000000000000000000000000042
:2019e2000000000000000000000000000000000000000000000000000000000000000000e5
:171a02000000000000000000000000000000000000000000000000cd
:201a1900000000000c30200000000000000000000000000000000000000000000000000051
:201a390000000000000000000000000000000000000000000000000000000000000000008d
:161a59000000000000000000000000000000000000000000000077
:201a6f000000000000c3000000000000000000000000000000000000000000000000000094
:201a8f00000000000000000000000000000000000000000000000000000000000000000037
:171aaf00000000000000000000000000000000000000000000000020
:201ac600000000000c302000000000000000000000000000000000000000000000000000a4
:201ae6000000000000000000000000000000000000000000000000000000000000000000e0
:161b060000000000000000000000000000000000000000000000c9
:201b1c000000000000c30000000000000000000000000000000000000000000000000000e6
:201b3c00000000000000000000000000000000000000000000000000000000000000000089
:171b5c00000000000000000000000000000000000000000000000072
:201b7300000000000c302000000000000000000000000000000000000000000000000000f6
:201b9300000000000000000000000000000000000000000000000000000000000000000032
:161bb300000000000000000000000000000000000000000000001c
:201bc9000000000000c30040000000000000000000000000000000000000000000000000f9
:201be9000000000000000000000000000000000000000000000000000000000000000000dc
:171c09000000000000000000000000000000000000000000000000c4
:201c2000000000000c30200000000000000000000000000000000000000000000000000048
:201c400000000000000000000000000000000000000000000e000000000000000000000076
:161c60000000e0000000000000000000000000000000000000008e
:201c76000000000000c300400000000000000000000000000000000000000000000000004b
:201c960000000000000000000000000000000000000000000000000000000000000000002e
:171cb60000000800000000000000000000000000000000000000000f
:201ccd00000000000c3020000000000000000000000000000000000000000000000000009b
:201ced00000000000000000000000000000000000000000000000060000000000000000077
:161d0d000000c00000000000000000000000000000000000000000
:201d23000000000000c300400000000000000000000000000000000000000000000000009d
:201d4300000000000000000000000000000000000000000000000000000000000000000080
:171d6300000004000000000000000000000000000000000000000065
:201d7a00000000000c302000000000000000000000000000000000000000000000000000ed
:201d9a000000400000000000000000000000400000000000000000000a0f408000000000d0
:161dba000000000000000000000000000000000000000000000013
:201dd0000000000000c30040000000000000000000000000000000000000000000000000f0
:201df0000000000000000000000000000000000000000000000000000100f40000000000de
:171e10000000000000000000000000000000000000000000000000bb
:201e2700000000000c3020000000000000000000000000000000000000000000000000003f
:201e4700000000000000000000000000000000000000000000020000000000000000000079
:161e67000000000000000000000000000000000000000000000065
:201e7d000000000000c3004000000000000000000000000000000000000000000000000042
:201e9d000000004000000000000000000000004000000000000100000000000004000000a0
:171ebd00000000100038000000004000000000000100000000000085
:201ed400000000000c30200000000000000000000000000000000000000000000000000092
:201ef4000000000000000000000000000000040000000000000000000af040800000000010
:161f140000000000000000000000000000000000100000000000a7
:201f2a000000000000c3004000000000000000000000000000000000000000000000000094
:201f4a00000000000000000000000000000000000000000000000000010f04000000000063
:171f6a00000000000000000000000000000000000000000000000060
:201f8100000000000c302000000000000000000000000000000000000000000000000000e4
:201fa100000000000000000000000000000000000000000000000000000000000000000020
:161fc100000000000000000000000000000000000000000000000a
:201fd7000000000000c30040000000000000000000000000000000000000000000000000e7
:201ff7000000000000000000000000000000000000000000000000000000000000000000ca
:1720170000000000140000000000000000000000000000000000009e
:20202e00000000000c30200000000000000000000000000000000000000000000000000036
:20204e00000004000000000000000000000004000000000004100000000000004000000016
:16206e0000004100e39fea54000400000000000010000000000047
:202084000000000000c3004000000000000000000000000000000000000000000000000039
:2020a40000000000000000000000000000000000000000000001000000000000000000001b
:1720c400000000000241e0aa404000000000000000000000000000b8
:2020db0001000040ac302000000000000000000000000000000000000000000000000000a8
:2020fb00000000000000000000020000000000000000000000020028000000000000000099
:16211b0000000080001fca040000080076a940000020014ca54088
:202131008010002e50c300400000000000000000000000000000000000000000000000007d
:2021510000000000000000000000000000000000000000000000000400000000000000006a
:1721710000000000003940f5410000100182a800000140060aa40078
:20218800000000000c302000000000000000000000000000000000000000000000000000db
:2021a800000000000000000000000000000000000000000000000000000000000000000017
:1621c8000000e0000014aa54000008000000000e000000000000f9
:2021de000000000000c30040000000000000000000000000000000000000000000000000de
:2021fe000000000000000000000000000000000000000000000000000000000000000000c1
:17221e00000008000000e0554040001000000000800000000000005c
:2022350000000040ac3020000000000000000000000000000000000000000000000000004d
:202255000000000000000000000000000000000000000000000000000000000000018000e8
:1622750000004001c68000000000000000000004000004000000c4
:20228b000000002c10c30040000000000000000000000000000000000000000000000000f4
:2022ab00000000000000000000000000000000000000000000000000000000000000000013
:1722cb000000040002000000000000000000000080000380000000f3
:2022e200010000000c3020000000000000000000000000000000000000000000000000007f
:202302000000000000000000000000000000000000000000000020600000000000000572c4
:16232200940100c0001caa5400000800000000000000000000002e
:202338000000000000c300400800000000000000000000000000000000000000000000007a
:202358000000000000000000000000000000000000000000000000400000000000000078ad
:17237800154000000001c0aa410000700000000000000000000000dd
:20238f00000000000c302000000000000000000000000000000000000000000000000000d2
:2023af00000000000000000000000000000000000000000000041c016ca5010000000000db
:1623cf0000000001e000000000000000bea94040001c0000000014
:2023e5000000000000c30040000000000000000000000000000000000000000000000000d5
:202405000000000000000000000000000000000000000000000002e34c055200000000002f
:172425000000000000000000000000000102a80000002000000000d5
:20243c00000000000c30200000000000000000000000000000000000000000000000000024
:20245c000000000000000000000000000000000000000000000000000000000000800000e0
:16247c000000000040000000004003800000000000000000000047
:202492000000000000c3004000000000000000000000000000000000000000000000000027
:2024b2000000000000000000000000000000000000000000000003c24000000000070000fe
:1724d2000000000002000000000000080000000000000000000000e9
:2024e900000000000c30200000000000000000000000000000000000000000000000000077
:20250900000000000000000000000000000000000000000000400003c93001000000000075
:1625290000000003c00000000000000100000000060000000000d2
:20253f000000000000c3004000000000000000000000000000000000000000000000000079
:20255f000000000000000000000000000000000000000000000003402dcb400000070000da
:17257f00000000001e00000000000000f00000000000000000000037
:20259600000000000c302000000000000000000000000000000000000000000000000000c9
:2025b6000000000000000000000000000000000000000000000000016ca0004000000000b8
:1625d60000004002000000000000000000000004000000000000a9
:2025ec000000000000c31000000000000000000000000000000000000000000000000000fc
:20260c000000000000000000000000000000000000000000000000000f0f50000000000040
:17262c00000000001400000000000000000000000000000000000083
:202643000001c0258c302000000000000000000000000000000000000000000000000000b5
:2026630000000080000000000000000000000000009ea950000000040000000000000384b5
:16268300020000000000a0f2040000000000000000006000000049
:202699000010023ac0c3000000000000000000000000000000000000000000000000000052
:2026b90000000000000000000000000000000000000f815500000043800000000000000257
:1726d900400000000000000f0000000000000000000000000000009b
:2026f0000003c0578c3020084000000000000e00000000000100000000000000e00000009d
:202710000000000000000000000000000003c000180000000e0000684bf800380000ef21cd
:16273000430000020001c05207800f800000000e004000000000d7
:2027460000002e3c00c300010200000000000000000000000028000000000000000000001b
:2027660000000000000000000000000000002000010000000080000415d7a01203801f90de
:17278600015000000400d00a39a00058000000008008000000000054
:20279d000003e314cc30200000000000000000000000000000000000000000000000000006
:2027bd00000040000000000001000000000300000000000004002061d8a5000000019d20f8
:1627dd004b000000003ccf02000005815669100000000000000039
:2027f30000003e3000c3000000000000000000000000000000000000000000000000000095
:202813000000000000000000000000000000100000000000004001403f055010000008db8d
:17283300e11000000c02e0a000000000abb5f90000000000000000b6
:20284a000101e014ec30200000000000000000000000000000200000000000000800000014
:20286a000000000000000000000000000000038800000000000000020ee242000018ed2169
:16288a004300000000018c002000000000000000a00004ed8140f6
:2028a0000000000030c3000000000000000000000000000000005000000000000140000094
:2028c00000000000000000000000000000000000d000000000000000250d1400000010983a
:1728e00001500000000000c00000000000000000040002a4b5b4803d
:2028f7000001c20eac302000000000000000000000000000000000000000000000000000f4
:202917000000000000000000000000000000000001000000000000380000000000000fa1b7
:16293700430000204061cfa0000003810000000000200000000073
:20294d000000024010c3000000000000000000000000000000000000000000000000000055
:20296d000000000000000000000000000000000000e000000000000000000000000000d09a
:17298d00015000024222c0f50000000c800000000001c0000000007a
:2029a4000000c0148c30200000000000000000000000000000000000000000000000000063
:2029c4000000000000000000000000000000400000000000000020280000000080580da1e5
:1629e40043000a00c040cc00200800190000000000200000000063
:2029fa000000022410c30000000000000000000000000000000000000000000000000000c4
:202a1a000000000000000000000000000000000000000000000001c0000000000300009048
:172a3a0001500000022810c0000100008000000000e3c00000000016
:202a51000000021ecc30200000000000000000000000000000000000000000000000000029
:202a7100000000000000000000000000000000000000000000000036d8a540000019afa1e9
:162a9100430000000040000000000000033c10000000000000005d
:202aa7000000004030c30000000000000000000000000000000000000000000000000000dc
:202ac7000000000000000000000000000000000000000000000000060f0aa410000000d844
:172ae7000150000000280000000000000003c1000004000000000097
:202afe000000e007ec30200000000000000000000000000000020000000000000000000093
:202b1e000000000000000000000000000001100008000000040000000000001018819fa191
:162b3e004300000000000000010000001ac19804000000000000c6
:202b54000000022420c3000000000000000000000000000000005000000000000000000008
:202b74000000003000000000000000000000008000000000000000000000000000010898f0
:172b94000150000000000000000000000d340d00008000000000000b
:202bab00000000000c302000000000000000000000000000000000000000000000000000ae
:202bcb00000000000a00000000400000000001000800000000040001cd4300000018072142
:162beb0043000802661d90f800020001b7c20000002001e0a5104a
:202c01004010000000c30000000000000000000000000000000000000000000000000000a0
:202c21000000000001b00000000000000000000001000000000804002ef4a004000080503f
:172c4100015100402c001d0f0000000087fc000000004004d9900062
:202c5800000000000c302008400000000000000000000000000000000000000000000000b8
:202c780000038000001a2950000000000003c000001fc2080e008003cca500380000072118
:162c9800430002020644e0f803900000ba1000c0012001cca510fd
:202cae000000000000c3000102000000000000000000000000000000000000000000000040
:202cce0000002000f0b942a980000000000020000099f800008010003c05501200000010be
:172cee00015000000460080f002080000d4000000008400f0aa00015
:202d0500000000000c302080000000000000000000000000000000000000000000000000d2
:202d25000003000000000000000000000001000000000000040000781ee2420000199521fd
:162d4500430000000054f0f8030000003f028000000003c0a501cc
:202d5b000000000000c3000000000000000000000000000000000000000000000000000095
:202d7b00000030000000000000000000000020000000000000c800040d0d140020008858ee
:172d9b000150000000203c0f00300000004028000000003ed66080d9
:202db200000000000c3020084000000000000000000000000000000000000000000000005d
:202dd2000000000000000000000000000000000780000000000000000000000030181521dc
:162df20043000010660ce0f8000008000000000001200000000005
:202e08000000000000c30001120000000000000000000000000000000000000000000000d4
:202e280000000000000000000000000000000000000000000000000000000000000008186a
:172e4800015000000000390f00000010e00000000401c00000000025
:202e5f00000000000c302000000000000000000000000000000000000000000000000000f7
:202e7f00000001000000000000000000000000000000000000009405cdcb0000000007a159
:162e9f0043000041c20df0f80000080edb2800000006037ea5019c
:202eb5000008000000c3000000000000000000000000000000000000000000000000000032
:202ed5000000000000000000000000000000000000000000000003c22ef5b01000000050e5
:172ef500015000000020280f000000b50b43d401000003850aa00014
:202f0c00000000000c30202010000000000000000000000000000000000000000000000019
:202f2c00000000000000000000000000000000000e0000000000000000000000000005a1d1
:162f4c0043000001e397e0f800100f9e0728d0800e00000000008f
:202f62000000000000c300000000000000000000000000000000000000000000000000008c
:202f820000000000000000000000000000000000010000000000000000000000010000101d
:172fa200015000002c680c0f000000719b414d00000000000000007e
:202fb900000000000c30200000000000000000000000000004000000000000000000000098
:202fd900000000000e000000000000000000000000bfa8100002060000000000009805a10d
:162ff90043000002664ff0f80003800e83ec500000807c00000094
:20300f000000000000c30000000000000000000000000000000000000000000000000000de
:20302f0000000000000000000000000000000000000583d5010060028000000000010058e8
:17304f00015000000664190f000000300f35c9000000020000000048
:20306600000000000c302000000000000000000000000000000000000000000000000000ee
:2030860000010000019a295040008000000100001e0000000400007c00000010008187a1fd
:1630a600430000026657f0f80100079fb7a81000000074000000a0
:2030bc000000000000c3000010000000000000000000000000000000000000000000000021
:2030dc000000000000ffc155000014000000000090000000000000034000000000010018bf
:1730fc000152000a26643d0f00000098e703d500008047400000002c
:20311300000000000c30200000000000000000000000000000000000000000000000000040
:20313300000000001956a80000000000000000001813820000000001c066e0000000072189
:1631530043210003e75c15a8002800087f1480000000034ca500c8
:203169000000000000c3000000000000000000000000000000000000000000000000000083
:203189000000000000fb43d404000000000000000083f8000000000002c66400000000b0b9
:1731a900015100001e38c9a50401000003af04000000002d055000bc
:2031c000000000000c3020285000000000000000000000000000000000000000000000001b
:2031e00000000003010000000000000000038000008700848e0e0079c996c83800000721a1
:16320000430000026654f0f803800100b2fe000e2100001ce2422e
:203216000000000000c30000000000000000000000000000000000000000000000000000d5
:203236000000000000b000000000000000002000000300040080000402b96482000000304c
:17325600015000003e64080f002000b8037de8008400002d0d150044
:20326d00000000000c302000000000000000000000000000000000000000000000000000e5
:20328d000000008f809b838c30000000000100050002bc140c4c8001c996c1002001952190
:1632ad00430000006006f0fa030000187229400c0e2001cca54096
:2032c3000000000000c3000000000000000000000000000000000000000000000000000028
:2032e300000000001009283c0100000000001000d80003c1044a100002c96498000008b8bc
:17330300015000000000380f001000000fc154014000400d055410f0
:20331a00000000000c302008404000000002000000000000000000000000000000000000ad
:20333a00000000078106b90080000000000000000002bc1000400005e896e00000181521ed
:16335a00438000000004f0f80000080003b89080000600000000d5
:203370000000000000c300011a00000000000000000000000000000000000000000000005f
:203390000000000008e903608000000000000000000003c18002000340d964000000083843
:1733b0000150000000003d0f00440a10094345000008000000000072
:2033c700000000000c3020000000000000000000000000000000000000000000000000008a
:2033e70000000000010000000000000000000008000000000000002de996c108003807a168
:163407004300000203c5e0f8000008005a2940000000740000008b
:20341d000000000000c30000000000000000000000000000000000000000000000000000cc
:20343d0000000000008000000000000000000000500000000000034702c96400000008b06e
:17345d00015800002478080f20000070974154010001c3400000008b
:20347400000000000c302000000000000000000000000000000000000000000000000000dc
:203494000000000180932940400000000000400900000000000e9401e996c100000005a189
:1634b40043000000624ff0f80000418003b890800000777ca010f7
:2034ca000000000000c300000000000000000000000000000000000000000000000000001f
:2034ea00000000000003c2a80000000000000000780000000000136002c9640010000030fb
:17350a00015010003c600c0f00040200090345000002436c0f5080ab
:20352100000000000c302000400000000000000000000000000000000000000000000000ee
:20354100000000000077bd402000000000000105817fa940400c0e29e896c100009805a1e7
:16356100430000026645f0f80000139d9a29500000200000000099
:203577000000000000c3000000000000000000000000000000000000000000000000000071
:2035970000000000900b428000000000000000000083815400000006c2e96414000100b87d
:1735b7000150100006643d0f00000200814155000002c38000000088
:2035ce00000000000c30200000000000000000000000000000000000000000000000000081
:2035ee00000000000100000000000000000100080100000004001429e996c011008187a178
:16360e0043040002604c00080100400100000004001c001ea01178
:203624000000000000c30000000000000000000000000000000000000000000000000000c3
:2036440000000000008000000000000000000000f080000000000026c2996404080100384c
:173664000150000026242d0000000000f00000000000003c050098be
:20367b00020000000c302400000000000000000000000000000000000000000000000000cd
:20369b000000000000000000000000000000000000f21430004c0001c896e0000000072126
:1636bb0043000000029c10080000000057548800000020000000ad
:2036d1000000000000c3000000000000000000000000000000000000000000000000000016
:2036f10000000000000000000000000000000000000700150802000002c9645000000e9076
:1737110001510000344008000400000003fb0400000140000000008c
:20372800000000000c30200000000000000000000000000000000000000000000000000025
:203748000003800500000000000000000003c00000f214300e000001c896c03800000f214b
:1637680043000003c014000803800000b7be000e00000000000023
:20377e000000000000c3080000000000000000000000000000000000000000000000000060
:20379e000000200038e000000000000000002000000f00150280000002c96412000000507c
:1737be00015000003e000a00002000000b2de8008081c0000000005a
:2037d500000000000c3024a000005f15400040800000000000000000000000000000000060
:2037f500000100070e000000000000000001000009d21430040e0039e896c000000195213e
:1638150043000002601c10080100000e00000005401c0000000054
:20382b000000000000c3000000000041540108040000000000000000000000000000000018
:20384b000000300008a0000000000000000030000187801500c0000000d96590000008980a
:17386b000150000026002d0000300000d00000009201c0000000004f
:20388200000000000c3020000800000000028000000000000000040000000000000000003c
:2038a20000000005009e6b48000000000000002181f2143000000001c996c84000980d21aa
:1638c20043400000030e100800100000b3bd400000000158a54046
:2038d8008000000000c3080000300000000004001000000000000000000000000001000040
:2038f8000000000000e170bc0000000000000001008f80150000000002c96410000b0058dc
:173918000150000000000e000002820007c2800000000024055400ef
:20392f00000000000c3220000000000000000000000000000000000000000000000000001a
:20394f000000000000000000000000000000000000fa1430000a1439e996c080000007a15c
:16396f0043000000000400080000180007a8d0800000700000006c
:203985000000000000c300000000000000000000000000000000000000000000000000005f
:2039a500000000000000000000000000000000000407001500000362c2c96680000000907c
:1739c5000158000000002800000000709b014d04000000000000000d
:2039dc00000000000c322000000e000000000000000000000000000000000000000000005f
:2039fc000000000700000000000000000000400040da143000009401e996c08000000da104
:163a1c004380000003dc100800000018bba8100000007058a541a1
:203a32000000000000c30000000000000000000000000000000000000000000000000000b1
:203a520000000000080000000000000000000000000f00150000136002c964100000005026
:173a7200015000001c780800000000900703d5000008042c05540050
:203a8900000000000c3220004000000000000000000000000000000000000000000000007f
:203aa9000000000000de5484000000000000000998da143000041c29e896c081009807a140
:163ac90041200001600e100800000398ffa940000000035ca0403d
:203adf008000000000c3000000000000000000000000000000000000000000000000000084
:203aff00000000000007a30800000000000000001007801500000006c2e96414080100987f
:173b1f00015000003c382b00000000080f815401000000050f54004a
:203b3600000000000c302000000000000000214000000000000000000000000000000000b2
:203b560000010007005aa810400000000001000f98fa143005000029e896c1100080100002
:163b76000000000000008f000900019f87b890842000000000008e
:203b8c000000000000c3080000000000000000080000000000000000000000000000000046
:203bac0000000000080d03d50000000000000000188f801500000346c2d9648400010800fb
:173bcc0000000000340000f008000011874345000000000000000096
:203be30001000021ec30200007015059a000000001400080000059aba38102000000000028
:203c03000000000781000000000000000000000000f214300001c001c896c04000801569c5
:163c23000c000004004ef0300000001e866c5000001c71d8030045
:203c390080100002d0c308000070c03d980000000002a00000000000f73d50100000000003
:203c59000000000000d000000000000000000000000700151200140002c964500007089615
:173c790012801000003dfa87000038010735c9010001c03eb870006e
:203c9000000000000c30200007001225a000010401c99680380058037a9502e0020000006f
:203cb0000003800001000000008000000003800000f214300e000001c896e03800581f62d9
:163cd0009480e0000006af500380011abf29500e000405cbfc0031
:203ce6008000000000c30800000000ba580100002000d9600200000014141008002c000099
:203d06000000200000d000000004000000002000000300150480000002c9640200000e149a
:173d2600154008002402c0a0002020090f42a901800023bf878000f6
:203d3d0000a80001ec302003080e5a25a000409e01c9968004050000000000000000000082
:203d5d000001000000000000000000000003000019d21430050c0079e896e0303800086358
:163d7d00890840006020ca34a128059cf328100400006a48a540b1
:203d93000001400010c30800003000ba5801080423c2a960000000000000000000000000b7
:203db300000010000000000000000000000030000087801500d0000000d9640300050090ef
:173dd3003450040000005053402380000b43d50080000025055400aa
:203dea00010000000c302000000f1225a000801e78c9968000000000000000000060000021
:203e0a000000000000000000000000000000000181d2143000000001c996c00000000000e0
:163e2a00000000026736ead000000000d729500040203800000041
:203e40000000000000c308000000d03e580104002400c960000000000000000000000000df
:203e600000000000000000000000000000000000008380150000000002c9648000000e006d
:173e8000000000000442cf3d0001000003c2a9000400400000000026
:203e970000c000000c322000200a1225a000002e00c99680800000000000000001e000007e
:203eb700000020000193a950000000000000000000fa143000801439e996e1013800056b2a
:163ed7002c00040003b6ca501000079c9a3d50000c006168a5007e
:203eed000000000000c300000401003e580100014000d960000009000000000000020000d1
:203f0d000000000000db02a980000000000000000007001500000362c2c964000840009640
:173f2d0016c0002000435055000000090bc28100000004050550806a
:203f4400000000000c32200000005225a010001c3de9968000007800000000000800378643
:203f64004700280000362810000000000000000100da143000001401e996c00000000000ed
:163f8400000000000641ae242000011f7729500001000040e74274
:203f9a000000402400c30000000000b658000001e742f9600000008000000000010001cc01
:203fba006240000000c7c3d50000200000000000080300150000036002c966000000000012
:173fda0000000000003ad0d1400000f1e3c15501002000240814006a
:203ff100000000000c302000050a1a25a000001600699680000000000000000004000000cd
:204011000000000000000000000000000000000988da143000011c29e896e0000019e00043
:1640310000000000607eca500000081bbbbd5020a00026c8a54003
:204047000000000000c3080000d9b03e584000000280c96004000000000000000000000080
:2040670000000000b000000000000000000000001007801500000c06c2e9670000000000b9
:17408700000000000226f055200000b1fbc28100040006370554000c
:20409e00000000000c302400001c5a25a000014069699680100000cb7f294040000000003b
:2040be000001030000000000000000000001000918fa143004000029e896c0100000000003
:1640de00000040000041ce2421800900d72950040000000000005b
:2040f4000000002400c30000000000b65804000bc382e9608000000036305050002c000068
:2041140000000000000000000000e000000000001803801500000346c2d9660000000000b1
:17413400000000000022d0d140000138f741550000000000000000ab
:20414b0000c00315ac302000071b5225a0000000054996a00000000fbfe1000000004feed7
:20416b0007080000003f2814000000000000000008f2143010040001c896c8000081b00000
:16418b0000000014006ea030000000005b948000002065da0f806f
:2041a1000010243070c300000070c02e581000000380e960400000003b94121006003a4f15
:2041c100f5400000000b83e90000000000000000010700151000000002c96540000b0a0080
:1741e1000000000080364b87004400000fef08000001c200c0f00082
:2041f8000003e0058c30200003801225a00000000169968038185800000000e000003c9ca9
:204218005403800000000000000000000003c320007214301e000001c896c0000070eb3c3f
:164238002000e000e0758ad00380400072ff0000001400ce0f801c
:20424e0000005c0020c30000000800a6580400000002d9608228000000000008000000ff1b
:20426e00cb582000000000000000000000002004000900150080000000d9649000000092cc
:17428e00000008000030fa3d082000000fede00000000282c0f00072
:2042a500008a07d48c302000081a5a25a000000001c89680000000083fe10400000000006c
:2042c5000003000000000000000100000003100019d214300cac0001e896e0000001ebaae6
:1642e500000840020300000001002118bb2950000020014e0f800a
:2042fb0000013c7c10c30000003000ae58400003c002d9601000000037bd1010000000007f
:20431b00000031000000000000000000000012800087801500c0000000d9648000011038dd
:17433b00000204002c400000002000080f42a9000003c00190f00093
:20435200012207dfcc302400001d1225a0000020384996a00000800ff715000000000000bc
:20437200000020000000000000000000000003018152143000000001e896e0000081f56dae
:16439200d0000002000000000000000172bd5000002664ee0f80bc
:2043a80000003c6c00c300000001d0265840040b4002e96000005500f2b2d0500000000048
:2043c80000000100000000000000000000000000008980150000000000d96500000f180e43
:1743e8009d0830000400000000000800eb0281001003420190f00099
:2043ff0000c0000eec30200000001a25a00000206cc996800000000fe781400001f00eefa5
:20441f008708000000000000004000000000000001fa143000a0802808f061003081e978bc
:16443f002000000000178a500400000c00000002410605fc0f806d
:204455000000000000c300000000002e584000024382d960000000003bbd50100000024f15
:204475005040400000e00000000a00000000000000f7001500081746c00f0400000910fe12
:17449500400000000003c055000000010000000000e0c24080f20063
:2044ac000002400fac30200000005a25a00020203ce99680002800000000000001c0000020
:2044cc00000000010c0000000000000000005000005a1430000c00000000000400818000c4
:1644ec00000000006060ee24200047c000000000003c617f0f8016
:2045020000000e2430c30000000000a6580100014740f96000080300000000000000000089
:204522000000000008000000000000000000008000090015000000000000000000010000d2
:1745420000000000803850d1400000080000000000036400d0f0001a
:2045590000a200178c30200000001225a000403c0168968004008010000000002203000022
:20457900000000000e000000000000000000000980da14300000943800000004001995b23d
:164599009420000007bd8a540820079f0000000000366d7f0f8037
:2045af0000002c0000c300000000002e58400a02e380e96200000b0900000000003c4000ed
:2045cf00000000000000000000000000000000001007801500001022c00000000000991c79
:1745ef00154000000402c0aa40010008800000000000428390f000e2
:204606000001c000ac3020000000023c0000001c00c89680102d10000000004002007c8c08
:20462600a5010000000000000000000000011329187a1430040014000000000000999f78f3
:1646460020004010000000000100000e0000000008366d7f0f8026
:20465c000000000010c3000000000003c0010403e380e9600428200e00000000001c3cfc46
:20467c00c14040000000000000008000000000851809801500000360000000000009997ba2
:17469c00c00000000000000000000001000000000a6a428380f0009d
:2046b300000000000c3020000000000000000e1c7049968000008010000000000000000002
:2046d3000000000018000000000000000000000008721430100e0000dff08000000009f982
:1646f30068000000002dca06000000009b948002002e38580f804e
:204709000010000000c3000000000000000000a00402e9604000050f00000000000000007a
:2047290000000000000000000000000000000000018300151000000000c0f0000000009c7b
:174749002a8000000002f0f5400000000fef040100e0600280f04093
:20476000000000000c302000000000000000000e01c9968038050010000000e000003eccb8
:20478000560000080000000000000000000380000072143010000001c8aa8038008088013e
:1647a0006800e000c021cc540380038e7afe0000001e3b405a80bb
:2047b6000000000000c300000000000000000000200289600201800a00000008000001ec93
:2047d600c7500100f000000000000000000020000009001500000000020aa002000119f0c5
:1747f600294808000001deca602000000fe5e80000002424ca5000cc
:20480d00000000000c302000000000000000001e78c996800000580737050200000000001d
:20482d00000000000000000000000000000100001952143001008001c8aa8000000003f94b
:16484d0068004000000000000100001877bd50000006754e0f80b8
:204863000000000000c3000000000000000000000400b9600000000092b6d010000000002d
:20488300000000000000000000000000000010000083801500101400020aa000000000f429
:1748a3002a8408001c000000002000000302810000000603d0f000bd
:2048ba00000000000c302000000000000000200071c89680400059a12b9102001400000007
:2048da0000000000001f294800000000000000000052143000000001c8aa80000000006243
:1648fa00590a00000000000000002000fb2950000000716e0f8043
:204910000000000000c30000000000000000040004008960000000003bbd101000000000bb
:2049300000000000000902a800000010000000000009801500000000000aa000000000005c
:174950001a50000000000000000005000f02a90000600003d0f00004
:20496700000000000c302010000000000000021404e89680000078073705c00001c0000070
:2049870000000000000000000000000000000000007a1430000a9c00e8aa80010000107811
:1649a7003c00000007800000008000003e281040400c60ff0f80c7
:2049bd000000000000c3000080000000000000000280a960000000009276d010001e000006
:2049dd000000000000000000000000000000000090030015000011e0000aa00008090e0454
:1749fd0003c0000000000000000000b00303d5000a0023c2c0f000b6
:204a1400000000000c302000000000000000001400c896800000000122d5420000000000fa
:204a34000000000181bf2944000000000000000180b2141000003428e8aa8000057000007a
:164a540000000001c23dca5400000700000000002026755f0f807e
:204a6a000000000000c3000000000000000000000002f9600003000037ac501004000000c4
:204a8a000000000030d382a820000000000000000003002900000142820aa0000020800084
:174aaa0000000000007850aa404000000000000000004202c0f0000f
:204ac100000000000c302000000000000000403e6de8968000000000000000000000000090
:204ae100000000000000000000000000000000098000000000001428e8aa80000000a0003e
:164b010000000000402eaf54040008010000000000266c5f0f80a0
:204b17000000000000c300000000000000000a824300b960000009000000000000000000ca
:204b3700000000000000000000000000000000001000000000001002820aa0000000000010
:174b5700000000000602c0a0400000f08000000000026281d0f0008a
:204b6e00000000000c302000000000000000003669e89680100000016b9100440203800058
:204b8e00000010000000000000000000000100080000000000402000c8aa801000000b3150
:164bae007c004000000000000101078e00000000003605c0008023
:204bc4000000000000c3000000000000000000014002e960000000003fbd1050a03c40000a
:204be400000000800000000000008000000000001000000000000140000aa00000000ef8b0
:174c0400028000001400000000000019f000000000014280e0000057
:204c1b00000000000c302000000000000000000001e896800000580977d50200000000006f
:204c3b0000000008000000000000000000000000007283e00080000148aa8000007007b062
:164c5b0028000008000c000800000380d3948010001400c1008030
:204c71000000000000c3000000000000000000000000a960400000005368544000000000c8
:204c910000000000f000000000000000000000000000003c08000000000aa040000080fc69
:174cb10017c0000040002d000000009001ef04000003600080004001
:204cc800000000000c302000000000000000001400c99680380058edf30504e01400000010
:204ce800000000000013a944000000000003800000523c300000000168aa80000070073031
:164d080028000002001cf0f80b8383801abe0800008001e0008015
:204d1e000000000000c30000000000000000000022c0f9600200000037f6d0180800000058
:204d3e0000000000000342a820008000000020000000003d04000000020aa00000000018a3
:174d5e002bc000002c001f0f102000f0df6de8000011c000d0000004
:204d7500000000000c30200b800000000000001e394896800438000be781040001e00000ee
:204d95000000000000000000000000000000000999523c3020402001c8aa80000080057135
:164db5007c000000001c15aa0500001817295000001c00e0008068
:204dcb000002000000c3000000000000000000036000f96000400000537d541000020000d1
:204deb00000000000000000000020000000000009990803d04000240000aa000000f00f0d1
:174e0b00028000000003eea501600000f141550000000002a00000ee
:204e2200000000000c302000000000000000000038699680000010000000000015c036be84
:204e42004490000000000000000000000000000999523c3800008060c8aa800280800bb97c
:164e620068000001e00c8968000000009f281000209401c0008028
:204e78000000000000c3000000000000000000000002c9600000008000000000000001ccdf
:204e9800f44100000000000000000000000000009990803d40000004000aa000100f095475
:174eb8001540000000000f96000000000bc3d500001422c0e0000070
:204ecf00001000000c302000000000000000012e05c8968000000000000000000000000045
:204eef000000000180000000000c000000000000005a3c3200016001c8aa80000070c3695e
:164f0f007c000002039c9968008000009f294000000630400080f0
:204f25000000000000c3000000000000000000016282b96000040000000000001000000097
:204f4500000000400000000000000000000000400000003d04010140020aa000040380f422
:174f6500028000101c3c2f96000040000342a8200100238080000015
:204f7c00000000000c302000000000000000000e04c896800000500df705400a00e0000046
:204f9c0000000000000000000000000000000000005a3c3000000001c8aa800000d80fb99c
:164fbc0068000100000e89680004280d0000000010943961008080
:204fd2000000000000c3000000000000000000000342c9600000008837b6d0100000000039
:204ff200000002820000000000000000000000000000003d05000000000aa0000005007cae
:17501200154000000c000f9600000410f000000000102400b0000099
:20502900000000000c302000400000000000000072693300000000100000000000000000ad
:20504900000000000c0000000000000000000008005a3c3000009401e8aa80000051d7603e
:165069002800000063dc99680000000100000000001400e0008054
:20507f000000000000c30000000000000000000002b4dcc0000000490000000000000000b3
:20509f00000000000000000000000000000000001000803d24001542800aa00000051ff06b
:1750bf0017c0000140602896200020008000000000036000d00000b1
:2050d600000000000c3020000000000000000000040000001040800bef1502410000000038
:2050f60000000600000000000000000000010400005a3c3040101401e8aa80007881a73979
:1651160068000501e71689680104000000000000500c0008f000ce
:20512c000000000000c30000000400000000000143000000000009003a72d8000164000066
:20514c00000000000000000000000000000000000000803d04000140000aa000000f0af48a
:17516c00154000a002600f960000000000000000020000000f02100d
:2051830000000000000000000000000000000c0002eec5400000000000000000000000000b
:2051a3000000000018000000000e00000000000000523c300002400168aa800000100d69ad
:1651c30068000080001489680081880e379480000004714e340090
:2051d9000000000000000001000000000000000002ad9c740400000b0000000000002400c3
:2051f900000000000000000000001000000000000000003d30000240000aa04000508074a9
:175219002a80000b00002e9604028070f1af04000000201dda400014
:20523000000000000000000000000000000e000002dc895038005800000000e00000000029
:205250000000000000000000000000000003800000523c3020000029e8aa800000000b7027
:1652700028000000000c89680380000092be000e008004cecb0005
:2052860000000000000000000000000000008000028dfa549600000000000008000000000d
:2052a600000000800000000000000000000020000000003d04000004020aa000000000d087
:1752c60017c0000000002b96002000000775e800801403bea5b0000b
:2052dd00000000000000000800000000000000002800000001000001fb91000202000000ef
:2052fd000000400000000000000000000000000999523c300000000068aa80040281ebe904
:16531d00680000004014996a01102b980000000400200368a54073
:20533300000000000000000000000000000000000000000000080000f27d1050402c000017
:20535300000004000000000000000000000000809990803da0000000020aa000401f10bc59
:175373001540000002282d96002084d0000000008003c027055400aa
:20538a000000000000000000000000000000000000000000000000000000000010000000f3
:2053aa00000000000033294041a000000000030999523c3400002001e8aa800000300df996
:1653ca007c000400000e8968800000005329500000a00000000062
:2053e000000000000000000000000000000000000000000000000000000000002480000009
:2054000000000000000982a880000000000000009990803d40002240000aa00000008ed445
:175420000280002000000b96000000300f02a90000144200000000f2
:20543700001000000000000000000000000000200000000000000001bb91400015c00000c3
:2054570000000000000000000000000000000380005a3c3c00310068c8aa80004150036958
:1654770068000000001489680040000e7ebd5000100007e8a540f5
:20548d00000000000000000000000000000001234000000000040000f27d101010822c004a
:2054ad00000000003080000000000000000000400000003d00010803820aa00004050a74f3
:1754cd001540000a143c2f960804401103828100010002ad055400e8
:2054e4000000000000000000000000000000000602f8e4608080000000000004140004cc7c
:2055040056102800000000000000000000000000005a3c3800000000c8aa80000001bd314a
:165524007c000002001e8968004408003a32c000502006eecb003d
:20553a000000000000000000000000000000000003cfff841810000000000000a000017cb7
:20555a00cb4000280000000000000000000000000000003d00000000020aa00000010edc2a
:17557a00028000002c242b960000001009696c000a01431585b00001
:205591000000000000000000000000000000000002eec540048081e0000000000000000020
:2055b10000000000000000000000000000000000005a3c300000a001c8aa80000011e16926
:1655d10068000001429489680001c0000000000000166e5a3000c5
:2055e7000000000000000000000000000000000002adbc74104009100000000000800000dc
:20560700000000000000000000000000000000000000803d240016c0000aa000000000f42e
:175627001540000000002a9600000700f00000000000020cfa500008
:20563e00000000000000000000000000000410000000000010c080000000004100000000a7
:20565e0000000280000000000000000000010400005a3c3002101c7048aa80024058a00095
:16567e0000000000030c8968010468010000000410200000000074
:205694000000000000000000000000000000000000000000001009000000000000000000dd
:2056b400000000000000000000000000000000000000803d40000004000aa000100000001b
:1756d4000000000000400b96000007d0f00000001000c00000000047
:2056eb0000000000000000400000000000000000000000000000900daa000000020700000f
:20570b000000000000000000000000000000100000523c304000000168aa80000010850444
:16572b0002000000001e89680001810092fe80000000780000004d
:2057410000000000000000040000000000000000000000000000010eb3000000000c400036
:20576100000000000000000000000000000000800000003d50004343c20aa0400010900a3f
:175781008000800640002e9604008108097680000000040000000077
:205798000000000000000000000000000000000000000000000080000000000010005daa5a
:2057b8000000000000000000000000000003800000523c340000000568aa8000000003846e
:1657d80002000000001c99680000001f3fae00000000047b2500ec
:2057ee00000000000000000000000000000000000000000000000100000000000a803000e0
:20580e00a00000000000000000000000000020000000003d00000002420aa001000000038b
:17582e008000000000002f9600000000f1f9d00000000266e2c080da
:205845000000000000000000000000000000000000000000040081c3fe00040000004effac
:205865007000000000000000000e00000000000999523c3400005e0009cc80000000010489
:1658850002000000001e99680000081e7fbe80000e0000000000fb
:20589b00001000000000000000000000000000000000000000400b591a000020001c33cde3
:2058bb00ff0000000000000000000000000000009990803d00000020009cc000200f0f0b23
:1758db000000000a40002d96000000f0f781404000000000000000c1
:2058f2000000000000000000000000000000000000000000000001e00000000003405fef24
:205912007020000000000000000000000000000999523c305000002848aa800000f8038020
:1659320002000008000c9968800380003fae000000060000000052
:2059480000000000000000000000000000000000000000000000051000000000000c2150ad
:20596800f30000000000000000000000000000009990803d00000006c00aa000000780024d
:175988000000000140002f960000009001a9d00000002000000000d8
:20599f0000000000000000000000000000010c0000000000000080e3aa000010000057a8bf
:2059bf0000200000000000000000000000000000005a3c3060000020e8aa80010000070444
:1659df0002000060001e896804d2870f333e8800000000000000dc
:2059f500000000000000000000000000000010000000000000000908f7400001000026d043
:205a1500000000000000000000000000000000000000003d00004000000aa0000040000bff
:175a35000000000014282c9600048001d7814000000000000000003f
:205a4c000000000000000000000000000000000000000000000019900000000000e0400071
:205a6c0000000000000000000000000000000000005a3c3420001c01e8aa80000081c38439
:165a8c0002000000005e996a0080000e3aee00000080000000006b
:205aa20000000000000000000000000000000000000000000000008900000000000030002b
:205ac200000000000000000000000000000000000000003d00000020000aa00000031002a8
:175ae2008000000014302f9600000000e1e5d000001400000000007a
:205af9000000000000000000000000000000000000000000000058833a00000003c224a8e7
:205b190000000000000000000000000000000320005a3c3060000000c8aa00000500038425
:165b390002000001429e99680000011e177e80000000000000003e
:205b4f0000000000000000000000000000000000000000000000000cde400000003442781e
:205b6f00000000000000000000000000000000050000803d0000a000020aa0000000090bf4
:175b8f000000000040002e96010001380f768020000000000000009c
:205ba600000000000000000000000000000000000000000000008005ba00080001c3800054
:205bc60000000000000000000004000000010000005a3c34010004004a0a00000080038094
:165be60002000001668e9968000003083b6e0000202000000000bd
:205bfc0000000000000000000000000000000000000000000000050018000000000040002c
:205c1c00000000000000000000000000000000000000803d000000002e05f000000b00027b
:175c3c008000000000240f96000000b9f1e9d0000002400000000063
:205c53000000000000000000000000000000008000000000043800000000000002006f9074
:205c73008000000000be0280000000000000000000523c3400403c3a4a5f000000700104bb
:165c930002000012000c99680002af9f3eabc0008000001cf04015
:205ca90040000000000000000000000000000010000000000040000000000000000c2bc84c
:205cc9000000000000036c34000a0000000002000000003d100a01e42e00a0000000000200
:175ce900c0010020b4002e9614000130d9602800000000000f040092
:205d00000000000000000000000000000000000000000000000000000000000002e75f80bb
:205d2000a000000008fb3fc0800000000003800001523c3060001e3a5c5a00000080018090
:165d400002000001e00e89690000200096ae000e0e0000000000ea
:205d560000000000000000000000000000000000000000000000090000000000001e701086
:205d76000a000000010d837c00000000000020000090003d00000026a5055080000f000258
:175d96000000000034240d96000005000361d0008000000000000042
:205dad0000000000000000000000000000000c000000000000020003fc20000001c027c4fd
:205dcd000020400008000000000000000000438999523c30400e2078000000000001e1045f
:165ded0002001001e00c8968000200003ba2c0004000040af05083
:205e0300000000000000000000000000000000000000000000004000bf000000000400f08c
:205e2300000004000100000000000000000004059990803d01000343000000000000100311
:175e4300800000800200289610000010017a2c00080003c10f0400e2
:205e5a000000000000000000000000000000000000000000000000800000000002068c8490
:205e7a000020000001000000000000000000000980523c340000207c180f00000001e500f3
:165e9a0002000000101489690080001d97ae00004001780000003f
:205eb00000000000000000000000000000000000000000000000000000000000003c4170e5
:205ed000000000000080000000000000000000009800803d000001c2c100f0000000100a4f
:175ef0000000000000000d9600000075e365d0000a00000000000061
:205f07001000000000000000000000000000000000000000003a30100000000001603cc88b
:205f2700002800080000000000000000000003801a5a3c306000007a7a5f0000000001040f
:165f470002000202020c89680082001f3eae0000060000000000ac
:205f5d0001000000000000000000000000000000000000000000500b0000000000003f4049
:205f7d00000180007000000000000000000000000000003d000800002d00a08000000a0374
:175f9d00c00000402c402c9620028500e136e0000000000000000021
:205fb4000000000000000000000000000000000000000000000000800000000002e6000065
:205fd400000000070e0000000000000000000000005a3c30200000035c5a000000000300f6
:165ff40002000000070e89680000254093a2c0000e0c000000001b
:20600a0000000000000000000000000000000000000000000000031000000000002c000037
:20602a00000000001900000000000000000000200000003d04000002570aa0080000000ac7
:17604a00000000002c742d96080005b0c3691c0000002000000000b7
:2060610000000000000000000000000000000000000000000102000f342040100200000067
:20608100000000001e7f17c0000c0000000003a000323c30000000024a5f00001010a100d2
:1660a10002000080000c99690000570c3b62c8000000001ef06023
:2060b700000000000000000000000000000000000000000000084008da000001000400009a
:2060d70000000000000fc3fc00000000000000040000803d040000002d00a00000108003b6
:1760f700c0000000000028960002290081722c00000000000f0400b7
:20610e00000000000000000000000000000000000000000000000000000000000046a4b0d7
:20612e00800000001d0000000000000000010000001a2a9040000000fa0a00000050a700a4
:16614e0002000a09602699a01000000c976e00044e80001af0501a
:2061640000000000000000000000000000000000000000000000000c00000000003c41cac8
:206184000000000000c000000000000000000000000082a9000000002f0af00000000002e5
:1761a4000000000040006d5900000000f37dd0200a15c0010f04008b
:2061bb000000000000000000000000000000000000000000000000000000000000000000c4
:2061db00000000000000000000000000000000000006bc1000008000005a0804080005805f
:1661fb00020000000786efa2000010003840200040400000000046
:2062110000000000000000000000000000000000000000000000000000000000000000006d
:2062310000000000000000000000000000000000000043c104000002e40a50804000000342
:176251000001000a003d40500000001000a000080a08000000000094
:20626800000000000000000000000000000000000000000000000000000000000000000016
:20628800000000000000000000000000000380000000000000003e035e5a080000000584e9
:1662a80002000001e3459db0005000085040200e00000000000052
:2062be000000000000000000000000000000000000000000000000000000000000000000c0
:2062de000000000000000000000000000000200000000000000003c007055000000000025f
:1762fe0080000000027bfc810000809190a40000800000000000004a
:20631500000000000000000000000000000000000000000000000000000000000000000068
:20633500000000000000000000000000000000000a00000000201e7800000001087805847e
:1663550002000001e01dcfa00000010858002004400038000000c6
:20636b00000000000000000000000000000000000000000000000000000000000000000012
:20638b00000000000000000000000000000002800000000000040427000000000a008003b4
:1763ab0080000040003d60500000000800a80000004004000000003a
:2063c2000000000000000000000000000000000000000000000000000000000000000000bb
:2063e2000000000000000000000000000000000000000000000000000000000100700384a3
:16640200020000c20035efa0000380003a65a0000020000000001a
:20641800000000000000000000000000000000000000000000000000000000000000000064
:206438000000000000000000000000000000000000a000000000000000000000000f800a0b
:17645800800000002c0150a000000000e0ae58040003c000000000e3
:20646f000000000000000000000000000000000000000000003800000000000000000000d5
:20648f00000000000000000000000000000000000000000000401e02ce0a00000000058030
:1664af00020000140235ffa0004040005a65a000000072fbb800e7
:2064c5000000000000000000000000000000000000000000000000000000000000000000b7
:2064e5000000000000000000000000000000000000000000000002403d05f080001500038b
:17650500800000001c427efa000000f0b0a658020040042cfb80801e
:20651c0000000000000000000000000000000000000000000000000000000000000000005f
:20653c00000000000000000000000000000000000000000000000001d9fa0100000007045f
:16655c00020000144035cfa00000001f3265a0000026041cf0683b
:20657200c00000000000000000000000000000000000000000000000000000000000000049
:2065920000000000000000000000000000000000000000000000000034f5000000000a0aac
:1765b20080000000a601c0a000020000a0ae58020001c3800f0480ca
:2065c9000000000000000000000000000000000000000000000000000000000000000000b2
:2065e900000000000000000000000000000000000000000000000404000000001010858461
:166609000200000800068af2002000005a25a400400002fbb800b7
:20661f0000000000000000000000000000000000000000000000000000000000000000005b
:20663f00000000000000000000000000000000000000000000000023000000000000900385
:17665f00c000008a243970050002050000b258000800002cfb800048
:20667600000000000000000000000000000000000000000000000000000000000000000004
:20669600000000000000000000000000000100000002bc100000002ecafa00000038a50442
:1666b60002000003c214caf0001000001265a00400007aeab800f2
:2066cc000000000000000000000000000000000000000000000000000000000000000000ae
:2066ec0000000000000000000000000000000000000043c1040003c39c0500080000000215
:17670c00800000802e66c00a00028000002e58800040040fd7420024
