:02000000ff00ff
:080002004c6174746963650030
:17000a00694345637562653220323032302e31322e32373934330071
:15002100506172743a2069434534305550354b2d53473438002c
:1b003600446174653a2053657020323520323032342031373a35373a32330073
:0200510000ffae
:040053007eaa997e6a
:02005700510056
:0200590001059f
:03005b00920020f0
:03005e006202b388
:03006100720150d9
:0300640082000017
:02006700110086
:02006900010193
:20006b00000000000000000000000010000000000000400000000000010000000000000420
:20008b000000000000001000000000000040000000001000000000000040000000000001b4
:1600ab0000000000000004000000000000100000000000004000eb
:2000c1000000000000000000000000020000000000000800000000000020000000000000f5
:2000e10080000000000002000000000000080000000002000000000000080000000000006b
:1701010020000000000000800000000000020000000000000800003d
:200118000000000000000000000000000000000000000000000000000000000000000000c7
:200138000000000000000000000000000000000000000000000000000000000100000000a6
:16015800000000000000000000000000000000000003000000008e
:20016e00000000000000000000000000000000000000000000000000000000000000000071
:20018e00000000000000000000000000000000000000000000000000000000000000000051
:1701ae0010000000000000000000000000000000000000000000002a
:2001c50000000000000000000000000000000000000000000000000000000000000000001a
:2001e5000000000000000000000000000000000000000000000000000000000000000000fa
:1602050000000000000000000000000000000000000000000000e3
:20021b000000000000000000000000000000000000000000000000000000000000000000c3
:20023b000000000000000000000000000000000000000000000000000000000000000000a3
:17025b0000000000000000000000000000000000000000000000008c
:2002720000000000000000000000000000000000000000000000000000000000000000006c
:20029200000000000000000000000d0000000000000000000000000000000000000004003b
:1602b2000000000000000000000000000000000000000000000036
:2002c800000000000000000000000000000000000000000000000000000000000000000016
:2002e8000000000000000000000000000000000000000000000000000000000020000000d6
:170308000000000000000000000000000000000000000000000000de
:20031f000000000000000000000000000000000000000000000000000000000000000000be
:20033f000000000000401000000000000000000000401000000000010040000000000800b5
:16035f000000000000000000000000000000000000000000000088
:20037500000000000000000000000000000000000000000000000000000000000000000068
:20039500000000000000000000000000000000000000000000000000000000000000000048
:1703b500000000000000000000000000000000000000000000000031
:2003cc00000000000000000000000000000000000000000000000000000000000000000011
:2003ec00000000000000000000000000008000000000000000400000000000000000000031
:16040c000000000000000000000000000000000000000000c0001a
:200422000000000000000000000000000000000000000000000000000000000000000000ba
:20044200000000000000000000000000000400000000000000000000000000000000000096
:1704620000000000000000000000000000000000000000000400007f
:20047900000000000000000000000000000000000000000000000000000000000000000063
:20049900000000000000000000000000000000000000000000000000000000000000000043
:1604b900000000000000000000000000000000000000000000002d
:2004cf0000000000000000000000000000000000000000000000000000000000000000000d
:2004ef000000010000100000000000000000010000000000000400000000000000000000d7
:17050f000000000000000000000000000000000000000000000000d5
:200526000000000000000000000000000000000000000000000000000000000000000000b5
:200546000000000000400000000000000000000000c0000000000001000000000000001084
:16056600000000000000000000000000000000000000000000007f
:20057c0000000000000000000000000000000000000000000000000000000000000000005f
:20059c0000000000000000000000000000000000000000000000000000000000000000003f
:1705bc00000000000000040000000000000000000000000000000024
:2005d300000000000c302000000000000000000000000000000000000000000000000000ac
:2005f3000000000000000000000000000000000000000000000000000000000000000000e8
:1606130000000000000000000000000000000000000000000000d1
:200629000000000000c30000000000000000000000000000000000000000000000000000ee
:20064900000000000000000000000000000000000000000000000000000000000000000091
:1706690000000000000000000000000000000000000000000000007a
:20068000000000000c302000000000000000000000000000000000000000000000000000fe
:2006a00000000000000000000000000000000000000000000000000000000000000000003a
:1606c0000000000000000000000000000000000000000000000024
:2006d6000000000000c3000000000000000000000000000000000000000000000000000041
:2006f6000000000000000000000000000000000000000000000000000000000000000000e4
:170716000000000000000000000000000000000000000000000000cc
:20072d00000000000c30200000000000000000000000000000000000000000000000000050
:20074d0000000000000000000000000000000000000000000000000000000000000000008c
:16076d000000000000000000000000000000000000000000000076
:200783000000000000c3000000000000000000000000000000000000000000000000000093
:2007a300000000000000000000000000000000000000000000000000000000000000000036
:1707c30000000000000000000000000000000000000000000000001f
:2007da00000000000c302000000000000000000000000000000000000000000000000000a3
:2007fa000000000000000000000000000000000000000000000000000000000000000000df
:16081a0000000000000000000000000000000000000000000000c8
:200830000000000000c30000000000000000000000000000000000000000000000000000e5
:20085000000000000000000000000000000000000000000000000000000000000000000088
:17087000000000000000000000000000000000000000000000000071
:20088700000000000c302000000000000000000000000000000000000000000000000000f5
:2008a700000000000000000000000000000000000000000000000000000000000000000031
:1608c700000000000000000000000000000000000000000000001b
:2008dd000000000000c3000000000000000000000000000000000000000000000000000038
:2008fd000000000000000000000000000000000000000000000000000000000000000000db
:17091d000000000000000000000000000000000000000000000000c3
:20093400000000000c30200000000000000000000000000000000000000000000000000047
:20095400000000000000000000000000000000000000000000000000000000000000000083
:16097400000000000000000000000000000000000000000000006d
:20098a000000000000c300000000000000000000000000000000000000000000000000008a
:2009aa0000000000000000000000000000000000000000000000000000000000000000002d
:1709ca00000000000000000000000000000000000000000000000016
:2009e100000000000c3020000000000000000000000000000000000000000000000000009a
:200a01000000000000000000000000000000000000000000000000000000000000000000d5
:160a210000000000000000000000000000000000000000000000bf
:200a37000000000000c30000000000000000000000000000000000000000000000000000dc
:200a570000000000000000000000000000000000000000000000000000000000000000007f
:170a7700000000000000000000000000000000000000000000000068
:200a8e00000000000c302000000000000000000000000000000000000000000000000000ec
:200aae00000000000000000000000000000000000000000000000000000000000000000028
:160ace000000000000000000000000000000000000000000000012
:200ae4000000000000c300000000000000000000000000000000000000000000000000002f
:200b04000000000000000000000000000000000000000000000000000000000000000000d1
:170b24000000000000000000000000000000000000000000000000ba
:200b3b00000000000c3020000000000000000000000000000000000000000000000000003e
:200b5b0000000000000000000000000000000000000000000000000000000000000000007a
:160b7b000000000000000000000000000000000000000000000064
:200b91000000000000c3000000000000000000000000000000000000000000000000000081
:200bb100000000000000000000000000000000000000000000000000000000000000000024
:170bd10000000000000000000000000000000000000000000000000d
:200be800000000000c30200000000000000000000000000000000000000000000000000091
:200c08000000000000000000000000000000000000000000000000000000000000000000cc
:160c280000000000000000000000000000000000000000000000b6
:200c3e000000000000c30000000000000000000000000000000000000000000000000000d3
:200c5e00000000000000000000000000000000000000000000000000000000000000000076
:170c7e0000000000000000000000000000000000000000000000005f
:200c9500000000000c302000000000000000000000000000000000000000000000000000e3
:200cb50000000000000000000000000000000000000000000000000000000000000000001f
:160cd5000000000000000000000000000000000000000000000009
:200ceb000000000000c3000000000000000000000000000000000000000000000000000026
:200d0b000000000000000000000000000000000000000000000000000000000000000000c8
:170d2b000000000000000000000000000000000000000000000000b1
:200d4200000000000c30200000000000000000000000000000000000000000000000000035
:200d6200000000000000000000000000000000000000000000000000000000000000000071
:160d8200000000000000000000000000000000000000000000005b
:200d98000000000000c3000000000000000000000000000000000000000000000000000078
:200db80000000000000000000000000000000000000000000000000000000000000000001b
:170dd800000000000000000000000000000000000000000000000004
:200def00000000000c30200000000000000000000000000000000000000000000000000088
:200e0f000000000000000000000000000000000000000000000000000000000000000000c3
:160e2f0000000000000000000000000000000000000000000000ad
:200e45000000000000c30000000000000000000000000000000000000000000000000000ca
:200e650000000000000000000000000000000000000000000000000000000000000000006d
:170e8500000000000000000000000000000000000000000000000056
:200e9c00000000000c302000000000000000000000000000000000000000000000000000da
:200ebc00000000000000000000000000000000000000000000000000000000000000000016
:160edc000000000000000000000000000000000000000000000000
:200ef2000000000000c300000000000000000000000000000000000000000000000000001d
:200f12000000000000000000000000000000000000000000000000000000000000000000bf
:170f32000000000000000000000000000000000000000000000000a8
:200f4900000000000c3020000000000000000000000000000000000000000000000000002c
:200f6900000000000000000000000000000000000000000000000000000000000000000068
:160f89000000000000000000000000000000000000000000000052
:200f9f000000000000c300000000000000000000000000000000000000000000000000006f
:200fbf00000000000000000000000000000000000000000000000000000000000000000012
:170fdf000000000000000000000000000000000000000000000000fb
:200ff600000000000c3020000000000000000000000000000000000000000000000000007f
:201016000000000000000000000000000000000000000000000000000000000000000000ba
:1610360000000000000000000000000000000000000000000000a4
:20104c000000000000c30000000000000000000000000000000000000000000000000000c1
:20106c00000000000000000000000000000000000000000000000000000000000000000064
:17108c0000000000000000000000000000000000000000000000004d
:2010a300000000000c302000000000000000000000000000000000000000000000000000d1
:2010c30000000000000000000000000000000000000000000000000000000000000000000d
:1610e30000000000000000000000000000000000000000000000f7
:2010f9000000000000c3000000000000000000000000000000000000000000000000000014
:201119000000000000000000000000000000000000000000000000000000000000000000b6
:1711390000000000000000000000000000000000000000000000009f
:20115000000000000c30200000000000000000000000000000000000000000000000000023
:2011700000000000000000000000000000000000000000000000000000000000000000005f
:161190000000000000000000000000000000000000000000000049
:2011a6000000000000c3000000000000000000000000000000000000000000000000000066
:2011c600000000000000000000000000000000000000000000000000000000000000000009
:1711e6000000000000000000000000000000000000000000000000f2
:2011fd00000000000c30200000000000000000000000000000000000000000000000000076
:20121d000000000000000000000000000000000000000000000000000000000000000000b1
:16123d00000000000000000000000000000000000000000000009b
:201253000000000000c30000000000000000000000000000000000000000000000000000b8
:2012730000000000000000000000000000000000000000000000000000000000000000005b
:17129300000000000000000000000000000000000000000000000044
:2012aa00000000000c302000000000000000000000000000000000000000000000000000c8
:2012ca00000000000000000000000000000000000000000000000000000000000000000004
:1612ea0000000000000000000000000000000000000000000000ee
:201300000000000000c300000000000000000000000000000000000000000000000000000a
:20132000000000000000000000000000000000180000000000000000000000000280000013
:17134000000000000000000000000000000000000000000000000096
:20135700000000000c3020000000000000000000000000000000000000000000000000001a
:20137700000000000000000000000000000000000000000000000000000000000000000056
:161397000000000000000000000000000000000000000000000040
:2013ad000000000000c300000000000000000000000000000000000000000000000000005d
:2013cd00000000000000000000000000000000000000000000000000000000000000000000
:1713ed000000000000000000000000000000000000000000000000e9
:20140400000000000c3020000000000000000000000000000000000000000000000000006c
:201424000000000000000000000000000000000000000000000000000000000000000000a8
:161444000000000000000000000000000000000000000000000092
:20145a000000000000c30000000000000000000000000000000000000000000000000000af
:20147a00000000000000000000000000000000000000000000000000000000000000000052
:17149a0000000000000000000000000000000000000000000000003b
:2014b100000000000c302000000000000000000000000000000000000000000000000000bf
:2014d1000000000000000000000000000000000000000000000000000000000000000000fb
:1614f10000000000000000000000000000000000000000000000e5
:201507000000000000c3000000000000000000000000000000000000000000000000000001
:201527000000000000000000000000000000000000000000000000000000000000000000a4
:1715470000000000000000000000000000000000000000000000008d
:20155e00000000000c30200000000000000000000000000000000000000000100000000001
:20157e0000000000000000000000000000000000000000000000000000000000000000004d
:16159e000000000000000000000000000000000000000000000037
:2015b4000000000000c3000000000000000000000000000000000000000000010000000053
:2015d4000000000000000000000000000000000000000000000000000000000000000000f7
:1715f4000000000000000000000000000000000000000000000000e0
:20160b00000000000c30200000000000000000000000000000000000000000000000000063
:20162b0000000000000000000000000000000000000000000000000000000000000000009f
:16164b000000000000000000000000000000000000000000000089
:201661000000000000c30000000000000000000000000000000000000000000000000000a6
:20168100000000000000000000000000000000000000000000000000000000000000000049
:1716a100000000000000000000000000000000000000000000000032
:2016b800000000000c302000000000000000000000000000000000000000000000000000b6
:2016d8000000000000000000000000000000000000000000000000000000000000000000f2
:1616f80000000000000000000000000000000000000000000000dc
:20170e000000000000c30000000000000000000000000000000000000000000000000000f8
:20172e0000000000000000000000000000000000000000000000000000000000000000009b
:17174e00000000000000000000000000000000000000000000000084
:20176500000000000c30200000000000000000000000000004000000000000000000000004
:20178500000000000000000000000000000000000000000000000000000000000000000044
:1617a500000000000000000000000000000000000000000000002e
:2017bb000000000000c300000000000000000000000000000000000000000000000000004b
:2017db000000000000000000000000000000000000000000000000000000000000000000ee
:1717fb000000000000000000000000000000000000000000000000d7
:20181200000000000c3020000000000000000000000000000000000000000000000000005a
:20183200000000000000000000000000000000000000000000000000000000000000000096
:161852000000000000000000000000000000000000000000000080
:201868000000000000c300000000000000000000000000000000000000000000000000009d
:20188800000000000000000000000000000000000000000000000000000000000000000040
:1718a800000000000000000000000000000000000000000000000029
:2018bf00000000000c302000000000000000000000000000000000000000000000000000ad
:2018df000000000000000000000000000000000000000000000000000000000000000000e9
:1618ff0000000000000000000000000000000000000000000000d3
:201915000000000000c30000000000000000000000000000000000000000000000000000ef
:20193500000000000000000000000000000000000000000000000000000000000000000092
:1719550000000000000000000000000000000000000000000000007b
:20196c00000000000c302000000000000000000000000000000000000000000000000000ff
:20198c0000000000000000000000000000000000000000000000000000000000000000003b
:1619ac000000000000000000000000000000000000000000000025
:2019c2000000000000c3000000000000000000000000000000000000000000000000000042
:2019e2000000000000000000000000000000000000000000000000000000000000000000e5
:171a02000000000000000000000000000000000000000000000000cd
:201a1900000000000c30200000000000000000000000000000000000000000000000000051
:201a390000000000000000000000000000000000000000000000000000000000000000008d
:161a59000000000000000000000000000000000000000000000077
:201a6f000000000000c3000000000000000000000000000000000000000000000000000094
:201a8f00000000000000000000000000000000000000000000000000000000000000000037
:171aaf00000000000000000000000000000000000000000000000020
:201ac600000000000c302000000000000000000000000000000000000000000000000000a4
:201ae6000000000000000000000000000000000000000000000000000000000000000000e0
:161b060000000000000000000000000000000000000000000000c9
:201b1c000000000000c30000000000000000000000000000000000000000000000000000e6
:201b3c00000000000000000000000000000000000000000000000000000000000000000089
:171b5c00000000000000000000000000000000000000000000000072
:201b7300000000000c312000000000000000000000000000000000000000000000000000f5
:201b9300000000000000000000000000000000000000000000000000000000000000000032
:161bb3000000000800000000000009983816a0000000000af0404b
:201bc9000000000000c3000000000000000000000000000000000000000000000000000039
:201be9000000000000000000000000000000000000000000000000000000000000000000dc
:171c0900000000004000000000000010e3229400000000010f0000cb
:201c2000000000000c30280000000000000000000000000000000000000000000000000040
:201c4000000000000000000000000000000000000000000000000000000000000000800004
:161c60000000000000000000000009993a03e00f0000780ef040ea
:201c76000000000000c300000000000000000000000000000000000000000000000000008b
:201c960000000000000000000000000000000000000000000000000000000000000000002e
:171cb6000000000000000000000000f080e03c00900004000f0000e8
:201ccd00000000000c30280000000000000000000000000000000000000000000000000093
:201ced000000000000000000000000000000000000000000000000000000000000000000d7
:161d0d0000000000000000000000001e37c3e80c00007c0cf040fc
:201d23000000000000c30000000000000000000000000000000000000000000000000000dd
:201d4300000000000000000000000000000000000000000000000000000000000000000080
:171d630000000000000000000000000000203c00400007c10f0000f6
:201d7a00100000000c302800000000000000000000000000000000000000000000000000d5
:201d9a00000000000000000000000000000000000000000000000000000000000000000029
:161dba000000000000000000000000003283e000001e781af0409e
:201dd0000100000000c300000000000000000000000000000000000000000001000000002e
:201df0000000000000000000000000000000000000000000001000000000000000000000c3
:171e100000000100000000000000000000e43c000003c0010f0000c7
:201e2700000000000c30a000000000000000000000000000000000000000000000000000bf
:201e470000000000000000000000000000000000000000000000000000000000000000007b
:161e67000000000000000000000005813b83e0000000701af04087
:201e7d000000000000c3000000000000000000000000000000000000000000000000000082
:201e9d000000000000000000000000000000004000000000000100000000000004000000e0
:171ebd00000000100000000000004030a0b83c01000003c00f000027
:201ed400001400000c3120000000000000000000000000000000000000000000000000007d
:201ef40000000000000000000000000000000000000000000000000000000000008000004e
:161f140000001000000000000000059a7056a0000000000af04068
:201f2a000000800000c3000000000000000000000000000000000000000000000000000054
:201f4a0000000000000000000000000000000000000000000000000000000000000b0d005f
:171f6a000000000000000000000000b8afa29400000000010f0000b3
:201f8100000000000c312000000000000000000000000000000000000000000000000000e3
:201fa100000000000000000000000000000000000000000000000000000000100000000010
:161fc10000000000000000000000011af856a000000e0018f040ab
:201fd7000000000000c3000000000000000000000000000000000000000000000000000027
:201ff7000000000000000000000000000000000000000000000000000000000000000000ca
:172017000000000000000000000001b8d3a69400000000010f0000dc
:20202e00000000000c312000004000000000000000000000000000000000000000000000f5
:20204e000000000000000000000000000000040000000000001000000000000040000bf023
:16206e0000000100000000000004059d7fc3e0001000001af04039
:202084000000000000c3000000000000000000000000000000000000000000000000000079
:2020a400000000000000000000000000000000000000000000000000000000004000009448
:1720c400014470000000000000040031a0643c00000000000f0000cc
:2020db0001000021ec30300000000000000000000000000000000000000000000000000077
:2020fb000000000000000000000000000000000000000000000000000000000000000000c5
:16211b000000000802b4c854000009815343e00000000018f0408c
:2021310000100002d0c30000000000000000000000000000000000000000000000000000e9
:2021510000000000000000000000000000000000000000000000000000000000000000006e
:17217100000000010442c8af4100009080603c10000000000f00008d
:20218800080000000c303000000000000000000000000000000000000000000000000000c3
:2021a800000000000000000000000000000000000000000000000000000000000000000017
:1621c8000000e00000000000004009991303e00e001e780ef04067
:2021de000040000000c30000000000000000000000000000000000000000000000000000de
:2021fe000000000000000000000000000000000000000000000000000000000000000000c1
:17221e00000008000000000000000090c0603c00800024010f000001
:2022350000000001ec30280000000000000000000000000000000000000000000000000044
:20225500000000000000000000000000000000000000000000000000000000000000000069
:162275000000000200000000000008183f83e00c00007818f040c3
:20228b000000000010c3000000000000000000000000000000000000000000000000000060
:2022ab00000000000000000000000000000000000000000000000000000000000000000013
:1722cb0000000000040000000000001000a43c00400004010f0000b4
:2022e200110000000c3120000000000000000000000000000000000000000000000000006e
:202302000000000000000000000000000000000000000000000000000000000000000000bb
:1623220000000000001dee24000001005703e000003e000af040c3
:202338000000000000c30000000000000000000000000000000000000000000000000000c2
:20235800000000000000000000000000000000000000000000000000000000000000000065
:172378000000010000024da14000000800f03c000003c0010f000016
:20238f00000000000c302800000000000000000000000000000000000000000000000000ca
:2023af0000000000000000000000000000000000000000000000000000000000000000000e
:1623cf00000000014600000000280d9c3b83e0000000001af041f7
:2023e5000000000000c3000000000000000000000000000000000000000000000000000015
:202405000000000000000000000000000000000000000000000000000000000000000000b7
:17242500000000000200000000001051c0383c01000003c00f000036
:20243c00000000400c30a0280000000000000000000000000000000000000000000000003c
:20245c00000000000000000000000000000000000000000000000000000000000000000060
:16247c0000000000000000000000059a3643e0010000041af04003
:20249200000e003c00c300010000000000000000000000000000000000000000000000001c
:2024b20000000000000000000000000000000000000000000000000000000000000000000a
:1724d20000000000002c0000000000b0c0603c00000003000f0000a9
:2024e900000000000c31200000400000000000010000000000000000000000000000000035
:202509000000000000000000000000000000000000000000000000000000000000000000b2
:1625290000000000400000000000011bf056a01000007200a540f3
:20253f000000000000c30000000400000000000000000000000000000000000000000000b5
:20255f0000000000000000000000000000000000000000000000000000000000000000005c
:17257f000000000000000000000000b8a3aa94000000003c05a000cb
:202596000a0000400c3120002000000000000000000000000000000000000000000000005e
:2025b600000000000000000000000000000000000000000000000000000000000000000005
:1625d60000004001400000000000001c77c3e0000000201cf040cc
:2025ec000040003c00c3000004040000000000000000000000400000000000000000000048
:20260c0000000400000000000000000000000000000000000000000000000000400000006a
:17262c0000000000020000000000003100e43c00000000010f000034
:202643000000021dac3120000040000000000000000000000000000000000000000000001b
:20266300000000000000000000000000000000001ef214380000000000000000005180002a
:1626830000000000628483f000000500700020000020054c700072
:2026990000100441e0c3000000000000000000000000000000000000000000000000000029
:2026b900000000000000000000000000000000000003001508000000000000000000800061
:1726d9000000000024015b1a00000008b03400101083c39f8580005a
:2026f00000000306ec30204000000000000000000000000000000000000000000000000045
:2027100000000000000000000000000000038000007214380e0000001cf060b800800802ac
:162730009503f2000005c3d4280000001040200e0000001af0407d
:202746000000007430c3010400000000000000000000000000000000000000000000000007
:20276600000000000000000000000000000020000009001500800000000f0402000300f08d
:17278600169008000001403c4000000000bc0000800140000f000045
:20279d000000420f8c303000000000000000000000000000000000000000000000000000df
:2027bd000000000000000000000000000001030009d21430000000000000000030000000a9
:1627dd0000000001e616ea00000000001040200d001e054cf8001b
:2027f3000000026410c300000000000000000000000000000000000000000000000000008d
:2028130000000000000000000000000000003000018380150000000000000000000000005c
:17283300000000000e0010a000003100002c0000c40023df87a00086
:20284a0001020004ac30280000000000000000000000000000000000000000000000000063
:20286a00000000000000000000000000000000018172143000000000000000000098077afd
:16288a00950000020634e8142000050a58402000001e040af04028
:2028a0000000340000c3000000000000000000000000000000000000000000000000000021
:2028c000000000000000000000000000000000000089801500100000000000000001009b2e
:1728e000881000009402f083400000d900280000000023c00f00000d
:2028f7000002038c8c30200000000000000000000000000000000000000000000000000054
:202917000000000000000000000000000000000000fa143000000000000000010000096fe9
:16293700d5000000000000000040879f3800200000a060000000f7
:20294d0000002c0030c300000000000000000000000000000000000000000000000000004b
:20296d000000000000000000000000000000000000030015000000000000000008000032f8
:17298d00ad5000000000000000040001a03800000002c00000000097
:2029a4000000401eac30204000000000000000000000000000000000000000000000000079
:2029c40000000000000000000000000000000000005a1430000020000000000000018bebbe
:1629e400450400000600000000000100780020004e006000000047
:2029fa000000000010c30004000000000000000000000000000000000000000000000000e6
:202a1a0000000000000000000000000000000000300900150000014000000000000f00b24c
:172a3a00549000000c00000000000098003c00000a000000000000b7
:202a51000000421eac30200000000000000000000000000000000000000000000000000009
:202a71000000000000000000000000000000002998da1430000000000000000000588bfb88
:162a9100450400000276ea50800009013040200002067b7cf80023
:202aa7000000027810c30000000000000000000000000000000000000000000000000000c2
:202ac700000000000000000000000000000000001003801500000000000000000001101f17
:172ae700b4d20000007f500500000158f0b000000000040797a00043
:202afe001000e000cc302000000000000000000000000000000000000000000000000000ac
:202b1e0000000000000000000000000000010008187a14300400000000000010001019bac1
:162b3e00910040000036ea440000010f780020000000000cf04068
:202b540000001e0000c3000000000000000000000000000000000000000000000000000080
:202b740000000000000000000000000000000000100980150000000000000000000008b2d9
:172b94006e10000000017fbd40000009a0b00000000000000f0000c7
:202bab00000000000c3020400000000000000000000000000000000000000000000000006e
:202bcb000000000000000000000000000000000000f2143000000001c066c00000d9adb097
:162beb00000004000040000000004000023c0a0000000400000004
:202c01000010000000c30004000400000000000000000000000000000000000000000000d8
:202c210000000000000000000000000000000000000b00151000000002c66480000508901a
:172c4100014440a00034000000008300f003c010000003c00000001a
:202c5800000000000c302000004000000000000000000000000000000000000000000000c0
:202c78000000000000000000000000000003805000f214300e000001c896c000000005aa57
:162c98008000e00000000000000050187bcd000e0020041af0409a
:202cae000000000000c300000004000000000000000000000000000000000000000000003f
:202cce0000000000000000000000000000002002000f00150080000002c96410000d080cc0
:172cee002800084080000000000002010b3560008003c3c10f000026
:202d0500000000000c30200000000000000000000000000000000000000000000000000052
:202d25000000000000000000000000000003000019d214300c003601c996c0000050b128d1
:162d450028004000000000000010000e761c000c00000000000054
:202d5b000000000000c3000000000000000000000000000000000000000000000000000095
:202d7b0000000000000000000000000000003000008b80150040014002c9640400000a0c1e
:172d9b000280040080000000000000010f669000c400000000000051
:202db200000000000c302000000000000000000000000000000000000000000000000000a5
:202dd2000000000000000000000000000000000181d2143000000001e896c0000000a0600a
:162df2003c02000000000000000007805b3e800000003808f0407d
:202e08000000000000c30000000000000000000000000000000000000000000000000000e7
:202e280000000000000000000000000000000000008f80150000000000d9641000050a000a
:172e480003c000000000000000000000f003e800000000010f0000c5
:202e5f00000000000c30204000400000000000000000000000000000000000000000000077
:202e7f000000000000000000000000000000000000fa143000002661e996e1000018006a8c
:162e9f00c08100000001cf040000081abe8940002000000000003f
:202eb5000000000000c3000400000000000000000000000000000000000000000000000036
:202ed50000000000000000000000000000000000000b00150000026642c96400000180362f
:172ef5009c000000000000f0010205100f6c70000000000000000037
:202f0c00000000000c30200000000000000000000000000000000000000000000000000049
:202f2c000000000000000000000000000000000000da143000002665e996e010000000006d
:162f4c0000000001600000000028058efaeb400000000018f040e6
:202f62000000000000c300000000000000000000000000000000000000000000000000008c
:202f82000000000000000000000000000000000000ef00150000026642c964000000000054
:172fa20000000000020000000001000003ecbc00000000000f00005b
:202fb900000000000c3020000000000000000000000000000000000000000000000000009c
:202fd9000000000000000000000000000000000988da1430000000654996c080000001782c
:162ff90020000000000000000000458e8016804000002000000059
:20300f000000000000c30000000000000000000000000000000000000000000000000000de
:20302f0000000000000000000000000000000000100b80150000000640d964000000001638
:17304f00400000000000000000000210050294000000040000000079
:20306600000000000c302000000000000000000000000000000000000000000000000000ee
:203086000000000000000000000000000001000818fa1430040006654996c10000000000bc
:1630a60000000000000000000000071a7bef000000000018f04041
:2030bc000000000000c3000000000000000000000000000000000000000000000000000031
:2030dc000000000000000000000000000000000010ef80150000002640d964000000090094
:1730fc000000000000000000000000000b35e800000000010f000085
:20311300000000000c30200000000000000000000000000000000000000000000000000040
:20313300000000000000000000000000000000000072143000400001c896e0000001a7326d
:1631530080020001403ef0000000400af2143040000000fe0500b2
:203169000000000000c3000100000000000000000000000000000000000000000000000082
:2031890000000000000000000000000000000000000300151000000002c9644000000bb4d0
:1731a9003d4000000203fe2000000200096c15000000001c05a01012
:2031c000000000000c30200000000000000000000000000000000000000000000000000093
:2031e00000000000000000000000000000038010007214300e000001c896c00000d8a72ab0
:16320000800000020046a5a32b8000007214300e00000018f040f1
:203216000000000000c30000000000000000000000000000000000000000000000000000d5
:2032360000000000000000000000000000002002000b00150080000000d9640000051b3029
:173256003d4000000429f02501200000a30015208003c0000f000057
:20326d00000000000c302000000000000000000000000000000000000000000000000000e5
:20328d0000000000000000000000000000030000195214300d203601e896c00000d819ecf0
:1632ad002000000006c4ab102300000bd214304c000000feaf0029
:2032c3008000000000c30000000000000000000000000000000000000000000000000000a8
:2032e300000000000000000000000000000030000083801500d0014000d9640400050ad64c
:1733030000000000002010b101300000898015004000001c05a00082
:20331a00100000000c30200000000000000000000000000000000000000000000000000027
:20333a00000000000000000000000000000000018152143000000001e896c0010401b9a2bb
:16335a0000080000100180f2000001810204b200000002eefa208e
:203370000000000000c300000000000000000000000000000000000000000000000000007a
:2033900000000000000000000000000000000000008b80150000000000d9641020000a9cea
:1733b000000000000000000f00000000833485000000002e0f00007e
:2033c700000000000c3020000000000000000000000000000000000000000000000000008a
:2033e700000000000000000000000000000000081c7a143000802065e996c1000058eb7be1
:16340700d40000020021ee4000000398fa143020010000fe05008d
:20341d004000000000c300000000000000000000000000000000000000000000000000008c
:20343d0000000000000000000000000000000000b10300150000024642c9640000000fd010
:17345d00140000003c004ed80000000809001500000003df05a00035
:20347400000000000c302000000000000000000000000000000000000000000000000000dc
:2034940000000000000000000000000000000000005a143000002665e996c000000007acfd
:1634b40020000000662cea50000000005a1430200014280000001c
:2034ca00000e000000c3000000000000000000000000000000000000000000000000000011
:2034ea0000000000000000000000000000000000000b00150000026642c964000800005b68
:17350a00c00000000000c0aa000000000300150000000280000000e6
:20352100000000000c3020000000000000000001000000000000000000000000000000002d
:20354100000000000000000000000100000000098e5a14300000867d4996c00000980128d1
:163561000808000067c003c03000598eda143020000600000000ff
:203577000000000000c300000004000000000000000000000000000000000000000000006d
:2035970000000000000000000000000000000000110380150000142640d966000001000ca5
:1735b700008000003c24003c00000010098015000020000000000013
:2035ce00000000000c30200000000000000000000000000000000000000000000000000081
:2035ee0000000000000000000000000000010008187a1430040027654996c0000181903865
:16360e003c040002e77cea50010008187a1430400c00000000009c
:203624000004000000c30000000000000000000000000000000000000000000000000000bf
:2036440000000000000000000000000000000000100b80150000026640d964000021190097
:1736640003c000001f66e0aa00000010038015000001428000000012
:20367b00000000000c302000000000000000000000000000000000000000000000000000d3
:20369b000000000000000000000000000000000000f2143000000001c896e00000d9b5729a
:1636bb00800000014640000000000001f2143000000068cd43083b
:2036d1000000000000c3100000000000000000000000000000000000000000000000000006
:2036f10000000000000000000000000000000000000900151000000002c9644000050a50bd
:173711003d4000001c38000000000000f10015140040041ed4a000e0
:20372800000000000c302000400000000000000000000000000000000000000000000000e5
:203748000000000000000000000000000003800700f214300e000001c896c00002d9b000e9
:16376800f008e00202840a5483800000f214304e00006400a540bd
:20377e000000000000c3100000000000000000200000000000000000000000000000000038
:20379e000000000000000000000000000000200000e100150080000000d9641000150a0009
:1737be000f004800840000a540200070050015008000036405a000fe
:2037d500000000000c30200000000000000000000000000000000000000000000000000078
:2037f5000000400000000000000000000003000019d214300c0e3601e896c000009801b466
:16381500200040000000000001000019d214304c001c38cdcb08cd
:20382b000000000000c3100018000000000000000000000000000000000000000000000092
:20384b00000000000000000000000000000010000089801500c0014000d964040001803a32
:17386b0040000400000000000010000081801500c000241ed5b00055
:20388200100000000c302000000000000000000000000000000000000000000000000000ba
:2038a2000000000000000000000000000000001000d2143000000001e896c04000381d6aa2
:1638c20080800000e601af0400000181d21430400000000000007e
:2038d8000000000000c310010a0000000000000000000000000000000000000000000000f2
:2038f80000000000000000000000000000000002000180150000000000d9640000008fd07c
:173918003e800000020000f048000070858015000000000000000016
:20392f00020000000c302040000000000000000000000000000000000000000000000000da
:20394f000000000000000000000000000000000000fa143000002065e996c0000050a00066
:16396f00f00814e000248a0000280000fa143020001c3af9700063
:203985000000000000c310040000000000000000000000000000000000000000000000004b
:2039a5000000000000000000000000000000000000f900150000024642c96400000d9b0095
:1739c5000f0001a0000050fa00000000010015000000001f95808027
:2039dc00000000000c30200800000000000000000000000000000000000000000000000067
:2039fc0000000000000000000000000000000001809a141000002665e996e00001180faab0
:163a1c00940600000000000000000000da1430000000700af04032
:203a32000000000000c3100020000000000000000000000000000000000000000000000081
:203a520000000000000000000000000000000000000380290000026642c9640000008070e1
:173a7200154040003c0000000000000005001520000003c00f000060
:203a8900000000000c30200040000000000000000000000000000000000000000000000081
:203aa9000000000000000000000000000000000980000000000006254996c001000001b4f4
:163ac90020000000000180f000000980da143020000622f9f80076
:203adf000000000000c31000020400000000000000000000000000000000000000000000ee
:203aff0000000000000000000000000000000000100000000000002640d96480088000b636
:173b1f00000000000000100f00000010018015000000001f97a080f4
:203b3600000000000c30200000000000000000000000000000000000000000000000000013
:203b56000000000000000000000000000001000800000000040026654996c10000180120de
:163b7600200040000017ca0001000818fa1430400006000af04019
:203b8c000000000000c31000000000000000008000000000000000000000000000000000c6
:203bac0000000000000000000000000000000000100000000000026640d96400028d0096df
:173bcc0000000000000060f50000001005801500000000010f0000d3
:203be3000100003fec30204000000000000000000000000000000000000000000000000006
:203c03000000000000000000000000000000000000d3a80000000001c896c00000800981fd
:163c23006a0000000014aa500000038072143200000000fe0508cd
:203c390000100001f0c3004400000000000000000000000000000000000000000000000063
:203c590000000000000000000000000000000000000903d40000000202c9644000010032c7
:173c7900294000000001d05500000008050015100000001c05a000b2
:203c90000000001fec302000000000000000000000000000000000000000000000000000b9
:203cb0000000000000000000000000000000000801000f088e000001c896c04000d00560b2
:163cd0003e000002078003c0238800007214320e00000018f0409b
:203ce6000000000000c31000000000000000040000000000000000000000000000000000e7
:203d06000000000000000000000000000000000090e000f00080000002c964000009000085
:173d260003c000000440003c00210000010015008000c0000f0000bd
:203d3d0000000001ec30200000000000000000000000000000000000000000000000000029
:203d5d000000000000000000000000000000000801d3a80004000001e896c004001805a3bb
:163d7d00c24000020646aa500100038f5214300c200000feaf00e4
:203d93000000000010c30040000000000000000000000000000000000000000000000000fd
:203db300000000000000000000000000000000001089c3d40040000000d9640040000008fb
:173dd30003c010000436f0aa0030000885801522c400001c05a01029
:203dea00010000000c3020000000000000000000000000000000000000000000000000005c
:203e0a000000000000000000000000000000000901000f0080014001e896c000000017a3c5
:163e2a00c28000000295ea000000518172143200004002eefa000b
:203e40000000000000c310010000000000000000000000000000000000000000000000008e
:203e60000000000000000000000000000000000010e000f00404080000d966000005090005
:173e800003c04080000370f500000000818015000008002e0f0008dd
:203e9700000000000c322000000000000000000000000000000000000000000000000000ad
:203eb7000000000000000000000000000000001008db2800000e266408f04000000005a358
:163ed700c20400000075ca00000000007a143000000000fe05000f
:203eed000000000000c30000000000000000000000000000000000000000000000000000f2
:203f0d0000000000000000000000000000000000000943d400000266400f041000000a009f
:173f2d0003c00000002070fa00000000050015200800001f05a00822
:203f440000000001ec30200000000000000000000000000000000000000000000000000020
:203f64000000000000000000000000000000000018fea80000000000000000000000072355
:163f8400c20500000381a0f0000000005a14300000142800000072
:203f9a000000000000c3100020000000000000000000000000000000000000000000000014
:203fba0000000000000000000000000000000000000d03d400000000000000000001000002
:173fda0003c000080040100f0000000001001520040026c000000086
:203ff10000000001ec32200000000000000000000000000000000000000000000000000071
:204011000000000000000000000000000000004801000f008040006400000000305807a3e1
:16403100c2040001e0000000000009985a14300000067800000015
:204047000000000010c3000000000000000000000000000000000000000000000000000086
:204067000000000000000000000000000000000250a000f0800a0006400000000000000087
:1740870003c040000000000000000010058015200000040000000051
:20409e0000004001ec30a000000000000000200000000000000000000000000000000000e5
:2040be0000000000000000000000000000000001809e2940040026000000000000d8032332
:1640de00c201000007000000010008187a14300000000000000023
:2040f4000000022400c300040000000000000080000000000000000000000000000000003f
:2041140000000000040000000000000000000000000b42a800000260000000000007000821
:1741340003c00000004000000000001401801520000342c0000000a2
:20414b000000000c0c302000000000000000000000000000000000000000000000000000ec
:20416b00000000000000000000000000000000000100000000000002005a000000f9b1a38a
:16418b00c2010000028080f0000000017214301000006000000042
:2041a10000100000c0c310000000000000000000000000000000000000000000000000005b
:2041c1000000000000000000000000000000000000c00000000000000c0a500000050d00a6
:1741e10003c100000028100f00000000c300151000000000000000d4
:2041f800000000140c3020000000000000000000000000000000000000000000c000000077
:20421800000000000000000000000000000380101c7f2a9020002001d8a000000058112359
:16423800c2000000001dea5003800000f214301e00000000000080
:20424e000000000000c310000000000000000020000000000000000000000000000000005d
:20426e00000000000000000000000000000020000100c2a8000000439d0f500000000a005c
:17428e0003c0000014034055002000000300150080000000000000f2
:2042a5000001c0140c302000000000000000000000000000000000000000000000000000c8
:2042c500000000000000000000000000000100000876294000000004003c02000001c323c8
:1642e500c2800000004003c021000019521430000000005aa000b4
:2042fb000000023820c3004000000000000000000000000000000000000000000000000046
:20431b0000000000000000000000000000001000000dc154000000028003c00400001000f7
:17433b0003c000000030003c0010000083801501000000030a039073
:204352000100000e0c302040000000000000000000000000000000000000000000000000a0
:20437200000000000000000000000000000000010b00000000014006005a00000000052356
:16439200c2800000000080f000000181d21430000006020c7260e5
:2043a8000000003420c3004408000000000000000000000000000000000000000000000092
:2043c800000000000000000000000000000000000080000000000802b40a50000000000835
:1743e80003c040000000100f0000000083801502000002349b14009d
:2043ff000001c017cc302000000000000000000000000000000000000000000000000000aa
:20441f00000000000000000000000000000000000000000000000003eea5000102100123b0
:16443f00c204000000400000000000007a1430000400000000009f
:204455000000240030c30040000000000000000000000000000000000000000000000000f0
:20447500000000000000000000000000000000000000000000000000040aa0002850000001
:1744950003c04000003800000000007003001500000040000000000d
:2044ac000000e3dfcc302040000000000000000000000000000000000000000000000000d2
:2044cc0000000000000000000000000000002800000683c800002000003c0200080001a34d
:1644ec00c2000000602dea5000000398da143000000001daf500a8
:2045020000001e2c20c300400000000000000000000000000000000000000000000000002c
:20452200000000000000000000000000000000000090403c000002400003c00000800008e0
:1745420003c040000000e0aa00000008030015000000003e0a00006d
:204559000000039dcc30200000000000000000000000000000000000000000000000000086
:204579000000000000000000000000000000000001de2940000c06680a0f00000000012323
:16459900c2040000600003c0200009805a143000000078003c0226
:2045af000000240000c30040000000000000000000000000000000000000000000000000c5
:2045cf00000000000000000000000000000000180085c154000000440100f00000000008dd
:1745ef0003c040000000003c00000010038015000000060003c10004
:2046060000000200ec30200000000000000000000000000000000000000000000000000056
:20462600000000000000000000000000000000000e000000008020000e0f00000000012385
:16464600c2000000c00180f011000800b214100400000000000078
:20465c000000004010c310000000000000000080000000000000000000000000000000009b
:20467c000000000000000000000000000000000001000000000403400100f00000000008dd
:17469c0003c040000000000f000000100b00290000000000000000b1
:2046b300000000000c3020000000000000000000000000000000000000000000000000008b
:2046d30000000000000000000000000000000000000283c041002603405a80010081c12398
:1646f300c200100000000a540000001ed7d430000000035ca01079
:204709000010000000c31000000000000000000000000000000000000000000000000000ad
:20472900000000000000000000000000000000000000403c0410026034fa50200829100897
:1747490003c101000002c05a0000000109741500000000340f500052
:20476000000000000c302000000000000000000000000000000000000000000000000000dd
:20478000000000000000000000000000000000000000000000000002e955a000050017a37a
:1647a000c200e0000001cf04038000017214300e0a260400000011
:2047b6000000000000c31000000000000000002000000000000000000000000000000000f0
:2047d6000000000000000000000000000000000000000000000000000efaa00000200900f2
:1747f60003c00800000000f000200000f90015008000438000000080
:20480d00000000000c3020000000000000000000000000000000000000000000000000002f
:20482d00000000000000000000000000000000000100000000022603c955a000000187a356
:16484d00c28040000300ef0401000819d2143000402023dea000a4
:204863000000000000c3004000000000000000000000000000000000000000000000000032
:204883000000000000000000000000000000000070e00000000000600ceaa00000001008b7
:1748a30003c00c00004010f000210010898015000a0044370f5000bc
:2048ba00000000000c30200050000000000020000000000000000000000000000000000012
:2048da00000000000000000000000000000000000000000000014020c955a000120001a3e9
:1648fa00c28000000001ef040800018152143000000024003c02f0
:204910000000000000c30000000000000000000000000000000000000000000000000000c4
:204930000000000000000000000000000000000000000000000008003cfaa0000000000881
:1749500003c04000000010f000000000898015000080020003c0806a
:20496700000000000c302000000000000000000000000000000000000000000000000000d4
:20498700000000200000000000000000000000000000000000243e01e9558000000003a329
:1649a700c20404020041ef0400000000fa14300000000061e74034
:2049bd000000000000c3000000000000000000000000000000000000000000000000000017
:2049dd000000000000000000000000000000000000000000000001c01ceaa2001000000839
:1749fd0003c800001c3c10f00000000009001500000000348c34006e
:204a1400000000000c30200000000000000000000000000000000000000000000000000026
:204a3400000000000000000000000000000000070100000000000e3be955800000018523aa
:164a5400c20000420040cf04000000005a143000001e026aa54028
:204a6a000000000000c3000000000000000000000000000000000000000000000000000069
:204a8a000000000000000000000000000000000008800000000000462efaa200000010085c
:174aaa0003c840005c3c00f000000000e90015040000000500ac00af
:204ac100000000000c30200000000000000000000000000000000000000000000000000079
:204ae1000000000000000000000000000000000000d7294000001e70c9558000000007231f
:164b0100c20000000041ef0400000180da1430000000041bf150a9
:204b17000000000000c30000000000000000000000000000000000000000000000000000bb
:204b370000000000000000000000000000000000000b02a80000006204eaa20000000e08a1
:174b570003c04000403800f00000000009801500002002359f240024
:204b6e00000000000c3020400000000000000000000000000000000000000000000000008b
:204b8e000000000000000000000000000000200000000f0080801e394955800000301123ff
:164bae00c200000203c1cf04010208187a1430040000066aa5405c
:204bc4000004000000c3000400000000000000000000000000000000000000000000000006
:204be40000000000000000000000000000000100000000f08004006604faa20003000e0025
:174c040003c040803c7810f000000010e980150400000337005e0038
:204c1b00000000000c302000001c7016a000000000000000000000000000000000000000db
:204c3b000000000000000000000000000000000018063c1020002600c9558000000007a361
:164c5b00c20000014606a0f800000780f21430000006025a3f003e
:204c71000000000000c30000000005029408000000000000000000000000000000000000bd
:204c910000000000000000000000000000000000010003c0000002601cfaa240018000085c
:174cb10003c1000014282c0f00000008090015100001c01cb1a0004d
:204cc800000000000c3020000b817303e0000000000000000000000000000000000000008e
:204ce800000000000000000000000000000380099902bc1020000002e9558001020005a32e
:164d0800c20000015784a0f8038000017214300e000003783d520d
:204d1e004000000000c300000030c0403c0000000000000000000000000000000000000006
:204d3e0000000000000000000000000000002000999003c0000000000edaa200005000006f
:174d5e0003c0000014280c0f00200000f10015008089403c03c400b2
:204d7500000000000c3020000101f016a0000000000000000000000000000000000000001a
:204d95000000000000000000000000000003100180023c1000002603c95580400078072373
:164db500c2800022665cb0f801000019d2143000000060eca000fe
:204dcb000000000000c300000000c982940000000000000000000000000000000000000026
:204deb0000000000040000000000000000001080080043c0040002621cfaa0000000800863
:174e0b0003c000002664390f0020000089801520000000010a000092
:204e2200000000000c302008019d7016a00000000000000000000000000000000000000048
:204e42000000000000000000000000000000800000063c1000014000c9558040013985a3fd
:164e6200c280000202d6a0f800000181521430000334034c814225
:204e78000000000000c30001000089829400000000000000000000000000000000000000b7
:204e980000000000000000000000000000000000000043c00400080236daa00000008008b1
:174eb80003c040002424390f00000000818015000000402f0834008f
:204ecf00000000000c30200010007e03e000000000000000000000000000000000000000f6
:204eef000000000000000000000000000000000001063c1040000e07e95580000038f323ef
:164f0f00c20404026007b0f800000000fa14300000006ddab54037
:204f25000000000000c30000000080003c00000000000000000000000000000000000000ed
:204f45000000000000000000000000000000000000c043c000010023ccfaa20000009b085a
:174f650003c040a004000c0f000040000900150001000386b30400d4
:204f7c00000000000c30200000405e83e000000000000000000000000000000000000000b8
:204f9c00000000000000000000000000000000000007bc1020002e7bc95581038800052307
:164fbc00c2000002626415a8000400005a1430000006605df24001
:204fd2000000000000c30000000000403c0000000000000000000000000000000000000080
:204ff20000000000000000000000000000000000000043c0000003c236daa0000000000027
:1750120003c040400422eca500000000010015000008403ccf3404ec
:20502900100000000c30200049995a83e0000000000000000000000000000000000000005c
:20504900000000000000000000000000000000000007bc1020000e79495580000400032088
:165069003c0000280245b0f800000980da14300000000400000033
:20507f000100000000c30000021080c03c00000000000000000000000000000000000000bf
:20509f0000000000000000000000000000000000000043c00000006404faa080002008b094
:1750bf003c08400000201d0f000018100980150000000280000000c2
:2050d600000000000c30200008187e03e000000000000000000000000000000000000000dd
:2050f600000000000000000000000000000004001b063c1040901e79495581000401a07886
:165116003c0001000006f0fa010408187a143004100463eca44127
:20512c000000000000c30000001000803c00000000000000000000000000000000000000d4
:20514c000000000000000000000000000000000000a003c00004004004daa00020201804c2
:17516c0003c00000003c1f0f00000010018015000000220fdbd40079
:20518300020000000c31208000007703e000000002cf0300400000000000000000000000bf
:2051a300000000081b531c00000000000000000819033c1000002600c95590000231a1053d
:1651c3009a000002061c05a800000000f21430000000000af040fb
:2051d9000000000000c30000000000003c100000001faf30000000000000000000010000a8
:2051f9000000000071b7e1602000140000000080919003c0040002621ceaa1400050190bd2
:1752190099804000243c4ea5040000000f001550000000010f010049
:20523000000000000c30202800007303e00000002000000000000000000000000000000064
:205250000003800000002950000000000003c00180023c1020000002e85590040070c7a6e0
:165270005a0200007644a0f803800000f214300e8200001ef040e3
:205286000000000000c31010000000403c000001c400000000000000000000004080000024
:2052a60000002000000901680000000000002400080043c0000000000efaa1004000900aa4
:1752c600258000003c382c0f002101000b0015408e0000000f01005d
:2052dd00100000000c312080501d5783e00000007a6e0301000000000000000000000000b1
:2052fd000003000f0f533e00020a0000000100018e063c1000002601c955800038100526b9
:16531d005a000002665dd0f801000019d214340c0000041ef060e1
:205333000102000000c30000001080c03c000000000fbf300000000000000000000000000a
:2053530000003000d9e7e1e82010000000003000080003c00410026224eaa1000000890a9c
:17537300e58010001e78380f002000008f801500400003800f0000bb
:20538a00000000000c3120c8019d7283e000001e000000000000000000000000000000004d
:2053aa00000000058006bc10000a0000000000080010295000400000c85580000031a5221c
:1653ca005a4000026646a0f800000199d2143400a000000ef0405b
:2053e0000000000000c30005180080c03c0000002000000000000000000000000000000031
:2054000000000000080003c00000800000000000900002940408004236faa10000809002ea
:17542000258000002664390f000005008b801500040000000f0100c5
:20543700100000000c32200021007a83e000002028ee032000000000000000000000000090
:205457000000000018575488000000000000000380023c10400e0e03695580000010132237
:165477005a2000026015b0f800000000fa1430400000040ef040c6
:20548d000140000000c30000003080003c000a16c40def30000400000000000010000000eb
:2054ad000000000000097b800000000000000000080043c0000100224ceaa01004008e0332
:1754cd00a58000103c342c0f000040000f001500010002800f008072
:2054e400000000000c31202003805e83e000001401f9742000000000000000000000000045
:20550400000000001802bc1001000000000000000102bc1041002e03c8558001000005a21a
:165524005a02000207cdb0f80004000eda1430410000781ef06040
:20553a000000000000c30000000000403c000003603eee2000000000000000000000000063
:20555a0000000038000003c0001000000000000000a003c0001003c236faa01002400003c9
:17557a00258000000420280f000000000b001500100000010f0000da
:20559100020000000c31200009985b03e000009c0000000000000000000000000000000020
:2055b100000000219c57768000000000000000000006bc1040100e7949558000007801a2ee
:1655d1005a020003c055b0f800000980da143040061e001cf06031
:2055e7000002000000c30000001000803c0000000380000000000000000000000000000090
:205607000000040501097bc42000000000000000000003c00000006644eaa0100000800a80
:175627006580000006201d0f000000100f8015000001e0010f000090
:20563e00000000000c31200008013000200100242800000000400000000000010000000008
:20565e0000002c018002bc10000000000000040000073c1002100401485580006011e322b0
:16567e005a020100000db0f80104080eda143040103c70000000cf
:205694000000000000c300001810d00000001002e400000000000000000000000140000004
:2056b40000000100000043c00000c00000000000000043c00000002004faa0102000000b16
:1756d400258000060000190f000000100b8015000000c40000000078
:2056eb00000002008c3120000000300020000000000000000400000000000000000000006c
:20570b00000000071a00000000000000000001a019934c0020000020c85590010201a12210
:16572b005a0210020006100800000000721430000000047a0500a3
:2057410000100040d0c3000000000000001000000000000000000000000000000000000055
:205761000000000009000000000000000000000400cfba94000000141ccaa0402010100bd9
:17578100a58101003c000b00040000000f0015300000025405a1004f
:20579800000000000c3220000000323c20000014067f030000000000000000000000000069
:2057b800000380058000000000000000000380280a063c1000000002e85590010201a72226
:1657d8005a020003e0461008038000007214300e40166c0ef040d7
:2057ee000000000000c30000000000003c0100002287bf3000000000000000000000000003
:20580e0000002000080000000000c00000002000900003c0000000000e9aa00000001003c4
:17582e00258000001c382c00002002000b001520820002800f0000c9
:20584500100000008c312010000a3a3c2000000000000000000000000000000000000000a6
:20586500000300000e063c10200000000001000000937f0000000003c8558000300001a21a
:165885005a020002001c100801000019521430140006007aaf0088
:20589b000110000010c30000000100803c010000000000000000000000000000000000004b
:2058bb0000001000010003c00010000000001000000fba94041000021ccaa1002800000bac
:1758db00a58000001c300e00002000008f8015004800025405a100af
:2058f200010000000c322040050a523c200000000400000000000000000000000000000036
:20591200000000000002bc1000000000000000019806bc1000000001e85580000500072250
:165932005a400000078e100800000199521430000020066afa104e
:205948000000000000c300041009b0803c0000000380000000000000000000000000000070
:2059680000000000000043c00400000000000000090003c000000000369aa10000200003b8
:17598800e580000e00002e00000000008b801520000142e60f0000ef
:20599f00000000000c30240003007a3c200000000000000000280000000000000000000087
:2059bf0000000380001029502000000000000001819f1c0040000e0008f000000070002386
:1659df00c0200010001c00080000000a7a14300004000218430075
:2059f5000000240000c30000007000003c00000000000000000000000000000000000000ff
:205a15000000000000f00294000000000000000000f3f69000000260000f00080000800079
:175a35003c00000034002c00000000010f00150000400025a831005b
:205a4c00000000000c30200050085a3c2000000000000000000000000000000000000000d0
:205a6c000000000000002950000000000000000818000000000e0e00000000000000000065
:165a8c0000000000400e1008000000005a14300000000000000000
:205aa2000000000000c30000000100003c0000000000000000028000000000000000000062
:205ac20000000000000901680100000000000000f00000000000000200000000000000005f
:175ae2000000000036280f00000000000b0015000000000000000020
:205af900100000000c30200000005a3c2000a00000000000001800000000000000000000b3
:205b190000001020000000000000000000000180009f3e0000000e000000000400101000ac
:165b390000002000001410080000498a5a143000001e015aa01070
:205b4f000100000000c30000000000803c00000000000000000000000000000000000000b6
:205b6f00000000850000000000000000000000000403f6d4040000600000000040000e000e
:175b8f00000000003c2c0800000002110f801500000420030a0000a7
:205ba600000000000c30200008005a3c2001a00070000000000000000000000000000000b4
:205bc600000000000000000000a00000000000010806bc1000401e7800000000000000006e
:165be6000000100040040008018008005a14100000000000000046
:205bfc000000000000c30000003000803c001040000000000000000000000000000000008a
:205c1c00000000000000000000040000000000000d0043c0000a000000000000000000004a
:175c3c0000000006162c0b00000000100b801500000000000000004e
:205c53000000003cec30204000001a3c2000000000c00080000001a5016a000000029d8a89
:205c73000000000001000000000000000000000b9c3383e0004000215f50c00000001bb137
:165c93004800000007808f00000000005a8940000000000000007a
:205ca90000100001c0c30004000000003c100000000000002000011833e94000003440e00e
:205cc9000000000000f000000000000000000280b000303c0002004005d0540000004ef67e
:175ce900b800000c804000f00c000004e5a4b00400000000000000e3
:205d00000000000ccc3020000500523c200000000148f08000001805056a00000140000022
:205d20000003800000023c1400000000000000038053c3e00e000001c850c0380080003343
:165d4000c1000001e00000000380000007bc100e0200001ef040f7
:205d56008000000000c30000000800003c0000000002ff00000000003329400000362c00a7
:205d760000002000000043c000000000000000000000303c0080000024005402000700007d
:175d96003c0000000200000000300070e003c000800000000f0400e2
:205dad000000001cec3020000d0072084001002038c8f08040009995383e001001400000f1
:205dcd00000100001c0000000000000000000001995383e00d0c20654850c01000180bb36d
:165ded006800000200000000010001885aab400102000000000064
:205e03000000000000c3000000180fbb782010014002bf00000001080f43c00100022c00e6
:205e230000003000010000000000000000000000f080e03c0010004206005401000000f6ff
:175e4300bc400008040000000030007105a4f4010000000000000001
:205e5a000100000ccc30200000000303c00000000149f08000008195016a0000000280007c
:205e7a0000000000000000000000000000000081805383e0002006054850c0000000003b93
:165e9a00c1000000002005a08400a0000000000000000000000048
:205eb0000000000000c30000000000003c0000a00002ef0008000108ba694000000040008e
:205ed000000000000000000000000000000000000000e03c0000a0022600540001800000f9
:175ef0003c000000000040a508000000d000000000000000000000a2
:205f07000002001cec3020000800f2d1c000000660e8f080000050a5f83e000000000000ac
:205f27000000004000000000000000000000000b0c57c3e0004e0001e850c00000819ff5ad
:165f4700c000100000058a5010000000bf5c00000000000ef0412b
:205f5d000000340000c3000000b00fb7888000002400bf008000050e0203c000001c000058
:205f7d00000000020000000000000000000000001000303c000200000400540000090976a4
:175f9d00160001000003e0050000000009629000000000010f0400df
:205fb4000000000ccc30200008000703c00000066149f080000050077c3e0000000004aaf4
:205fd4000000000000000000000000000000000b1b5f83e0000200016850c0000471803322
:165ff400c1000000000000000001019803bc10000020000ef0400f
:20600a000000000000c3000000b090003c0000002402ff00000000800203c00000000000cd
:20602a00a00000000000000000000000000000001080343c00000003a4005400280080040f
:17604a003c00000000000000000000000003c000008140000f041458
:2060610000c2001cec302000050e0783c000000004e8f080000098a5f83e0000820024a192
:20608100a020004000000000000000000000000d9b17c3e0000006016850c00000198ff77f
:1660a100e00002000786afa00000079ebf7e0000401604000000ef
:2060b7000000340000c30000000080403c0000000242bf008000079a0e43c00000043870f5
:2060d7000000000000000000000000000000000054a0f43c00000000060054000000907625
:1760f7001e800000000000fa004000090962d40000000280000000f0
:20610e000000400ccc302000039b0783c00001600548f080000050a5f83e0000000017823f
:20612e000030000000000000000000000000000d99f856a004002061e850c0028018e03b5b
:16614e00c100000000000000000007c003bc10040094001cf041ff
:206164000000000000c300000008d0003c0000024242af000000050a0f83c000000001f0bd
:206184000000000000000000000000100000000050aba29400000043a6005400100f10044a
:1761a4003c00000001000000000000000043c000000000000f040091
:2061bb00000000000c30200000000283c00000140068f080000000053c3e000000003c85f7
:2061db000c00008018934d00000000000000000b9d1016a000000003c850c0000038057d1d
:1661fb008300000206e5aa5400405000000000000000000ef04052
:206211008010000000c30000000000403c2000000000ef00400000400203c1000000034006
:206231000542000000e3b69020000000000000001883a294100000002c00544000004e07c7
:1762510018104000042860aa4044020000000000000000010f0400fe
:20626800000000000c30200005000703c000001e7008f00038008005383e00e00002bc850f
:206288000c0380000103bc10000000000000000b9c7056a00e0c0003c850c03885000f26a3
:1662a8001300e003468000000381000002bc100e0100001af04079
:2062be008000000000c30000100800003c00000020000f00020005000303c00800000240e3
:2062de000540300070e003c0000000000000010010032694008000000c005402030000f273
:1762fe00c49048002e000000002000000003c004800000000f040045
:20631500100000000c302000000a0603c2000020700000000000980023c10200000674851a
:206335000c0100001e936f001200000000000003993b83e00c0000674850c00000801d2344
:166355007b8000000027aaa60300011e000000000000601af040f4
:20636b000100000000c300000001b0003c0000604400000000000100003c100000002360ed
:20638b00054030000003b6d4000000000000000000e0643c000000022e005400000108ba29
:1763ab006dd00000340060a54010000000000000000004010f0410ed
:2063c200000000000c302000000000000000000e034cf50000000000000000000062f48532
:2063e2000c0000098007bc1000000000000080000153c3e0004006074850c0000001c3262d
:166402005a0000020000000000000000000000000006040ef040e0
:206418000000000000c30000000000000000000020270a00000000000000000000002260ce
:2064380005400000700043c000000000000000100080e03c000200020e0054000009180257
:17645800a58000001c0000000000000000000000000022400f041067
:20646f00000000000c302000000000000000a000026a2100000078000000000000003e8549
:20648f000c00000180df5488000000000000002d8117c3e000000003e850c00003f0b3a6f6
:1664af005a00000140000000000008010000000100000000000032
:2064c5000000000000c300000200e000000000a002dee7b0000000000000000000000340b8
:2064e5000540000000096b80000000000000000050b0203c000000002c00540003858a0b65
:17650500a58010000200000000000070c00000001000000000000008
:20651c00000000000c30200000000303c0000000016f3000000000000000000000003685e2
:20653c000c00002018023c10000000000000000b185783e0000004036850c0000000f5a2ba
:16655c005a00001400048e70000381000000000000000000000035
:206572000000000000c30000007000403c00000000059f3000000000000000000000024044
:2065920005400004108043c00000000000000000d0002c3c800000020c00540003871a0b44
:1765b2002580000000015ffb000000000000000000000000000000d2
:2065c900100000000c3020100000000000000006280000000000500000000000026036859b
:2065e9000c00000100df768000000000000000019b5fc3e0000026036850c0000018032630
:166609005a0000004047ef1038000000000000000016041ef040fb
:20661f000100000000c3000080000000000000002400000000000500000000000004036087
:20663f000540000000096bc4200000000000000000a0f03c000000402e0054000000000b05
:17665f00e58000000221c0f02040000000000000000002800f0404f3
:20667600000000000c30200000000283c000001c00000000100000000000004002063e852c
:206696000c00000008063c10000000000000000d9b37c3e004202063e850c0100270932226
:1666b6005a00401000018b1420000000b283c4140020000af040fd
:2066cc004000000000c30000000000403c02000000000000000000000000000000040260c7
:2066ec0005400000000003c0000000000000000050a0f43c000000400e00540000000a0ab0
:17670c00258000001400c0724040000003403c00000140010f040037
