:02000000ff00ff
:080002004c6174746963650030
:17000a00694345637562653220323032302e31322e32373934330071
:15002100506172743a2069434534305550354b2d53473438002c
:1b003600446174653a2044656320313220323032342032333a30313a3438009a
:0200510000ffae
:040053007eaa997e6a
:02005700510056
:0200590001059f
:03005b00920020f0
:03005e006202b388
:03006100720150d9
:0300640082000017
:02006700110086
:02006900010193
:20006b00000000000000000000000010000000000000400000000000010000000000000420
:20008b000000000000001000000000000040000000001000000000000040000000000001b4
:1600ab0000000000000004000000000000100000000000004000eb
:2000c1000000000000000000000000020000000000000800000000000020000000000000f5
:2000e10080000000000002000000000000080000000002000000000000080000000000006b
:1701010020000000000000800000000000020000000000000800003d
:200118000000000000000000000000000000000000000000000000000000000000000000c7
:200138000000000000000000000000000000000000000000000000000000000100000000a6
:160158000000000000000000000000000000000000000000000091
:20016e00000000000000000000000000000000000000000000000000000000000000000071
:20018e00000000000000000000000000000000000000000000000000000000000000000051
:1701ae0010000000000000000000000000000000000000000000002a
:2001c50000000000000000000000000000000000000000000000000000000000000000001a
:2001e5000000000000000000000000000000000000000000000000000000000000000000fa
:1602050000000000000000000000000000000000000000000000e3
:20021b000000000000000000000000000000000000000000000000000000000000000000c3
:20023b000000000000000000000000000000000000000000000000000000000000000000a3
:17025b0000000000000000000000000000000000000000000000008c
:2002720000000000000000000000000000000000000000000000000000000000000000006c
:20029200000000000000000000000d00000000000000000000000000000000020000040039
:1602b2000000000000000000000000000000000000000000000036
:2002c800000000000000000000000000000000000000000000000000000000000000000016
:2002e8000000000000000000000000000000000000000000000000000000000000000400f2
:170308000000000000000000000000000000000000000000000000de
:20031f000000000000000000000000000000000000000000000000000000000000000000be
:20033f000000000000401000000000000000000000401000000000010040000000000800b5
:16035f000000000000000000000000000000000000000000000088
:20037500000000000000000000000000000000000000000000000000000000000000000068
:20039500000000000000000000000000000000000000000000000000000000000000000048
:1703b500000000000000000000000000000000000000000000000031
:2003cc00000000000000000000000000000000000000000000000000000000000000000011
:2003ec00000000000000000000000000008000000000000000400000000000000000000031
:16040c00000000000000000000000000000000000000800040001a
:200422000000000000000000000000000000000000000000000000000000000000000000ba
:20044200000000000000000000000000000400000000000000000000000000000000000096
:17046200000000000000000000000000000000000000580004000027
:20047900000000000000000000000000000000000000000000000000000000000000000063
:200499000000100000000000000000000000100000000000004000000000000000000000e3
:1604b900000000000000000000000000000000000000000000002d
:2004cf0000000000000000000000000000000000000000000000000000000000000000000d
:2004ef000000010000000000000000000000010000000000000400000000000000000000e7
:17050f000000000000000000000000000000000000000000000000d5
:200526000000000000000000000000000000000000000000000000000000000000000000b5
:20054600000000000040000000000000000000000040000000000001000000000000000014
:16056600000000000000000000000000000000000000000000007f
:20057c0000000000000000000000000000000000000000000000000000000000000000005f
:20059c0000000000000000000000000000000000000000000000000100000000000000003e
:1705bc00000000000000040000000000000000000000000000000024
:2005d300000000000c302000000000000000000000000000000000000000000000000000ac
:2005f3000000000000000000000000000000000000000000000000000000000000000000e8
:1606130000000000000000000000000000000000000000000000d1
:200629000000000000c30000000000000000000000000000000000000000000000000000ee
:20064900000000000000000000000000000000000000000000000000000000000000000091
:1706690000000000000000000000000000000000000000000000007a
:20068000000000000c302000000000000000000000000000000000000000000000000000fe
:2006a00000000000000000000000000000000000000000000000000000000000000000003a
:1606c0000000000000000000000000000000000000000000000024
:2006d6000000000000c3000000000000000000000000000000000000000000000000000041
:2006f6000000000000000000000000000000000000000000000000000000000000000000e4
:170716000000000000000000000000000000000000000000000000cc
:20072d00000000000c30200000000000000000000000000000000000000000000000000050
:20074d0000000000000000000000000000000000000000000000000000000000000000008c
:16076d000000000000000000000000000000000000000000000076
:200783000000000000c3000000000000000000000000000000000000000000000000000093
:2007a300000000000000000000000000000000000000000000000000000000000000000036
:1707c30000000000000000000000000000000000000000000000001f
:2007da00000000000c302000000000000000000000000000000000000000000000000000a3
:2007fa000000000000000000000000000000000000000000000000000000000000000000df
:16081a0000000000000000000000000000000000000000000000c8
:200830000000000000c30000000000000000000000000000000000000000000000000000e5
:20085000000000000000000000000000000000000000000000000000000000000000000088
:17087000000000000000000000000000000000000000000000000071
:20088700000000000c302000000000000000000000000000000000000000000000000000f5
:2008a700000000000000000000000000000000000000000000000000000000000000000031
:1608c700000000000000000000000000000000000000000000001b
:2008dd000000000000c3000000000000000000000000000000000000000000000000000038
:2008fd000000000000000000000000000000000000000000000000000000000000000000db
:17091d000000000000000000000000000000000000000000000000c3
:20093400000000000c30200000000000000000000000000000000000000000000000000047
:20095400000000000000000000000000000000000000000000000000000000000000000083
:16097400000000000000000000000000000000000000000000006d
:20098a000000000000c300000000000000000000000000000000000000000000000000008a
:2009aa0000000000000000000000000000000000000000000000000000000000000000002d
:1709ca00000000000000000000000000000000000000000000000016
:2009e100000000000c3020000000000000000000000000000000000000000000000000009a
:200a01000000000000000000000000000000000000000000000000000000000000000000d5
:160a210000000000000000000000000000000000000000000000bf
:200a37000000000000c30000000000000000000000000000000000000000000000000000dc
:200a570000000000000000000000000000000000000000000000000000000000000000007f
:170a7700000000000000000000000000000000000000000000000068
:200a8e00000000000c302000000000000000000000000000000000000000000000000000ec
:200aae00000000000000000000000000000000000000000000000000000000000000000028
:160ace000000000000000000000000000000000000000000000012
:200ae4000000000000c300000000000000000000000000000000000000000000000000002f
:200b04000000000000000000000000000000000000000000000000000000000000000000d1
:170b24000000000000000000000000000000000000000000000000ba
:200b3b00000000000c3020000000000000000000000000000000000000000000000000003e
:200b5b0000000000000000000000000000000000000000000000000000000000000000007a
:160b7b000000000000000000000000000000000000000000000064
:200b91000000000000c3000000000000000000000000000000000000000000000000000081
:200bb100000000000000000000000000000000000000000000000000000000000000000024
:170bd10000000000000000000000000000000000000000000000000d
:200be800000000000c30200000000000000000000000000000000000000000000000000091
:200c08000000000000000000000000000000000000000000000000000000000000000000cc
:160c280000000000000000000000000000000000000000000000b6
:200c3e000000000000c30000000000000000000000000000000000000000000000000000d3
:200c5e00000000000000000000000000000000000000000000000000000000000000000076
:170c7e0000000000000000000000000000000000000000000000005f
:200c9500000000000c302000000000000000000000000000000000000000000000000000e3
:200cb50000000000000000000000000000000000000000000000800000000000000000009f
:160cd5000000000000000000000000000000000000000000000009
:200ceb000000000000c3000000000000000000000000000000000000000000000000000026
:200d0b000000000000000000000000000000000000000000000010000000000000000000b8
:170d2b000000000000000000000000000000000000000000000000b1
:200d4200000000000c30200000000000000000000000000000000000000000000000000035
:200d620000000000000000000000000000000000000000000000000000000000050000006c
:160d8200000000000000000000000000000000000000000000005b
:200d98000000000000c3000000000000000000000000000000000000000000000000000078
:200db80000000000000000000000000000000000000000000000000000000000000000001b
:170dd800000000000000000000000000000000000000000000000004
:200def00000000000c30200000000000000000000000000000000000000000000000000088
:200e0f000000000000000000000000000000000000000000000000000000000000000000c3
:160e2f0000000000000000000000000000000000000000000000ad
:200e45000000000000c30000000000000000000000000000000000000000000000000000ca
:200e650000000000000000000000000000000000000000000000000000000000000000006d
:170e8500000000000000000000000000000000000000000000000056
:200e9c00000000000c302000000000000000000000000000000000000000000000000000da
:200ebc00000000000000000000000000000000000000000000000000000000000000000016
:160edc000000000000000000000000000000000000000000000000
:200ef2000000000000c300000000000000000000000000000000000000000000000000001d
:200f12000000000000000000000000000000000000000000000000000000000000000000bf
:170f32000000000000000000000000000000000000000000000000a8
:200f4900000000000c3020000000000000000000000000000000000000000000000000002c
:200f6900000000000000000000000000000000000000000000000000000000000000000068
:160f89000000000000000000000000000000000000000000000052
:200f9f000000000000c300000000000000000000000000000000000000000000000000006f
:200fbf00000000000000000000000000000000000000000000000000000000000000000012
:170fdf000000000000000000000000000000000000000000000000fb
:200ff600000000000c3020000000000000000000000000000000000000000000000000007f
:201016000000000000000000000000000000000000000000000000000000000000000000ba
:1610360000000000000000000000000000000000000000000000a4
:20104c000000000000c30000000000000000000000000000000000000000000000000000c1
:20106c00000000000000000000000000000000000000000000000000000000000000000064
:17108c0000000000000000000000000000000000002000000000002d
:2010a300000000000c302000000000000000000000000000000000000000000000000000d1
:2010c30000000000000000000000000000000000000000000000000000000000000000000d
:1610e30000000000000000000000000000000000000004000000f3
:2010f9000000000000c3000000000000000000000000000000000000000000000000000014
:201119000000000000000000000000000000000000000000000000000000000000000000b6
:1711390000000000000000000000000000000000000003400000005c
:20115000000000000c30200000000000000000000000000000000000000000000000000023
:2011700000000000000000000000000000000000000000000000000000000000000000005f
:161190000000000000000000000000000000000e0000000000003b
:2011a6000000000000c3000000000000000000000000000000000000000000000000000066
:2011c600000000000000000000000000000000000000000000000000000000000000000009
:1711e600000000000000000000000000000000008000000000000072
:2011fd00000000000c30200000000000000000000000000004000000000000000000000072
:20121d000000000000000000000000000000000000000000000000000000000000000000b1
:16123d0000000000000000000000000000000004000020dea56094
:201253000000000000c30000000000000000000000000000000000000000000000000000b8
:2012730000000000000000000000000000000000000000000000000000000000000000005b
:1712930000000000000000000000000000000000400000350aa4041d
:2012aa00000000000c302000000000000000000000000000000000000000000000000000c8
:2012ca00000000000000000000000000000000000000000000000000000000040000000000
:1612ea0000000000000000000000000000000000000000000000ee
:201300000000000000c300000000000000000000000000000000000000000000000000000a
:201320000000000000000000000000000000000000000000000000000000000000000000ad
:17134000000000000000000000000000000000000000000000000096
:20135700000000000c3020000000000000000000000000000000000000000000000000001a
:20137700000000000000000000000000000000000000000000000000000000000000000056
:16139700000000000000000000000000000000010004000000003b
:2013ad000000000000c300000000000000000000000000000000000000000000000000005d
:2013cd00000000000000000000000000000000000000000000000000000000000000000000
:1713ed000000000000000000000000000000000000002000000000c9
:20140400000000000c3020000000000000000000000000000000000000000000000000006c
:201424000000000000000000000000000000000000000000000000000000000000000000a8
:161444000000000000000000000000000000000000000000000092
:20145a000000000000c30000000000000000000000000000000000000000000000000000af
:20147a00000000000000000000000000000000000000000000000000000000000000000052
:17149a0000000000000000000000000000000000000000000000003b
:2014b100000000000c302000000000000000000000000000000000000000000000000000bf
:2014d1000000000000000000000000000000000000000000000000000000000000000000fb
:1614f10000000000000000000000000000000000000000000000e5
:201507000000000000c3000000000000000000000000000000000000000000000000000001
:201527000000000000000000000000000000000000000000000000000000000000000000a4
:1715470000000000000000000000000000000000002000000000006d
:20155e00000000000c30200000000000000000000000000000000000000000000000000011
:20157e0000000000000000000000000000000000000000000000000000000000000000004d
:16159e000000000000000000000000000000000400000000000033
:2015b4000000000000c3000000000000000000000000000000000000000000000000000054
:2015d4000000000000000000000000000000000000000000000000000000000000000000f7
:1715f4000000000000000000000000000000000000000200000000de
:20160b00000000000c30200000000000000000000000000000000000000000000000000063
:20162b0000000000000000000000000000000000000000000000000000000000000000009f
:16164b000000000000000000000000000000000000000000000089
:201661000000000000c30000000000000000000000000000000000000000000000000000a6
:20168100000000000000000000000000000000000000000000000000000000000000000049
:1716a100000000000000000000000000000000000000000000000032
:2016b800000000000c302000000000000000000000000000000000000000000000000000b6
:2016d8000000000000000000000000000000000000000000000000000000000000000000f2
:1616f80000000000000000000000000000000000000000000000dc
:20170e000000000000c30000000000000000000000000000000000000000000000000000f8
:20172e0000000000000000000000000000000000000000000000000000000000000000009b
:17174e00000000000000000000000000000000000000000000000084
:20176500000000000c30200000000000000000000000000000000000000000000000000008
:20178500000000000000000000000000000000000000000000000000000000000000000044
:1617a500000000000000000000000000000000000000000000002e
:2017bb000000000000c300000000000000000000000000000000000000000000000000004b
:2017db000000000000000000000000000000000000000000000000000000000000000000ee
:1717fb000000000000000000000000000000000000000000000000d7
:20181200000000000c3020000000000000000000000000000000000000000000000000005a
:20183200000000000000000000000000000000000000000000000000000000000000000096
:161852000000000000000000000000000000000000000000000080
:201868000000000000c300000000000000000000000000000000000000000000000000009d
:20188800000000000000000000000000000000000000000000000000000000000000000040
:1718a800000000000000000000000000000000000000000000000029
:2018bf00000000000c302000000000000000000000000000000000000000000000000000ad
:2018df000000000000000000000000000000000000000000000000000000000000000000e9
:1618ff0000000000000000000000000000000000000000000000d3
:201915000000000000c30000000000000000000000000000000000000000000000000000ef
:20193500000000000000000000000000000000000000000000000000000000000000000092
:1719550000000000000000000000000000000000010000000000007a
:20196c00000000000c302000000000000000000000000000000000000000000000000000ff
:20198c0000000000000000000000000000000000000000000000000000000000000000003b
:1619ac000000000000000000000010000000000000000000000015
:2019c2000000000000c3000000000000000000000000000000000000000000000000000042
:2019e2000000000000000000000000000000000000000000000000000000000000000000e5
:171a02000000000000000000000002000000000000000000000000cb
:201a1900000000000c30200000000000000000000000000000000000000000000000000051
:201a3900000000000000000000000000000000000000000000000000000000040000000089
:161a59000000000000000000000000000000000000000000000077
:201a6f000000000000c3000000000000000000000000000000000000000000000000000094
:201a8f00000000000000000000000000000000000000000000000000000000000000000037
:171aaf00000000000000000000000000000000000000000000000020
:201ac600000000000c302000000000000000000000000000000000000000000000000000a4
:201ae6000000000000000000000000000000000000000000000000000000000000000000e0
:161b060000000000000000000000000000000000100000000000b9
:201b1c000000000000c30000000000000000000000000000000000000000000000000000e6
:201b3c00000000000000000000000000000000000000000000000000000000000000000089
:171b5c00000000000000000000000000000000000000000000000072
:201b7300000000000c302000000000000000000000000000000000000000000000000000f6
:201b9300000000000000000000000000000000000000000000000000000000000000000032
:161bb300000000000000000000000000000000000000000000001c
:201bc9000000000000c30040000000000000000000000000000000000000000000000000f9
:201be9000000000000000000000000000000000000000000000000000000000000000000dc
:171c09000000000000000000000000000000000000000000000000c4
:201c2000000000000c30200000000000000000000000000000000000000000000000000048
:201c400000000000000000000000000000000000000000000000000000000038000000004c
:161c60000000e0020000000000000000000000000020000000006c
:201c76000000000000c300400000000000000000000000000000000000000000000000004b
:201c960000000000000000000000000000000000000000000000000000000002000000002c
:171cb600000008001c000000000000000000000000004000000000b3
:201ccd00000000000c3030000000000000000000000000000000000000000000000000008b
:201ced000000000000000000000000000000000000000000000000000000003000000000a7
:161d0d000000c000000000000000000000000000000003cea0008f
:201d23000000000000c30000000000000000000000000000000000000000000000000000dd
:201d430000000000000000000000000000000000000000000000000000000001000000007f
:171d6300000004003c00000000000000000000000000001e0f50109c
:201d7a00000000000c302000000000000000000000000000000000000000000000000000ed
:201d9a000000400000000000000000000000400000000000010000000000000000000000a8
:161dba00000000000007ea540000000000000000000000000000ce
:201dd0000000000000c30040000000000000000000000000000000000000000000000000f0
:201df0000000000000000000000000000000000000000000000000000000000000000000d3
:171e100000000000000150aa40000000000000000000000000000080
:201e2700000000000c3020000000000000000000000000000000000000000000000000003f
:201e47000000000000000000000000000000000000000000000000000000000000001ff26a
:161e670095000000000000000000000000000000000002fea5200b
:201e7d000000000000c3004000000000000000000000000000000000000000001000000032
:201e9d000000000000000000000000000000004000000000000100000000000004000c7c58
:171ebd002a900010003800000000400000000000010000050aa1001b
:201ed400000000000c30200000000000000000000000000000000000000000000000000092
:201ef400000000000000000000000000000000000000000000000000000000000001c0000d
:161f140000000000000000000000000000000000000400000000b3
:201f2a000000000000c3004000000000000000000000000000000000000000000000000094
:201f4a00000000000000000000000000000000000000000000000000000000000000100067
:171f6a00000000000000000000000000000000000000200000000040
:201f8100000000000c302000000000000000000000000000000000000000000000000000e4
:201fa1000000000000000000000000000000000000000000001000000000000040000000d0
:161fc1000000000000000000000000000000000000000400000006
:201fd7000000000000c30040000000000000000000000000000000000000000000000000e7
:201ff7000000000000000000000000000000000000000000000000000000000000000000ca
:17201700000000000000000000000000000000000000c200000000f0
:20202e00000000000c30200000000000000000000000000000000000000000010000000035
:20204e000000000000000000000000000000040000000000001000000000001045301000c9
:16206e000000410002000000000400000000000010040000000001
:202084000000000000c3004000000000000000000000000000000000000000000000000039
:2020a4000000000000000000000000000000000000000000000000000000000000208d006f
:1720c400000000000040000000000000000000000000238000000022
:2020db000100001fec30200000000000000000000000000000000000000000000000000089
:2020fb000000000000000000000000000000000000000000000000000000000000000000c5
:16211b0000000000001ea0300800000000000000003e015ee240f9
:2021310000100003f0c3004000000000000000000000000000000000000000000000000088
:2021510000000000000000000000000000000000000000000000000000000000000000006e
:17217100000000000000cb870000000000000000000040368a1400f1
:2021880000000000ec302000070000000000000000000000000000000000000000000000f4
:2021a80000000000000000000000000000000000000000000e0000000000003800000000d1
:1621c80000000000002cafc0080000000000000e4000004aa00026
:2021de004000000010c300400000000000000000000000000000000000000000000000008e
:2021fe0000000000000000000000000000000000000000000080000000000002000000003f
:17221e00000000000001da7800000000000000008aa003c10a00005e
:2022350000000001ec3030000000000000000000000000000000000000000000000000003c
:2022550000000000000000000000000000000000000000000c00000000000030020003ba6e
:1622750095020000029eef50080000000000000000006400000071
:20228b000000000010c3000000000000000000000000000000000000000000000000000060
:2022ab00000000000000000000000000000000000000000000000002400000000040007c15
:1722cb00155000002402f0a01000000000000000000003400000008e
:2022e20001000000ec302800001adf95404000000000000000000000000000000000000089
:2023020000000000000000000000000000000000000000000100200000000000000000009a
:162322000000000000000000000000000000000000200158a54047
:202338000000000010c30000000001815400000000000000000000000000000000000000dc
:202358000000000000000000000000000000000000000000001001c0000000000000000094
:17237800000000000000000000000000000000000000400f82640019
:20238f00000000000c302000000000000000000000000000000000000000000000000000d2
:2023af000000000000000000000000000000000000000000000000036aa5500000000000ac
:1623cf0000000000000000000000001a00000000001e001af54869
:2023e5000000000000c30040000000000000000000000000000000000000000000000000d5
:202405000000000000000000000000000000000000000000000000002d055404000000002d
:17242500000000003c2400000000000000000000000020040fa40069
:20243c00000000000c3028000000000000000000000000000000000000000000000000001c
:20245c00000000000000000000000000000000000000000000000000000000000001a000bf
:16247c000000000006000000000000007b97802000000000000092
:202492000000000000c3000000000000000000000000000000000000000000000000000067
:2024b200000000000000000000000000000000000000000000000003000000000000000007
:1724d200000000001c00000000000000073474000000000000000028
:2024e900000002000c30200000000000000000000000000000000000000000000000000075
:20250900000000000000000000000000000000000000000000000000000000000010100092
:16252900000000000040000000000f00000000000000000000004d
:20253f000000004000c3004000000000000000000000000000000000000000000000000039
:20255f000000000000000000000000000000000000000000000000000000000000008c00d0
:17257f000000000000200000000000580000000000000000000000cd
:2025960000000000ec302000030000000000000000000000000000000000000000000000e6
:2025b6000000000000000000000000000000000000000000040000000000001000000000f1
:1625d60000000002006eca5000000700000000040000000000005a
:2025ec000000002410c3004000000000000000000000000000000000000000000000000098
:20260c000000000000000000000000000000000000000000000000000000000000000000ae
:17262c00000000002436d0aa00000008000000000002c000000000f9
:202643000000000fcc3020000000000000000000000000000000000000000000000000004c
:20266300000000000000000000000000000000000000000000000000000000000400100043
:1626830000000000003fca5400000000000000000000077ea0506f
:202699000010240040c30040000000000000000000000000000000000000000000000000aa
:2026b9000000000000000000000000000000000000000000000000000000000000200c00d5
:1726d900000000000002605540000000000000000000039c0f5400f1
:2026f0000000001fec3020000000000000000000000000000000000000000000000000006f
:2027100000000000000000000000000000000000000000000e000000000000382000000043
:162730000000e00000400000038000000000000e000000000000e2
:202746000000000000c30000000000000000000000000000000000000000000000000000b0
:202766000000000000000000000000000000000000000000008000000000000200000000d1
:1727860000000800003c000000200000000000008000000000000058
:20279d000000000fcc302000000000000000000000000000000000000000000000000000f1
:2027bd0000000000000000000000000000000000000000000c00007c0000001000000dbb9c
:1627dd00d400c000003fca540300001803bc1814000000000000ef
:2027f3000000000000c3000000000000000000000000000000000000000000000000000003
:20281300000000000000000000000000000000000000000000000003c0000001000d00fcd8
:1728330028000c000002c0aa407000000003c100400000000000003a
:20284a001100001fec30200000000000000000000000000000000000000000000000000002
:20286a000000000000000000010000000000000000000000000000015ca040000000087a8e
:16288a008d08000202b6ea0400000500033c10000e200000000079
:2028a0000000000000c3000000000000000000000000000000000000000000000000000055
:2028c000000000000000000000100000000000000000000000000000360f541000000ed45d
:1728e00014d010001c00e0f5400000080043c1600002c0000000008e
:2028f7000000000fcc30200050000000000000000000000000000000000000000000000046
:202917000000000000000000000000000000000000000000000000000000000000000000a0
:162937000000000006adca541000000000000000000000000000a9
:20294d000000000000c30000000000000000000000000000000000000000000000000000a7
:20296d0000000000000000000000000000000000000000000000000000000000000000004a
:17298d00000000000001e0aa40000000c000000000000000000000a8
:2029a4000001e01fec302000200000000000000000000000000000000000000000000000b7
:2029c4000000000000000000000000000000000000000000000020000000000000000ffaca
:1629e400940000014000000000030198d6a94000000000000000ad
:2029fa000000020000c300001d0000000000000000000000000000000000000000000000db
:202a1a000000000000000000000000000000000000000000000001c0000000000000007467
:172a3a0015400000002c0000000000000382a80400000000000000d3
:202a51000000000fcc3020000000000000000000000000000000000000000000000000003a
:202a7100000000000000000000000000000000000000000000000000000000000000187bb2
:162a910089080000e737ca541000071c000000000000000000002f
:202aa7000000000000c300000000000000000000000000000000000000000000000000004c
:202ac70000000000000000000000000000000000000000000000000000000000000008f0f7
:172ae700345010000243c0aa4000003800000000000000000000001d
:202afe000001e001ec3020200000000000000000000000000000000000000000000000007a
:202b1e00000000000000000000000000000000000000000004a00000000000100098e07fec
:162b3e0015044c016680000001000000f6a940040024000000002d
:202b54000000020000c300000000000000000000000000000000000000000000000000009c
:202b740000000000000000000000000000000000000000000004000000000000000f1857bf
:172b9400f29000c03c280000000000000b02a840000340000000004c
:202bab00000000000c302000000000000000000000000000000000000000000000000000ae
:202bcb00000000000000000000000000000000000000000000000404d8a5408000018532ed
:162beb0080000009e2b4834000080700ff8200000c140000000042
:202c01000010000000c30000000000000000000000000000000000000000000000000000e0
:202c2100000000000000000000000000000000000000000000000002670aa40000200f94b9
:172c41003d404000143cdca4200100900fac0000000022c0000000a1
:202c58000a0000000c302008400000000000000000000000000000000000000000000000ae
:202c780000000000000000000000000000000000000000000e00063ae081408000000f229c
:162c98009400e8000005cad0080000191f82800e021601688000ba
:202cae000040000000c3000102000000000000000000000000000000000000000000000000
:202cce0000000000000000000000000000000000000000000080002426ee7400000f005457
:172cee001540484000024e3d00000000e080280080000007a00000b6
:202d0500000000000c30200000000000000000000000000000000000000000000000000052
:202d250000000000000000000000000000000000000000000c001e2058a540000080f7325e
:162d450080004000068000000000081e3290008c000c00000000b2
:202d5b000000000000c3000000000000000000000000000000000000000000000000000095
:202d7b000000000000000000000000000000000000000000000000002d0aa40410011b9895
:172d9b003d40140014000000000000110100000040034000000000e7
:202db200100000000c30208000000000000000000000000000000000000000000000000015
:202dd20000000000000000000000000000000000000000000000000000000002808003a23a
:162df200940000000000000000008980000000000e0028000000f8
:202e08000000000000c30000000000000000000000000000000000000000000000000000e7
:202e28000000000000000000000000000000000000000000000000000000000013070094dc
:172e48002a80000000000000000018d00000000000000400000000dd
:202e5f00000000000c302000000000000000000000000000000000000000000000000000f7
:202e7f0000000000000000000000000000000000000000000000002678a541000039efec9b
:162e9f0020400000000000000000011f16940000001e00000000d5
:202eb5000000000000c300000000000000000000000000000000000000000000000000003a
:202ed5000000000000000000000000000000000000000000000000028d05540000001033b2
:172ef500400000020c000000000000088f000000000023c0000000fe
:202f0c00000000000c30202810000000000000000000000000000000000000000000000011
:202f2c00000000000000000001000000000000000000000000003e07eaa04002858191a23a
:162f4c00944000016000000000000001339688f0000000000000f8
:202f62000000000000c3000028000000000000000000000000000000000000000000000064
:202f82000000000000000000000000000000000000000000000000e2a70f5400106d0fd4e3
:172fa2002a8000203d000000000000908b8094620000000000000080
:202fb900000000000c3020000000000000000000000000000000000000000000000000009c
:202fd900000000000000000000000000000000000000000000000000f8a54000041817ba0e
:162ff900800000100005ca5400000d8883b90080000000d8a54001
:20300f000000000000c30000000000000000000000000000000000000000000000000000de
:20302f00000000000000000000000000000000000000000000000240150aa40400070898d1
:17304f003d4000000c0340aa400000700b036040000000140aa58053
:20306600000000000c302008000000000000000000000000000000000000000000000000e6
:203086000000000000000000000000000000000000000000050000680000000000001d227e
:1630a600940240000000000000000b88bea9400400000000000000
:2030bc000000000000c3000118000000000000000000000000000000000000000000000018
:2030dc0000000000000000000000000000000000000000000010000000000000000f08bcf1
:1730fc002a8000010000000000000031f902a804000000000000003a
:20311300000000000c30200000000000000000000000000000000000000000000000000040
:20313300000000000000000000000000000000001800000000000061f85200000051e00088
:1631530000000000665cf0f800000000b700c001000420cf080049
:203169000000000000c3000000000000000000000000000000000000000000000000000083
:203189000000000000000000000000000000000000000000000000040ebc12000000100036
:1731a900000000001c20190f00000000072d2c0010002015e0000026
:2031c000000000000c30202810000000000000000000000000000000000000e0000000007b
:2031e00000000000000000000000000000038000000000000e00743acbf8003a850000000e
:1632000000000000e7c5a0f803c00500fabe00000c0401ef0800ec
:203216000000000000c30000020000000000000000000000000000000000000800000000cb
:20323600000000000000000000000000000020000000000000802ac005f7a202102f00000f
:17325600000000001e28180f002000000372d4000000226680000083
:20326d00000000000c302000000000000000000000000000000000000000000000004000a5
:20328d00000000000000000000000000000000000093bc002d000064000000300000083bce
:1632ad00890000000016c0f8030801181bbd4000001e005f0800f3
:2032c3000000000000c30000000000000000000000000000000000000000000000003c00ec
:2032e300000000000000000000000000000000000007c28004100003c00000010000007337
:17330300b45040480038290f00311808934140200000003c90000066
:20331a00080000000c3020000000000000000000000000000000000000000000000000002f
:20333a00000000000000000000010000000000000077a9d080400001dea5400000000f7a75
:16335a00940000006386e0f80000000a8338908040800000000073
:203370000040000000c3000018000000000000000000000000000000000000000000000022
:20339000000000000000000000000000000000000009806d000200002e0aa40001000fd861
:1733b000154000000028190f00000000010345000214000000000002
:2033c700000000000c3020200000000000000000000000000000000000000000000000afbb
:2033e700060000000000000000000000000000000100000000000e274ca040000010186bcb
:1634070089080001c34f90f80000090000000000a01c00000000be
:20341d000000000000c30000000000000000000000000000000000000000000000000010bc
:20343d00f060000000000000000000000000000000800000000001e39e0f540000008c74ba
:17345d003450000002702c0f0000007000000000000062c000000095
:20347400000000000c302000000000000000000000000000000000000000000000000000dc
:20349400000000000000000000000000000003078137280000a000007ea54000000007e341
:1634b4002c000002c35615a800408100daa8100000042000000087
:2034ca000000000000c300000000000000000000000000000000000000000000000000001f
:2034ea00000000000000000000000000000000000880c28004040000240aa400000000fa24
:17350a0056c0100006634ca5000000080183d500080026400000005b
:20352100000000000c3020000000000000000000000000000000000000000000000000002e
:2035410000000000000000000000000000000000083fbe80200000200000000100319932a8
:1635610081000202038d90f80000078f1aa8100060047c1ea000b1
:203577000000000000c300000300000000000000000000000000000000000000000000006e
:203597000000000000000000000000000000000000d043e800000004000000000007887016
:1735b7003d50000004643d0f000000008743e900040027ed050000ec
:2035ce00000000000c302060000000000000000100000000000000000000004000000000e0
:2035ee000000000000000000000000000001000781033000c4000406dea540100070e00010
:16360e00000000e1c00df0f81100018000000000001c22ed08004b
:203624000000000000c30000100400000000000000000000000000000000000000000000af
:203644000000000000000000000000000000000008e0430000000023660554000000000059
:173664000000000002382f0f0000000000000000000246eec00000e1
:20367b00000000000c302000000000000000000000000000000000000000000000000000d3
:20369b00000000000000000000000000000002800e18402000003674ea0f80040000b338f5
:1636bb000c0000026654e0f800010018000000000000344100804b
:2036d1000000000000c32000000000000000000000000000000000000000000000000000f6
:2036f1000000000000000000000000000000000000002c00000080420280f00040800db2da
:17371100d2c0004026300c0f040000000000000000040202900000c2
:20372800000000000c30200000000000000000000000000000000000000000000000000025
:20374800000000000000000000000000000380070072143000005428605a80380078e32bad
:16376800e000000267c5a0f803f008007757900e00806bc850c07b
:20377e000000000000c3200000000000000000000000000000000000000000000200000046
:20379e0000000000000000000000000000002000780900150000094004ca50020000907fdd
:1737be002d400000043c3c0f002100100f7a9504800402ac00550022
:2037d500000000000c30200000000000000000000000000000000000000000000000000078
:2037f5000000000000000000000000000000402019d204b00000206c6a0f8030087983629a
:1638150081000002000fc0f80000600016a940200200606812c038
:20382b000000000000c320000000000000000000000000000000000000000000000000009a
:20384b00000000000000000000000000000002000081be11000083c28190f0000000003c89
:17386b003d5000002c001d0f0000a000078028040000003e984410e4
:20388200000000000c302000000000000000000000000000000000000000000010000000ba
:2038a200000000000000000000000000000000219c5214300000366dca0f800000000b3b71
:1638c200d5000001e3c6e0f8000008001fb990804606034850c002
:2038d8000000000000c32000000000000000000000000000000000000000000008000000e5
:2038f8000000000000000000000000000000000501098015000001428390f000000000b016
:17391800141000000024390f000000100941690002b4002e005410fd
:20392f00000000000c3020000000000000000000000000000000000000000000000000001c
:20394f000000000000000000000000000000002000fa1430008006307b0f800000f1f03f1a
:16396f008900000267d6d0f80001000100295000a00001e850e07e
:203985000000000000c320000000000000000000000000000000000000000000000000003f
:2039a50000000000000000000000000000000000000100150000000402c0f000000b88376c
:1739c500345000020420380f00000100870169040000003c00540074
:2039dc00000000000c3020000000000000000000000000000000000000000000000000006f
:2039fc0000000000000000000000000000000000005a14300000246dfa0fa0000139cd329a
:163a1c0095000003e38fb0f80000000a000000002e80236850e06f
:203a32000000000000c320000000000000000000000000000000000000000000020000008f
:203a520000000000000000000000000000000000000900150000004200f0f000000790106d
:173a72002a9000002474280f00000001c00000000410002c0054005f
:203a8900000000000c302400000000000000000000000000000000000000000000000000bd
:203aa900000000000000000000000000000000019cfa143000000060fb0f800002f813a388
:163ac900d5000008039f90f8001021815f3e8000000679e850c09a
:203adf000000000000c3000000000000000000000000000000000000000000000000000004
:203aff00000000000000000000000000000000000101801500002003c1d0f00000474c34a5
:173b1f002810000804403c0f00000000b043e8400408003e00540403
:203b36000a0000000c302000000000000000000000000000000000000000000010000000f9
:203b560000000000000000000000000000010008197a143000801c61fa0f8010000009329e
:163b760095000a00004400080110000a0330008400a067e850c17c
:203b8c000040000000c3010000040000000000000000000000000000000000000800000009
:203bac0000000000000000000000000000000000108980150004000003d0f000000100788b
:173bcc001550004000200800000001f1004300000014422e00540008
:203be30001000021ac3020080000000000000000000000000000000000000000000000009c
:203c0300000000000000000000000000000000001ef21430000026646a0f800004801d30f9
:163c2300d0000010038c10080010000172143040030003c850e0ff
:203c39000010000250c32001000080000000000000000000000000000000000000000000a5
:203c590000000000000000000000000000000000000900151000026280c0f040002b0bf71c
:173c7900a9000000b4000f00040001f0f10015480024002c005440a1
:203c9000000000000c3023800000023c126000000000000000000000000000000000000085
:203cb000000000000000000000000000000380000172143000002e05ca0f80380000013eb7
:163cd000b4000000000c000803c000001214384e000003c850c0cc
:203ce6000000002400c3202000000043c10100000000000000000000000000000080000012
:203d060000000000000000000000e0000000300000c900150000024240d0f002030000b3b3
:173d26004bc0000c0000090000200000058015008000003c0055009b
:203d3d0000000001ac302001800000000000000000000000000000000000000000000000e8
:203d5d000000000000000000000000000000800019d2143000003668e05a8030048000008b
:163d7d0000000000078e100803000019521430000400674850c00e
:203d93000000000010c310000000000000000000000000000000000000000000000000002d
:203db30000000000000000000000000000000000008980150000014024da5000000b000038
:173dd3000000000000400a00003202f0818015040000022e005410bd
:203dea00090000000c302000500000000000000000000000000000000000000010000000f4
:203e0a0000000000000000000000000000000001815214300000267dea0f800000700000f4
:163e2a0000000200e004100800280181521430000006074850c0df
:203e40000040002400c320000000000000000000000000000000000000000000000000001b
:203e60000000000000000000000000000000000000898015000001668390f00000000000ba
:173e80000000004036000a0000000000858015040000023e005410e9
:203e9700000000000c302000000000000000000000000000000000000000000000000000af
:203eb7000000000000000000000000000000210000fa143000002035fb0f80010000c000ec
:163ed70000000000c38c0008000100007a143040020003e850c181
:203eed000000000000c32000000000000000000010000000000000000000000000000000c2
:203f0d000000000000000000000000000000000000090015000000420080f00000000000c4
:173f2d000000000034382e0000020000010015000000002c0054004b
:203f4400000000000c302400500000000000000000000000000000000000000000000000ad
:203f640000000000000000000000000000000000005a143000000c017a0fa0000070e00019
:163f840000000000c00c0008006840005a1430400000076850c04e
:203f9a000000000000c30000120000000000000000000000000000000000000000800000b2
:203fba0000000000000000000000e00000000000000900158000000001f0f0000000100078
:173fda000000000000002e000001000005001500040003fc0054042c
:203ff100000000000c30240000000000000000000000000000000000000000000000000050
:204011000000000000000000000000000000180980da143000000601fb0f800000780000c7
:1640310000000001c01e00080000081c5a1430400426036850c0eb
:204047000000000000c3000000000000000000000000000000000000000000000000000096
:20406700000000000000000000000000000001011409801500000003c390f000002000001f
:17408700000000081c002b0000000010018015000020402e00540447
:20409e00100000000c30310000000000000000010000000000000000000000001000000074
:2040be0000000800000000000000000000010008187a14304000206c400080100000e96a0c
:1640de009500000006c08f02010008187a143044002067e850c03e
:2040f4000000000000c30000000400000000000000000000000000000000000000000000e5
:2041140000000000000000000000e0000000000010098015000000520080000000001038e3
:174134002a900000007400f00000001005801500000043fe00541007
:20414b0004020687cc3020000000000000000000000000000000008000000000000386108c
:20416b00080000058000000000000000000000800072143000022600600080000070e1a177
:16418b000c001010039cd70000010001d2143800028003c850c8f7
:2041a10000b00c43f0c3010000000000000000000000000000000010000000000000402ecd
:2041c10000000000000000000000000000000000000f00151400026002b0004000201956c3
:1741e100d28001008062595800020000f70015110000000c00544022
:2041f800000003c4ac302008500000000000000000000000380000037be1800000069e9938
:204218006803800000000000002000000003800000721430000000706100800285f0113b2e
:16423800d400e0000040000003e820009214380e000003c850c0aa
:20424e000000007c00c3010100000000000000000000000002000000765410400000002dc6
:20426e0096002000000000000000000000002010000b00150200024400d0000000278f5804
:17428e0028004800003c000000200500038015018000003c0054108f
:2042a5000001e7cdac303000200000000000000000000000000000013abd000401605499ce
:2042c5006800000000000000000000000000002019521430000400384000800004b9c52afa
:1642e5008000c021f00000000300a819d21430000000674850e0b9
:2042fb000000023c10c3000004000000000000000000000000000000b81690508000282c0c
:20431b0096000000000000000000000000000000008f80150200000000800000002b0fb458
:17433b003e820c0024000000001001f0878015040000020e005400f6
:204352000100005eac312008404000000000000000000000003011800000000002001c99ef
:20437200680000000000000000000000000002018152143000000000c10080000000000068
:1643920000000a140035ca54000b0181d21430008146074850c0db
:2043a8004000003410c300010200000000000000000000000000008000000000003c002ac5
:2043c80096010000000000000000000000000000048b8015000003c002c000000180000014
:1743e800000000408000d0aa40010000838015010408023e00550089
:2043ff000000e705ec302000000000000000000000000000000080100000000003e00c896e
:20441f006a0000000000000000000000000000000e7a143000040005c000800000001000ee
:16443f0000000008061cdf8000280001fa143000010003e850c07b
:204455000000020030c300000000000000000000000000000000070a00000000003c280ecf
:2044750096000000000000000000000000000001000f0015000001c3c2c00000000008001e
:17449500000000800002597a00003800d70015010000000c00550035
:2044ac0000000206ec302028000000000000a000000000000018000000000000c2068c89ef
:2044cc0068000020000000000001000000000000005a143040002439e1008000383007fb41
:1644ec00e0000000e000000000280380da1430400000036850c076
:204502000000003020c300000000000000000400000000000000000000000000000c002f47
:2045220096000004000000000000000000000000000b0015000002e000a0000000008017a6
:174542009e8000000224000000000008030015000003c03c0054802b
:204559000001e20cac302000000000000000400000000000010000000000000000e75e8948
:20457900680000070000000000000000000000098e5a143040000001e100800000980bfc3d
:16459900940000000735ef5408008000da1430000026036850d0a2
:2045af000000000030c3000000000000000000000000000000000100000000000000742c58
:2045cf0096000000000000000000000000000000100f80150000040382c0000000870012a0
:1745ef00438000000442d0a040010000078015010000400e005400bc
:2046060000004041cc302000400000000000400000000000100201a5e915020008e7148933
:2046260068010003807ba9502000000000010008187a14304000160408f000000071c00092
:164646000000400003dfca5411000b98fa143004002063e850c0ad
:20465c000000023410c300002a0000000000000000000000000050407654501001402c09db
:20467c0096000400080101410000000000000000100b801540000802800f00900009900087
:17469c00000000000076705540000018038015010000427e005500c6
:2046b300000000000c302000000000000000004003cdc5500000000bfe95800002000699a7
:2046d3006800000000000000000000000000000000f2143000000601de25004000d00161ad
:1646f3000c0100000217c5200009000072143000000001c850e0ee
:204709000010000000c300000000000000000000003d9cb48000000037aad0400014240e79
:2047290096040000000000000000000000000001000b00151100002376f0e000000d80525c
:17474900e14000003c2c6bc108030100030015510002400400544055
:20476000000000000c302000000072f5002e000000000000380000000000000401670e890d
:20478000680380081eff38102000000000038000007214300e000071cbfc00380058c52f9e
:1647a000e001e4000024bf8003810000f214300e400001c850d0ea
:2047b6000000000000c3000000000d3c5c00800003c000000200000000000000200c402f9b
:2047d600960020005109bbd50000600000002030000f0015008000043fe78012000080167d
:1747f6001e8008a03400db7a082000000f0015448800002c00540045
:20480d00000000000c302000238100000000000000000000000000000000000004000689f8
:20482d00680000059af67290000000000000000019d214300c000061dca040300071833bb5
:16484d00d400c0000604ef5007190019521430000400654850c0e8
:204863000000000000c300000408d00000000000000000000000000000000000000000296d
:2048830096080000000f7b052000000000000000008b801500000000250f54030000801489
:1748a300140004002c3cf05000310200838015040000020600550092
:2048ba00000000000c302000000000000000000000000000000000100000000000001c89cd
:2048da006800000000fab81000000000000000018052143000000002e8a5400100000103a9
:1648fa009d0800056040ce2420000181d21430000006014850c055
:204910000000000000c3000010000000000000000000000000000009000000000000002d7e
:20493000960000000009fbd54400080000000000000f8015040000000f055400200000304c
:1749500020500000823a40d1400000008f8015010000002e0055002b
:20496700000000000c302000000000000000000078000000000000000000000002068e893d
:204987006800000000000000000000000000000000fa14304100000058a040000070000081
:1649a7000000000000000000000008007a143040000021e850e0bb
:2049bd000000000000c300000000000000000000000000000000000000000000002c002cbf
:2049dd0096000000000000000000000000000000000b001500100000250f548000000a00e2
:1749fd00000000003c30000000000230030015000000040400540091
:204a1400000000000c3020005000000000000000000000000000580bfb2d06000046c499a2
:204a34006800000000fbb8102000000000000000415a143000a00423e8a501000001e00002
:164a5400000000006017ef5400000000da1430400000016850e09b
:204a6a000000000000c3000000000000000000600000000000000900f39094000800280eab
:204a8a0096000000d009fbd5000000000000000000cf00150104e0273d0550000005100036
:174aaa0000000000000250a0400400000f0015000000002c0054001b
:204ac100000000000c30201003800000000000003bccca418000800dfea1000023475c89d9
:204ae100680000080af63150400000000000000981fa1410000000641ee242800001d000e5
:164b010000000000004000000002899c5a143000002601e85048f2
:204b17000000000000c300028008000000000003c03dfc14040005003fa95040003e700ee4
:204b370096000000310f6b2d000000000000000010bb8015010003c6250d14000000580028
:174b57000000000000200000000000110380150104c040060054001f
:204b6e00000000000c302000000000000004a0003800000010001010000000000ae0069936
:204b8e006a0100018cfe381060000000000100080100000004a026040000001000000b7600
:164bae00b4004aa00685825001000819fa14304406200400000028
:204bc4000000000000c300000000c00000000400000000000000000f00000000017c000cb2
:204be400960000000809bbd500000000000000001080000000000243800000000000009b8a
:174c040047c0404000416b0e08000010cf801500000042000000009a
:204c1b00000800000c302000000000000000000000cac540800000000000000014601e89ab
:204c3b00680800000d1859a2000000000000000800b68190200000054e0300000001a000e3
:164c5b0000000000e000000000001001f2143000002001daa5106c
:204c71000001400000c300000000000000000000002fecb510000000000000000082000eaf
:204c91009604000000f0319800000000000000001003200d040000025fb870800000100053
:174cb100000000004200000000000200e5001554000040070aa080e9
:204cc800000000000c30200000000000000e0000000000003800000faf45000001e0468977
:204ce8006800000f801a25a000000000000380004e0000000e0e20014ead003800800df216
:164d08009500e00142c0000003c08380f214380000000000000019
:204d1e000000000000c30000000000000000800000000000020000003af4d0100000282fcb
:204d3e009600000078002a58000000000000200001000000008001c036f3d082000b00f0ed
:174d5e002a90080002780000002000080100150000000000000000c4
:204d7500100800000c302000000000000000000004000000000010000000000008000c89f9
:204d95006800000b1e7225a000000000000000500e0000000c000066daa540300000000077
:164db5000000c0000027ea0401000019d2143000000020000000c3
:204dcb000141400000c3000000000000000000000380000000000080000000000040002f11
:204deb0096000000f100ae58000000000000000001000000000000022c0aa403000000003b
:174e0b0000000c003c2ec0f5401000008580150400000000000000f7
:204e2200000000000c3020000000000000000040000000000000001000000000006796992e
:204e420068000050005225a000000000000000080000000000000002c8f54000001000006a
:164e6200000000020780000000100380d2143000002004000000e4
:204e78000000000000c3000000000000000000000000000000000009000000000002000844
:204e980096000000000026580004000000000000f000000000000240170a0400000080000b
:174eb800000000002c400000000280080180150400404300000000d0
:204ecf00000000000c30200000000000000000007c00000000005800000000005a06849916
:204eef00680000000c3265a800000000000040010000000000000e60000000000000000041
:164f0f0000000000003d8f5400000000fa1430000000017aa520ee
:204f25000000000000c300004000000000000100034000000004000000000000a0cc000baa
:204f4500960000400100ba58000000000000004000000000000100c78000000004000000d7
:174f6500000000100002d0a04000400005001501010000350550800d
:204f7c00000000000c302000000000000000000000000000028010000000000000068e99fa
:204f9c0068000003001265a80000000000000008000000000080206000000000008001f2f0
:164fbc00958000000017ca5408028180da1410400000000000004c
:204fd2000000000000c3000000000000000000000000000000000080000000000034000f39
:204ff200960000001800b2580000000000000000b000000000000242400000000003009020
:175012002a900000002070554000000003002900000000000000007c
:2050290000c000000c302000000000000000001e0000000000000003b79100000162ce9918
:2050490068000000007a65a0000000000000000000763e806010063cdd3000007100a0005c
:16506900000000140736af540800898000000000000000000000cc
:20507f000000000000c300000000000000000000000000000000000053fe10100014682e33
:20509f009600000000803a580000000000000000700043e8000000224fc7801000000000e6
:1750bf00000000015c42d0a040002010000000000000020000000059
:2050d600000000000c302004000000000004100000000000104000800000000409404c8954
:2050f60068100403087a65a0000e0000000104000002b00084100003d8f5401040001000cb
:16511600000045000007ca540904080000000000b0000000000054
:20512c000000000000c300000004000000000000000000000000005000000000015e280eb7
:20514c00960000009800b25800000000000000000000430080000000160a040800000d000f
:17516c00000000a01c0170aa40000010000000000400000000000001
:2051830000000000000000000000f214301000000000000004000000000000000142968960
:2051a30068000800017265a00000000000000020000000000000000000000000007005b1be
:1651c300c0200002079caa00802000000000000000000000000007
:2051d900000000000000000000000b00150800014000000000000000000000000002400efd
:2051f9009604010000f0ba581000000000000004009000000000200000000000000009b379
:17521900d60000003c0340f500000000000000000000000000000034
:2052300000000000000003800001f21430000016000000003a8018000000000001e00c8946
:2052500068000000001225a000000000000000000000000000001c000000003800000000ab
:16527000000000000000000003800001f6a91000000000000000f5
:2052860000000100000000200000ff00152000034000000002000080000000000000002fbf
:2052a600960000000000be580000000000000000000000000000000000000002000000003a
:1752c600000000000000000000200000d53dd10000000000000000ce
:2052dd0000000000000000000001d214300000366c0000000000001bbf9d800001e0048993
:2052fd0068000003007265a000000000000000000000000000000038000000340000092a10
:16531d00810000020204ef5010000000f6a95000000000000000b3
:20533300000000000000000000008b80152000014280000000000009532852500001002f01
:20535300960000180000b6580000000000000000000000000000000000000000400f00d05f
:175373003e9000001c0370a00000000009fc99000000000000000088
:20538a00000000000000000001819a14380000200400000000041013eb158000014296995e
:2053aa0068000000005225a000000000000040000017140620014000000000000091e00021
:1653ca0000000000000ee50214200b800000000000000000000019
:2053e000000000000000000000008f8015000001428000000001808972f1d010403640289b
:205400009600000000003e5800000000000000000000c1400000000000000000000f9000c0
:175420000000000000003050090018d880000000000000000000007c
:2054370000000000000000000000fa1438000000014aa0000000000f679100000000449940
:20545700680000000c3225a8000000000000000000000000000000027ead000000501973b9
:16547700d50000000000000000000000000000000000000000004a
:20548d00000000000000000040000b001500000000020a000004000032be10501000280ef9
:2054ad009600004001d0b658000000000000004000000000000100003cb2f20004000854a9
:1754cd00141020100000000000004000000000001100000000000023
:2054e40000000000000000004001da143800001e034a1a0200027803ef15000a140016996c
:2055040068000009003a25a0000000000000000001000000000c0000000000000001a00069
:1655240000000000663caa500000000000000000000000000000d5
:20553a0000000000000000000200af0015000000201600000000818072f1d0500040000f82
:20555a009600000038903e58000000000000000000b000000000000000000000000000008d
:17557a00000000000020d0aa00000800000000000000000000000078
:2055910000000000000000200980da143000000e03782002000000000000000001669e93f0
:2055b10030000000003a25a000000000000000200000000000400000000000004001e0002a
:1655d10000000102e24000000028418d00000000000000000000a9
:2055e700000000000000000000100b8015200001e006000000000900000000000000294f6c
:20560700cc00000000d0365800000000000000040000000000020000000000000020000033
:175627000000000006200000000002008000000000000000000000c4
:20563e0000000000000001040819fa1430000000004f080012c00000000000010166c00097
:20565e000000040100023c000000000000000400000000000050206800000010405807a2bc
:16567e00810201000024aa5001040000000000001200000000005d
:2056940000000000000000002810af8015800000001cc00010000000000000000094280052
:2056b40000000000000003c0000408000000000000000000000201400000000000000014b0
:1756d4003d5000000002d0aa000000000000000000000000000000b6
:2056eb0000000000000000038180f2143000000000000000000031b7643e000001c024fcfa
:20570b00548000000000000000000000000000000000000000000005caf80000005001682a
:16572b0014020000000000000000000000000000002605f8f741f7
:2057410000000000000000000000090015300000038000000000070f0643c000081629c948
:20576100c7404000d00000000000000000000000000000000000200265b7a00800008000ab
:17578100014010060000000000000000a0000000000042148fa40c85
:20579800000000000000038040011a141000000002e9fd00000001f1383e80e000001f8e92
:2057b80044038800000000000080010000000003000000000000000000000000008005e217
:1657d8009405e0000015ca5403cbd00012a8004e001600dba44094
:2057ee0000000000000000202a00918029200000003faad00000001d0bc3c0080e14384ee3
:20580e00f84061000000000000000000000002800000000000000000000000000003003824
:17582e002a800800000170aa502002000082800080000006d7e400e1
:2058450000000000000000100000000000000436000c0f0080045815303e00000002a4fcdd
:2058650054008000007b3918200000000000000000000000000000740000000100000000ee
:165885000000c000070000000000050000000000001601c1244005
:20589b0040100000000000028000000000000001402c00f0000200080e03c000000001cc16
:2058bb00c7494000000323d1000000000000000000000000000000078000000000000000ff
:1758db000000000014000000000028000000000000000024fbd40087
:2058f2000800000000000008000000000000000003e9fd000280581f016a000001401e8e4c
:205912004400205000000000000000000000018000f7e00000000000000000040078e0000d
:1659320000000000000000000003800000000000000e00000000ce
:2059480000000000000000010000000000000003c03faad000000008fa2940000000005ef9
:20596800f86040000400000000000000000000000007a0002000000000000000400d9000df
:17598800000000000000000000000000000000000000000000000008
:20599f000000000000000003800000000000000e055ca000000000e7856a0000000024ec70
:2059bf0054000001807fb914200000000000038000000000000000000000000400180000e8
:1659df0000000010000000000000000000000000000000000000a2
:2059f50000000000000000000000000000000000021500000000071e32a94000080001c86a
:205a1500c7604000dc0363d160000000000000000000000000000000000000000000000097
:175a350000000000800000000000000000000000000002c000000018
:205a4c000000000000000008400000000000004062e9a100000138e7b43e000000001faee7
:205a6c00441000000000000000000000000000000000000000000000000000000001800045
:165a8c0000000000000000000000000173a80000000020000000c8
:205aa2000000000000000001020000000000000346fda010000000190703c000060c004ea8
:205ac200f84040180000000000000000000000000000000000000000000000000000000034
:175ae200000000000024000000000000804280000004000000000043
:205af90000000000000000000800000000000e0029fbc1004000f195f03e0000000000009e
:205b1900000000000000000000000000000000001e0000000000000000000000000000004e
:165b390000000000000000000000070ef7bcd4800000000000003a
:205b4f00000000000000000000100000000000200426e8000000018c0e83c0000014000002
:205b6f000000000004000000000000000000000001000000000001c0000000000000000050
:175b8f000000000000000000000000110b03ed0000024000000000b1
:205ba600000000000000010800000000000000142bc9a11000009987f03e004000e01eaee3
:205bc6004501000801000000000000000000000f80000000000000000000000000000de2f2
:165be6009400400000000000012800000000000400202000000068
:205bfc0000000000000000011800000000000000263fa010000001090e43c0000000005ee2
:205c1c00f8404000109000000000000000000000f80000000000000000000000000000b0a8
:175c3c002a8200000000000000010070000000000000c40000000070
:205c5300000000000000000100003bbc2000406004000000000001a5303e000001c645c88d
:205c7300008000001e976008100080000000000000000000000000000000000800000d6e61
:165c93009500000007c0000000000180ff814200002001dff080ec
:205ca9000000000000000000009000b03c000a0142800000000000000703c1000034227cf5
:205cc9000008400001adb000040010000000000000000000000000000000000000030013eb
:175ce9004550000000680000000000080b42bc2400024002b0f0107e
:205d000000000000000000000500123c20000000005da4003a000007783e00000007000011
:205d2000000000001cf7c200000000000000000000000000000000000000003800800b2aa1
:165d40009d80020006c000000000000000000000000000c8aa8076
:205d560000000000000000000008b0003c000000000ca8000a0000000643c0000000000072
:205d760000000000500bb80000400000000000000000000000000000000000020001003f78
:175d960016900000006400000000000000000000000000020aa01030
:205dad00000000000000000000001a3c2000001602da81000000800023c1020003439dc0e4
:205dcd00800040000000000000000000000040400000000001000000000000000081872e3f
:165ded00150000020300aa000000000013a94200004000c8aa80ac
:205e03000000000000000000000000003c000000000c941008000100003c100000ac016d24
:205e2300000004200000000000000000000004000000000000100000000000000001001b0b
:175e4300d1d0000014024050000000000b002861000800020aa010a9
:205e5a00000000000000000000001a3c2000402000efa0000004000000000000020725dfb2
:205e7a00f0000000180000000000400000000080000000000000000000000000008008298f
:165e9a00410200014025a5e00000000000000000000078e8aa803a
:205eb0000000000000000000100000803c000a01c00ca90000002000000000000625424faa
:205ed000ef000000000000000000000000000000000000000000001000000000000700b4f8
:175ef00028324000022e6a2e0000000000000000000004000aa0107b
:205f0700000000000000000300007a3c2000001c00000000000001e00000000000000000a4
:205f27000000000980000000000e0000000000000000000000000000000000000018103368
:165f4700c180000000168a001400000180168000000028e8aa80fe
:205f5d000000000000000000003000003c0008000000000000000d0000000000803c3800af
:205f7d000000000090c00000000000000000000000000000000000000000000000000a00aa
:175f9d003c180000000030a000800000fb029404000002800aa01078
:205fb400000000000000000010083a3c200000200000000000000000000000000046400079
:205fd400000000051813028000000000000000000000000000000000000000000059e000c2
:165ff4000000000000158a000010000000000000001428e8aa8199
:20600a00000000000000000000b0c0803c000003c000000000000000000000000006280059
:20602a0000000000f900c028000000000000000000000000000000000000000000000f0066
:17604a0000000000000030a000020000b0000000000142820aa0004e
:20606100000000000000000020007a3c2000001400000000000518000000000000e024a054
:20608100800010001973100080a000000000000000000000000000000000000000001000a3
:1660a10000000000000000000000880000000000000000e8aa814e
:2060b7000000000000000000053000803c0000002000000000000000000000000200274e41
:2060d7000000008001b38000000400000000000000000000000000000000000000000800e9
:1760f70000000000000000000000007000000000000002c20aa000b4
:20610e00000000000000000000013a3c20000000015dbf00110000e000000000100035c4c3
:20612e00002000098036600000000000000000000000000000000000000000100000c00042
:16614e000000000000000000000000000000000100000048aa81c7
:2061640000000000000000000030e0003c0000a0000caa70082800500000000000803d705c
:2061840000000000980f240000000000000000000000000000000000000000001000100010
:1761a4000000000000000000000000f0f0000000100340000aa00007
:2061bb00000000000000000000003a3c20000140075dfd0000003800000000000243e481aa
:2061db008000000000000000002000000000000000000000004000000000000000000000c4
:1661fb0000000002001d8e24000000003296800000006948aa809a
:206211000000000000000000000000803c10006243edcad00000000000000000000c3158e0
:206231002c00001000000000000000000000000000000000000a0000000000000000000007
:1762510000000000042be8a1400000b00742a800000004000aa0509f
:206268000000000000000000000e3a350000000001cca0000000000dbfdc0000020076e824
:2062880000038800000000000000000000000000000000000000000000000000000000006b
:1662a8000000e000660000000380080e00000000001c6809cc8028
:2062be00000000000000000000010db85c00000000000a0200000000d33fc000000c32fa88
:2062de00000021180000000000000000000000000000000000000000000000000000000067
:1762fe0000000800340000000020001100000000000020009cc01090
:2063150000000000000000000100000000000020617c5f00000000016b9c880000021ca8b5
:20633500002000000000000000000000000080000000000000000001de5500000000000074
:166355000000000002800000000000001a968000002039c8aa8035
:20636b0000000000000000000000900000000001403e0ff010000000303ec00000247b70b7
:20638b0000010000000000000000000000000000000000000000000000055080000000001c
:1763ab00000000002400000000000000cbc15400000144000aa010d8
:2063c20000000000000000000000000000000000604a5a00800238100000000003c2000028
:2063e200000000200003bc10000000000000000000000000000000000000000000000000ac
:1664020000000000007cca5400002780062590c000163968aa80e7
:2064180000000000000000000000900000000000020105a01000578c00000000002c4000cd
:2064380000000000000043c100000000000000000000000000000010000000000000000030
:1764580000000000003cea26400004000001a520000024000aa010f9
:20646f000000000000000000878000000000000000000000000080000000000000023fa89d
:20648f00000000000003bc10000000000000400000000000000000000000000000000000de
:1664af000000000006000000000001010283c04000000048aa81d7
:2064c50000000000000000000000000000000000c000000000000b00000000000000006983
:2064e50000000000000003c1000000000000040000000000000000000000000000000000cf
:17650500000000003c40000000000000c0403c00000000020aa0001b
:20651c000000000000000000070e7ffcc0000024380000000000700000000000000706e84e
:20653c00002000010007bc1000000000000002a000000000000000000000000000000000a9
:16655c0000000000e25e8f04080000000000000000000148aa81da
:2065720000000000000000000008e3a40c000000c24000000000008000000000000002e00a
:2065920000000018000043c1000000000000000100000000000000000000000000000000cc
:1765b200000000000263d0f5400000000000000000e000020aa000dc
:2065c90000000000000000000000df388000008468000000000058000000000001e780006f
:2065e900000000081a073c1000000000000008000000000000000000000000000000000015
:1666090000000000062fa054000003800000000000200068aa811c
:20661f000000000000000000001007aa2c00001404000000000000800000000000003c009a
:20663f0000000000710003c1000000000000010000000000000000400000000000000000c5
:17665f00000000000022f0af4000000800000000000140000aa00030
:206676000000000000000000039a000000000000005a5a0081000000000000000000000032
:20669600000140000e00000000000000000000000000000000000000000000000000000095
:1666b60000004000601595a5010020001697c00000000168aa81bd
:2066cc0000000000000000000008000000000000000305a0000800000000000000003800be
:2066ec00000000000100000000000800000000000000000000000240000000000000000043
:17670c00000000000002e95b400004000d002800000000020aa0000b
