:02000000ff00ff
:080002004c6174746963650030
:17000a00694345637562653220323032302e31322e32373934330071
:15002100506172743a2069434534305550354b2d53473438002c
:1a003600446174653a204f6374203320323032342032313a34363a353900a8
:0200500000ffaf
:040052007eaa997e6b
:02005600510057
:020058000105a0
:03005a00920020f1
:03005d006202b389
:03006000720150da
:0300630082000018
:02006600110087
:02006800010194
:20006a00000000000000000000000010000000000000400000000000010000000000000421
:20008a000000000000001000000000000040000000001000000000000040000000000001b5
:1600aa0000000000000004000000000000100000000000004000ec
:2000c0000000000000000000000000020000000000000800000000000020000000000000f6
:2000e00080000000000002000000000000080000000002000000000000080000000000006c
:1701000020000000000000800000000000020000000000000800003e
:200117000000000000000000000000000000000000000000000000000000000000000000c8
:200137000000000000000000000000000000000000000000000000000000000100000000a7
:160157000000000000000000000000000000000000000000000092
:20016d00000000000000000000000000000000000000000000000000000000000000000072
:20018d00000000000000000000000000000000000000000000000000000000000000000052
:1701ad0010000000000000000000000000000000000000000000002b
:2001c40000000000000000000000000000000000000000000000000000000000000000001b
:2001e4000000000000000000000000000000000000000000000000000000000000000000fb
:1602040000000000000000000000000000000000000000000000e4
:20021a000000000000000000000000000000000000000000000000000000000000000000c4
:20023a000000000000000000000000000000000000000000000000000000000000000000a4
:17025a0000000000000000000000000000000000000000000000008d
:2002710000000000000000000000000000000000000000000000000000000000000000006d
:20029100000000000000000000000d0000000000000000000000000000000000000004003c
:1602b1000000000000000000000000000000000000000000000037
:2002c700000000000000000000000000000000000000000000000000000000000000000017
:2002e7000000000000000000000000000000000000000000000000000000000020000000d7
:170307000000000000000000000000000000000000000000000000df
:20031e000000000000000000000000000000000000000000000000000000000000000000bf
:20033e000000000000401000000000000000000000401000000000010040000000000800b6
:16035e000000000000000000000000000000000000038000000006
:20037400000000000000000000000000000000000000000000000000000000000000000069
:20039400000000000000000000000000000000000000000000000000000000000000000049
:1703b40000000000000000000000000000000000000008000000002a
:2003cb00000000000000000000000000000000000000000000000000000000000000000012
:2003eb00000000000000000000000000008010000000000000000000000000000000000062
:16040b00000000000000000000000000000000000000000040009b
:200421000000000000000000000000000000000000000000000000000000000000000000bb
:20044100000000000000000000000000000400000000000000000000000000000000000097
:1704610000000000000000000000000000000000000000000c000078
:20047800000000000000000000000000000000000000000000000000000000000000000064
:20049800000000000000000000000000000000000000000000000000000000000000000044
:1604b800000000000000000000000000000000000000000000002e
:2004ce0000000000000000000000000000000000000000000000000000000000000000000e
:2004ee000000010000000000000000000000010000000000000400000000000000000000e8
:17050e000000000000000000000000000000000000000000000000d6
:200525000000000000000000000000000000000000000000000000000000000000000000b6
:20054500000000000040000000000000000000000040000000000003000000000000000013
:160565000000000000000000000000000000000000000000000080
:20057b00000000000000000000000000000000000000000000000000000000000000000060
:20059b000000000000400000000000000000000000400000000000000000000000000000c0
:1705bb00000000000000040000000000000000000000000000000025
:2005d200000000000c302000000000000000000000000000000000000000000000000000ad
:2005f2000000000000000000000000000000000000000000000000000000000000000000e9
:1606120000000000000000000000000000000000000000000000d2
:200628000000000000c30000000000000000000000000000000000000000000000000000ef
:20064800000000000000000000000000000000000000000000000000000000000000000092
:1706680000000000000000000000000000000000000000000000007b
:20067f00000000000c302000000000000000000000000000000000000000000000000000ff
:20069f0000000000000000000000000000000000000000000000000000000000000000003b
:1606bf000000000000000000000000000000000000000000000025
:2006d5000000000000c3000000000000000000000000000000000000000000000000000042
:2006f5000000000000000000000000000000000000000000000000000000000000000000e5
:170715000000000000000000000000000000000000000000000000cd
:20072c00000000000c30200000000000000000000000000000000000000000000000000051
:20074c0000000000000000000000000000000000000000000000000000000000000000008d
:16076c000000000000000000000000000000000000000000000077
:200782000000000000c3000000000000000000000000000000000000000000000000000094
:2007a200000000000000000000000000000000000000000000000000000000000000000037
:1707c200000000000000000000000000000000000000000000000020
:2007d900000000000c302000000000000000000000000000000000000000000000000000a4
:2007f9000000000000000000000000000000000000000000000000000000000000000000e0
:1608190000000000000000000000000000000000000000000000c9
:20082f000000000000c30000000000000000000000000000000000000000000000000000e6
:20084f00000000000000000000000000000000000000000000000000000000000000000089
:17086f00000000000000000000000000000000000000000000000072
:20088600000000000c302000000000000000000000000000000000000000000000000000f6
:2008a600000000000000000000000000000000000000000000000000000000000000000032
:1608c600000000000000000000000000000000000000000000001c
:2008dc000000000000c3000000000000000000000000000000000000000000000000000039
:2008fc000000000000000000000000000000000000000000000000000000000000000000dc
:17091c000000000000000000000000000000000000000000000000c4
:20093300000000000c30200000000000000000000000000000000000000000000000000048
:20095300000000000000000000000000000000000000000000000000000000000000000084
:16097300000000000000000000000000000000000000000000006e
:200989000000000000c300000000000000000000000000000000000000000000000000008b
:2009a90000000000000000000000000000000000000000000000000000000000000000002e
:1709c900000000000000000000000000000000000000000000000017
:2009e000000000000c3020000000000000000000000000000000000000000000000000009b
:200a00000000000000000000000000000000000000000000000000000000000000000000d6
:160a200000000000000000000000000000000000000000000000c0
:200a36000000000000c30000000000000000000000000000000000000000000000000000dd
:200a5600000000000000000000000000000000000000000000000000000000000000000080
:170a7600000000000000000000000000000000000000000000000069
:200a8d00000000000c302000000000000000000000000000000000000000000000000000ed
:200aad00000000000000000000000000000000000000000000000000000000000000000029
:160acd000000000000000000000000000000000000000000000013
:200ae3000000000000c3000000000000000000000000000000000000000000000000000030
:200b03000000000000000000000000000000000000000000000000000000000000000000d2
:170b23000000000000000000000000000000000000000000000000bb
:200b3a00000000000c3020000000000000000000000000000000000000000000000000003f
:200b5a0000000000000000000000000000000000000000000000000000000000000000007b
:160b7a00000000140075f50c00000000000000000040000000009b
:200b90000000000000c3000000000000000000000000000000000000000000000000000082
:200bb000000000000000000000000000000000000000000000000400000000000000000021
:170bd000000000000030dd0540800000000000000008000000000034
:200be700000000000c30200000000000000000000000000000000000000000000000000092
:200c07000000000000000000000000000000000000000000000000000000000000000000cd
:160c27000000e000003c850c00000000000000000000000000000a
:200c3d000000000000c30000000000000000000000000000000000000000000000000000d4
:200c5d00000000000000000000000000000000000000000000000000000000000000000077
:170c7d00000008000001400540400000000000000000000000000092
:200c9400000000000c302000000000000000000000000000000000000000000000000000e4
:200cb400000000200000000000000000000000000000000000000000000000000000000000
:160cd400000040020674850c0000000000000000000000000000bd
:200cea000000000000c3000000000000000000000000000000000000000000000000000027
:200d0a000000000400000000000000000000000000000000000000000000000000000000c5
:170d2a00000004000420e005408000000000000000000000000000e5
:200d4100000000000c30200000000000000000000000000000000000000000000000000036
:200d6100000000000000000000000000000000000000000000000000000000000000000072
:160d8100000000006074850c0000100000000000000000000000e7
:200d97000000000000c3000000000000000000000000000000000000000000000000000079
:200db70000000000000000000000000000000000000000000000000000000000000000001c
:170dd700000000001c216005404000000000000000000000000000e3
:200dee00000000000c30200000000000000000000000000000000000000000000000000089
:200e0e000000000000000000000000000000000000000000000000000000000000000000c4
:160e2e0000000000003e850c0000000000000000000000000000df
:200e44000000000000c30000000000000000000000000000000000000000000000000000cb
:200e640000000000000000000000000000000000000000000000000000000000000000006e
:170e8400000000000000c00540400000000000000000000000000012
:200e9b00000000000c302000000000000000000000000000000000000000000000000000db
:200ebb000000000000000000000000000000004000000000000000000000000000000000d7
:160edb00000000000036850c00000000000000000000000000003a
:200ef1000000000000c300000000000000000000000000000000000000000000000000001e
:200f11000000000000000000000000000000000200000000000000000000000000000000be
:170f3100000000003429400540400000000000000000000000000087
:200f4800000000000c3020000000000000000000000000000000000000000000000000002d
:200f6800000000000000000000000000000000000000000000000000000000000000000069
:160f8800000000006036850c00000000000000000000000000002c
:200f9e000000000000c3000000000000000000000000000000000000000000000000000070
:200fbe00000000000000000000000000000000000000000000000000000000000000000013
:170fde00000000000000e00540400000000000000000000000000097
:200ff500000000000c30200000000000000000000000000000000000000000000000000080
:201015000000000000000000000000000000000000000000000000000000000000000000bb
:1610350000004002063e850c002800000000000000000000000066
:20104b000000000000c30000000000000000000000000000000000000000000000000000c2
:20106b000000000000000000000000000000000000000000000000000000000000800000e5
:17108b00000000060429600540400000000000000000000000000036
:2010a200000000000c302000000000000000000000000000000000000000000000000000d2
:2010c20000000000000000000000000000000000000000000000000000000000000000000e
:1610e20000000000003c850c040000000000000000000000000027
:2010f8000000000000c3000000000000000000000000000000000000000000000000000015
:201118000000000000000000000000000000000000000000000000000000000000000000b7
:17113800000000000000400544000000000000000000000000000017
:20114f00000000000c30200000000000000000000000000000000000000000000000000024
:20116f00000000000000000000000000000000000000000000000000000000000000000060
:16118f000000e002003c850c00000000000000000000000000009b
:2011a5000000000000c3000000000000000000000000000000000000000000000000000067
:2011c50000000000000000000000000000000000000000000000000000000000000000000a
:1711e500000008001401400540400000000000000000000000000011
:2011fc00000000000c30200000000000000000000000000000000000000000000000000077
:20121c000000000000000000000000000000000000000000000000000000000000000000b2
:16123c000000c0000674850c0000080000000000000000000000c9
:201252000000000000c30000000000000000000000000000000000000000000000000000b9
:2012720000000000000000000000000000000000000000000000000000000000000000005c
:1712920000000c0000206005500000b00000000000000000000000b4
:2012a900000000000c302000000000000000000000000000000000000000000000000000c9
:2012c900000000000000000000000000000000000000000000000000000000000000000005
:1612e900000000026074850c000000000000000000000000000088
:2012ff000000000000c300000000000000000000000000000000000000000000000000000c
:20131f000000000000000000000000000000000000000000000000000000000000000000ae
:17133f0000000000142160054040000000000000000000000000007d
:20135600000000000c3020000000000000000000000000000000000000000000000000001b
:201376000000000000000000000000000000000000000000000000000000000000000078df
:161396003c010000003e850c0000500000000000000000000000e5
:2013ac000000000000c300000000000000000000000000000000000000000000000000005e
:2013cc00000000000000000000000000000000000000000000000000000000000000000001
:1713ec0003c030000000400540400000000000000000000000000032
:201403000a0000000c30200000000000000000000000000000000000000000000000000063
:20142300000000000000000000000000000000000000000000004000000000000000000069
:16144300000000000036850c0008000000000001000000000000c3
:201459000040000000c3000000000000000000000000000000000000000000000000000070
:20147900000000000000000000000000000000000000000000000000000000000000000053
:17149900000000000001400540400000000000001000000000000066
:2014b000000000000c30200000400000000000000000000000000000000000000000000080
:2014d0000000000000000000000000000000000000000000000000000000000000000000fc
:1614f0000000000263b6850c0000000072be80000000000000008a
:201506000000000000c3000000000000000000000000000000000000000000000000000002
:201526000000000000000000000000000000000000000000000000000000000000000000a5
:171546000000000004006005404000300003e800000000000000008a
:20155d00000000000c30200000000000000000000000000000000000000000000000000012
:20157d0000000000000000000000000000000000000000000000000000000000000000004e
:16159d0000004002063e850c000000000000000000000000000021
:2015b3000000000000c3000000000000000000000000000000000000000000000000000055
:2015d30000000000000000000000000000000000000000000000000000000000000b0000ed
:1715f3000000000004016005404000000000000000000000000000f7
:20160a00000000000c30200000000000000000000000000000000000000000000000000064
:20162a000000000000000000000000000000000000000000000000000000000000000000a0
:16164a0000000000003c850c0800018f7303e000000000000000cf
:201660000000000000c30000000000000000000000000000000000000000000000000000a7
:2016800000000000000000000000000000000000000000000000000000000000000000004a
:1716a000000000000000c0054400000080383c0000000380000000b3
:2016b700000000000c302000000000000000000000000000000000000000000000000000b7
:2016d7000000000000000000000000000000000000000000000000000000000000000000f3
:1616f7000000e000003c850c08000f0e3a83e00e00000000000060
:20170d000000000000c30000000000000000000000000000000000000000000000000000f9
:20172d0000000000000000000000000000000000000000000000000000000000000000009c
:17174d0000000800000140054000001000e03c00800000000000004b
:20176400000000000c30200000000000000000000000000000000000000000000000000009
:20178400000000000000000000000000000000000000000000000000000000040000000041
:1617a4000000c0000674850c0800071c7f03e004000000000000d3
:2017ba000000000000c300000000000000000000000000000000000000000000000000004c
:2017da000000000000000000000000000000000000000000000000000000000000000000ef
:1717fa00000004000020e0054000000100243c0040000000000000ee
:20181100000000000c3020000000000000000000000000000000000000000000000000005b
:20183100000000000000000000000000000000000000000000000000000000000000000097
:16185100000000026074850c0000019d76c3e0000c000000000057
:201867000000000000c300000000000000000000000000000000000000000000000000009e
:20188700000000000000000000000000000000000000000000000000000000000000000041
:1718a700000000002c2160056100000180fc3c00000000000000005e
:2018be00000000000c302000000000000000000000000000000000000000000000000000ae
:2018de000000000000000000000000000000000000000000000000000000000000000000ea
:1618fe0000000000007e850c1000038a7056a000001c000cf0406a
:201914000000000000c30000000000000000000000000000000000000000000000000000f0
:20193400000000000000000000000000000000000000000000000000000000000000000093
:17195400000000100034c0054000000805a29400000000000f0000e1
:20196b00000000000c30200000000000000000000000000000000000000000000000000000
:20198b0000000000000000000000000000000000000000000000000000000000000000003c
:1619ab00000008020036850c1000039b5856a000000070000000e9
:2019c1000000000000c3000000000000000000000000000000000000000000000000000043
:2019e1000000000000000000000000000000000000000000000000000000000000000000e6
:171a0100000000402401400540002850a936940000000400000000f5
:201a1800000000000c30200000000000000000000000000000000000000000000000000052
:201a380000000000000000000000000000000000000000000000000000000000000000008e
:161a5800000000026036850c08000f985e43e0000000001cf040d3
:201a6e000000000000c3000000000000000000000000000000000000000000000000000095
:201a8e00000000000000000000000000000000000000000000000000000000000000000038
:171aae00000000000400e00540000018a0b03c00000000010f000044
:201ac500000000000c302000000000000000000000000000000000000000000000000000a5
:201ae5000000000000000000000000000000000000000000000000000000000000000000e1
:161b050000004102063e850c08000818f816a0001000381ef04046
:201b1b000000000000c30000000000000000000000000000000000000000000000000000e7
:201b3b0000000000000000000000000000000000000000000000000000000000000000008a
:171b5b00000000000401600540000050a9b69400000000010f000076
:201b7200000000000c302000000000000000000000000000000000000000000000000000f7
:201b9200000000000000000000000000000000000000000000000000000000000000000033
:161bb20000000001c01c850c0000080f3816a0000000000cf0406e
:201bc8000000000000c310000000000000000000000000000000000000000000000000002a
:201be8000000000000000000000000000000000000000000000000000000000000000000dd
:171c08000000000000014005450000108b229410000000010f0000c9
:201c1f00000000000c30200000000000000000000000000000000000000000000000000049
:201c3f000000000000000000000000000000000000000000000000000000000000008b7387
:161c5f00c001e010001c850c00000f0e7283e00e0000001ef040c3
:201c75000000000000c3100000000000000004000000000000000000000000000000000078
:201c95000000000000000000000000000000000000000000000000000000000000000070bf
:171cb50028001800000040054100001000703c00800000010f000006
:201ccc00000000000c3020000000000000000000000000000000000000000000000000009c
:201cec00000000000000000000000000000000000000000000000002cca500000000000065
:161d0c000000c001c654850c0000071d7783e0040000300ef040e5
:201d22000000000000c31000000000000000000000000000000000000000000000000000ce
:201d420000000000000000000000000000000000000000000000000035005080000000007c
:171d620000000c000021600541000001e0643c00c00000000f000047
:201d7900000000000c302000000000000000200000000000000000000000000000000000ce
:201d9900000000000000000000000000000000000000000000000028000000000000000002
:161db900000000006054850c0000001d36c3e8000000001cf04085
:201dcf000000000000c31001000000000000008000000000000000000000000000000000a0
:201def000000000000000000000000000000000000000000000000040000000000000000d0
:171e0f00000000000020600541000001f06c3c00000000010f00004d
:201e2600000000000c3220000000000000000000000000000000000000000000000000003e
:201e4600000000000000000000000000000000000000000000001c380000000000800000a8
:161e660000000000001e850c00000d8a7056a0000000381ef04034
:201e7c000000000000c3000000000000000000000000000000000000000000000000000083
:201e9c0000000000000000000000000000000040000000000001000000000000040b0000d6
:171ebc00000000100001400540000050e5a2940000e000000f00001f
:201ed300000000000c3020080000000000000000000000000000000000000000000000008b
:201ef3000000000000000000000000000000000000000000000000000000000000000000cf
:161f1300000000000616850c0000050b3816a00000000400000009
:201f29000000000000c310002000000000000008000000000000000000000000000000009d
:201f4900000000000000000000000000000000000000000000000000000000000007000071
:171f6900000000000000400540000050892e9480004003400000003e
:201f8000000000000c322000000000000000000000000000000000000000000000000000e3
:201fa00000000000000000000000000000000000000000000010000000000010000009f800
:161fc000004000026716850c000001803643e0000020001ef04073
:201fd6000000000000c3000000000000000000000000000000000000000000000000000028
:201ff600000000000000000000000000000000000000000000000000000000000000003893
:17201600028c20000441600540000050a0b43c000002c0010f000069
:20202d00000000000c30a000000000000000000000000000000000000000000000000000b7
:20204d0000000000000000000000000000000400000000000010000000000000408000009f
:16206d00000041020034850400040019f856a000102070000000b2
:202083000000000000c3000400000000000000000000000000000000000000000000000076
:2020a30000000000000000000000000000000000000000000000000000000000000b000012
:1720c300000000000402c00a40000000c9b694000002c7800000009a
:2020da000100002fcc30280000000000000000000000000000000000000000000000000092
:2020fa00000000000000000000000000000000250012a80000002060d8a440000058100043
:16211a000000002007a685000000079b104020000000001ef040fd
:2021300000100001c0c30000000400000000000000000000000000000000000000000000f7
:2021500000000000000000000000000000000005080002800000004007bb840000000d004d
:1721700000000000403850f000000000a02c0010000000000f0000b5
:202187000000001fec302000000000000000000000000000000000000000000000000000dd
:2021a70000000000000000000000000000000000400000000e00007bfd2f40800000000063
:1621c700000000014284efc000000d811840200e001e001ef0400c
:2021dd000000000000c310000000000000000000000000000000000000000000000000000f
:2021fd000000000000000000000000000000000000000000008000000eb0f4000000000090
:17221d0000000000142b7a5a00000050a0a80000800000010f01006e
:2022340000000001cc3020000000000000000000000000000000000000000000000000006d
:20225400000000000000000000000000000000000000000000002060000000000081a000c9
:162274000000000000668fa000000d801800200c0000000ef040b0
:20228a000000000000c3004000000000000000000000000000000000000000000000000031
:2022aa0000000000000000000000000000000000d0000000000001400000000000050000fe
:1722ca00000000001c3850f00000005000280000400000000f0000a2
:2022e100010000000c3024000000000000000000000000000000000000000000000000007c
:202301000000000000000000000000000000000000000000000000656e8140000000000028
:162321000000020002d78af00010081e780020000000001cf04037
:202337000000000000c30000020400000000000000000000000000000000000000000000bd
:2023570000000000000000000000000000000000000000000000000227a434000000000065
:17237700000000400036705a0002807000300000000000000f0000de
:20238e00000000000c30204000000000000000000000000000000000000000000000000093
:2023ae000000000000000000000000000000000000000000000014280000000000000128aa
:1623ce00fc0000000026850000000380700020000000200cf040e3
:2023e4000000000000c3100400000000000000000000000000000000000000000000000002
:20240400000000000000000000000000000000000000000000000020000000000000009206
:17242400c68000002c0270f0000000d800b000000001c7810f0000ed
:20243b000001c001ec30200000000000000000000000000000000000000000000000000083
:20245b000000000000000000000000000000000000000000000026021f85400280000000d3
:16247b00000000000004e30000000000384020000020040cf0406c
:202491000000000000c3100020000000000000000000000000000000000000000000000038
:2024b1000000000000000000000000000000000000000000000001400db4ac00000000005d
:1724d1000000000000037a5a00000000b0b800000002c3400f0000a1
:2024e80000000001cc322000000000000000000000000000000000000000000000000000b5
:20250800000000000000000000000000000000000000000000000032faf540000000000052
:16252800000000000237ef8000000000500020000020006eaa400d
:20253e000000000000c30000000000000000000000000000000000000000000000000000ba
:20255e000000000000000000000000000000000000000000000003403d0f040000000000ca
:17257e00000000004043fc7a00020000b02400000002c2810aa01078
:202595000001c001ec30a00000000000000020000000000000000000000000000000000088
:2025b5000000000000000000000000000000000000000000040000216ea44000000000008f
:1625d5000000000003c0000000000380180020000000381cf040ee
:2025eb000000000000c3000400000000000000800000000000000000000000000000000089
:20260b000000000000000000000000000000000000000000000000001fcbd40000000000f1
:17262b000000000000380000000000d8002400000001c0010f000093
:20264200000202060c30200000000000000000000000000000000000000000000000000012
:202662000000000000000000000000000000000000f2fd5010000000000000000000000009
:16268200000020000034a43000000000023c02000000015a0f80f0
:2026980000101c40e0c30040000000000000000000000000000000000000000000000000d3
:2026b800000000000000000000000000000000000003a6d504000000000000000000000080
:1726d800000000000002ec4a000400000003c05000000000d0f020bc
:2026ef00000003460c302040000000000000000000000000000000000000000000000000e6
:20270f00000000000000000000000000000380000100295010000000000000380000000065
:16272f0000000000000000000000000000000000000401c85588ea
:202745000000007020c30044000000000000000000000000000000000000000000000000dd
:202765000000000000000000000000000000200000e501694400000000000002028000001d
:17278500000000000000000000000000000000000000202eeaa080e5
:20279c000000400c0c30200000000000000000000000000000000000000000000000000075
:2027bc00000000000000000000000000000000080000000000000000fca000000081a373c2
:1627dc00150000020074acb00000000000000000002003e8558818
:2027f2000000002400c30040000000000000000000000000000000000000000000000000a0
:20281200000000000000000000000000000000001000000000000000010a0000000700bbc9
:17283200b2d200002c36ec5b00000000000000000000400ccaa000ac
:20284900010002040c3020000000000000000000000000000000000000000000000000000c
:20286900000000000000000001000000000020000000000000000000dca000000081876f3b
:1628890001020002004000000000000000000000002403e8558010
:20289f000000003400c30040000000000000000000000000000000000000000000000000e2
:2028bf00000000000000000000100000000001000000000000000000030a00000001007f5b
:1728df00395400002c34000000000000000000000042600ceaa0803d
:2028f6000002e00eac302000000000000000000000000000000000000000000000000000d6
:20291600000000000000000000000000000000200000000000000004000000000000f5aeda
:16293600910000000037a430000000000000000000346fe855808f
:20294c0080002c0030c300400000000000000000000000000000000000000000000000008c
:20296c0000000000000000000000000000000005000000000000000280000000000008b309
:17298c006f5200002425ed4a00000000000000000002c2aecaa08097
:2029a3000000021fac302040000000000000000000000000000000000000000008000000af
:2029c30000000000000000000000000000000008000000000000566c000000000018176e8d
:1629e3009d00000000000000000000000000000000366fe85580df
:2029f9000000000010c300400000000000000000000000000000000000000000014000006a
:202a190000000000000000000000000000000000d00000000000000280000000000008b78c
:172a390000d00000002400000000000000000000000142aeeaa08097
:202a5000000000168c30240000000000000000000000000000000000000000000000000070
:202a700000000000000000000000000000000000010000000000000000000000009980022a
:162a9000952200000037acb0000000000000000000346a6855800b
:202aa6008000000030c300000000000000000000000000000000000000000000000000009d
:202ac6000000000000000000000000000000000000a000000000000000000000008780b099
:172ae600169200000001ed5b00000000000000000002c014caa08028
:202afd0000004000ac3020000000000000000000000000000000000000000000000000007d
:202b1d000000000000000000000000000001000000000000000000000000001000000daad0
:162b3d0081000000c0000000000000000000000000366dc8558001
:202b53008000020000c30040100000000000000000000000000000000000000000000000cd
:202b7300000000000000000000000000000000000000000000000010000000000200005ed2
:172b9300ac1000000200000000000000000000000001428ceaa08094
:202baa00000000000c3020004000000000000000000000000000000000000000000000006f
:202bca00000000000000000000000000000000018000000000000003cd50c0800000e0002a
:162bea0000000000003ef30000000000073c1020000001c9558092
:202c00000010000000c300400200000000000000000000000000000000000000000000009f
:202c20000000000000000000000000000000000000000000000000003dc054000000100033
:172c40000000000000015978010000000043c0000000002eaaa0c06f
:202c5700000000000c302000004000000000000000000000000000000000000000000000c1
:202c770000000000000000000000000000038000001b14140e014003c850c0b80000000095
:162c9700000000000040000003800180033c1020001c01c95588b1
:202cad000000000000c3004000000000000000000000000000000000000000000000000004
:202ccd0000000000000000000000000000002000300143e9008008002c0054020000000060
:172ced000000000000300000002100080003c0000800002e8aa00054
:202d0400000000000c3038000000000000000000000000000000000000000000000000003b
:202d240000000000000000000000000000000000000000000c0000674850c0900001e00053
:162d4400000000000000000003000000063c1000000003e9558063
:202d5a000000000000c308000000000000000000000000000000000000000000000000008e
:202d7a000000000000000000000000000000000000000000000000023e00540300000000a2
:172d9a000000000000000000003000000003c0010000000caaa08454
:202db100000000000c302000000000000000000000000000000000000000000000000000a6
:202dd1000000000000000000000000000000000000000000000006674850c0800078006bba
:162df100c1800001400000000000000003bc1020001c03e9558876
:202e07000000000000c30000000000000000000000000000000000000000000000000000e8
:202e27000000000000000000000000000000000000000000000000022e0054000000000007
:172e47003c00000002000000000000000003c0000000000c8aa1003c
:202e5e00000000000c302000004000000000000000000000000000000000000000000000b8
:202e7e0000000000000000000000000000000000000000000000003be850c00000000023de
:162e9e00c1800001402cf3000000080007bc100000146fe9558061
:202eb4000000000000c300000000000000000000000000000000000000000000000000003b
:202ed4000000000000000000000000000000000000e00000000000003c0056000000000468
:172ef4003c0000000000cdb4008000500003c004000142aeaaa080b8
:202f0b00000000000c3020000000000000000000000000000000000000000000000000004a
:202f2b0000000000000000000000000000000000000000000000002b6850c0800000000063
:162f4b0000000002004000000000059b073c104000366fe9558098
:202f61000000000000c300000000000000000000000000000000000000000000000000008d
:202f81000000000000000000000000000000000000000000000001c42c00540000000000eb
:172fa10000000000342c000000000000a043c000006142ae8aa00893
:202fb800000000000c3020000000000000000000000000000000000000000000000000009d
:202fd8000000000000000000000000000000000000000000000026036850c0000000000038
:162ff80000000000002cffc000000588073c102000146dc95580b9
:20300e000000000000c30000000000000000000000000000000000000000000000000000df
:20302e000000000000000000000000000000000000000000000000403e00541000000000a0
:17304e00000000001428cdb4008000000003c0000001428caaa080d2
:20306500000000000c302000000000000000000000000000000000000000000000000000ef
:2030850000000000000000000000000000010000000000000400202b6850c1000000000062
:1630a50000000000000000000000080a07bc104000366dc95580af
:2030bb000000000000c3000000000000000000000000000000000000000000000000000032
:2030db000000000000000000000000000000000000000000000000442e005400000000000f
:1730fb00000000000c000000000000500043c0000009428c8aa080de
:20311200000000000c30200000000000000000000000000000000000000000000000000041
:20313200000000000000000000000000000000000100000000000003c850c0800000000021
:1631520000000002004df70004000000073c1000000039c85580f4
:203168008008000000c30000000000000000000000000000000000000000000000000000fc
:203188000000000000000000000000000000000000d000000000000034005440000000008f
:1731a800000000001c31dfa4000000000043c0000000042ebaa14070
:2031bf00020000000c30200000000000000080000000000000000000000000000000000012
:2031df0000000000000000000000000000000000080000000e00006bc850c0b80000007b44
:1631ff00c104e00200040a5403800000073c1000000001c855803d
:203215008040000000c3000000000000000000000000000000000000000000000000000016
:2032350000000000000000000000000000000000000000000080000024005402000000007f
:173255003c0008001c0000a5002000000043c0000000002e9aa000d2
:20326c00000000000c302000000000000000000000000000000000000000000000000000e6
:20328c0000000000000000000000000000000008001a94080c0000674850c0900000e00029
:1632ac0000004000000dff8003000000033c100000003be85580f6
:2032c2008000000000c30000000000000000000000000000000000000000000000000000a9
:2032e20000000000000000000000000000000000b0098000a1000002360054030000100053
:17330200000004000001dfb5081000000043c0200800040cbaa1006d
:20331900000000000c30200850000000000080000000000000000000000000000000000060
:2033390000000000000000000000000000000000000000000000066f4850c0800000000027
:16335900000000000000000000000000073c1200000003e8558049
:20336f000000000000c300010000000000000040000000000000000000000000000000003a
:20338f00000000000000000000000000000000000000000000000002260054000080000022
:1733af000000000000000000000000000003c0000000000c9aa010ee
:2033c600000400000c30200000000000000000000000000000000000000000000000000087
:2033e600000000000000000000000000000000000000000000000003e850c080000000004c
:1634060000000000600000000000051b033c100081146fe8558020
:20341c000000000000c30000000000000000000000000000000000000000000000000000cd
:20343c000000000000000000000000000000000000000000000000003400540000000000e8
:17345c00000000000000000000000050f003c020000142aebaa000eb
:20347300000000000c3020204000000000000000000000000000000000000000000000007d
:203493000000000000000000000000000000000000000000000000036850c080000000001e
:1634b3000000000000018f040000081b03bc100004366fe8558017
:2034c9000000000000c300001a000000000000000000000000000000000000000000000006
:2034e90000000000000000000000000000000000000000000000000024005400000000004b
:1735090000000000000000f008000050a043c020000142ae9aa080f5
:20352000000000000c3020000000000000000000000000000000000000000000000000002f
:203540000000000000000000000000000001000000000000000026036850c0800000000049
:1635600000000000c00000000000058a0029500000146dc855806f
:203576000000000000c300000004000000000000000000000000000000000000000000006e
:2035960000000000000000000000000000000000000000000000004036005400000000004b
:1735b600000000000000000000000000070168000001428cbaa00065
:2035cd00000000000c30200050000000000001000000000000000000000000000000000031
:2035ed0000000000000000000080000000000000000203c004002063e850c00000100000ea
:16360d000000000006c0000000000000033c100000366dc8558052
:203623000000000000c3000028000000000000080000000000000000000000000000000094
:20364300000000000000000000040000000000380000403c01000040260055000000800073
:173663000000000000680000000000000003c0200001428c9aa000fc
:20367a00000000000c312000000000000000000000000000000000000000000000000000d3
:20369a00000000000000000000000000000000000000000000000001c850c0000000000037
:1636ba00000000000000000000010180131c0020000001c955808a
:2036d0000000000000c3000000000000000000000000000000000000000000000000000017
:2036f0000000000000000000000000000000000000000000000000002c00545000000000ea
:17371000000000000000000000000000057690000000002efaa0408f
:20372700000000000c30302050000000000000000000000000000000000000000010000096
:2037470000000000000000000000000000038000000000000e000003c850e038000000009e
:163767000000e0020000000003805801063c1000010001c955809c
:20377d000000000000c3000000000000000000000000000000000000000000000000000069
:20379d000000000000000000000000000000200000000000008000002c00540200000000ea
:1737bd00000008001c000000002002909003c0000000002edaa00024
:2037d400000000000c30280000000000000000000000000000000000000000000000000071
:2037f400000000000000000000000000000000001876a9500c0000654850c0300000000035
:1638140000004001e700000003000700133e0020000003e955803a
:20382a000000000000c30000000000000000000000000000000000000000000000000000bb
:20384a0000000000000000000000000000000000000dc017200000022e00541300000000c3
:17386a0000000c0000000000003000080576d4000000000cfaa1000d
:20388100100000000c3028281000000000000000000000000000000000000000000000007b
:2038a100000000000000000000000000000000000182bc50000006674850c00000000000b3
:1638c100000000000000af048000018006bc1000000003e95580aa
:2038d7000000000000c30000100000000000000000000000000000000000000000000000fe
:2038f7000000000000000000000000000000000000dd7fc9201000022e00560000000000d6
:1739170000000000000000f000000008e003c0001000100cdaa00058
:20392e00000000000c3120001000000000000000000000000000000000000000000000000c
:20394e00000000000000000000000000000000000000000000000005e850c000000000005c
:16396e00000000000000000000000019fedc000000006c08f000ec
:203984000000000000c3000000000000000000000000000000000000000000000000000060
:2039a4000000000000000000000000000000000000000000000000036c0054000000000040
:1739c400000000000000000000000000d7f16080000002800f0000b3
:2039db00000000000c30282800000000000000000000000000000000000000000000000040
:2039fb000000000000000000000000000000000000000000008000636850c00000800000d1
:163a1b00000000000000000000005800063c10000036380000007d
:203a31000000000000c30000000000000000000000000000000000000000000000000000b2
:203a510000000000000000000000000000000030000000000004a0042c005400000b0000f2
:173a71000000000000000000000000d00043c000000140000000002a
:203a8800000000000c302800000000000000000000000000000000000000000000000000ba
:203aa8000000000000000000000000000000000001000000000026016850c0000001c0009d
:163ac800000000000000000000000008fefe000000006c00000078
:203ade000000000000c3000000000000000000000000000000000000000000000000000005
:203afe000000000000000000000000000000000000800000000000402e0054000000000066
:173b1e0000000000000000000000000107f1e84000000280000000ed
:203b3500000000000c3028601000000000008000000000000000000000000000000000001c
:203b55000000000000000000000000000001200000000000040020036850c0140000007309
:163b7500c104000000018f040800018100000000003638000000e9
:203b8b000000000000c30004180000000000004000000000000000000000000000000000fb
:203bab000000000000000000000000000000000000000000000000402e0054000000000038
:173bcb003c100000000000f000000000b000000000014000000000b6
:203be200010007808c30284000000000000000000000000000000000000000000000000017
:203c020000000000000000000000000000000000009e90c001000003c850c00000380b682d
:163c2200fc0000016684ad1508000801771c00200000000ef040e1
:203c38000010004350c3000400000000000000000000000000000000000000000000000002
:203c580000000000000000000000000000000000000339284000000034005440000000528e
:173c7800c68000000041ea524000009097f16000000000000f0000ab
:203c8f00000000000c302800000000000000000000000000000000000000000000000000b1
:203caf0000000000000000000000000000038001980000000e01003bc850c0388080073840
:163ccf00f509e000005ca854038000181029500e0c200418f040ff
:203ce5000000000000c30000000000000000000000000000000000000000000000000000fc
:203d050000000000000000000000000000002000090000000080080024005402008d0014d2
:173d25000f1008000039c84740200000000294008000c3400f000090
:203d3c00000007808c303000000000000000000000000000000000000000000000000000f4
:203d5c0000000000000000000000000000030000009eb2c00c0000674850c004000188726a
:163d7c0080000003c600000003000018773e000c0014001ef040aa
:203d92000000004010c30000000000000000000000000000000000000000000000000000fe
:203db200000000000000000000000000000010000003396c04000002360054004000001059
:173dd20014000000040000000030000107f1e801400043800f00009e
:203de900010000000c3030000000000000000000000000000000000000000000000000004d
:203e090000000000000000000000000000000008190000000000063f4850c00004f9ad72bf
:163e2900050800000014ec56002800000000000000000018f040b0
:203e3f000000000000c30000000000000000000000000000000000000000000000000000a0
:203e5f0000000000000000000000000000000000909000000000000226005400000190b85e
:173e7f0020d000000001e8c74800380000000000000000010f0010ec
:203e9600000000000c302800000000000000000000000000000000000000000000000000a8
:203eb60000000000000000000000000000000000019ec0c800808003e850c1000098076fbb
:163ed60045000001c000000000000000be5c00000c00000af04070
:203eec000000000000c30000000000000000000000000000000000000000000000000000f3
:203f0c000000000000000000000000000000002000ddf9680000100034005400000d00d2c0
:173f2c00e850000002000000000000300b729001000003010f0000f3
:203f4300000000000c302800000000000000000000000000010000000000000000000000f9
:203f63000000000000000000000000000000000000000000000000036850c00000198b6fb0
:163f83009d06000000000000000181da023c10000140041cf0404a
:203f99000000000000c3000000040000000000000000000000080000000000000000000039
:203fb9000000000000000000000000000000000030e000000000000024005500000b0077dd
:173fd90016d0000000000000000000b0d043c000000002c10f000096
:203ff000100000000c3028000000000000000000000000000000000000000000000000003d
:2040100000000000000000000000000000001023009ef3c0002026036850c04000f9e00032
:1640300000000002601eda440000019cbe7e00400020000af04069
:204046000100000000c3000000000000000000000000000000000000000000000000000096
:2040660000000000000000000000000000000084080df9680104004036005400000d000064
:17408600000000801c0369bd48000001cb72d400000340000f0010a2
:20409d00000000000c312000000000000000000000000000000000000000000000000000a6
:2040bd000000000000000000000000000000000380073c1004002063e8504050000009f7be
:1640dd00092040000040af040400000002bc10000020000af04045
:2040f3000000000000c30000100000000000000000000000000000000000000000000000da
:2041130000000000000000000000000000000000080043c00000004026005400410500334e
:1741330076d00100002010f0600000000043c000100340000f000049
:20414a000000c7bfcc3020800000000000000000000000000000000f2143020000000000be
:20416a0000000000000000000000000000001001809290c000002664ce0f800000000000db
:16418a00000004004634ea000840099b1303e0000000000b740056
:2041a0008010004260c30000000000000000000000000000000000007001508000000000c9
:2041c00000000000000000000000000000000000080f352804000043c080f00000000000f4
:1741e000000000a0020140f50000001990a03c000000001dab820021
:2041f7000001605dec3020000000000000000800000000003800000f2143020400000000f5
:20421700000040000000000000000000000040000000000000403e64ec0f800400000001a5
:164237006802000000000000002029807683e00e800001da0540b7
:20424d008000023c10c30000000000000000000000000000020000003001500080000000bd
:20426d000000000000000000000000000000000000000000000003c38180f000000000f08a
:17428d0029400000000000000000059800743c008400003405f400b3
:2042a40000000306ac3020000000000000000000000000000000019d2143000000000000f3
:2042c400000000000000000000000000000010081992b2c000000404df0fa000000000000f
:1642e4000000000342a4ef50000008011783e00000000400000015
:2042fa0000003c3410c3000000000000000000000000000000000008780150100000000080
:20431a0000000000000000000000000000000000919f356c010000230280f000100000000c
:17433a0000000008040150a000000090b0343c00000003800000003c
:204351000101c316ec3020c00000000000000000000000000000181d2143000000000000dc
:204371000000000000000000000000000000000000000000000000007c0f800000800000a1
:1643910000000001429faa50000000091bc3e000001c05daa020b8
:2043a7004000023c10c30004000000000000000000000000000000083801504000000000d0
:2043c7000000000000000000000000000000000000000000000000038390f00000010000cf
:1743e700000000003e2a40aa0100007180743c01000022000a01009d
:2043fe0000000004ac3020400000000000000000000000000000000fa14304000000000068
:20441e0000001000000000000000000000000080013a8940000014786a0f8040000005f22e
:16443e00940000e40001aa00000001095703e800000000000000f9
:204454000000000000c30004000000000000000000000000000000007001500000000000c0
:204474000000000000000000000000000000000000efec70010001e701a0f00000000fb0a4
:174494001540000000014050000000f880303c000000000000000047
:2044ab000000c015cc3020000000000000000000000000000500500da143000a00000000b0
:2044cb00000000000000000001000000000000000c00000001006670415a80000050000082
:1644eb00f00c1000603faa50000007087816a400000001dca00058
:204501000000023830c30000000000000000000000000000006800803001501040000000b4
:204521000000000000000000000000000000000001000000000002c33eca5000000000005c
:174541000f0000000000e0aa000000010f2e9400000002430a0000a9
:204558000001c3968c3020000000000000000000000000000000980da14300000000000084
:20457800000001000000000000000000000000000c3aab48000000057d0f800000001000c8
:1645980000000008004003c03000018e5e83e00000067b7e8162a0
:2045ae000000020030c30000000000000000000000000000000001407801501000000000de
:2045ce0000000000000000000000000000000000010fecf8000000c2c3e0f00400000a0076
:1745ee00000000012420003c00000000d0a43c000000003e0834000b
:2046050000004717ec3020000000000000000000000000001002d18fa143000000000000a5
:20462500000000000000000000000000000000000c00000000400470df0f800080000000c7
:1646450000000000c7b5aa5008039118f856a004002038000000eb
:20465b000000027420c300000000000000000000000000000000418038015010000000008c
:20467b000000000000000000000000000000000000000000000200e40190f00000000000b8
:17469b00000000000243700500400278dfa294000002c400000000b9
:2046b200000000000c302000001d7303e00000267c0000000000180f2143021000000000da
:2046d20000000000000000000000000000000000015629441000207de05a80003801c13073
:1646f20020000000003d8a50000009813016a000000003ccfa0042
:204708000010000000c300000001d0403c080002464000000000000050015101000000003e
:2047280000000001000000000000000000000000f0d74154600000460e8a5040028010fbb9
:17474800800000000002c05500000010832294100000000c0f0080cf
:20475f00080000000c30200000015283e000000004daa00038000005a14102000000000081
:20477f00000000000000000000000000000380080e80265080002e05cc0f80380000002b1a
:16479f00c1000000600003c020138f007b03e000000030000000d0
:2047b5000000000000c300000000c0403c000000024c0000020000001002900000000000f3
:2047d50000000000000000000000000000002000110b01980000406203c0f0020000000098
:1747f5003c1000000000003c0002801090603c000003c200000000a2
:20480c00100000000c3020000189d016a000000660000000000000000000000000000000aa
:20482c000000000000000000000000000001000801762940000000645e0f80100278ef3287
:16484c00800000020601c0f1000008195b83e0000000200000001d
:204862000100000000c300000010898294000000240000000000000000000000000000009f
:204882000000000000000000000004000000100010e1c154000000038290f00300409078ac
:1748a2003d4000001400000f00000070e0243c0000000400000000ab
:2048b900000000000c30200011817016a000002660000000000058000000000000000000ed
:2048d9000000000000000000000000000000000000000f08800000015c0f800000980000a4
:1648f900000000000074ea00002801005743e0004c9e026a002929
:20490f000000000000c3000018108982940000026400000000000000000000000000000098
:20492f0000000000000000000000000000000000000000f00000004003d0f0000001000074
:17494f0000000000002070f50000001800f03c001a12401700a00461
:20496600000400000c30201000487a83e0000036017c1a00000000000000000000000000cf
:204986000000000000000000000000000000000000d6294000000638ef0f800000180da24f
:1649a60080000001c234d0000040231c1ac3e00000040000000074
:2049bc000000000000c30000000000003c00000143b5900000000000000000000000000053
:2049dc00000000000000000000000000000002000001c2a8010000c30280f00000000074a4
:1749fc003d4000000041cd2000000030c0203c00000020000000008d
:204a1300000000000c30200000005a03e000000e61782002000000000000000000000000e1
:204a3300000000000000000000000000000028000800000000003c79e05a800000580dbaa5
:164a530080000003621fc5a03800039a7603e00400200000000092
:204a69000000000000c30000000000403c00000020070000000000000000000000000000c7
:204a89000000000000000000000000000000000000000000000003633cba5200012000340a
:174aa9003d4000003672e025114000b9c0ec3c800001c00000000099
:204ac000000000000c3020000b185e83e000000000e97400000080000000000000000000b9
:204ae000000000000000000000000000000000038100000000012076e15a80000071f0007f
:164b0000f00800020397ce402028081ab056a010002004000000b9
:204b16000000000000c30000001000803c000000002ded10100001000000000000000000b5
:204b3600000000000000000000000000000000000080000000000b46cc9a50000000880050
:174b56000f000000044030e4000002f103aa940000a3c280000000c8
:204b6d00000000000c30204058187b83e000001c004aa00010000000000000000000000028
:204b8d00000000000000000000800000000000000000000000000463e15a801005580000f9
:164bad0000000000430003c02003a318f856a00000000179fa109c
:204bc3000000000000c30004281000803c00000000000a000000000000000000000000000d
:204be3000000000000000000000000000000001000000000000000e3968a5000002000002f
:174c0300000000008240003c00000500dfb694000000003c9500009d
:204c1a00000000000c302000001a7203e00000800000000000000007e11c0000000001ef3b
:204c3a0004000000000000000000000000000b20009e1c0000812005400080000080030187
:164c5a006a00000002b5ea0000000381700020004020714c700098
:204c70000000000000c30002000100403c1000000000000000000000bff88000000000108b
:204c9000f02000000000000000000000000001050001b160000402c380e0004000010a9ace
:174cb00029400000000140f500002808c03400100803c01785800033
:204cc700000000000c30200853807303e000000000000000000081e0383c00e0000000008b
:204ce700000380000000000000000000000380051c00000000000e2c610080000000076004
:164d07003e000000000003c0200000003840200e0000041ef0407d
:204d1d000000000000c30001000000403c0000000000000000000f000403c2080000000056
:204d3d0000002000000000000000000000002001d80000000000002682c0000000050000d0
:174d5d0003c000000000003c000000d0003c0000800003c10f0000e1
:204d7400100000000c302000001d5783e0000000000000000000800b7c0c00400007800002
:204d9400000300000102bc1000000000000310000a9e3e0800003c0161008000001805a34e
:164db400c28000020675ca00000000007800200400062d4cf8004d
:204dca000100000000c30000000080c03c0000040000000000000f001ffcc00c000040004f
:204dea000000100000f043c001000000000032800101b1e800000142c0c0000000008e08ff
:174e0a0003c04000042170f50000011080300000c00003d787a00082
:204e2100000000000c302040418f7683e0000000000000000000000000000000000000002c
:204e410000000000000000000000000000000000000000000000607840008000000183a392
:164e6100c28000014015aa5000002500100020000420000ef040f2
:204e77000000000000c30004130080c03c00000000000000000000000000000000000000c5
:204e97000000000000000000000000000000000000800000000001c000e0000000001a00c0
:174eb70003c040000003e05500000408b0ac00000003c0000f00006f
:204ece00000000000c30200001407e03e000000000000000000000afa9d00000000000009e
:204eee0000000000000000000000000000000000005f5c0800000400610080000001e723f1
:164f0e00c2000000000003c020008001500020000000625b250015
:204f24000000000000c30000010080003c0000000000000000040f1b3b3440000000000010
:204f44000000000000f000000000000000000000900df1600001002000b000000400000892
:174f640003c040100000003c00000030a03c00000160001e92c0000a
:204f7b00000000000c30202800005a83e000000000000000000000000000000000000000d5
:204f9b000000000000000000000000000000100018000000000e1e0140008000008005a3b9
:164fbb00c2000000020005a000000f00700020000000000ef0409a
:204fd1000000000000c30000000000403c0000000000000000000d00000000000000000074
:204ff10000000000000000000000000000000200909000000000a04000c0000000050008d1
:1750110003c04000004240a50000005800200000000000010f0000d6
:20502800100000000c30201009985b03e0000000000000000000f8efb9d00000000000009d
:20504800000000000000000000000000000000600e5f7e0000101e014100800000180523cd
:16506800c2040002003eea0000000f8c58402000800c325bad0029
:20507e000100000000c30000001000803c00080000000000000007007bb4404000000000c4
:20509e0000000000000000000000000000000007000df1e80000004002f0000000000a08c1
:1750be0003c040003c2560f50002295800a000000000001e93d0007e
:2050d500000000000c3020001b8078002000000000000000004051c00000000100000000da
:2050f5000000040000000000000000000000040000073c100010403841008000400005238f
:16511500c2000100004003c0200400015840200012066800000061
:20512b000000000000c300000818e0000000000000000000000000980000000000002400e5
:20514b0000000000000000000000000000000000000043c000000800029000000280000025
:17516b0003c040002420003c01000030a03000001000040000000095
:20518200001000000c302000000a70002000001668400080000071c7343e0000000000af70
:2051a200040000000006bc10000000000000000000033c1000001c0008f0008000180123f8
:1651c200c2001000660005a00040000e023c00000000000000006e
:2051d8000000800000c300400001808000100000000000002000150f07c3c0000000000055
:2051f800f0004000009003c08000000000000008000003c002000240000f004000098000ad
:1752180003c10000043b40a5000000000003c01200000000000000c2
:20522f00000000000c30280005001a3c2000001668e8f080040039ef056a00e0000000002f
:20524f000003800000000000000000000003800000063c1011403e201e700000001807a3e8
:16526f00c200000000048a50001000000000000000000000000079
:205285000000000000c3000000d800003c0000000000bf00804005103269400800000000bb
:2052a50000002000000000000000000000002000909043c00012004414eb00100000800899
:1752c50003c00000000050aa00008000000000000000000000000095
:2052dc00100000000c31200000001a3c201200000449f08000000187283e0040000380004f
:2052fc000001000000000000000000000003000000802950000000034eaf0001000001a3f0
:16531c00c2800000070003c02000500872294000000020000000fc
:205332000100000000c30000000000003c0000000282cf000000010a0a03c00c003c0000e8
:2053520000001000000000000000000000001000000f0168020000401c05a0002000000080
:1753720003c000060028003c000000010bc2a8000000000000000081
:20538900000000000c303000000a7a3c2000002004e9f08000001985016a00000000000032
:2053a9000000000000000000000000000000000000063c1000000000ccfa0800305807a392
:1653c900c2000000000c8a5000000800000f00904140000a0f00e5
:2053df000000000000c300000001b0803c0100014280af00000000089ae940000000000040
:2053ff0000000000f00000000010000000000000000003c000000000020fa000000000001a
:17541f0003c24000000270aa000000300000f0001a08000100f01012
:205436000a0000000c3024000000123c200000000069f080008038c7e43e00000000000004
:205456000000000000000000000000000000000501073c10000020027ca500000010032364
:16547600c2041000000003c0200848015fabc0002000000000002c
:20548c000000000000c30000000000803c0100000000cf00001401080203c00000000000cf
:2054ac000000000000000000000000000000000000d003c000010052050aa000000000004b
:1754cc0003c041000024003c000142108d42940005000000000000aa
:2054e300000000000c31200000005a3c2040002000e9f0800010300d816a000000000000a5
:20550300000000000000000000000000000000010880295000100038003c0200008001235c
:16552300c2000020000005a000282000bf2bc000000000000000f9
:205539000000000000c30000300000803c000003c000bf0000000000d229400000000000e6
:2055590000000000000000000000000000000000099b0168000000040003c0000005000059
:1755790003c04000000340a5000004b0d581680000000000000000be
:20559000100000000c30288000015a3c20400e000069f08100009817816a0000040000008a
:2055b000000000000000000000000000000000000a80295020004000405a000000000026b8
:1655d0005a040000001fea000028401c5f814000000000000000ba
:2055e6000100800000c300000000c0803c0000034002cf00000001083a69400000000000e5
:2056060000000000000000000000000000000000000b0168000001c00005a00000000002a8
:175626009a404000000260f5000002009d4294000000000000000087
:20563d00000000000c302440000e123c2000000000e8f081014080b5b03e00010000000073
:20565d00000004000000000000000000000004000a03bc1001901e025e5000000059a3a34e
:16567d00c2002100004003c020040001733e8000100000000000cb
:205693000000000000c30004000100803c0100000000ef00002801180f03c0000000000070
:2056b30000000000000000000000000000000000000043c020040000240f0000000000007d
:1756d30003c040002420003c00001000e083e80010000000000000d2
:2056ea00000000218c3028000000323c2000a0160049f08000000007343e00000000000025
:20570a00000000000000000000000000000000000007bc1200002601dd0f80000080002275
:16572a005a0000006200000000005018565430000000000000006b
:205740000010000350c30000000000803c1000000000df00401000000643c100000000001e
:2057600000000000000000000000000000000000000003c00000026001c0f02040090003e7
:175780005a4100000000000000000001896c1501000000000000006b
:20579700000007800c302800000a7a3c200000000008f000380200177c3e00000000000024
:2057b700000380000000000000000000000380000007bc1200000070e9558001020007a31c
:1657d700c2000000001daa500380400a7214300000000000000060
:2057ed000000000000c300000001b0803c00000000000f000200500a0383c00000000000bb
:20580d0000002000000000000000000000002000000003c0000000042e9aa0000000000804
:17582d0003c00000000050aa00200200090015010000000000000066
:20584400100000018c312000000ab249c8000036000000000000000023c14000000000002f
:20586400000100071f00000000000000000100000e07bc1010002602e955800000000323ff
:16588400c2800000000003c0230008015214300000000000000047
:20589a000110000010c300000001bd33600000004000000000000000003c1000000000002d
:2058ba000000300009f000000000000000003000000043c0000002621cbaa1000000000097
:1758da0003c0400a0000003c003010108980150400000000000000fc
:2058f100010007800c30300005080683c0000000000000000000000000000000000000004d
:20591100000000000002bc12000000000000000000033c1040014071e95580001001e02690
:165931005a8000c20740c0f00000018b3a143000200000000000a3
:205947000000000000c30000000900003c0000000000000000000000000000000000000038
:2059670000000000000003c00010000000000000000043c000000806369aa00000001802b2
:17598700da4040000420000f00000000898015041400000000000046
:20599e00000000000c302400058a0283c000000000000000000000c00000000400000000f1
:2059be00000000000002bc1000000000000000000003bc1000000071e95581000178172349
:1659de00c20400040037ea00004010007a1430400000000000007a
:2059f4000000000000c30000000000403c00000002c0000000000000000000002000000072
:205a140000000000000043c08000000000000000009003c0400000041cbaa00000208a0830
:175a340003c040000c0350f5000000000900150000000000000000e6
:205a4b00000000000c30200000000283c0000000000000000000000000000000000000009a
:205a6b000000000000000000000000000000000000000000000c1e73c9558101000005a336
:165a8b00c2000000000003c0200000015a143020000000000000a1
:205aa1000000000000c30000009000403c0000e002400000000000000000000000000000f4
:205ac100000000000000000000000000000000000000000000040042369aa0000180000886
:175ae10003c040000000003c00001800d90015000000000000000069
:205af800100000000c30200000000603c000000603ea210000049800000000000010000099
:205b1800000000000000000000000000000000000003bc1000017e7949558000000007a3de
:165b3800c200000040368a000000018e5a1430000000000e0f004b
:205b4e000100000000c30000000000403c000000201ca7b000002140000000000000000003
:205b6e000000002800000000000000000000000050a043c02000086404baa01000000c08ee
:175b8e0003c04000020370f500000000098015200000030100f004dd
:205ba500000000000c302000000a0603c000003c03ccf5001000b0000000000000000000f1
:205bc5000000000000000000000000000000000d8100000000801e79495580040001b12324
:165be500c2000000000003c0210008187a14302004000000000002
:205bfb000000000000c30000000000403c000002c01d0a0000000f00000000000000000053
:205c1b000000000000000000000000000000000050a0000000040040049aa01000000900de
:175c3b0003c040000024003c00000010098015001000000000000031
:205c5200000000278c3020438701782662000000016d650000010000000000000000000090
:205c7200000012000000000000000000000040018010295000006600c9558000200003a3ec
:165c9200c2000002001eea5000081000f214304000000000000052
:205ca8000010000170c300040000d03664000000000cb6a0040320000000000000000000a1
:205cc8000000020000000000000000000000000008000294400002601cbaa04000000000c4
:175ce80003c10000040050aa000100000b00151000000000000000b2
:205cff0000000217ac3020000b8e3a5a62000000000c0f08000000000000000000000000be
:205d1f00000380000000000000000000000380000003bc1800000038e9558000000005a3e9
:165d3f00c2000202001dca0003800000f2143040000000000000a8
:205d55000000004030c30000003000a1a4000000038000f000000000000000000000000013
:205d750000002000000000000000000000002000000043c0000000043e9aa01000d000006f
:175d950003c000000403c0f5002000000b0015000000000000000038
:205dac00140000078c302000000e3225a000000001cd6500000000000000000000000000a8
:205dcc00000300000800000000000000000300001907bc1800802601c95580000081872345
:165dec00c2800000000003c023001019d2143000800000000000ba
:205e02000100000030c300000070002658000000001c96a10000000000000000000000004b
:205e220000001000010000000000000000001000019003c00000a2620cbaa000000b10085e
:175e420003c000000024003c001018008b801502006000000000007c
:205e59000101e217ac30200000003a65a2000000380e0f000000000000000000000000009c
:205e7900000000000000000000000000000000000007bc1800014038c9558800001807a34d
:165e9900c28000000000000000000181d2143040000000000000d9
:205eaf000000024030c300000000002658000001c00000f00000000000000000000000006f
:205ecf0000000000000000000000000000000000000003c000000806369aa00000108008da
:175eef0003c0400200000000000000008b8015001000000000000067
:205f0600041000078c30200387017225a800001c38000000028000000000000000000000e4
:205f2600000000000100000000000000000000000007bc1000042e07e9558000008003a36a
:165f4600c2040000003dca0000200001fa14300008000000000011
:205f5c0000a0800030c300000000b02e5800000342c00000001000000000000000000000c7
:205f7c000000000000e00000000000000000000000f043c0040003e3ccbaa01000550008b5
:175f9c0003c04000000060fa00001000db00152000c00000000000b1
:205fb30000000017ac302000080f7225a800002000ee550000020000000000000000000000
:205fd300000000000002bc1040000000000000000007bc1010002003c955810108598523f1
:165ff300c2000000404003c020000008da1430100000000000003d
:206009000000000030c3000000b0c0a258000002c3c30550000040000000000000000000fd
:2060290000000000000043c00000000000000000000043c0000003c2369aa0000000000814
:1760490003c040002620003c000000008b001500000000000000001b
:20606000100000078c302010081c5265a00000343fcc6303000000000000000000000000fd
:20608000000001800000000000000000000000001a02bc1000000e79495580002038152065
:1660a0003c0000006074ea5000280980da143020a0000000000011
:2060b6000100000030c300008031003a58020002674f09c000000000000000000000000010
:2060d60000000002000000000000000000000000000043c02000006644baa08000808a7087
:1760f6003c005000002ef0aa000010100b801500000000000000007f
:20610d0000000017ac3020000b801a65a0000000000c0f000000000000000000000000009a
:20612d000000000000000000000000000000010d9b02bc1000800001495580000001a0306b
:16614d003c000000000003c021000818fa1430200000000000009e
:206163000000000030c300000038003658200000000100f000000000000000000000000052
:206183000000000000000000000000000000000050a043c020040040049aa1002000000046
:1761a30003c000402400003c000000100b80150010000000000000c2
:2061ba00000000000c302000081c5265a000000000000000000000000000000000000000ee
:2061da00000000000000000000000000000000000003bc1400022602c955880000f999016f
:1661fa006a0000000000000000000000f2143200010000000000ec
:206210000010000000c30000003100ba581000000000000000000000000000000000000048
:2062300000000000000000000000000000000000000003c0000002600cfaa0500001881298
:176250002940000000000000000000000b0015100008000000000096
:20626700000000000c30200000001265a000000000000000000000000000000000000000a4
:20628700000000000000000000000000000380000000295800000002e8558800009993b848
:1662a7003e00e0000000cf0403800000f214320000000000000035
:2062bd000000000000c300000000003a58000000000000000000000000000000000000006c
:2062dd0000000000000000000000000000002000000f0168000000000efaa010000708073b
:1762fd00c3c40808000000f0012000000f00150000000000000000be
:20631400100000000c302000001b1225a010000000000000000000000000000000000000fb
:20633400000000000000000000000000000100099f06bc1400802601c9558000380003f05a
:166354003e004000038000000120400fd2143200000000000000aa
:20636a000100000000c300000001c0ba58000000000000000000000000000000000000007c
:20638a0000000000000000000000000000003000999003c0000002620cfaa010000b000aa8
:1763aa0043c00c0000400000003002008b801500000000000000003b
:2063c100000000000c30200000005265a00000000000000000000000000000000000000009
:2063e100000000000000000000000000000000000080295800000000c8558000140007786b
:166401003e0000000000cf0400000181f2143200ca0000000000f0
:206417000000000000c30000000000b6580200000000000000000000000000000000000092
:2064370000000000000000000000000000000000108d01680000004236faa01000130906fb
:1764570043c00000000010f0010000008f8015000000000000000006
:20646e00000000000c302000039c30002000000000000000000000000000000000000000c3
:20648e00000000000000000000000000000003c00002bc1800002e05695580000039d5b026
:1664ae003e8000020040000000000000fa1430200000000000007a
:2064c4000000000000c300000009002c0000000000000000000000000000000000000000c0
:2064e40000000000000000000000000000000000000003c0000003e3dcfaa200000f9f03c6
:1765040003c000001c380000000028000b00150000400000000000e1
:20651b00000000000c302000001c5000200000000000000000000000000000000000000078
:20653b00000000000000000000000000000000000002bc1800000e03c855800108f0f305cb
:16655b006a0004020041cf0410000001da14300000000000000077
:206571000000000000c30000000000b4000000000000000000000000000000000000000093
:2065910000000000000000000000000000000000000003c00000004236faa280008b1fba2f
:1765b100294000801c3800f000000000ef0015200000000000000082
:2065c800100000000c302000070078002000000000000000000000000000000000000000a8
:2065e800000000000000000000000000000030000002bc1000001e79495580000078fd0566
:166608006a0000000000000000080998da1430200000000000002b
:20661e000100000000c300000000e0ac00000000000000000000000000000000000000000c
:20663e0000000000000000000000000000000280108043c08000006784faa20000000e72a0
:17665e006940000000000000000100100b80150000000000000000cb
:20667500000000000c3020280381500020000000000000000000000000000000000000008d
:20669500000000000000000000000000000000000000000000000071485580040038eb85ab
:1666b5006a0010000001cf0411800819fa14302001400000000030
:2066cb000000000000c300000078d0bc0000000000000000000000000000000000000000e8
:2066eb0000000000000000000000000000000000000000000000000404faa200000080da91
:17670b0069400000000010f000000010ef801500000000000000003a
